{
	"Desktop/solidity/Transaction/contracts/Overflow.sol": {
		"Overflow": {
			"abi": [
				{
					"inputs": [],
					"name": "overflow",
					"outputs": [
						{
							"internalType": "uint256",
							"name": "",
							"type": "uint256"
						}
					],
					"stateMutability": "view",
					"type": "function"
				}
			],
			"devdoc": {
				"kind": "dev",
				"methods": {},
				"version": 1
			},
			"evm": {
				"assembly": "    /* \"Desktop/solidity/Transaction/contracts/Overflow.sol\":62:249  contract Overflow {... */\n  mstore(0x40, 0x80)\n  callvalue\n  dup1\n  iszero\n  tag_1\n  jumpi\n  0x00\n  dup1\n  revert\ntag_1:\n  pop\n  dataSize(sub_0)\n  dup1\n  dataOffset(sub_0)\n  0x00\n  codecopy\n  0x00\n  return\nstop\n\nsub_0: assembly {\n        /* \"Desktop/solidity/Transaction/contracts/Overflow.sol\":62:249  contract Overflow {... */\n      mstore(0x40, 0x80)\n      callvalue\n      dup1\n      iszero\n      tag_1\n      jumpi\n      0x00\n      dup1\n      revert\n    tag_1:\n      pop\n      jumpi(tag_2, lt(calldatasize, 0x04))\n      shr(0xe0, calldataload(0x00))\n      dup1\n      0x4264c3\n      eq\n      tag_3\n      jumpi\n    tag_2:\n      0x00\n      dup1\n      revert\n        /* \"Desktop/solidity/Transaction/contracts/Overflow.sol\":87:246  function overflow() public view returns (uint256) {... */\n    tag_3:\n      tag_4\n      tag_5\n      jump\t// in\n    tag_4:\n      mload(0x40)\n      tag_6\n      swap2\n      swap1\n      tag_7\n      jump\t// in\n    tag_6:\n      mload(0x40)\n      dup1\n      swap2\n      sub\n      swap1\n      return\n    tag_5:\n        /* \"Desktop/solidity/Transaction/contracts/Overflow.sol\":128:135  uint256 */\n      0x00\n        /* \"Desktop/solidity/Transaction/contracts/Overflow.sol\":148:159  uint256 big */\n      dup1\n        /* \"Desktop/solidity/Transaction/contracts/Overflow.sol\":176:179  100 */\n      0x64\n        /* \"Desktop/solidity/Transaction/contracts/Overflow.sol\":162:165  255 */\n      0xff\n        /* \"Desktop/solidity/Transaction/contracts/Overflow.sol\":162:180  255 + uint256(100) */\n      tag_9\n      swap2\n      swap1\n      tag_10\n      jump\t// in\n    tag_9:\n        /* \"Desktop/solidity/Transaction/contracts/Overflow.sol\":148:180  uint256 big = 255 + uint256(100) */\n      swap1\n      pop\n        /* \"Desktop/solidity/Transaction/contracts/Overflow.sol\":235:238  big */\n      dup1\n        /* \"Desktop/solidity/Transaction/contracts/Overflow.sol\":228:238  return big */\n      swap2\n      pop\n      pop\n        /* \"Desktop/solidity/Transaction/contracts/Overflow.sol\":87:246  function overflow() public view returns (uint256) {... */\n      swap1\n      jump\t// out\n        /* \"#utility.yul\":7:84   */\n    tag_11:\n        /* \"#utility.yul\":44:51   */\n      0x00\n        /* \"#utility.yul\":73:78   */\n      dup2\n        /* \"#utility.yul\":62:78   */\n      swap1\n      pop\n        /* \"#utility.yul\":7:84   */\n      swap2\n      swap1\n      pop\n      jump\t// out\n        /* \"#utility.yul\":90:208   */\n    tag_12:\n        /* \"#utility.yul\":177:201   */\n      tag_17\n        /* \"#utility.yul\":195:200   */\n      dup2\n        /* \"#utility.yul\":177:201   */\n      tag_11\n      jump\t// in\n    tag_17:\n        /* \"#utility.yul\":172:175   */\n      dup3\n        /* \"#utility.yul\":165:202   */\n      mstore\n        /* \"#utility.yul\":90:208   */\n      pop\n      pop\n      jump\t// out\n        /* \"#utility.yul\":214:436   */\n    tag_7:\n        /* \"#utility.yul\":307:311   */\n      0x00\n        /* \"#utility.yul\":345:347   */\n      0x20\n        /* \"#utility.yul\":334:343   */\n      dup3\n        /* \"#utility.yul\":330:348   */\n      add\n        /* \"#utility.yul\":322:348   */\n      swap1\n      pop\n        /* \"#utility.yul\":358:429   */\n      tag_19\n        /* \"#utility.yul\":426:427   */\n      0x00\n        /* \"#utility.yul\":415:424   */\n      dup4\n        /* \"#utility.yul\":411:428   */\n      add\n        /* \"#utility.yul\":402:408   */\n      dup5\n        /* \"#utility.yul\":358:429   */\n      tag_12\n      jump\t// in\n    tag_19:\n        /* \"#utility.yul\":214:436   */\n      swap3\n      swap2\n      pop\n      pop\n      jump\t// out\n        /* \"#utility.yul\":442:622   */\n    tag_13:\n        /* \"#utility.yul\":490:567   */\n      0x4e487b7100000000000000000000000000000000000000000000000000000000\n        /* \"#utility.yul\":487:488   */\n      0x00\n        /* \"#utility.yul\":480:568   */\n      mstore\n        /* \"#utility.yul\":587:591   */\n      0x11\n        /* \"#utility.yul\":584:585   */\n      0x04\n        /* \"#utility.yul\":577:592   */\n      mstore\n        /* \"#utility.yul\":611:615   */\n      0x24\n        /* \"#utility.yul\":608:609   */\n      0x00\n        /* \"#utility.yul\":601:616   */\n      revert\n        /* \"#utility.yul\":628:819   */\n    tag_10:\n        /* \"#utility.yul\":668:671   */\n      0x00\n        /* \"#utility.yul\":687:707   */\n      tag_22\n        /* \"#utility.yul\":705:706   */\n      dup3\n        /* \"#utility.yul\":687:707   */\n      tag_11\n      jump\t// in\n    tag_22:\n        /* \"#utility.yul\":682:707   */\n      swap2\n      pop\n        /* \"#utility.yul\":721:741   */\n      tag_23\n        /* \"#utility.yul\":739:740   */\n      dup4\n        /* \"#utility.yul\":721:741   */\n      tag_11\n      jump\t// in\n    tag_23:\n        /* \"#utility.yul\":716:741   */\n      swap3\n      pop\n        /* \"#utility.yul\":764:765   */\n      dup3\n        /* \"#utility.yul\":761:762   */\n      dup3\n        /* \"#utility.yul\":757:766   */\n      add\n        /* \"#utility.yul\":750:766   */\n      swap1\n      pop\n        /* \"#utility.yul\":785:788   */\n      dup1\n        /* \"#utility.yul\":782:783   */\n      dup3\n        /* \"#utility.yul\":779:789   */\n      gt\n        /* \"#utility.yul\":776:812   */\n      iszero\n      tag_24\n      jumpi\n        /* \"#utility.yul\":792:810   */\n      tag_25\n      tag_13\n      jump\t// in\n    tag_25:\n        /* \"#utility.yul\":776:812   */\n    tag_24:\n        /* \"#utility.yul\":628:819   */\n      swap3\n      swap2\n      pop\n      pop\n      jump\t// out\n\n    auxdata: 0xa26469706673582212203984f76ca68474d9c72064f760f3d1f0b08ab95705ca2934a3c79b7727d8f03064736f6c634300081a0033\n}\n",
				"bytecode": {
					"linkReferences": {},
					"object": "6080604052348015600e575f80fd5b506101168061001c5f395ff3fe6080604052348015600e575f80fd5b50600436106025575f3560e01c80624264c3146029575b5f80fd5b602f6043565b604051603a91906070565b60405180910390f35b5f80606460ff6051919060b4565b90508091505090565b5f819050919050565b606a81605a565b82525050565b5f60208201905060815f8301846063565b92915050565b7f4e487b71000000000000000000000000000000000000000000000000000000005f52601160045260245ffd5b5f60bc82605a565b915060c583605a565b925082820190508082111560da5760d96087565b5b9291505056fea26469706673582212203984f76ca68474d9c72064f760f3d1f0b08ab95705ca2934a3c79b7727d8f03064736f6c634300081a0033",
					"opcodes": "PUSH1 0x80 PUSH1 0x40 MSTORE CALLVALUE DUP1 ISZERO PUSH1 0xE JUMPI PUSH0 DUP1 REVERT JUMPDEST POP PUSH2 0x116 DUP1 PUSH2 0x1C PUSH0 CODECOPY PUSH0 RETURN INVALID PUSH1 0x80 PUSH1 0x40 MSTORE CALLVALUE DUP1 ISZERO PUSH1 0xE JUMPI PUSH0 DUP1 REVERT JUMPDEST POP PUSH1 0x4 CALLDATASIZE LT PUSH1 0x25 JUMPI PUSH0 CALLDATALOAD PUSH1 0xE0 SHR DUP1 PUSH3 0x4264C3 EQ PUSH1 0x29 JUMPI JUMPDEST PUSH0 DUP1 REVERT JUMPDEST PUSH1 0x2F PUSH1 0x43 JUMP JUMPDEST PUSH1 0x40 MLOAD PUSH1 0x3A SWAP2 SWAP1 PUSH1 0x70 JUMP JUMPDEST PUSH1 0x40 MLOAD DUP1 SWAP2 SUB SWAP1 RETURN JUMPDEST PUSH0 DUP1 PUSH1 0x64 PUSH1 0xFF PUSH1 0x51 SWAP2 SWAP1 PUSH1 0xB4 JUMP JUMPDEST SWAP1 POP DUP1 SWAP2 POP POP SWAP1 JUMP JUMPDEST PUSH0 DUP2 SWAP1 POP SWAP2 SWAP1 POP JUMP JUMPDEST PUSH1 0x6A DUP2 PUSH1 0x5A JUMP JUMPDEST DUP3 MSTORE POP POP JUMP JUMPDEST PUSH0 PUSH1 0x20 DUP3 ADD SWAP1 POP PUSH1 0x81 PUSH0 DUP4 ADD DUP5 PUSH1 0x63 JUMP JUMPDEST SWAP3 SWAP2 POP POP JUMP JUMPDEST PUSH32 0x4E487B7100000000000000000000000000000000000000000000000000000000 PUSH0 MSTORE PUSH1 0x11 PUSH1 0x4 MSTORE PUSH1 0x24 PUSH0 REVERT JUMPDEST PUSH0 PUSH1 0xBC DUP3 PUSH1 0x5A JUMP JUMPDEST SWAP2 POP PUSH1 0xC5 DUP4 PUSH1 0x5A JUMP JUMPDEST SWAP3 POP DUP3 DUP3 ADD SWAP1 POP DUP1 DUP3 GT ISZERO PUSH1 0xDA JUMPI PUSH1 0xD9 PUSH1 0x87 JUMP JUMPDEST JUMPDEST SWAP3 SWAP2 POP POP JUMP INVALID LOG2 PUSH5 0x6970667358 0x22 SLT KECCAK256 CODECOPY DUP5 0xF7 PUSH13 0xA68474D9C72064F760F3D1F0B0 DUP11 0xB9 JUMPI SDIV 0xCA 0x29 CALLVALUE LOG3 0xC7 SWAP12 PUSH24 0x27D8F03064736F6C634300081A0033000000000000000000 "
				},
				"gasEstimates": {
					"creation": {
						"codeDepositCost": "55600",
						"executionCost": "103",
						"totalCost": "55703"
					},
					"external": {
						"overflow()": "infinite"
					}
				},
				"methodIdentifiers": {
					"overflow()": "004264c3"
				}
			},
			"storageLayout": {
				"storage": [],
				"types": null
			},
			"userdoc": {
				"kind": "user",
				"methods": {},
				"version": 1
			}
		}
	}
}