{
  "_format": "hh-sol-artifact-1",
  "contractName": "SimpleRegister",
  "sourceName": "contracts/UserRegistry.sol",
  "abi": [
    {
      "inputs": [
        {
          "internalType": "address",
          "name": "_user",
          "type": "address"
        }
      ],
      "name": "getName",
      "outputs": [
        {
          "internalType": "string",
          "name": "",
          "type": "string"
        }
      ],
      "stateMutability": "view",
      "type": "function"
    },
    {
      "inputs": [
        {
          "internalType": "string",
          "name": "_name",
          "type": "string"
        }
      ],
      "name": "register",
      "outputs": [],
      "stateMutability": "nonpayable",
      "type": "function"
    }
  ],
  "bytecode": "0x608060405234801561001057600080fd5b50610843806100206000396000f3fe608060405234801561001057600080fd5b50600436106100365760003560e01c80635fd4b08a1461003b578063f2c298be1461006b575b600080fd5b6100556004803603810190610050919061025c565b610087565b6040516100629190610319565b60405180910390f35b61008560048036038101906100809190610470565b610157565b005b60606000808373ffffffffffffffffffffffffffffffffffffffff1673ffffffffffffffffffffffffffffffffffffffff16815260200190815260200160002080546100d2906104e8565b80601f01602080910402602001604051908101604052809291908181526020018280546100fe906104e8565b801561014b5780601f106101205761010080835404028352916020019161014b565b820191906000526020600020905b81548152906001019060200180831161012e57829003601f168201915b50505050509050919050565b600081511161019b576040517f08c379a000000000000000000000000000000000000000000000000000000000815260040161019290610565565b60405180910390fd5b806000803373ffffffffffffffffffffffffffffffffffffffff1673ffffffffffffffffffffffffffffffffffffffff16815260200190815260200160002090816101e6919061073b565b5050565b6000604051905090565b600080fd5b600080fd5b600073ffffffffffffffffffffffffffffffffffffffff82169050919050565b6000610229826101fe565b9050919050565b6102398161021e565b811461024457600080fd5b50565b60008135905061025681610230565b92915050565b600060208284031215610272576102716101f4565b5b600061028084828501610247565b91505092915050565b600081519050919050565b600082825260208201905092915050565b60005b838110156102c35780820151818401526020810190506102a8565b60008484015250505050565b6000601f19601f8301169050919050565b60006102eb82610289565b6102f58185610294565b93506103058185602086016102a5565b61030e816102cf565b840191505092915050565b6000602082019050818103600083015261033381846102e0565b905092915050565b600080fd5b600080fd5b7f4e487b7100000000000000000000000000000000000000000000000000000000600052604160045260246000fd5b61037d826102cf565b810181811067ffffffffffffffff8211171561039c5761039b610345565b5b80604052505050565b60006103af6101ea565b90506103bb8282610374565b919050565b600067ffffffffffffffff8211156103db576103da610345565b5b6103e4826102cf565b9050602081019050919050565b82818337600083830152505050565b600061041361040e846103c0565b6103a5565b90508281526020810184848401111561042f5761042e610340565b5b61043a8482856103f1565b509392505050565b600082601f8301126104575761045661033b565b5b8135610467848260208601610400565b91505092915050565b600060208284031215610486576104856101f4565b5b600082013567ffffffffffffffff8111156104a4576104a36101f9565b5b6104b084828501610442565b91505092915050565b7f4e487b7100000000000000000000000000000000000000000000000000000000600052602260045260246000fd5b6000600282049050600182168061050057607f821691505b602082108103610513576105126104b9565b5b50919050565b7f4e616d652063616e6e6f7420626520656d707479000000000000000000000000600082015250565b600061054f601483610294565b915061055a82610519565b602082019050919050565b6000602082019050818103600083015261057e81610542565b9050919050565b60008190508160005260206000209050919050565b60006020601f8301049050919050565b600082821b905092915050565b6000600883026105e77fffffffffffffffffffffffffffffffffffffffffffffffffffffffffffffffff826105aa565b6105f186836105aa565b95508019841693508086168417925050509392505050565b6000819050919050565b6000819050919050565b600061063861063361062e84610609565b610613565b610609565b9050919050565b6000819050919050565b6106528361061d565b61066661065e8261063f565b8484546105b7565b825550505050565b600090565b61067b61066e565b610686818484610649565b505050565b5b818110156106aa5761069f600082610673565b60018101905061068c565b5050565b601f8211156106ef576106c081610585565b6106c98461059a565b810160208510156106d8578190505b6106ec6106e48561059a565b83018261068b565b50505b505050565b600082821c905092915050565b6000610712600019846008026106f4565b1980831691505092915050565b600061072b8383610701565b9150826002028217905092915050565b61074482610289565b67ffffffffffffffff81111561075d5761075c610345565b5b61076782546104e8565b6107728282856106ae565b600060209050601f8311600181146107a55760008415610793578287015190505b61079d858261071f565b865550610805565b601f1984166107b386610585565b60005b828110156107db578489015182556001820191506020850194506020810190506107b6565b868310156107f857848901516107f4601f891682610701565b8355505b6001600288020188555050505b50505050505056fea264697066735822122030cc3375a80b1fbb1b9c68d7b164aa29529fdaf54be1205b79ed7d0d68e866d064736f6c63430008180033",
  "linkReferences": {},
  "deployedLinkReferences": {}
}