{
  "_format": "hh-sol-artifact-1",
  "contractName": "UserRegistry",
  "sourceName": "contracts/UserRegistry.sol",
  "abi": [
    {
      "anonymous": false,
      "inputs": [
        {
          "indexed": true,
          "internalType": "address",
          "name": "userAddress",
          "type": "address"
        },
        {
          "indexed": false,
          "internalType": "string",
          "name": "username",
          "type": "string"
        }
      ],
      "name": "UserRegistered",
      "type": "event"
    },
    {
      "inputs": [
        {
          "internalType": "string",
          "name": "_password",
          "type": "string"
        }
      ],
      "name": "checkPassword",
      "outputs": [
        {
          "internalType": "bool",
          "name": "",
          "type": "bool"
        }
      ],
      "stateMutability": "view",
      "type": "function"
    },
    {
      "inputs": [
        {
          "internalType": "address",
          "name": "_userAddress",
          "type": "address"
        }
      ],
      "name": "getUsername",
      "outputs": [
        {
          "internalType": "string",
          "name": "",
          "type": "string"
        }
      ],
      "stateMutability": "view",
      "type": "function"
    },
    {
      "inputs": [
        {
          "internalType": "string",
          "name": "_username",
          "type": "string"
        },
        {
          "internalType": "string",
          "name": "_password",
          "type": "string"
        }
      ],
      "name": "register",
      "outputs": [],
      "stateMutability": "nonpayable",
      "type": "function"
    }
  ],
  "bytecode": "0x608060405234801561001057600080fd5b50610c77806100206000396000f3fe608060405234801561001057600080fd5b50600436106100415760003560e01c80633ffbd47f1461004657806387e16d4d14610062578063ce43c03214610092575b600080fd5b610060600480360381019061005b919061060b565b6100c2565b005b61007c60048036038101906100779190610683565b610246565b60405161008991906106e7565b60405180910390f35b6100ac60048036038101906100a79190610760565b61034e565b6040516100b9919061080c565b60405180910390f35b60008060003373ffffffffffffffffffffffffffffffffffffffff1673ffffffffffffffffffffffffffffffffffffffff16815260200190815260200160002060000180546101109061085d565b905014610152576040517f08c379a0000000000000000000000000000000000000000000000000000000008152600401610149906108da565b60405180910390fd5b6000816040516020016101659190610936565b6040516020818303038152906040528051906020012090506040518060400160405280848152602001828152506000803373ffffffffffffffffffffffffffffffffffffffff1673ffffffffffffffffffffffffffffffffffffffff16815260200190815260200160002060008201518160000190816101e59190610b03565b50602082015181600101559050503373ffffffffffffffffffffffffffffffffffffffff167f48cac28ad4dc618e15f4c2dd5e97751182f166de97b25618318b2112aa951a2f84604051610239919061080c565b60405180910390a2505050565b6000806000803373ffffffffffffffffffffffffffffffffffffffff1673ffffffffffffffffffffffffffffffffffffffff16815260200190815260200160002060000180546102959061085d565b9050036102d7576040517f08c379a00000000000000000000000000000000000000000000000000000000081526004016102ce90610c21565b60405180910390fd5b6000826040516020016102ea9190610936565b604051602081830303815290604052805190602001209050806000803373ffffffffffffffffffffffffffffffffffffffff1673ffffffffffffffffffffffffffffffffffffffff1681526020019081526020016000206001015414915050919050565b606060008060008473ffffffffffffffffffffffffffffffffffffffff1673ffffffffffffffffffffffffffffffffffffffff168152602001908152602001600020600001805461039e9061085d565b9050036103e0576040517f08c379a00000000000000000000000000000000000000000000000000000000081526004016103d790610c21565b60405180910390fd5b6000808373ffffffffffffffffffffffffffffffffffffffff1673ffffffffffffffffffffffffffffffffffffffff168152602001908152602001600020600001805461042c9061085d565b80601f01602080910402602001604051908101604052809291908181526020018280546104589061085d565b80156104a55780601f1061047a576101008083540402835291602001916104a5565b820191906000526020600020905b81548152906001019060200180831161048857829003601f168201915b50505050509050919050565b6000604051905090565b600080fd5b600080fd5b600080fd5b600080fd5b6000601f19601f8301169050919050565b7f4e487b7100000000000000000000000000000000000000000000000000000000600052604160045260246000fd5b610518826104cf565b810181811067ffffffffffffffff82111715610537576105366104e0565b5b80604052505050565b600061054a6104b1565b9050610556828261050f565b919050565b600067ffffffffffffffff821115610576576105756104e0565b5b61057f826104cf565b9050602081019050919050565b82818337600083830152505050565b60006105ae6105a98461055b565b610540565b9050828152602081018484840111156105ca576105c96104ca565b5b6105d584828561058c565b509392505050565b600082601f8301126105f2576105f16104c5565b5b813561060284826020860161059b565b91505092915050565b60008060408385031215610622576106216104bb565b5b600083013567ffffffffffffffff8111156106405761063f6104c0565b5b61064c858286016105dd565b925050602083013567ffffffffffffffff81111561066d5761066c6104c0565b5b610679858286016105dd565b9150509250929050565b600060208284031215610699576106986104bb565b5b600082013567ffffffffffffffff8111156106b7576106b66104c0565b5b6106c3848285016105dd565b91505092915050565b60008115159050919050565b6106e1816106cc565b82525050565b60006020820190506106fc60008301846106d8565b92915050565b600073ffffffffffffffffffffffffffffffffffffffff82169050919050565b600061072d82610702565b9050919050565b61073d81610722565b811461074857600080fd5b50565b60008135905061075a81610734565b92915050565b600060208284031215610776576107756104bb565b5b60006107848482850161074b565b91505092915050565b600081519050919050565b600082825260208201905092915050565b60005b838110156107c75780820151818401526020810190506107ac565b60008484015250505050565b60006107de8261078d565b6107e88185610798565b93506107f88185602086016107a9565b610801816104cf565b840191505092915050565b6000602082019050818103600083015261082681846107d3565b905092915050565b7f4e487b7100000000000000000000000000000000000000000000000000000000600052602260045260246000fd5b6000600282049050600182168061087557607f821691505b6020821081036108885761088761082e565b5b50919050565b7f5573657220616c72656164792072656769737465726564000000000000000000600082015250565b60006108c4601783610798565b91506108cf8261088e565b602082019050919050565b600060208201905081810360008301526108f3816108b7565b9050919050565b600081905092915050565b60006109108261078d565b61091a81856108fa565b935061092a8185602086016107a9565b80840191505092915050565b60006109428284610905565b915081905092915050565b60008190508160005260206000209050919050565b60006020601f8301049050919050565b600082821b905092915050565b6000600883026109af7fffffffffffffffffffffffffffffffffffffffffffffffffffffffffffffffff82610972565b6109b98683610972565b95508019841693508086168417925050509392505050565b6000819050919050565b6000819050919050565b6000610a006109fb6109f6846109d1565b6109db565b6109d1565b9050919050565b6000819050919050565b610a1a836109e5565b610a2e610a2682610a07565b84845461097f565b825550505050565b600090565b610a43610a36565b610a4e818484610a11565b505050565b5b81811015610a7257610a67600082610a3b565b600181019050610a54565b5050565b601f821115610ab757610a888161094d565b610a9184610962565b81016020851015610aa0578190505b610ab4610aac85610962565b830182610a53565b50505b505050565b600082821c905092915050565b6000610ada60001984600802610abc565b1980831691505092915050565b6000610af38383610ac9565b9150826002028217905092915050565b610b0c8261078d565b67ffffffffffffffff811115610b2557610b246104e0565b5b610b2f825461085d565b610b3a828285610a76565b600060209050601f831160018114610b6d5760008415610b5b578287015190505b610b658582610ae7565b865550610bcd565b601f198416610b7b8661094d565b60005b82811015610ba357848901518255600182019150602085019450602081019050610b7e565b86831015610bc05784890151610bbc601f891682610ac9565b8355505b6001600288020188555050505b505050505050565b7f55736572206e6f74207265676973746572656400000000000000000000000000600082015250565b6000610c0b601383610798565b9150610c1682610bd5565b602082019050919050565b60006020820190508181036000830152610c3a81610bfe565b905091905056fea2646970667358221220ee3aeced5fd6064a7abd25687136bc564ba494d85f1993d5d7ab6cca98502b8b64736f6c63430008130033",
  "linkReferences": {},
  "deployedLinkReferences": {}
}