{
  "_format": "hh-sol-artifact-1",
  "contractName": "UserRegistry",
  "sourceName": "contracts/UserRegistry.sol",
  "abi": [
    {
      "inputs": [],
      "stateMutability": "nonpayable",
      "type": "constructor"
    },
    {
      "anonymous": false,
      "inputs": [
        {
          "indexed": true,
          "internalType": "address",
          "name": "userAddress",
          "type": "address"
        },
        {
          "indexed": false,
          "internalType": "string",
          "name": "name",
          "type": "string"
        },
        {
          "indexed": false,
          "internalType": "bool",
          "name": "isAdmin",
          "type": "bool"
        }
      ],
      "name": "UserAdded",
      "type": "event"
    },
    {
      "inputs": [
        {
          "internalType": "string",
          "name": "_name",
          "type": "string"
        },
        {
          "internalType": "address",
          "name": "_walletAddress",
          "type": "address"
        },
        {
          "internalType": "bool",
          "name": "_isAdmin",
          "type": "bool"
        }
      ],
      "name": "addUser",
      "outputs": [],
      "stateMutability": "nonpayable",
      "type": "function"
    },
    {
      "inputs": [],
      "name": "admin",
      "outputs": [
        {
          "internalType": "address",
          "name": "",
          "type": "address"
        }
      ],
      "stateMutability": "view",
      "type": "function"
    },
    {
      "inputs": [
        {
          "internalType": "address",
          "name": "_newAdmin",
          "type": "address"
        }
      ],
      "name": "changeAdmin",
      "outputs": [],
      "stateMutability": "nonpayable",
      "type": "function"
    },
    {
      "inputs": [
        {
          "internalType": "address",
          "name": "_walletAddress",
          "type": "address"
        }
      ],
      "name": "getUser",
      "outputs": [
        {
          "internalType": "string",
          "name": "",
          "type": "string"
        },
        {
          "internalType": "address",
          "name": "",
          "type": "address"
        },
        {
          "internalType": "bool",
          "name": "",
          "type": "bool"
        }
      ],
      "stateMutability": "view",
      "type": "function"
    },
    {
      "inputs": [],
      "name": "getUserCount",
      "outputs": [
        {
          "internalType": "uint256",
          "name": "",
          "type": "uint256"
        }
      ],
      "stateMutability": "view",
      "type": "function"
    },
    {
      "inputs": [
        {
          "internalType": "address",
          "name": "_walletAddress",
          "type": "address"
        }
      ],
      "name": "isAdmin",
      "outputs": [
        {
          "internalType": "bool",
          "name": "",
          "type": "bool"
        }
      ],
      "stateMutability": "view",
      "type": "function"
    }
  ],
  "bytecode": "0x608060405234801561001057600080fd5b5033600260006101000a81548173ffffffffffffffffffffffffffffffffffffffff021916908373ffffffffffffffffffffffffffffffffffffffff160217905550611171806100616000396000f3fe608060405234801561001057600080fd5b50600436106100625760003560e01c806324d7806c146100675780636f77926b146100975780638f283970146100c9578063b5cb15f7146100e5578063f851a44014610103578063fd43d2e014610121575b600080fd5b610081600480360381019061007c91906108f8565b61013d565b60405161008e9190610940565b60405180910390f35b6100b160048036038101906100ac91906108f8565b610203565b6040516100c0939291906109fa565b60405180910390f35b6100e360048036038101906100de91906108f8565b6103e4565b005b6100ed610527565b6040516100fa9190610a51565b60405180910390f35b61010b610534565b6040516101189190610a6c565b60405180910390f35b61013b60048036038101906101369190610be8565b61055a565b005b60008073ffffffffffffffffffffffffffffffffffffffff168273ffffffffffffffffffffffffffffffffffffffff16036101ad576040517f08c379a00000000000000000000000000000000000000000000000000000000081526004016101a490610ca3565b60405180910390fd5b6000808373ffffffffffffffffffffffffffffffffffffffff1673ffffffffffffffffffffffffffffffffffffffff16815260200190815260200160002060010160149054906101000a900460ff169050919050565b6060600080600073ffffffffffffffffffffffffffffffffffffffff168473ffffffffffffffffffffffffffffffffffffffff1603610277576040517f08c379a000000000000000000000000000000000000000000000000000000000815260040161026e90610ca3565b60405180910390fd5b60008060008673ffffffffffffffffffffffffffffffffffffffff1673ffffffffffffffffffffffffffffffffffffffff1681526020019081526020016000206040518060600160405290816000820180546102d290610cf2565b80601f01602080910402602001604051908101604052809291908181526020018280546102fe90610cf2565b801561034b5780601f106103205761010080835404028352916020019161034b565b820191906000526020600020905b81548152906001019060200180831161032e57829003601f168201915b505050505081526020016001820160009054906101000a900473ffffffffffffffffffffffffffffffffffffffff1673ffffffffffffffffffffffffffffffffffffffff1673ffffffffffffffffffffffffffffffffffffffff1681526020016001820160149054906101000a900460ff1615151515815250509050806000015181602001518260400151935093509350509193909250565b600260009054906101000a900473ffffffffffffffffffffffffffffffffffffffff1673ffffffffffffffffffffffffffffffffffffffff163373ffffffffffffffffffffffffffffffffffffffff1614610474576040517f08c379a000000000000000000000000000000000000000000000000000000000815260040161046b90610d95565b60405180910390fd5b600073ffffffffffffffffffffffffffffffffffffffff168173ffffffffffffffffffffffffffffffffffffffff16036104e3576040517f08c379a00000000000000000000000000000000000000000000000000000000081526004016104da90610ca3565b60405180910390fd5b80600260006101000a81548173ffffffffffffffffffffffffffffffffffffffff021916908373ffffffffffffffffffffffffffffffffffffffff16021790555050565b6000600180549050905090565b600260009054906101000a900473ffffffffffffffffffffffffffffffffffffffff1681565b600073ffffffffffffffffffffffffffffffffffffffff168273ffffffffffffffffffffffffffffffffffffffff16036105c9576040517f08c379a00000000000000000000000000000000000000000000000000000000081526004016105c090610ca3565b60405180910390fd5b600083511161060d576040517f08c379a000000000000000000000000000000000000000000000000000000000815260040161060490610e01565b60405180910390fd5b600073ffffffffffffffffffffffffffffffffffffffff166000808473ffffffffffffffffffffffffffffffffffffffff1673ffffffffffffffffffffffffffffffffffffffff16815260200190815260200160002060010160009054906101000a900473ffffffffffffffffffffffffffffffffffffffff1673ffffffffffffffffffffffffffffffffffffffff16146106dd576040517f08c379a00000000000000000000000000000000000000000000000000000000081526004016106d490610e6d565b60405180910390fd5b60405180606001604052808481526020018373ffffffffffffffffffffffffffffffffffffffff1681526020018215158152506000808473ffffffffffffffffffffffffffffffffffffffff1673ffffffffffffffffffffffffffffffffffffffff16815260200190815260200160002060008201518160000190816107639190611039565b5060208201518160010160006101000a81548173ffffffffffffffffffffffffffffffffffffffff021916908373ffffffffffffffffffffffffffffffffffffffff16021790555060408201518160010160146101000a81548160ff0219169083151502179055509050506001829080600181540180825580915050600190039060005260206000200160009091909190916101000a81548173ffffffffffffffffffffffffffffffffffffffff021916908373ffffffffffffffffffffffffffffffffffffffff1602179055508173ffffffffffffffffffffffffffffffffffffffff167f8da4d08b660148e3aeec5166e2b51fd9cac5dfac04471806402bea745db272f7848360405161087992919061110b565b60405180910390a2505050565b6000604051905090565b600080fd5b600080fd5b600073ffffffffffffffffffffffffffffffffffffffff82169050919050565b60006108c58261089a565b9050919050565b6108d5816108ba565b81146108e057600080fd5b50565b6000813590506108f2816108cc565b92915050565b60006020828403121561090e5761090d610890565b5b600061091c848285016108e3565b91505092915050565b60008115159050919050565b61093a81610925565b82525050565b60006020820190506109556000830184610931565b92915050565b600081519050919050565b600082825260208201905092915050565b60005b8381101561099557808201518184015260208101905061097a565b60008484015250505050565b6000601f19601f8301169050919050565b60006109bd8261095b565b6109c78185610966565b93506109d7818560208601610977565b6109e0816109a1565b840191505092915050565b6109f4816108ba565b82525050565b60006060820190508181036000830152610a1481866109b2565b9050610a2360208301856109eb565b610a306040830184610931565b949350505050565b6000819050919050565b610a4b81610a38565b82525050565b6000602082019050610a666000830184610a42565b92915050565b6000602082019050610a8160008301846109eb565b92915050565b600080fd5b600080fd5b7f4e487b7100000000000000000000000000000000000000000000000000000000600052604160045260246000fd5b610ac9826109a1565b810181811067ffffffffffffffff82111715610ae857610ae7610a91565b5b80604052505050565b6000610afb610886565b9050610b078282610ac0565b919050565b600067ffffffffffffffff821115610b2757610b26610a91565b5b610b30826109a1565b9050602081019050919050565b82818337600083830152505050565b6000610b5f610b5a84610b0c565b610af1565b905082815260208101848484011115610b7b57610b7a610a8c565b5b610b86848285610b3d565b509392505050565b600082601f830112610ba357610ba2610a87565b5b8135610bb3848260208601610b4c565b91505092915050565b610bc581610925565b8114610bd057600080fd5b50565b600081359050610be281610bbc565b92915050565b600080600060608486031215610c0157610c00610890565b5b600084013567ffffffffffffffff811115610c1f57610c1e610895565b5b610c2b86828701610b8e565b9350506020610c3c868287016108e3565b9250506040610c4d86828701610bd3565b9150509250925092565b7f496e76616c696420616464726573730000000000000000000000000000000000600082015250565b6000610c8d600f83610966565b9150610c9882610c57565b602082019050919050565b60006020820190508181036000830152610cbc81610c80565b9050919050565b7f4e487b7100000000000000000000000000000000000000000000000000000000600052602260045260246000fd5b60006002820490506001821680610d0a57607f821691505b602082108103610d1d57610d1c610cc3565b5b50919050565b7f4f6e6c792061646d696e2063616e2063616c6c20746869732066756e6374696f60008201527f6e00000000000000000000000000000000000000000000000000000000000000602082015250565b6000610d7f602183610966565b9150610d8a82610d23565b604082019050919050565b60006020820190508181036000830152610dae81610d72565b9050919050565b7f4e616d652063616e6e6f7420626520656d707479000000000000000000000000600082015250565b6000610deb601483610966565b9150610df682610db5565b602082019050919050565b60006020820190508181036000830152610e1a81610dde565b9050919050565b7f5573657220616c72656164792065786973747300000000000000000000000000600082015250565b6000610e57601383610966565b9150610e6282610e21565b602082019050919050565b60006020820190508181036000830152610e8681610e4a565b9050919050565b60008190508160005260206000209050919050565b60006020601f8301049050919050565b600082821b905092915050565b600060088302610eef7fffffffffffffffffffffffffffffffffffffffffffffffffffffffffffffffff82610eb2565b610ef98683610eb2565b95508019841693508086168417925050509392505050565b6000819050919050565b6000610f36610f31610f2c84610a38565b610f11565b610a38565b9050919050565b6000819050919050565b610f5083610f1b565b610f64610f5c82610f3d565b848454610ebf565b825550505050565b600090565b610f79610f6c565b610f84818484610f47565b505050565b5b81811015610fa857610f9d600082610f71565b600181019050610f8a565b5050565b601f821115610fed57610fbe81610e8d565b610fc784610ea2565b81016020851015610fd6578190505b610fea610fe285610ea2565b830182610f89565b50505b505050565b600082821c905092915050565b600061101060001984600802610ff2565b1980831691505092915050565b60006110298383610fff565b9150826002028217905092915050565b6110428261095b565b67ffffffffffffffff81111561105b5761105a610a91565b5b6110658254610cf2565b611070828285610fac565b600060209050601f8311600181146110a35760008415611091578287015190505b61109b858261101d565b865550611103565b601f1984166110b186610e8d565b60005b828110156110d9578489015182556001820191506020850194506020810190506110b4565b868310156110f657848901516110f2601f891682610fff565b8355505b6001600288020188555050505b505050505050565b6000604082019050818103600083015261112581856109b2565b90506111346020830184610931565b939250505056fea26469706673582212200fbe79cf993299947b4b509f94bbe09f939434ab86831d2d638e629b46ab2f6164736f6c63430008130033",
  "linkReferences": {},
  "deployedLinkReferences": {}
}