{
  "_format": "hh-sol-artifact-1",
  "contractName": "UserRegistry",
  "sourceName": "contracts/UserRegistry.sol",
  "abi": [
    {
      "anonymous": false,
      "inputs": [
        {
          "indexed": false,
          "internalType": "address",
          "name": "userAddress",
          "type": "address"
        },
        {
          "indexed": false,
          "internalType": "string",
          "name": "username",
          "type": "string"
        }
      ],
      "name": "UserRegistered",
      "type": "event"
    },
    {
      "inputs": [
        {
          "internalType": "address",
          "name": "_userAddress",
          "type": "address"
        }
      ],
      "name": "getUser",
      "outputs": [
        {
          "internalType": "string",
          "name": "",
          "type": "string"
        },
        {
          "internalType": "bool",
          "name": "",
          "type": "bool"
        }
      ],
      "stateMutability": "view",
      "type": "function"
    },
    {
      "inputs": [
        {
          "internalType": "string",
          "name": "_username",
          "type": "string"
        },
        {
          "internalType": "string",
          "name": "_passwordHash",
          "type": "string"
        }
      ],
      "name": "registerUser",
      "outputs": [],
      "stateMutability": "nonpayable",
      "type": "function"
    }
  ],
  "bytecode": "0x608060405234801561001057600080fd5b50610a92806100206000396000f3fe608060405234801561001057600080fd5b50600436106100365760003560e01c80631d2e4afd1461003b5780636f77926b14610057575b600080fd5b610055600480360381019061005091906104fc565b610088565b005b610071600480360381019061006c91906105d2565b6101ff565b60405161007f929190610699565b60405180910390f35b6000803373ffffffffffffffffffffffffffffffffffffffff1673ffffffffffffffffffffffffffffffffffffffff16815260200190815260200160002060020160009054906101000a900460ff1615610117576040517f08c379a000000000000000000000000000000000000000000000000000000000815260040161010e90610715565b60405180910390fd5b6040518060600160405280838152602001828152602001600115158152506000803373ffffffffffffffffffffffffffffffffffffffff1673ffffffffffffffffffffffffffffffffffffffff1681526020019081526020016000206000820151816000019081610188919061094b565b50602082015181600101908161019e919061094b565b5060408201518160020160006101000a81548160ff0219169083151502179055509050507f48cac28ad4dc618e15f4c2dd5e97751182f166de97b25618318b2112aa951a2f33836040516101f3929190610a2c565b60405180910390a15050565b60606000806000808573ffffffffffffffffffffffffffffffffffffffff1673ffffffffffffffffffffffffffffffffffffffff16815260200190815260200160002060405180606001604052908160008201805461025d90610764565b80601f016020809104026020016040519081016040528092919081815260200182805461028990610764565b80156102d65780601f106102ab576101008083540402835291602001916102d6565b820191906000526020600020905b8154815290600101906020018083116102b957829003601f168201915b505050505081526020016001820180546102ef90610764565b80601f016020809104026020016040519081016040528092919081815260200182805461031b90610764565b80156103685780601f1061033d57610100808354040283529160200191610368565b820191906000526020600020905b81548152906001019060200180831161034b57829003601f168201915b505050505081526020016002820160009054906101000a900460ff1615151515815250509050806000015181604001519250925050915091565b6000604051905090565b600080fd5b600080fd5b600080fd5b600080fd5b6000601f19601f8301169050919050565b7f4e487b7100000000000000000000000000000000000000000000000000000000600052604160045260246000fd5b610409826103c0565b810181811067ffffffffffffffff82111715610428576104276103d1565b5b80604052505050565b600061043b6103a2565b90506104478282610400565b919050565b600067ffffffffffffffff821115610467576104666103d1565b5b610470826103c0565b9050602081019050919050565b82818337600083830152505050565b600061049f61049a8461044c565b610431565b9050828152602081018484840111156104bb576104ba6103bb565b5b6104c684828561047d565b509392505050565b600082601f8301126104e3576104e26103b6565b5b81356104f384826020860161048c565b91505092915050565b60008060408385031215610513576105126103ac565b5b600083013567ffffffffffffffff811115610531576105306103b1565b5b61053d858286016104ce565b925050602083013567ffffffffffffffff81111561055e5761055d6103b1565b5b61056a858286016104ce565b9150509250929050565b600073ffffffffffffffffffffffffffffffffffffffff82169050919050565b600061059f82610574565b9050919050565b6105af81610594565b81146105ba57600080fd5b50565b6000813590506105cc816105a6565b92915050565b6000602082840312156105e8576105e76103ac565b5b60006105f6848285016105bd565b91505092915050565b600081519050919050565b600082825260208201905092915050565b60005b8381101561063957808201518184015260208101905061061e565b60008484015250505050565b6000610650826105ff565b61065a818561060a565b935061066a81856020860161061b565b610673816103c0565b840191505092915050565b60008115159050919050565b6106938161067e565b82525050565b600060408201905081810360008301526106b38185610645565b90506106c2602083018461068a565b9392505050565b7f5573657220697320616c726561647920726567697374657265642e0000000000600082015250565b60006106ff601b8361060a565b915061070a826106c9565b602082019050919050565b6000602082019050818103600083015261072e816106f2565b9050919050565b7f4e487b7100000000000000000000000000000000000000000000000000000000600052602260045260246000fd5b6000600282049050600182168061077c57607f821691505b60208210810361078f5761078e610735565b5b50919050565b60008190508160005260206000209050919050565b60006020601f8301049050919050565b600082821b905092915050565b6000600883026107f77fffffffffffffffffffffffffffffffffffffffffffffffffffffffffffffffff826107ba565b61080186836107ba565b95508019841693508086168417925050509392505050565b6000819050919050565b6000819050919050565b600061084861084361083e84610819565b610823565b610819565b9050919050565b6000819050919050565b6108628361082d565b61087661086e8261084f565b8484546107c7565b825550505050565b600090565b61088b61087e565b610896818484610859565b505050565b5b818110156108ba576108af600082610883565b60018101905061089c565b5050565b601f8211156108ff576108d081610795565b6108d9846107aa565b810160208510156108e8578190505b6108fc6108f4856107aa565b83018261089b565b50505b505050565b600082821c905092915050565b600061092260001984600802610904565b1980831691505092915050565b600061093b8383610911565b9150826002028217905092915050565b610954826105ff565b67ffffffffffffffff81111561096d5761096c6103d1565b5b6109778254610764565b6109828282856108be565b600060209050601f8311600181146109b557600084156109a3578287015190505b6109ad858261092f565b865550610a15565b601f1984166109c386610795565b60005b828110156109eb578489015182556001820191506020850194506020810190506109c6565b86831015610a085784890151610a04601f891682610911565b8355505b6001600288020188555050505b505050505050565b610a2681610594565b82525050565b6000604082019050610a416000830185610a1d565b8181036020830152610a538184610645565b9050939250505056fea26469706673582212208a3f7a1c62d73bb51ee3b8cd7b87ecf172b54ab35bf02e1554bdc07eda772afc64736f6c63430008180033",
  "linkReferences": {},
  "deployedLinkReferences": {}
}