{
	"data": {
		"bytecode": {
			"linkReferences": {},
			"object": "60806040526000601e60006101000a81548160ff02191690831515021790555034801561002b57600080fd5b506106aa8061003b6000396000f3fe608060405234801561001057600080fd5b50600436106100935760003560e01c8063859cc7d611610066578063859cc7d61461010e5780638afe9d631461013e578063bc1c243614610148578063c19d93fb14610166578063f3630fc41461018457610093565b80630cf8d617146100985780634e70b1dc146100a25780635a861255146100c057806362b44ce1146100de575b600080fd5b6100a061018e565b005b6100aa6101ca565b6040516100b7919061042f565b60405180910390f35b6100c86101d0565b6040516100d591906104f5565b60405180910390f35b6100f860048036038101906100f39190610542565b61021a565b604051610105919061042f565b60405180910390f35b61012860048036038101906101239190610542565b610235565b604051610135919061042f565b60405180910390f35b610146610250565b005b6101506102ec565b60405161015d91906104f5565b60405180910390f35b61016e610337565b60405161017b919061058a565b60405180910390f35b61018c61034a565b005b60005b600f8110156101c75780600f82600f81106101af576101ae6105a5565b5b018190555080806101bf90610603565b915050610191565b50565b601f5481565b6101d8610396565b600f80806020026040519081016040528092919082600f8015610210576020028201915b8154815260200190600101908083116101fc575b5050505050905090565b600081600f811061022a57600080fd5b016000915090505481565b600f81600f811061024557600080fd5b016000915090505481565b600080600f806020026040519081016040528092919082600f801561028a576020028201915b815481526020019060010190808311610276575b5050505050905060005b600f8110156102d65760098103156102d657808282600f81106102ba576102b96105a5565b5b60200201818152505080806102ce90610603565b915050610294565b5080600090600f6102e89291906103b9565b5050565b6102f4610396565b6000600f806020026040519081016040528092919082600f801561032d576020028201915b815481526020019060010190808311610319575b5050505050905090565b601e60009054906101000a900460ff1681565b5b601e60009054906101000a900460ff1661039457601f600081548092919061037290610603565b9190505550601f600081548092919061038a9061064b565b919050555061034b565b565b604051806101e00160405280600f90602082028036833780820191505090505090565b82600f81019282156103e8579160200282015b828111156103e75782518255916020019190600101906103cc565b5b5090506103f591906103f9565b5090565b5b808211156104125760008160009055506001016103fa565b5090565b6000819050919050565b61042981610416565b82525050565b60006020820190506104446000830184610420565b92915050565b6000600f9050919050565b600081905092915050565b6000819050919050565b61047381610416565b82525050565b6000610485838361046a565b60208301905092915050565b6000602082019050919050565b6104a78161044a565b6104b18184610455565b92506104bc82610460565b8060005b838110156104ed5781516104d48782610479565b96506104df83610491565b9250506001810190506104c0565b505050505050565b60006101e08201905061050b600083018461049e565b92915050565b600080fd5b61051f81610416565b811461052a57600080fd5b50565b60008135905061053c81610516565b92915050565b60006020828403121561055857610557610511565b5b60006105668482850161052d565b91505092915050565b60008115159050919050565b6105848161056f565b82525050565b600060208201905061059f600083018461057b565b92915050565b7f4e487b7100000000000000000000000000000000000000000000000000000000600052603260045260246000fd5b7f4e487b7100000000000000000000000000000000000000000000000000000000600052601160045260246000fd5b600061060e82610416565b91507fffffffffffffffffffffffffffffffffffffffffffffffffffffffffffffffff82036106405761063f6105d4565b5b600182019050919050565b600061065682610416565b915060008203610669576106686105d4565b5b60018203905091905056fea2646970667358221220f21f5f68c853045e1e156d97ffd5f6edf60e11c7618ac7ccff6413c8d8e7394b64736f6c63430008120033",
			"opcodes": "PUSH1 0x80 PUSH1 0x40 MSTORE PUSH1 0x0 PUSH1 0x1E PUSH1 0x0 PUSH2 0x100 EXP DUP2 SLOAD DUP2 PUSH1 0xFF MUL NOT AND SWAP1 DUP4 ISZERO ISZERO MUL OR SWAP1 SSTORE POP CALLVALUE DUP1 ISZERO PUSH2 0x2B JUMPI PUSH1 0x0 DUP1 REVERT JUMPDEST POP PUSH2 0x6AA DUP1 PUSH2 0x3B PUSH1 0x0 CODECOPY PUSH1 0x0 RETURN INVALID PUSH1 0x80 PUSH1 0x40 MSTORE CALLVALUE DUP1 ISZERO PUSH2 0x10 JUMPI PUSH1 0x0 DUP1 REVERT JUMPDEST POP PUSH1 0x4 CALLDATASIZE LT PUSH2 0x93 JUMPI PUSH1 0x0 CALLDATALOAD PUSH1 0xE0 SHR DUP1 PUSH4 0x859CC7D6 GT PUSH2 0x66 JUMPI DUP1 PUSH4 0x859CC7D6 EQ PUSH2 0x10E JUMPI DUP1 PUSH4 0x8AFE9D63 EQ PUSH2 0x13E JUMPI DUP1 PUSH4 0xBC1C2436 EQ PUSH2 0x148 JUMPI DUP1 PUSH4 0xC19D93FB EQ PUSH2 0x166 JUMPI DUP1 PUSH4 0xF3630FC4 EQ PUSH2 0x184 JUMPI PUSH2 0x93 JUMP JUMPDEST DUP1 PUSH4 0xCF8D617 EQ PUSH2 0x98 JUMPI DUP1 PUSH4 0x4E70B1DC EQ PUSH2 0xA2 JUMPI DUP1 PUSH4 0x5A861255 EQ PUSH2 0xC0 JUMPI DUP1 PUSH4 0x62B44CE1 EQ PUSH2 0xDE JUMPI JUMPDEST PUSH1 0x0 DUP1 REVERT JUMPDEST PUSH2 0xA0 PUSH2 0x18E JUMP JUMPDEST STOP JUMPDEST PUSH2 0xAA PUSH2 0x1CA JUMP JUMPDEST PUSH1 0x40 MLOAD PUSH2 0xB7 SWAP2 SWAP1 PUSH2 0x42F JUMP JUMPDEST PUSH1 0x40 MLOAD DUP1 SWAP2 SUB SWAP1 RETURN JUMPDEST PUSH2 0xC8 PUSH2 0x1D0 JUMP JUMPDEST PUSH1 0x40 MLOAD PUSH2 0xD5 SWAP2 SWAP1 PUSH2 0x4F5 JUMP JUMPDEST PUSH1 0x40 MLOAD DUP1 SWAP2 SUB SWAP1 RETURN JUMPDEST PUSH2 0xF8 PUSH1 0x4 DUP1 CALLDATASIZE SUB DUP2 ADD SWAP1 PUSH2 0xF3 SWAP2 SWAP1 PUSH2 0x542 JUMP JUMPDEST PUSH2 0x21A JUMP JUMPDEST PUSH1 0x40 MLOAD PUSH2 0x105 SWAP2 SWAP1 PUSH2 0x42F JUMP JUMPDEST PUSH1 0x40 MLOAD DUP1 SWAP2 SUB SWAP1 RETURN JUMPDEST PUSH2 0x128 PUSH1 0x4 DUP1 CALLDATASIZE SUB DUP2 ADD SWAP1 PUSH2 0x123 SWAP2 SWAP1 PUSH2 0x542 JUMP JUMPDEST PUSH2 0x235 JUMP JUMPDEST PUSH1 0x40 MLOAD PUSH2 0x135 SWAP2 SWAP1 PUSH2 0x42F JUMP JUMPDEST PUSH1 0x40 MLOAD DUP1 SWAP2 SUB SWAP1 RETURN JUMPDEST PUSH2 0x146 PUSH2 0x250 JUMP JUMPDEST STOP JUMPDEST PUSH2 0x150 PUSH2 0x2EC JUMP JUMPDEST PUSH1 0x40 MLOAD PUSH2 0x15D SWAP2 SWAP1 PUSH2 0x4F5 JUMP JUMPDEST PUSH1 0x40 MLOAD DUP1 SWAP2 SUB SWAP1 RETURN JUMPDEST PUSH2 0x16E PUSH2 0x337 JUMP JUMPDEST PUSH1 0x40 MLOAD PUSH2 0x17B SWAP2 SWAP1 PUSH2 0x58A JUMP JUMPDEST PUSH1 0x40 MLOAD DUP1 SWAP2 SUB SWAP1 RETURN JUMPDEST PUSH2 0x18C PUSH2 0x34A JUMP JUMPDEST STOP JUMPDEST PUSH1 0x0 JUMPDEST PUSH1 0xF DUP2 LT ISZERO PUSH2 0x1C7 JUMPI DUP1 PUSH1 0xF DUP3 PUSH1 0xF DUP2 LT PUSH2 0x1AF JUMPI PUSH2 0x1AE PUSH2 0x5A5 JUMP JUMPDEST JUMPDEST ADD DUP2 SWAP1 SSTORE POP DUP1 DUP1 PUSH2 0x1BF SWAP1 PUSH2 0x603 JUMP JUMPDEST SWAP2 POP POP PUSH2 0x191 JUMP JUMPDEST POP JUMP JUMPDEST PUSH1 0x1F SLOAD DUP2 JUMP JUMPDEST PUSH2 0x1D8 PUSH2 0x396 JUMP JUMPDEST PUSH1 0xF DUP1 DUP1 PUSH1 0x20 MUL PUSH1 0x40 MLOAD SWAP1 DUP2 ADD PUSH1 0x40 MSTORE DUP1 SWAP3 SWAP2 SWAP1 DUP3 PUSH1 0xF DUP1 ISZERO PUSH2 0x210 JUMPI PUSH1 0x20 MUL DUP3 ADD SWAP2 JUMPDEST DUP2 SLOAD DUP2 MSTORE PUSH1 0x20 ADD SWAP1 PUSH1 0x1 ADD SWAP1 DUP1 DUP4 GT PUSH2 0x1FC JUMPI JUMPDEST POP POP POP POP POP SWAP1 POP SWAP1 JUMP JUMPDEST PUSH1 0x0 DUP2 PUSH1 0xF DUP2 LT PUSH2 0x22A JUMPI PUSH1 0x0 DUP1 REVERT JUMPDEST ADD PUSH1 0x0 SWAP2 POP SWAP1 POP SLOAD DUP2 JUMP JUMPDEST PUSH1 0xF DUP2 PUSH1 0xF DUP2 LT PUSH2 0x245 JUMPI PUSH1 0x0 DUP1 REVERT JUMPDEST ADD PUSH1 0x0 SWAP2 POP SWAP1 POP SLOAD DUP2 JUMP JUMPDEST PUSH1 0x0 DUP1 PUSH1 0xF DUP1 PUSH1 0x20 MUL PUSH1 0x40 MLOAD SWAP1 DUP2 ADD PUSH1 0x40 MSTORE DUP1 SWAP3 SWAP2 SWAP1 DUP3 PUSH1 0xF DUP1 ISZERO PUSH2 0x28A JUMPI PUSH1 0x20 MUL DUP3 ADD SWAP2 JUMPDEST DUP2 SLOAD DUP2 MSTORE PUSH1 0x20 ADD SWAP1 PUSH1 0x1 ADD SWAP1 DUP1 DUP4 GT PUSH2 0x276 JUMPI JUMPDEST POP POP POP POP POP SWAP1 POP PUSH1 0x0 JUMPDEST PUSH1 0xF DUP2 LT ISZERO PUSH2 0x2D6 JUMPI PUSH1 0x9 DUP2 SUB ISZERO PUSH2 0x2D6 JUMPI DUP1 DUP3 DUP3 PUSH1 0xF DUP2 LT PUSH2 0x2BA JUMPI PUSH2 0x2B9 PUSH2 0x5A5 JUMP JUMPDEST JUMPDEST PUSH1 0x20 MUL ADD DUP2 DUP2 MSTORE POP POP DUP1 DUP1 PUSH2 0x2CE SWAP1 PUSH2 0x603 JUMP JUMPDEST SWAP2 POP POP PUSH2 0x294 JUMP JUMPDEST POP DUP1 PUSH1 0x0 SWAP1 PUSH1 0xF PUSH2 0x2E8 SWAP3 SWAP2 SWAP1 PUSH2 0x3B9 JUMP JUMPDEST POP POP JUMP JUMPDEST PUSH2 0x2F4 PUSH2 0x396 JUMP JUMPDEST PUSH1 0x0 PUSH1 0xF DUP1 PUSH1 0x20 MUL PUSH1 0x40 MLOAD SWAP1 DUP2 ADD PUSH1 0x40 MSTORE DUP1 SWAP3 SWAP2 SWAP1 DUP3 PUSH1 0xF DUP1 ISZERO PUSH2 0x32D JUMPI PUSH1 0x20 MUL DUP3 ADD SWAP2 JUMPDEST DUP2 SLOAD DUP2 MSTORE PUSH1 0x20 ADD SWAP1 PUSH1 0x1 ADD SWAP1 DUP1 DUP4 GT PUSH2 0x319 JUMPI JUMPDEST POP POP POP POP POP SWAP1 POP SWAP1 JUMP JUMPDEST PUSH1 0x1E PUSH1 0x0 SWAP1 SLOAD SWAP1 PUSH2 0x100 EXP SWAP1 DIV PUSH1 0xFF AND DUP2 JUMP JUMPDEST JUMPDEST PUSH1 0x1E PUSH1 0x0 SWAP1 SLOAD SWAP1 PUSH2 0x100 EXP SWAP1 DIV PUSH1 0xFF AND PUSH2 0x394 JUMPI PUSH1 0x1F PUSH1 0x0 DUP2 SLOAD DUP1 SWAP3 SWAP2 SWAP1 PUSH2 0x372 SWAP1 PUSH2 0x603 JUMP JUMPDEST SWAP2 SWAP1 POP SSTORE POP PUSH1 0x1F PUSH1 0x0 DUP2 SLOAD DUP1 SWAP3 SWAP2 SWAP1 PUSH2 0x38A SWAP1 PUSH2 0x64B JUMP JUMPDEST SWAP2 SWAP1 POP SSTORE POP PUSH2 0x34B JUMP JUMPDEST JUMP JUMPDEST PUSH1 0x40 MLOAD DUP1 PUSH2 0x1E0 ADD PUSH1 0x40 MSTORE DUP1 PUSH1 0xF SWAP1 PUSH1 0x20 DUP3 MUL DUP1 CALLDATASIZE DUP4 CALLDATACOPY DUP1 DUP3 ADD SWAP2 POP POP SWAP1 POP POP SWAP1 JUMP JUMPDEST DUP3 PUSH1 0xF DUP2 ADD SWAP3 DUP3 ISZERO PUSH2 0x3E8 JUMPI SWAP2 PUSH1 0x20 MUL DUP3 ADD JUMPDEST DUP3 DUP2 GT ISZERO PUSH2 0x3E7 JUMPI DUP3 MLOAD DUP3 SSTORE SWAP2 PUSH1 0x20 ADD SWAP2 SWAP1 PUSH1 0x1 ADD SWAP1 PUSH2 0x3CC JUMP JUMPDEST JUMPDEST POP SWAP1 POP PUSH2 0x3F5 SWAP2 SWAP1 PUSH2 0x3F9 JUMP JUMPDEST POP SWAP1 JUMP JUMPDEST JUMPDEST DUP1 DUP3 GT ISZERO PUSH2 0x412 JUMPI PUSH1 0x0 DUP2 PUSH1 0x0 SWAP1 SSTORE POP PUSH1 0x1 ADD PUSH2 0x3FA JUMP JUMPDEST POP SWAP1 JUMP JUMPDEST PUSH1 0x0 DUP2 SWAP1 POP SWAP2 SWAP1 POP JUMP JUMPDEST PUSH2 0x429 DUP2 PUSH2 0x416 JUMP JUMPDEST DUP3 MSTORE POP POP JUMP JUMPDEST PUSH1 0x0 PUSH1 0x20 DUP3 ADD SWAP1 POP PUSH2 0x444 PUSH1 0x0 DUP4 ADD DUP5 PUSH2 0x420 JUMP JUMPDEST SWAP3 SWAP2 POP POP JUMP JUMPDEST PUSH1 0x0 PUSH1 0xF SWAP1 POP SWAP2 SWAP1 POP JUMP JUMPDEST PUSH1 0x0 DUP2 SWAP1 POP SWAP3 SWAP2 POP POP JUMP JUMPDEST PUSH1 0x0 DUP2 SWAP1 POP SWAP2 SWAP1 POP JUMP JUMPDEST PUSH2 0x473 DUP2 PUSH2 0x416 JUMP JUMPDEST DUP3 MSTORE POP POP JUMP JUMPDEST PUSH1 0x0 PUSH2 0x485 DUP4 DUP4 PUSH2 0x46A JUMP JUMPDEST PUSH1 0x20 DUP4 ADD SWAP1 POP SWAP3 SWAP2 POP POP JUMP JUMPDEST PUSH1 0x0 PUSH1 0x20 DUP3 ADD SWAP1 POP SWAP2 SWAP1 POP JUMP JUMPDEST PUSH2 0x4A7 DUP2 PUSH2 0x44A JUMP JUMPDEST PUSH2 0x4B1 DUP2 DUP5 PUSH2 0x455 JUMP JUMPDEST SWAP3 POP PUSH2 0x4BC DUP3 PUSH2 0x460 JUMP JUMPDEST DUP1 PUSH1 0x0 JUMPDEST DUP4 DUP2 LT ISZERO PUSH2 0x4ED JUMPI DUP2 MLOAD PUSH2 0x4D4 DUP8 DUP3 PUSH2 0x479 JUMP JUMPDEST SWAP7 POP PUSH2 0x4DF DUP4 PUSH2 0x491 JUMP JUMPDEST SWAP3 POP POP PUSH1 0x1 DUP2 ADD SWAP1 POP PUSH2 0x4C0 JUMP JUMPDEST POP POP POP POP POP POP JUMP JUMPDEST PUSH1 0x0 PUSH2 0x1E0 DUP3 ADD SWAP1 POP PUSH2 0x50B PUSH1 0x0 DUP4 ADD DUP5 PUSH2 0x49E JUMP JUMPDEST SWAP3 SWAP2 POP POP JUMP JUMPDEST PUSH1 0x0 DUP1 REVERT JUMPDEST PUSH2 0x51F DUP2 PUSH2 0x416 JUMP JUMPDEST DUP2 EQ PUSH2 0x52A JUMPI PUSH1 0x0 DUP1 REVERT JUMPDEST POP JUMP JUMPDEST PUSH1 0x0 DUP2 CALLDATALOAD SWAP1 POP PUSH2 0x53C DUP2 PUSH2 0x516 JUMP JUMPDEST SWAP3 SWAP2 POP POP JUMP JUMPDEST PUSH1 0x0 PUSH1 0x20 DUP3 DUP5 SUB SLT ISZERO PUSH2 0x558 JUMPI PUSH2 0x557 PUSH2 0x511 JUMP JUMPDEST JUMPDEST PUSH1 0x0 PUSH2 0x566 DUP5 DUP3 DUP6 ADD PUSH2 0x52D JUMP JUMPDEST SWAP2 POP POP SWAP3 SWAP2 POP POP JUMP JUMPDEST PUSH1 0x0 DUP2 ISZERO ISZERO SWAP1 POP SWAP2 SWAP1 POP JUMP JUMPDEST PUSH2 0x584 DUP2 PUSH2 0x56F JUMP JUMPDEST DUP3 MSTORE POP POP JUMP JUMPDEST PUSH1 0x0 PUSH1 0x20 DUP3 ADD SWAP1 POP PUSH2 0x59F PUSH1 0x0 DUP4 ADD DUP5 PUSH2 0x57B JUMP JUMPDEST SWAP3 SWAP2 POP POP JUMP JUMPDEST PUSH32 0x4E487B7100000000000000000000000000000000000000000000000000000000 PUSH1 0x0 MSTORE PUSH1 0x32 PUSH1 0x4 MSTORE PUSH1 0x24 PUSH1 0x0 REVERT JUMPDEST PUSH32 0x4E487B7100000000000000000000000000000000000000000000000000000000 PUSH1 0x0 MSTORE PUSH1 0x11 PUSH1 0x4 MSTORE PUSH1 0x24 PUSH1 0x0 REVERT JUMPDEST PUSH1 0x0 PUSH2 0x60E DUP3 PUSH2 0x416 JUMP JUMPDEST SWAP2 POP PUSH32 0xFFFFFFFFFFFFFFFFFFFFFFFFFFFFFFFFFFFFFFFFFFFFFFFFFFFFFFFFFFFFFFFF DUP3 SUB PUSH2 0x640 JUMPI PUSH2 0x63F PUSH2 0x5D4 JUMP JUMPDEST JUMPDEST PUSH1 0x1 DUP3 ADD SWAP1 POP SWAP2 SWAP1 POP JUMP JUMPDEST PUSH1 0x0 PUSH2 0x656 DUP3 PUSH2 0x416 JUMP JUMPDEST SWAP2 POP PUSH1 0x0 DUP3 SUB PUSH2 0x669 JUMPI PUSH2 0x668 PUSH2 0x5D4 JUMP JUMPDEST JUMPDEST PUSH1 0x1 DUP3 SUB SWAP1 POP SWAP2 SWAP1 POP JUMP INVALID LOG2 PUSH5 0x6970667358 0x22 SLT KECCAK256 CALLCODE 0x1F 0x5F PUSH9 0xC853045E1E156D97FF 0xD5 0xF6 0xED 0xF6 0xE GT 0xC7 PUSH2 0x8AC7 0xCC SELFDESTRUCT PUSH5 0x13C8D8E739 0x4B PUSH5 0x736F6C6343 STOP ADDMOD SLT STOP CALLER "
		},
		"gasEstimates": {
			"creation": {
				"codeDepositCost": "341200",
				"executionCost": "24647",
				"totalCost": "365847"
			},
			"external": {
				"crashByWhile()": "infinite",
				"createListWithForLoop()": "infinite",
				"getNumbers1()": "infinite",
				"getNumbers2()": "infinite",
				"listByWhile()": "infinite",
				"num()": "2452",
				"numbers1(uint256)": "infinite",
				"numbers2(uint256)": "infinite",
				"state()": "2537"
			}
		},
		"methodIdentifiers": {
			"crashByWhile()": "f3630fc4",
			"createListWithForLoop()": "8afe9d63",
			"getNumbers1()": "bc1c2436",
			"getNumbers2()": "5a861255",
			"listByWhile()": "0cf8d617",
			"num()": "4e70b1dc",
			"numbers1(uint256)": "62b44ce1",
			"numbers2(uint256)": "859cc7d6",
			"state()": "c19d93fb"
		}
	},
	"abi": [
		{
			"inputs": [],
			"name": "crashByWhile",
			"outputs": [],
			"stateMutability": "nonpayable",
			"type": "function"
		},
		{
			"inputs": [],
			"name": "createListWithForLoop",
			"outputs": [],
			"stateMutability": "nonpayable",
			"type": "function"
		},
		{
			"inputs": [],
			"name": "getNumbers1",
			"outputs": [
				{
					"internalType": "uint256[15]",
					"name": "",
					"type": "uint256[15]"
				}
			],
			"stateMutability": "view",
			"type": "function"
		},
		{
			"inputs": [],
			"name": "getNumbers2",
			"outputs": [
				{
					"internalType": "uint256[15]",
					"name": "",
					"type": "uint256[15]"
				}
			],
			"stateMutability": "view",
			"type": "function"
		},
		{
			"inputs": [],
			"name": "listByWhile",
			"outputs": [],
			"stateMutability": "nonpayable",
			"type": "function"
		},
		{
			"inputs": [],
			"name": "num",
			"outputs": [
				{
					"internalType": "uint256",
					"name": "",
					"type": "uint256"
				}
			],
			"stateMutability": "view",
			"type": "function"
		},
		{
			"inputs": [
				{
					"internalType": "uint256",
					"name": "",
					"type": "uint256"
				}
			],
			"name": "numbers1",
			"outputs": [
				{
					"internalType": "uint256",
					"name": "",
					"type": "uint256"
				}
			],
			"stateMutability": "view",
			"type": "function"
		},
		{
			"inputs": [
				{
					"internalType": "uint256",
					"name": "",
					"type": "uint256"
				}
			],
			"name": "numbers2",
			"outputs": [
				{
					"internalType": "uint256",
					"name": "",
					"type": "uint256"
				}
			],
			"stateMutability": "view",
			"type": "function"
		},
		{
			"inputs": [],
			"name": "state",
			"outputs": [
				{
					"internalType": "bool",
					"name": "",
					"type": "bool"
				}
			],
			"stateMutability": "view",
			"type": "function"
		}
	]
}