{
  "_format": "hh-sol-artifact-1",
  "contractName": "UserPanel",
  "sourceName": "contracts/UserPanel.sol",
  "abi": [
    {
      "anonymous": false,
      "inputs": [
        {
          "indexed": true,
          "internalType": "address",
          "name": "user",
          "type": "address"
        },
        {
          "indexed": false,
          "internalType": "string",
          "name": "username",
          "type": "string"
        }
      ],
      "name": "UserRegistered",
      "type": "event"
    },
    {
      "inputs": [],
      "name": "getAllUsers",
      "outputs": [
        {
          "internalType": "address[]",
          "name": "",
          "type": "address[]"
        }
      ],
      "stateMutability": "view",
      "type": "function"
    },
    {
      "inputs": [
        {
          "internalType": "address",
          "name": "userAddress",
          "type": "address"
        }
      ],
      "name": "getUser",
      "outputs": [
        {
          "internalType": "string",
          "name": "",
          "type": "string"
        },
        {
          "internalType": "string",
          "name": "",
          "type": "string"
        }
      ],
      "stateMutability": "view",
      "type": "function"
    },
    {
      "inputs": [
        {
          "internalType": "string",
          "name": "username",
          "type": "string"
        },
        {
          "internalType": "string",
          "name": "password",
          "type": "string"
        }
      ],
      "name": "registerUser",
      "outputs": [],
      "stateMutability": "nonpayable",
      "type": "function"
    },
    {
      "inputs": [
        {
          "internalType": "address",
          "name": "userAddress",
          "type": "address"
        },
        {
          "internalType": "string",
          "name": "newUsername",
          "type": "string"
        },
        {
          "internalType": "string",
          "name": "newPassword",
          "type": "string"
        }
      ],
      "name": "updateUser",
      "outputs": [],
      "stateMutability": "nonpayable",
      "type": "function"
    }
  ],
  "bytecode": "0x608060405234801561001057600080fd5b50610d61806100206000396000f3fe608060405234801561001057600080fd5b506004361061004c5760003560e01c806310e8b22d146100515780631d2e4afd1461006d5780636f77926b14610089578063e2842d79146100ba575b600080fd5b61006b60048036038101906100669190610827565b6100d8565b005b610087600480360381019061008291906108a6565b61021a565b005b6100a3600480360381019061009e91906107fe565b610419565b6040516100b1929190610a5a565b60405180910390f35b6100c2610650565b6040516100cf9190610a16565b60405180910390f35b600160008473ffffffffffffffffffffffffffffffffffffffff1673ffffffffffffffffffffffffffffffffffffffff16815260200190815260200160002060020160009054906101000a900460ff16610167576040517f08c379a000000000000000000000000000000000000000000000000000000000815260040161015e90610a91565b60405180910390fd5b81600160008573ffffffffffffffffffffffffffffffffffffffff1673ffffffffffffffffffffffffffffffffffffffff16815260200190815260200160002060000190805190602001906101bd9291906106de565b5080600160008573ffffffffffffffffffffffffffffffffffffffff1673ffffffffffffffffffffffffffffffffffffffff16815260200190815260200160002060010190805190602001906102149291906106de565b50505050565b600160003373ffffffffffffffffffffffffffffffffffffffff1673ffffffffffffffffffffffffffffffffffffffff16815260200190815260200160002060020160009054906101000a900460ff16156102aa576040517f08c379a00000000000000000000000000000000000000000000000000000000081526004016102a190610ab1565b60405180910390fd5b604051806060016040528083815260200182815260200160011515815250600160003373ffffffffffffffffffffffffffffffffffffffff1673ffffffffffffffffffffffffffffffffffffffff16815260200190815260200160002060008201518160000190805190602001906103239291906106de565b5060208201518160010190805190602001906103409291906106de565b5060408201518160020160006101000a81548160ff0219169083151502179055509050506000339080600181540180825580915050600190039060005260206000200160009091909190916101000a81548173ffffffffffffffffffffffffffffffffffffffff021916908373ffffffffffffffffffffffffffffffffffffffff1602179055503373ffffffffffffffffffffffffffffffffffffffff167f48cac28ad4dc618e15f4c2dd5e97751182f166de97b25618318b2112aa951a2f8360405161040d9190610a38565b60405180910390a25050565b606080600160008473ffffffffffffffffffffffffffffffffffffffff1673ffffffffffffffffffffffffffffffffffffffff16815260200190815260200160002060020160009054906101000a900460ff166104ab576040517f08c379a00000000000000000000000000000000000000000000000000000000081526004016104a290610a91565b60405180910390fd5b600160008473ffffffffffffffffffffffffffffffffffffffff1673ffffffffffffffffffffffffffffffffffffffff168152602001908152602001600020600001600160008573ffffffffffffffffffffffffffffffffffffffff1673ffffffffffffffffffffffffffffffffffffffff16815260200190815260200160002060010181805461053b90610bf0565b80601f016020809104026020016040519081016040528092919081815260200182805461056790610bf0565b80156105b45780601f10610589576101008083540402835291602001916105b4565b820191906000526020600020905b81548152906001019060200180831161059757829003601f168201915b505050505091508080546105c790610bf0565b80601f01602080910402602001604051908101604052809291908181526020018280546105f390610bf0565b80156106405780601f1061061557610100808354040283529160200191610640565b820191906000526020600020905b81548152906001019060200180831161062357829003601f168201915b5050505050905091509150915091565b606060008054806020026020016040519081016040528092919081815260200182805480156106d457602002820191906000526020600020905b8160009054906101000a900473ffffffffffffffffffffffffffffffffffffffff1673ffffffffffffffffffffffffffffffffffffffff168152602001906001019080831161068a575b5050505050905090565b8280546106ea90610bf0565b90600052602060002090601f01602090048101928261070c5760008555610753565b82601f1061072557805160ff1916838001178555610753565b82800160010185558215610753579182015b82811115610752578251825591602001919060010190610737565b5b5090506107609190610764565b5090565b5b8082111561077d576000816000905550600101610765565b5090565b600061079461078f84610af6565b610ad1565b9050828152602081018484840111156107ac57600080fd5b6107b7848285610bae565b509392505050565b6000813590506107ce81610d14565b92915050565b600082601f8301126107e557600080fd5b81356107f5848260208601610781565b91505092915050565b60006020828403121561081057600080fd5b600061081e848285016107bf565b91505092915050565b60008060006060848603121561083c57600080fd5b600061084a868287016107bf565b935050602084013567ffffffffffffffff81111561086757600080fd5b610873868287016107d4565b925050604084013567ffffffffffffffff81111561089057600080fd5b61089c868287016107d4565b9150509250925092565b600080604083850312156108b957600080fd5b600083013567ffffffffffffffff8111156108d357600080fd5b6108df858286016107d4565b925050602083013567ffffffffffffffff8111156108fc57600080fd5b610908858286016107d4565b9150509250929050565b600061091e838361092a565b60208301905092915050565b61093381610b7c565b82525050565b600061094482610b37565b61094e8185610b5a565b935061095983610b27565b8060005b8381101561098a5781516109718882610912565b975061097c83610b4d565b92505060018101905061095d565b5085935050505092915050565b60006109a282610b42565b6109ac8185610b6b565b93506109bc818560208601610bbd565b6109c581610cb1565b840191505092915050565b60006109dd601783610b6b565b91506109e882610cc2565b602082019050919050565b6000610a00601783610b6b565b9150610a0b82610ceb565b602082019050919050565b60006020820190508181036000830152610a308184610939565b905092915050565b60006020820190508181036000830152610a528184610997565b905092915050565b60006040820190508181036000830152610a748185610997565b90508181036020830152610a888184610997565b90509392505050565b60006020820190508181036000830152610aaa816109d0565b9050919050565b60006020820190508181036000830152610aca816109f3565b9050919050565b6000610adb610aec565b9050610ae78282610c22565b919050565b6000604051905090565b600067ffffffffffffffff821115610b1157610b10610c82565b5b610b1a82610cb1565b9050602081019050919050565b6000819050602082019050919050565b600081519050919050565b600081519050919050565b6000602082019050919050565b600082825260208201905092915050565b600082825260208201905092915050565b6000610b8782610b8e565b9050919050565b600073ffffffffffffffffffffffffffffffffffffffff82169050919050565b82818337600083830152505050565b60005b83811015610bdb578082015181840152602081019050610bc0565b83811115610bea576000848401525b50505050565b60006002820490506001821680610c0857607f821691505b60208210811415610c1c57610c1b610c53565b5b50919050565b610c2b82610cb1565b810181811067ffffffffffffffff82111715610c4a57610c49610c82565b5b80604052505050565b7f4e487b7100000000000000000000000000000000000000000000000000000000600052602260045260246000fd5b7f4e487b7100000000000000000000000000000000000000000000000000000000600052604160045260246000fd5b6000601f19601f8301169050919050565b7f4b756c6c616e696369206b617969746c6920646567696c000000000000000000600082015250565b7f4b756c6c616e696369207a6174656e206b617969746c69000000000000000000600082015250565b610d1d81610b7c565b8114610d2857600080fd5b5056fea264697066735822122076742ec826e548f239f953e54577c68ab9fd1caecca321b9d0fd8fdaef2604b664736f6c63430008020033",
  "linkReferences": {},
  "deployedLinkReferences": {}
}