{
	"Desktop/solidity/tubitak/login/contracts/UserPanel.sol": {
		"UserRegistry": {
			"abi": [
				{
					"inputs": [],
					"stateMutability": "nonpayable",
					"type": "constructor"
				},
				{
					"anonymous": false,
					"inputs": [
						{
							"indexed": true,
							"internalType": "address",
							"name": "userAddress",
							"type": "address"
						},
						{
							"indexed": false,
							"internalType": "string",
							"name": "name",
							"type": "string"
						},
						{
							"indexed": false,
							"internalType": "bool",
							"name": "isAdmin",
							"type": "bool"
						}
					],
					"name": "UserAdded",
					"type": "event"
				},
				{
					"inputs": [
						{
							"internalType": "string",
							"name": "_name",
							"type": "string"
						},
						{
							"internalType": "address",
							"name": "_walletAddress",
							"type": "address"
						},
						{
							"internalType": "bool",
							"name": "_isAdmin",
							"type": "bool"
						}
					],
					"name": "addUser",
					"outputs": [],
					"stateMutability": "nonpayable",
					"type": "function"
				},
				{
					"inputs": [],
					"name": "admin",
					"outputs": [
						{
							"internalType": "address",
							"name": "",
							"type": "address"
						}
					],
					"stateMutability": "view",
					"type": "function"
				},
				{
					"inputs": [
						{
							"internalType": "address",
							"name": "_newAdmin",
							"type": "address"
						}
					],
					"name": "changeAdmin",
					"outputs": [],
					"stateMutability": "nonpayable",
					"type": "function"
				},
				{
					"inputs": [
						{
							"internalType": "address",
							"name": "_walletAddress",
							"type": "address"
						}
					],
					"name": "getUser",
					"outputs": [
						{
							"internalType": "string",
							"name": "",
							"type": "string"
						},
						{
							"internalType": "address",
							"name": "",
							"type": "address"
						},
						{
							"internalType": "bool",
							"name": "",
							"type": "bool"
						}
					],
					"stateMutability": "view",
					"type": "function"
				},
				{
					"inputs": [],
					"name": "getUserCount",
					"outputs": [
						{
							"internalType": "uint256",
							"name": "",
							"type": "uint256"
						}
					],
					"stateMutability": "view",
					"type": "function"
				},
				{
					"inputs": [
						{
							"internalType": "address",
							"name": "_walletAddress",
							"type": "address"
						}
					],
					"name": "isAdmin",
					"outputs": [
						{
							"internalType": "bool",
							"name": "",
							"type": "bool"
						}
					],
					"stateMutability": "view",
					"type": "function"
				}
			],
			"devdoc": {
				"kind": "dev",
				"methods": {},
				"version": 1
			},
			"evm": {
				"assembly": "    /* \"Desktop/solidity/tubitak/login/contracts/UserPanel.sol\":60:1874  contract UserRegistry {... */\n  mstore(0x40, 0x80)\n    /* \"Desktop/solidity/tubitak/login/contracts/UserPanel.sol\":513:605  constructor() {... */\n  callvalue\n  dup1\n  iszero\n  tag_1\n  jumpi\n  0x00\n  dup1\n  revert\ntag_1:\n  pop\n    /* \"Desktop/solidity/tubitak/login/contracts/UserPanel.sol\":546:556  msg.sender */\n  caller\n    /* \"Desktop/solidity/tubitak/login/contracts/UserPanel.sol\":538:543  admin */\n  0x02\n  0x00\n    /* \"Desktop/solidity/tubitak/login/contracts/UserPanel.sol\":538:556  admin = msg.sender */\n  0x0100\n  exp\n  dup2\n  sload\n  dup2\n  0xffffffffffffffffffffffffffffffffffffffff\n  mul\n  not\n  and\n  swap1\n  dup4\n  0xffffffffffffffffffffffffffffffffffffffff\n  and\n  mul\n  or\n  swap1\n  sstore\n  pop\n    /* \"Desktop/solidity/tubitak/login/contracts/UserPanel.sol\":60:1874  contract UserRegistry {... */\n  dataSize(sub_0)\n  dup1\n  dataOffset(sub_0)\n  0x00\n  codecopy\n  0x00\n  return\nstop\n\nsub_0: assembly {\n        /* \"Desktop/solidity/tubitak/login/contracts/UserPanel.sol\":60:1874  contract UserRegistry {... */\n      mstore(0x40, 0x80)\n      callvalue\n      dup1\n      iszero\n      tag_1\n      jumpi\n      0x00\n      dup1\n      revert\n    tag_1:\n      pop\n      jumpi(tag_2, lt(calldatasize, 0x04))\n      shr(0xe0, calldataload(0x00))\n      dup1\n      0x24d7806c\n      eq\n      tag_3\n      jumpi\n      dup1\n      0x6f77926b\n      eq\n      tag_4\n      jumpi\n      dup1\n      0x8f283970\n      eq\n      tag_5\n      jumpi\n      dup1\n      0xb5cb15f7\n      eq\n      tag_6\n      jumpi\n      dup1\n      0xf851a440\n      eq\n      tag_7\n      jumpi\n      dup1\n      0xfd43d2e0\n      eq\n      tag_8\n      jumpi\n    tag_2:\n      0x00\n      dup1\n      revert\n        /* \"Desktop/solidity/tubitak/login/contracts/UserPanel.sol\":1409:1601  function isAdmin(address _walletAddress) public view returns (bool) {... */\n    tag_3:\n      tag_9\n      0x04\n      dup1\n      calldatasize\n      sub\n      dup2\n      add\n      swap1\n      tag_10\n      swap2\n      swap1\n      tag_11\n      jump\t// in\n    tag_10:\n      tag_12\n      jump\t// in\n    tag_9:\n      mload(0x40)\n      tag_13\n      swap2\n      swap1\n      tag_14\n      jump\t// in\n    tag_13:\n      mload(0x40)\n      dup1\n      swap2\n      sub\n      swap1\n      return\n        /* \"Desktop/solidity/tubitak/login/contracts/UserPanel.sol\":1118:1401  function getUser(address _walletAddress) public view returns (string memory, address, bool) {... */\n    tag_4:\n      tag_15\n      0x04\n      dup1\n      calldatasize\n      sub\n      dup2\n      add\n      swap1\n      tag_16\n      swap2\n      swap1\n      tag_11\n      jump\t// in\n    tag_16:\n      tag_17\n      jump\t// in\n    tag_15:\n      mload(0x40)\n      tag_18\n      swap4\n      swap3\n      swap2\n      swap1\n      tag_19\n      jump\t// in\n    tag_18:\n      mload(0x40)\n      dup1\n      swap2\n      sub\n      swap1\n      return\n        /* \"Desktop/solidity/tubitak/login/contracts/UserPanel.sol\":1714:1871  function changeAdmin(address _newAdmin) public onlyAdmin {... */\n    tag_5:\n      tag_20\n      0x04\n      dup1\n      calldatasize\n      sub\n      dup2\n      add\n      swap1\n      tag_21\n      swap2\n      swap1\n      tag_11\n      jump\t// in\n    tag_21:\n      tag_22\n      jump\t// in\n    tag_20:\n      stop\n        /* \"Desktop/solidity/tubitak/login/contracts/UserPanel.sol\":1609:1706  function getUserCount() public view returns (uint) {... */\n    tag_6:\n      tag_23\n      tag_24\n      jump\t// in\n    tag_23:\n      mload(0x40)\n      tag_25\n      swap2\n      swap1\n      tag_26\n      jump\t// in\n    tag_25:\n      mload(0x40)\n      dup1\n      swap2\n      sub\n      swap1\n      return\n        /* \"Desktop/solidity/tubitak/login/contracts/UserPanel.sol\":279:299  address public admin */\n    tag_7:\n      tag_27\n      tag_28\n      jump\t// in\n    tag_27:\n      mload(0x40)\n      tag_29\n      swap2\n      swap1\n      tag_30\n      jump\t// in\n    tag_29:\n      mload(0x40)\n      dup1\n      swap2\n      sub\n      swap1\n      return\n        /* \"Desktop/solidity/tubitak/login/contracts/UserPanel.sol\":613:1110  function addUser(string memory _name, address _walletAddress, bool _isAdmin) public {... */\n    tag_8:\n      tag_31\n      0x04\n      dup1\n      calldatasize\n      sub\n      dup2\n      add\n      swap1\n      tag_32\n      swap2\n      swap1\n      tag_33\n      jump\t// in\n    tag_32:\n      tag_34\n      jump\t// in\n    tag_31:\n      stop\n        /* \"Desktop/solidity/tubitak/login/contracts/UserPanel.sol\":1409:1601  function isAdmin(address _walletAddress) public view returns (bool) {... */\n    tag_12:\n        /* \"Desktop/solidity/tubitak/login/contracts/UserPanel.sol\":1471:1475  bool */\n      0x00\n        /* \"Desktop/solidity/tubitak/login/contracts/UserPanel.sol\":1522:1523  0 */\n      dup1\n        /* \"Desktop/solidity/tubitak/login/contracts/UserPanel.sol\":1496:1524  _walletAddress != address(0) */\n      0xffffffffffffffffffffffffffffffffffffffff\n      and\n        /* \"Desktop/solidity/tubitak/login/contracts/UserPanel.sol\":1496:1510  _walletAddress */\n      dup3\n        /* \"Desktop/solidity/tubitak/login/contracts/UserPanel.sol\":1496:1524  _walletAddress != address(0) */\n      0xffffffffffffffffffffffffffffffffffffffff\n      and\n      sub\n        /* \"Desktop/solidity/tubitak/login/contracts/UserPanel.sol\":1488:1544  require(_walletAddress != address(0), \"Invalid address\") */\n      tag_36\n      jumpi\n      mload(0x40)\n      0x08c379a000000000000000000000000000000000000000000000000000000000\n      dup2\n      mstore\n      0x04\n      add\n      tag_37\n      swap1\n      tag_38\n      jump\t// in\n    tag_37:\n      mload(0x40)\n      dup1\n      swap2\n      sub\n      swap1\n      revert\n    tag_36:\n        /* \"Desktop/solidity/tubitak/login/contracts/UserPanel.sol\":1564:1569  users */\n      0x00\n        /* \"Desktop/solidity/tubitak/login/contracts/UserPanel.sol\":1564:1585  users[_walletAddress] */\n      dup1\n        /* \"Desktop/solidity/tubitak/login/contracts/UserPanel.sol\":1570:1584  _walletAddress */\n      dup4\n        /* \"Desktop/solidity/tubitak/login/contracts/UserPanel.sol\":1564:1585  users[_walletAddress] */\n      0xffffffffffffffffffffffffffffffffffffffff\n      and\n      0xffffffffffffffffffffffffffffffffffffffff\n      and\n      dup2\n      mstore\n      0x20\n      add\n      swap1\n      dup2\n      mstore\n      0x20\n      add\n      0x00\n      keccak256\n        /* \"Desktop/solidity/tubitak/login/contracts/UserPanel.sol\":1564:1593  users[_walletAddress].isAdmin */\n      0x01\n      add\n      0x14\n      swap1\n      sload\n      swap1\n      0x0100\n      exp\n      swap1\n      div\n      0xff\n      and\n        /* \"Desktop/solidity/tubitak/login/contracts/UserPanel.sol\":1557:1593  return users[_walletAddress].isAdmin */\n      swap1\n      pop\n        /* \"Desktop/solidity/tubitak/login/contracts/UserPanel.sol\":1409:1601  function isAdmin(address _walletAddress) public view returns (bool) {... */\n      swap2\n      swap1\n      pop\n      jump\t// out\n        /* \"Desktop/solidity/tubitak/login/contracts/UserPanel.sol\":1118:1401  function getUser(address _walletAddress) public view returns (string memory, address, bool) {... */\n    tag_17:\n        /* \"Desktop/solidity/tubitak/login/contracts/UserPanel.sol\":1180:1193  string memory */\n      0x60\n        /* \"Desktop/solidity/tubitak/login/contracts/UserPanel.sol\":1195:1202  address */\n      0x00\n        /* \"Desktop/solidity/tubitak/login/contracts/UserPanel.sol\":1204:1208  bool */\n      dup1\n        /* \"Desktop/solidity/tubitak/login/contracts/UserPanel.sol\":1255:1256  0 */\n      0x00\n        /* \"Desktop/solidity/tubitak/login/contracts/UserPanel.sol\":1229:1257  _walletAddress != address(0) */\n      0xffffffffffffffffffffffffffffffffffffffff\n      and\n        /* \"Desktop/solidity/tubitak/login/contracts/UserPanel.sol\":1229:1243  _walletAddress */\n      dup5\n        /* \"Desktop/solidity/tubitak/login/contracts/UserPanel.sol\":1229:1257  _walletAddress != address(0) */\n      0xffffffffffffffffffffffffffffffffffffffff\n      and\n      sub\n        /* \"Desktop/solidity/tubitak/login/contracts/UserPanel.sol\":1221:1277  require(_walletAddress != address(0), \"Invalid address\") */\n      tag_40\n      jumpi\n      mload(0x40)\n      0x08c379a000000000000000000000000000000000000000000000000000000000\n      dup2\n      mstore\n      0x04\n      add\n      tag_41\n      swap1\n      tag_38\n      jump\t// in\n    tag_41:\n      mload(0x40)\n      dup1\n      swap2\n      sub\n      swap1\n      revert\n    tag_40:\n        /* \"Desktop/solidity/tubitak/login/contracts/UserPanel.sol\":1290:1306  User memory user */\n      0x00\n        /* \"Desktop/solidity/tubitak/login/contracts/UserPanel.sol\":1309:1314  users */\n      dup1\n        /* \"Desktop/solidity/tubitak/login/contracts/UserPanel.sol\":1309:1330  users[_walletAddress] */\n      0x00\n        /* \"Desktop/solidity/tubitak/login/contracts/UserPanel.sol\":1315:1329  _walletAddress */\n      dup7\n        /* \"Desktop/solidity/tubitak/login/contracts/UserPanel.sol\":1309:1330  users[_walletAddress] */\n      0xffffffffffffffffffffffffffffffffffffffff\n      and\n      0xffffffffffffffffffffffffffffffffffffffff\n      and\n      dup2\n      mstore\n      0x20\n      add\n      swap1\n      dup2\n      mstore\n      0x20\n      add\n      0x00\n      keccak256\n        /* \"Desktop/solidity/tubitak/login/contracts/UserPanel.sol\":1290:1330  User memory user = users[_walletAddress] */\n      mload(0x40)\n      dup1\n      0x60\n      add\n      0x40\n      mstore\n      swap1\n      dup2\n      0x00\n      dup3\n      add\n      dup1\n      sload\n      tag_42\n      swap1\n      tag_43\n      jump\t// in\n    tag_42:\n      dup1\n      0x1f\n      add\n      0x20\n      dup1\n      swap2\n      div\n      mul\n      0x20\n      add\n      mload(0x40)\n      swap1\n      dup2\n      add\n      0x40\n      mstore\n      dup1\n      swap3\n      swap2\n      swap1\n      dup2\n      dup2\n      mstore\n      0x20\n      add\n      dup3\n      dup1\n      sload\n      tag_44\n      swap1\n      tag_43\n      jump\t// in\n    tag_44:\n      dup1\n      iszero\n      tag_45\n      jumpi\n      dup1\n      0x1f\n      lt\n      tag_46\n      jumpi\n      0x0100\n      dup1\n      dup4\n      sload\n      div\n      mul\n      dup4\n      mstore\n      swap2\n      0x20\n      add\n      swap2\n      jump(tag_45)\n    tag_46:\n      dup3\n      add\n      swap2\n      swap1\n      0x00\n      mstore\n      keccak256(0x00, 0x20)\n      swap1\n    tag_47:\n      dup2\n      sload\n      dup2\n      mstore\n      swap1\n      0x01\n      add\n      swap1\n      0x20\n      add\n      dup1\n      dup4\n      gt\n      tag_47\n      jumpi\n      dup3\n      swap1\n      sub\n      0x1f\n      and\n      dup3\n      add\n      swap2\n    tag_45:\n      pop\n      pop\n      pop\n      pop\n      pop\n      dup2\n      mstore\n      0x20\n      add\n      0x01\n      dup3\n      add\n      0x00\n      swap1\n      sload\n      swap1\n      0x0100\n      exp\n      swap1\n      div\n      0xffffffffffffffffffffffffffffffffffffffff\n      and\n      0xffffffffffffffffffffffffffffffffffffffff\n      and\n      0xffffffffffffffffffffffffffffffffffffffff\n      and\n      dup2\n      mstore\n      0x20\n      add\n      0x01\n      dup3\n      add\n      0x14\n      swap1\n      sload\n      swap1\n      0x0100\n      exp\n      swap1\n      div\n      0xff\n      and\n      iszero\n      iszero\n      iszero\n      iszero\n      dup2\n      mstore\n      pop\n      pop\n      swap1\n      pop\n        /* \"Desktop/solidity/tubitak/login/contracts/UserPanel.sol\":1349:1353  user */\n      dup1\n        /* \"Desktop/solidity/tubitak/login/contracts/UserPanel.sol\":1349:1358  user.name */\n      0x00\n      add\n      mload\n        /* \"Desktop/solidity/tubitak/login/contracts/UserPanel.sol\":1360:1364  user */\n      dup2\n        /* \"Desktop/solidity/tubitak/login/contracts/UserPanel.sol\":1360:1378  user.walletAddress */\n      0x20\n      add\n      mload\n        /* \"Desktop/solidity/tubitak/login/contracts/UserPanel.sol\":1380:1384  user */\n      dup3\n        /* \"Desktop/solidity/tubitak/login/contracts/UserPanel.sol\":1380:1392  user.isAdmin */\n      0x40\n      add\n      mload\n        /* \"Desktop/solidity/tubitak/login/contracts/UserPanel.sol\":1341:1393  return (user.name, user.walletAddress, user.isAdmin) */\n      swap4\n      pop\n      swap4\n      pop\n      swap4\n      pop\n      pop\n        /* \"Desktop/solidity/tubitak/login/contracts/UserPanel.sol\":1118:1401  function getUser(address _walletAddress) public view returns (string memory, address, bool) {... */\n      swap2\n      swap4\n      swap1\n      swap3\n      pop\n      jump\t// out\n        /* \"Desktop/solidity/tubitak/login/contracts/UserPanel.sol\":1714:1871  function changeAdmin(address _newAdmin) public onlyAdmin {... */\n    tag_22:\n        /* \"Desktop/solidity/tubitak/login/contracts/UserPanel.sol\":442:447  admin */\n      0x02\n      0x00\n      swap1\n      sload\n      swap1\n      0x0100\n      exp\n      swap1\n      div\n      0xffffffffffffffffffffffffffffffffffffffff\n      and\n        /* \"Desktop/solidity/tubitak/login/contracts/UserPanel.sol\":428:447  msg.sender == admin */\n      0xffffffffffffffffffffffffffffffffffffffff\n      and\n        /* \"Desktop/solidity/tubitak/login/contracts/UserPanel.sol\":428:438  msg.sender */\n      caller\n        /* \"Desktop/solidity/tubitak/login/contracts/UserPanel.sol\":428:447  msg.sender == admin */\n      0xffffffffffffffffffffffffffffffffffffffff\n      and\n      eq\n        /* \"Desktop/solidity/tubitak/login/contracts/UserPanel.sol\":420:485  require(msg.sender == admin, \"Only admin can call this function\") */\n      tag_49\n      jumpi\n      mload(0x40)\n      0x08c379a000000000000000000000000000000000000000000000000000000000\n      dup2\n      mstore\n      0x04\n      add\n      tag_50\n      swap1\n      tag_51\n      jump\t// in\n    tag_50:\n      mload(0x40)\n      dup1\n      swap2\n      sub\n      swap1\n      revert\n    tag_49:\n        /* \"Desktop/solidity/tubitak/login/contracts/UserPanel.sol\":1811:1812  0 */\n      0x00\n        /* \"Desktop/solidity/tubitak/login/contracts/UserPanel.sol\":1790:1813  _newAdmin != address(0) */\n      0xffffffffffffffffffffffffffffffffffffffff\n      and\n        /* \"Desktop/solidity/tubitak/login/contracts/UserPanel.sol\":1790:1799  _newAdmin */\n      dup2\n        /* \"Desktop/solidity/tubitak/login/contracts/UserPanel.sol\":1790:1813  _newAdmin != address(0) */\n      0xffffffffffffffffffffffffffffffffffffffff\n      and\n      sub\n        /* \"Desktop/solidity/tubitak/login/contracts/UserPanel.sol\":1782:1833  require(_newAdmin != address(0), \"Invalid address\") */\n      tag_53\n      jumpi\n      mload(0x40)\n      0x08c379a000000000000000000000000000000000000000000000000000000000\n      dup2\n      mstore\n      0x04\n      add\n      tag_54\n      swap1\n      tag_38\n      jump\t// in\n    tag_54:\n      mload(0x40)\n      dup1\n      swap2\n      sub\n      swap1\n      revert\n    tag_53:\n        /* \"Desktop/solidity/tubitak/login/contracts/UserPanel.sol\":1854:1863  _newAdmin */\n      dup1\n        /* \"Desktop/solidity/tubitak/login/contracts/UserPanel.sol\":1846:1851  admin */\n      0x02\n      0x00\n        /* \"Desktop/solidity/tubitak/login/contracts/UserPanel.sol\":1846:1863  admin = _newAdmin */\n      0x0100\n      exp\n      dup2\n      sload\n      dup2\n      0xffffffffffffffffffffffffffffffffffffffff\n      mul\n      not\n      and\n      swap1\n      dup4\n      0xffffffffffffffffffffffffffffffffffffffff\n      and\n      mul\n      or\n      swap1\n      sstore\n      pop\n        /* \"Desktop/solidity/tubitak/login/contracts/UserPanel.sol\":1714:1871  function changeAdmin(address _newAdmin) public onlyAdmin {... */\n      pop\n      jump\t// out\n        /* \"Desktop/solidity/tubitak/login/contracts/UserPanel.sol\":1609:1706  function getUserCount() public view returns (uint) {... */\n    tag_24:\n        /* \"Desktop/solidity/tubitak/login/contracts/UserPanel.sol\":1654:1658  uint */\n      0x00\n        /* \"Desktop/solidity/tubitak/login/contracts/UserPanel.sol\":1678:1691  userAddresses */\n      0x01\n        /* \"Desktop/solidity/tubitak/login/contracts/UserPanel.sol\":1678:1698  userAddresses.length */\n      dup1\n      sload\n      swap1\n      pop\n        /* \"Desktop/solidity/tubitak/login/contracts/UserPanel.sol\":1671:1698  return userAddresses.length */\n      swap1\n      pop\n        /* \"Desktop/solidity/tubitak/login/contracts/UserPanel.sol\":1609:1706  function getUserCount() public view returns (uint) {... */\n      swap1\n      jump\t// out\n        /* \"Desktop/solidity/tubitak/login/contracts/UserPanel.sol\":279:299  address public admin */\n    tag_28:\n      0x02\n      0x00\n      swap1\n      sload\n      swap1\n      0x0100\n      exp\n      swap1\n      div\n      0xffffffffffffffffffffffffffffffffffffffff\n      and\n      dup2\n      jump\t// out\n        /* \"Desktop/solidity/tubitak/login/contracts/UserPanel.sol\":613:1110  function addUser(string memory _name, address _walletAddress, bool _isAdmin) public {... */\n    tag_34:\n        /* \"Desktop/solidity/tubitak/login/contracts/UserPanel.sol\":742:743  0 */\n      0x00\n        /* \"Desktop/solidity/tubitak/login/contracts/UserPanel.sol\":716:744  _walletAddress != address(0) */\n      0xffffffffffffffffffffffffffffffffffffffff\n      and\n        /* \"Desktop/solidity/tubitak/login/contracts/UserPanel.sol\":716:730  _walletAddress */\n      dup3\n        /* \"Desktop/solidity/tubitak/login/contracts/UserPanel.sol\":716:744  _walletAddress != address(0) */\n      0xffffffffffffffffffffffffffffffffffffffff\n      and\n      sub\n        /* \"Desktop/solidity/tubitak/login/contracts/UserPanel.sol\":708:764  require(_walletAddress != address(0), \"Invalid address\") */\n      tag_57\n      jumpi\n      mload(0x40)\n      0x08c379a000000000000000000000000000000000000000000000000000000000\n      dup2\n      mstore\n      0x04\n      add\n      tag_58\n      swap1\n      tag_38\n      jump\t// in\n    tag_58:\n      mload(0x40)\n      dup1\n      swap2\n      sub\n      swap1\n      revert\n    tag_57:\n        /* \"Desktop/solidity/tubitak/login/contracts/UserPanel.sol\":805:806  0 */\n      0x00\n        /* \"Desktop/solidity/tubitak/login/contracts/UserPanel.sol\":789:794  _name */\n      dup4\n        /* \"Desktop/solidity/tubitak/login/contracts/UserPanel.sol\":783:802  bytes(_name).length */\n      mload\n        /* \"Desktop/solidity/tubitak/login/contracts/UserPanel.sol\":783:806  bytes(_name).length > 0 */\n      gt\n        /* \"Desktop/solidity/tubitak/login/contracts/UserPanel.sol\":775:831  require(bytes(_name).length > 0, \"Name cannot be empty\") */\n      tag_59\n      jumpi\n      mload(0x40)\n      0x08c379a000000000000000000000000000000000000000000000000000000000\n      dup2\n      mstore\n      0x04\n      add\n      tag_60\n      swap1\n      tag_61\n      jump\t// in\n    tag_60:\n      mload(0x40)\n      dup1\n      swap2\n      sub\n      swap1\n      revert\n    tag_59:\n        /* \"Desktop/solidity/tubitak/login/contracts/UserPanel.sol\":897:898  0 */\n      0x00\n        /* \"Desktop/solidity/tubitak/login/contracts/UserPanel.sol\":850:899  users[_walletAddress].walletAddress == address(0) */\n      0xffffffffffffffffffffffffffffffffffffffff\n      and\n        /* \"Desktop/solidity/tubitak/login/contracts/UserPanel.sol\":850:855  users */\n      0x00\n        /* \"Desktop/solidity/tubitak/login/contracts/UserPanel.sol\":850:871  users[_walletAddress] */\n      dup1\n        /* \"Desktop/solidity/tubitak/login/contracts/UserPanel.sol\":856:870  _walletAddress */\n      dup5\n        /* \"Desktop/solidity/tubitak/login/contracts/UserPanel.sol\":850:871  users[_walletAddress] */\n      0xffffffffffffffffffffffffffffffffffffffff\n      and\n      0xffffffffffffffffffffffffffffffffffffffff\n      and\n      dup2\n      mstore\n      0x20\n      add\n      swap1\n      dup2\n      mstore\n      0x20\n      add\n      0x00\n      keccak256\n        /* \"Desktop/solidity/tubitak/login/contracts/UserPanel.sol\":850:885  users[_walletAddress].walletAddress */\n      0x01\n      add\n      0x00\n      swap1\n      sload\n      swap1\n      0x0100\n      exp\n      swap1\n      div\n      0xffffffffffffffffffffffffffffffffffffffff\n      and\n        /* \"Desktop/solidity/tubitak/login/contracts/UserPanel.sol\":850:899  users[_walletAddress].walletAddress == address(0) */\n      0xffffffffffffffffffffffffffffffffffffffff\n      and\n      eq\n        /* \"Desktop/solidity/tubitak/login/contracts/UserPanel.sol\":842:923  require(users[_walletAddress].walletAddress == address(0), \"User already exists\") */\n      tag_62\n      jumpi\n      mload(0x40)\n      0x08c379a000000000000000000000000000000000000000000000000000000000\n      dup2\n      mstore\n      0x04\n      add\n      tag_63\n      swap1\n      tag_64\n      jump\t// in\n    tag_63:\n      mload(0x40)\n      dup1\n      swap2\n      sub\n      swap1\n      revert\n    tag_62:\n        /* \"Desktop/solidity/tubitak/login/contracts/UserPanel.sol\":960:997  User(_name, _walletAddress, _isAdmin) */\n      mload(0x40)\n      dup1\n      0x60\n      add\n      0x40\n      mstore\n      dup1\n        /* \"Desktop/solidity/tubitak/login/contracts/UserPanel.sol\":965:970  _name */\n      dup5\n        /* \"Desktop/solidity/tubitak/login/contracts/UserPanel.sol\":960:997  User(_name, _walletAddress, _isAdmin) */\n      dup2\n      mstore\n      0x20\n      add\n        /* \"Desktop/solidity/tubitak/login/contracts/UserPanel.sol\":972:986  _walletAddress */\n      dup4\n        /* \"Desktop/solidity/tubitak/login/contracts/UserPanel.sol\":960:997  User(_name, _walletAddress, _isAdmin) */\n      0xffffffffffffffffffffffffffffffffffffffff\n      and\n      dup2\n      mstore\n      0x20\n      add\n        /* \"Desktop/solidity/tubitak/login/contracts/UserPanel.sol\":988:996  _isAdmin */\n      dup3\n        /* \"Desktop/solidity/tubitak/login/contracts/UserPanel.sol\":960:997  User(_name, _walletAddress, _isAdmin) */\n      iszero\n      iszero\n      dup2\n      mstore\n      pop\n        /* \"Desktop/solidity/tubitak/login/contracts/UserPanel.sol\":936:941  users */\n      0x00\n        /* \"Desktop/solidity/tubitak/login/contracts/UserPanel.sol\":936:957  users[_walletAddress] */\n      dup1\n        /* \"Desktop/solidity/tubitak/login/contracts/UserPanel.sol\":942:956  _walletAddress */\n      dup5\n        /* \"Desktop/solidity/tubitak/login/contracts/UserPanel.sol\":936:957  users[_walletAddress] */\n      0xffffffffffffffffffffffffffffffffffffffff\n      and\n      0xffffffffffffffffffffffffffffffffffffffff\n      and\n      dup2\n      mstore\n      0x20\n      add\n      swap1\n      dup2\n      mstore\n      0x20\n      add\n      0x00\n      keccak256\n        /* \"Desktop/solidity/tubitak/login/contracts/UserPanel.sol\":936:997  users[_walletAddress] = User(_name, _walletAddress, _isAdmin) */\n      0x00\n      dup3\n      add\n      mload\n      dup2\n      0x00\n      add\n      swap1\n      dup2\n      tag_65\n      swap2\n      swap1\n      tag_66\n      jump\t// in\n    tag_65:\n      pop\n      0x20\n      dup3\n      add\n      mload\n      dup2\n      0x01\n      add\n      exp(0x0100, 0x00)\n      dup2\n      sload\n      dup2\n      0xffffffffffffffffffffffffffffffffffffffff\n      mul\n      not\n      and\n      swap1\n      dup4\n      0xffffffffffffffffffffffffffffffffffffffff\n      and\n      mul\n      or\n      swap1\n      sstore\n      pop\n      0x40\n      dup3\n      add\n      mload\n      dup2\n      0x01\n      add\n      exp(0x0100, 0x14)\n      dup2\n      sload\n      dup2\n      0xff\n      mul\n      not\n      and\n      swap1\n      dup4\n      iszero\n      iszero\n      mul\n      or\n      swap1\n      sstore\n      pop\n      swap1\n      pop\n      pop\n        /* \"Desktop/solidity/tubitak/login/contracts/UserPanel.sol\":1008:1021  userAddresses */\n      0x01\n        /* \"Desktop/solidity/tubitak/login/contracts/UserPanel.sol\":1027:1041  _walletAddress */\n      dup3\n        /* \"Desktop/solidity/tubitak/login/contracts/UserPanel.sol\":1008:1042  userAddresses.push(_walletAddress) */\n      swap1\n      dup1\n      0x01\n      dup2\n      sload\n      add\n      dup1\n      dup3\n      sstore\n      dup1\n      swap2\n      pop\n      pop\n      0x01\n      swap1\n      sub\n      swap1\n      0x00\n      mstore\n      keccak256(0x00, 0x20)\n      add\n      0x00\n      swap1\n      swap2\n      swap1\n      swap2\n      swap1\n      swap2\n      0x0100\n      exp\n      dup2\n      sload\n      dup2\n      0xffffffffffffffffffffffffffffffffffffffff\n      mul\n      not\n      and\n      swap1\n      dup4\n      0xffffffffffffffffffffffffffffffffffffffff\n      and\n      mul\n      or\n      swap1\n      sstore\n      pop\n        /* \"Desktop/solidity/tubitak/login/contracts/UserPanel.sol\":1070:1084  _walletAddress */\n      dup2\n        /* \"Desktop/solidity/tubitak/login/contracts/UserPanel.sol\":1060:1102  UserAdded(_walletAddress, _name, _isAdmin) */\n      0xffffffffffffffffffffffffffffffffffffffff\n      and\n      0x8da4d08b660148e3aeec5166e2b51fd9cac5dfac04471806402bea745db272f7\n        /* \"Desktop/solidity/tubitak/login/contracts/UserPanel.sol\":1086:1091  _name */\n      dup5\n        /* \"Desktop/solidity/tubitak/login/contracts/UserPanel.sol\":1093:1101  _isAdmin */\n      dup4\n        /* \"Desktop/solidity/tubitak/login/contracts/UserPanel.sol\":1060:1102  UserAdded(_walletAddress, _name, _isAdmin) */\n      mload(0x40)\n      tag_68\n      swap3\n      swap2\n      swap1\n      tag_69\n      jump\t// in\n    tag_68:\n      mload(0x40)\n      dup1\n      swap2\n      sub\n      swap1\n      log2\n        /* \"Desktop/solidity/tubitak/login/contracts/UserPanel.sol\":613:1110  function addUser(string memory _name, address _walletAddress, bool _isAdmin) public {... */\n      pop\n      pop\n      pop\n      jump\t// out\n        /* \"#utility.yul\":7:82   */\n    tag_70:\n        /* \"#utility.yul\":40:46   */\n      0x00\n        /* \"#utility.yul\":73:75   */\n      0x40\n        /* \"#utility.yul\":67:76   */\n      mload\n        /* \"#utility.yul\":57:76   */\n      swap1\n      pop\n        /* \"#utility.yul\":7:82   */\n      swap1\n      jump\t// out\n        /* \"#utility.yul\":88:205   */\n    tag_71:\n        /* \"#utility.yul\":197:198   */\n      0x00\n        /* \"#utility.yul\":194:195   */\n      dup1\n        /* \"#utility.yul\":187:199   */\n      revert\n        /* \"#utility.yul\":211:328   */\n    tag_72:\n        /* \"#utility.yul\":320:321   */\n      0x00\n        /* \"#utility.yul\":317:318   */\n      dup1\n        /* \"#utility.yul\":310:322   */\n      revert\n        /* \"#utility.yul\":334:460   */\n    tag_73:\n        /* \"#utility.yul\":371:378   */\n      0x00\n        /* \"#utility.yul\":411:453   */\n      0xffffffffffffffffffffffffffffffffffffffff\n        /* \"#utility.yul\":404:409   */\n      dup3\n        /* \"#utility.yul\":400:454   */\n      and\n        /* \"#utility.yul\":389:454   */\n      swap1\n      pop\n        /* \"#utility.yul\":334:460   */\n      swap2\n      swap1\n      pop\n      jump\t// out\n        /* \"#utility.yul\":466:562   */\n    tag_74:\n        /* \"#utility.yul\":503:510   */\n      0x00\n        /* \"#utility.yul\":532:556   */\n      tag_128\n        /* \"#utility.yul\":550:555   */\n      dup3\n        /* \"#utility.yul\":532:556   */\n      tag_73\n      jump\t// in\n    tag_128:\n        /* \"#utility.yul\":521:556   */\n      swap1\n      pop\n        /* \"#utility.yul\":466:562   */\n      swap2\n      swap1\n      pop\n      jump\t// out\n        /* \"#utility.yul\":568:690   */\n    tag_75:\n        /* \"#utility.yul\":641:665   */\n      tag_130\n        /* \"#utility.yul\":659:664   */\n      dup2\n        /* \"#utility.yul\":641:665   */\n      tag_74\n      jump\t// in\n    tag_130:\n        /* \"#utility.yul\":634:639   */\n      dup2\n        /* \"#utility.yul\":631:666   */\n      eq\n        /* \"#utility.yul\":621:684   */\n      tag_131\n      jumpi\n        /* \"#utility.yul\":680:681   */\n      0x00\n        /* \"#utility.yul\":677:678   */\n      dup1\n        /* \"#utility.yul\":670:682   */\n      revert\n        /* \"#utility.yul\":621:684   */\n    tag_131:\n        /* \"#utility.yul\":568:690   */\n      pop\n      jump\t// out\n        /* \"#utility.yul\":696:835   */\n    tag_76:\n        /* \"#utility.yul\":742:747   */\n      0x00\n        /* \"#utility.yul\":780:786   */\n      dup2\n        /* \"#utility.yul\":767:787   */\n      calldataload\n        /* \"#utility.yul\":758:787   */\n      swap1\n      pop\n        /* \"#utility.yul\":796:829   */\n      tag_133\n        /* \"#utility.yul\":823:828   */\n      dup2\n        /* \"#utility.yul\":796:829   */\n      tag_75\n      jump\t// in\n    tag_133:\n        /* \"#utility.yul\":696:835   */\n      swap3\n      swap2\n      pop\n      pop\n      jump\t// out\n        /* \"#utility.yul\":841:1170   */\n    tag_11:\n        /* \"#utility.yul\":900:906   */\n      0x00\n        /* \"#utility.yul\":949:951   */\n      0x20\n        /* \"#utility.yul\":937:946   */\n      dup3\n        /* \"#utility.yul\":928:935   */\n      dup5\n        /* \"#utility.yul\":924:947   */\n      sub\n        /* \"#utility.yul\":920:952   */\n      slt\n        /* \"#utility.yul\":917:1036   */\n      iszero\n      tag_135\n      jumpi\n        /* \"#utility.yul\":955:1034   */\n      tag_136\n      tag_71\n      jump\t// in\n    tag_136:\n        /* \"#utility.yul\":917:1036   */\n    tag_135:\n        /* \"#utility.yul\":1075:1076   */\n      0x00\n        /* \"#utility.yul\":1100:1153   */\n      tag_137\n        /* \"#utility.yul\":1145:1152   */\n      dup5\n        /* \"#utility.yul\":1136:1142   */\n      dup3\n        /* \"#utility.yul\":1125:1134   */\n      dup6\n        /* \"#utility.yul\":1121:1143   */\n      add\n        /* \"#utility.yul\":1100:1153   */\n      tag_76\n      jump\t// in\n    tag_137:\n        /* \"#utility.yul\":1090:1153   */\n      swap2\n      pop\n        /* \"#utility.yul\":1046:1163   */\n      pop\n        /* \"#utility.yul\":841:1170   */\n      swap3\n      swap2\n      pop\n      pop\n      jump\t// out\n        /* \"#utility.yul\":1176:1266   */\n    tag_77:\n        /* \"#utility.yul\":1210:1217   */\n      0x00\n        /* \"#utility.yul\":1253:1258   */\n      dup2\n        /* \"#utility.yul\":1246:1259   */\n      iszero\n        /* \"#utility.yul\":1239:1260   */\n      iszero\n        /* \"#utility.yul\":1228:1260   */\n      swap1\n      pop\n        /* \"#utility.yul\":1176:1266   */\n      swap2\n      swap1\n      pop\n      jump\t// out\n        /* \"#utility.yul\":1272:1381   */\n    tag_78:\n        /* \"#utility.yul\":1353:1374   */\n      tag_140\n        /* \"#utility.yul\":1368:1373   */\n      dup2\n        /* \"#utility.yul\":1353:1374   */\n      tag_77\n      jump\t// in\n    tag_140:\n        /* \"#utility.yul\":1348:1351   */\n      dup3\n        /* \"#utility.yul\":1341:1375   */\n      mstore\n        /* \"#utility.yul\":1272:1381   */\n      pop\n      pop\n      jump\t// out\n        /* \"#utility.yul\":1387:1597   */\n    tag_14:\n        /* \"#utility.yul\":1474:1478   */\n      0x00\n        /* \"#utility.yul\":1512:1514   */\n      0x20\n        /* \"#utility.yul\":1501:1510   */\n      dup3\n        /* \"#utility.yul\":1497:1515   */\n      add\n        /* \"#utility.yul\":1489:1515   */\n      swap1\n      pop\n        /* \"#utility.yul\":1525:1590   */\n      tag_142\n        /* \"#utility.yul\":1587:1588   */\n      0x00\n        /* \"#utility.yul\":1576:1585   */\n      dup4\n        /* \"#utility.yul\":1572:1589   */\n      add\n        /* \"#utility.yul\":1563:1569   */\n      dup5\n        /* \"#utility.yul\":1525:1590   */\n      tag_78\n      jump\t// in\n    tag_142:\n        /* \"#utility.yul\":1387:1597   */\n      swap3\n      swap2\n      pop\n      pop\n      jump\t// out\n        /* \"#utility.yul\":1603:1702   */\n    tag_79:\n        /* \"#utility.yul\":1655:1661   */\n      0x00\n        /* \"#utility.yul\":1689:1694   */\n      dup2\n        /* \"#utility.yul\":1683:1695   */\n      mload\n        /* \"#utility.yul\":1673:1695   */\n      swap1\n      pop\n        /* \"#utility.yul\":1603:1702   */\n      swap2\n      swap1\n      pop\n      jump\t// out\n        /* \"#utility.yul\":1708:1877   */\n    tag_80:\n        /* \"#utility.yul\":1792:1803   */\n      0x00\n        /* \"#utility.yul\":1826:1832   */\n      dup3\n        /* \"#utility.yul\":1821:1824   */\n      dup3\n        /* \"#utility.yul\":1814:1833   */\n      mstore\n        /* \"#utility.yul\":1866:1870   */\n      0x20\n        /* \"#utility.yul\":1861:1864   */\n      dup3\n        /* \"#utility.yul\":1857:1871   */\n      add\n        /* \"#utility.yul\":1842:1871   */\n      swap1\n      pop\n        /* \"#utility.yul\":1708:1877   */\n      swap3\n      swap2\n      pop\n      pop\n      jump\t// out\n        /* \"#utility.yul\":1883:2129   */\n    tag_81:\n        /* \"#utility.yul\":1964:1965   */\n      0x00\n        /* \"#utility.yul\":1974:2087   */\n    tag_146:\n        /* \"#utility.yul\":1988:1994   */\n      dup4\n        /* \"#utility.yul\":1985:1986   */\n      dup2\n        /* \"#utility.yul\":1982:1995   */\n      lt\n        /* \"#utility.yul\":1974:2087   */\n      iszero\n      tag_148\n      jumpi\n        /* \"#utility.yul\":2073:2074   */\n      dup1\n        /* \"#utility.yul\":2068:2071   */\n      dup3\n        /* \"#utility.yul\":2064:2075   */\n      add\n        /* \"#utility.yul\":2058:2076   */\n      mload\n        /* \"#utility.yul\":2054:2055   */\n      dup2\n        /* \"#utility.yul\":2049:2052   */\n      dup5\n        /* \"#utility.yul\":2045:2056   */\n      add\n        /* \"#utility.yul\":2038:2077   */\n      mstore\n        /* \"#utility.yul\":2010:2012   */\n      0x20\n        /* \"#utility.yul\":2007:2008   */\n      dup2\n        /* \"#utility.yul\":2003:2013   */\n      add\n        /* \"#utility.yul\":1998:2013   */\n      swap1\n      pop\n        /* \"#utility.yul\":1974:2087   */\n      jump(tag_146)\n    tag_148:\n        /* \"#utility.yul\":2121:2122   */\n      0x00\n        /* \"#utility.yul\":2112:2118   */\n      dup5\n        /* \"#utility.yul\":2107:2110   */\n      dup5\n        /* \"#utility.yul\":2103:2119   */\n      add\n        /* \"#utility.yul\":2096:2123   */\n      mstore\n        /* \"#utility.yul\":1945:2129   */\n      pop\n        /* \"#utility.yul\":1883:2129   */\n      pop\n      pop\n      pop\n      jump\t// out\n        /* \"#utility.yul\":2135:2237   */\n    tag_82:\n        /* \"#utility.yul\":2176:2182   */\n      0x00\n        /* \"#utility.yul\":2227:2229   */\n      0x1f\n        /* \"#utility.yul\":2223:2230   */\n      not\n        /* \"#utility.yul\":2218:2220   */\n      0x1f\n        /* \"#utility.yul\":2211:2216   */\n      dup4\n        /* \"#utility.yul\":2207:2221   */\n      add\n        /* \"#utility.yul\":2203:2231   */\n      and\n        /* \"#utility.yul\":2193:2231   */\n      swap1\n      pop\n        /* \"#utility.yul\":2135:2237   */\n      swap2\n      swap1\n      pop\n      jump\t// out\n        /* \"#utility.yul\":2243:2620   */\n    tag_83:\n        /* \"#utility.yul\":2331:2334   */\n      0x00\n        /* \"#utility.yul\":2359:2398   */\n      tag_151\n        /* \"#utility.yul\":2392:2397   */\n      dup3\n        /* \"#utility.yul\":2359:2398   */\n      tag_79\n      jump\t// in\n    tag_151:\n        /* \"#utility.yul\":2414:2485   */\n      tag_152\n        /* \"#utility.yul\":2478:2484   */\n      dup2\n        /* \"#utility.yul\":2473:2476   */\n      dup6\n        /* \"#utility.yul\":2414:2485   */\n      tag_80\n      jump\t// in\n    tag_152:\n        /* \"#utility.yul\":2407:2485   */\n      swap4\n      pop\n        /* \"#utility.yul\":2494:2559   */\n      tag_153\n        /* \"#utility.yul\":2552:2558   */\n      dup2\n        /* \"#utility.yul\":2547:2550   */\n      dup6\n        /* \"#utility.yul\":2540:2544   */\n      0x20\n        /* \"#utility.yul\":2533:2538   */\n      dup7\n        /* \"#utility.yul\":2529:2545   */\n      add\n        /* \"#utility.yul\":2494:2559   */\n      tag_81\n      jump\t// in\n    tag_153:\n        /* \"#utility.yul\":2584:2613   */\n      tag_154\n        /* \"#utility.yul\":2606:2612   */\n      dup2\n        /* \"#utility.yul\":2584:2613   */\n      tag_82\n      jump\t// in\n    tag_154:\n        /* \"#utility.yul\":2579:2582   */\n      dup5\n        /* \"#utility.yul\":2575:2614   */\n      add\n        /* \"#utility.yul\":2568:2614   */\n      swap2\n      pop\n        /* \"#utility.yul\":2335:2620   */\n      pop\n        /* \"#utility.yul\":2243:2620   */\n      swap3\n      swap2\n      pop\n      pop\n      jump\t// out\n        /* \"#utility.yul\":2626:2744   */\n    tag_84:\n        /* \"#utility.yul\":2713:2737   */\n      tag_156\n        /* \"#utility.yul\":2731:2736   */\n      dup2\n        /* \"#utility.yul\":2713:2737   */\n      tag_74\n      jump\t// in\n    tag_156:\n        /* \"#utility.yul\":2708:2711   */\n      dup3\n        /* \"#utility.yul\":2701:2738   */\n      mstore\n        /* \"#utility.yul\":2626:2744   */\n      pop\n      pop\n      jump\t// out\n        /* \"#utility.yul\":2750:3271   */\n    tag_19:\n        /* \"#utility.yul\":2913:2917   */\n      0x00\n        /* \"#utility.yul\":2951:2953   */\n      0x60\n        /* \"#utility.yul\":2940:2949   */\n      dup3\n        /* \"#utility.yul\":2936:2954   */\n      add\n        /* \"#utility.yul\":2928:2954   */\n      swap1\n      pop\n        /* \"#utility.yul\":3000:3009   */\n      dup2\n        /* \"#utility.yul\":2994:2998   */\n      dup2\n        /* \"#utility.yul\":2990:3010   */\n      sub\n        /* \"#utility.yul\":2986:2987   */\n      0x00\n        /* \"#utility.yul\":2975:2984   */\n      dup4\n        /* \"#utility.yul\":2971:2988   */\n      add\n        /* \"#utility.yul\":2964:3011   */\n      mstore\n        /* \"#utility.yul\":3028:3106   */\n      tag_158\n        /* \"#utility.yul\":3101:3105   */\n      dup2\n        /* \"#utility.yul\":3092:3098   */\n      dup7\n        /* \"#utility.yul\":3028:3106   */\n      tag_83\n      jump\t// in\n    tag_158:\n        /* \"#utility.yul\":3020:3106   */\n      swap1\n      pop\n        /* \"#utility.yul\":3116:3188   */\n      tag_159\n        /* \"#utility.yul\":3184:3186   */\n      0x20\n        /* \"#utility.yul\":3173:3182   */\n      dup4\n        /* \"#utility.yul\":3169:3187   */\n      add\n        /* \"#utility.yul\":3160:3166   */\n      dup6\n        /* \"#utility.yul\":3116:3188   */\n      tag_84\n      jump\t// in\n    tag_159:\n        /* \"#utility.yul\":3198:3264   */\n      tag_160\n        /* \"#utility.yul\":3260:3262   */\n      0x40\n        /* \"#utility.yul\":3249:3258   */\n      dup4\n        /* \"#utility.yul\":3245:3263   */\n      add\n        /* \"#utility.yul\":3236:3242   */\n      dup5\n        /* \"#utility.yul\":3198:3264   */\n      tag_78\n      jump\t// in\n    tag_160:\n        /* \"#utility.yul\":2750:3271   */\n      swap5\n      swap4\n      pop\n      pop\n      pop\n      pop\n      jump\t// out\n        /* \"#utility.yul\":3277:3354   */\n    tag_85:\n        /* \"#utility.yul\":3314:3321   */\n      0x00\n        /* \"#utility.yul\":3343:3348   */\n      dup2\n        /* \"#utility.yul\":3332:3348   */\n      swap1\n      pop\n        /* \"#utility.yul\":3277:3354   */\n      swap2\n      swap1\n      pop\n      jump\t// out\n        /* \"#utility.yul\":3360:3478   */\n    tag_86:\n        /* \"#utility.yul\":3447:3471   */\n      tag_163\n        /* \"#utility.yul\":3465:3470   */\n      dup2\n        /* \"#utility.yul\":3447:3471   */\n      tag_85\n      jump\t// in\n    tag_163:\n        /* \"#utility.yul\":3442:3445   */\n      dup3\n        /* \"#utility.yul\":3435:3472   */\n      mstore\n        /* \"#utility.yul\":3360:3478   */\n      pop\n      pop\n      jump\t// out\n        /* \"#utility.yul\":3484:3706   */\n    tag_26:\n        /* \"#utility.yul\":3577:3581   */\n      0x00\n        /* \"#utility.yul\":3615:3617   */\n      0x20\n        /* \"#utility.yul\":3604:3613   */\n      dup3\n        /* \"#utility.yul\":3600:3618   */\n      add\n        /* \"#utility.yul\":3592:3618   */\n      swap1\n      pop\n        /* \"#utility.yul\":3628:3699   */\n      tag_165\n        /* \"#utility.yul\":3696:3697   */\n      0x00\n        /* \"#utility.yul\":3685:3694   */\n      dup4\n        /* \"#utility.yul\":3681:3698   */\n      add\n        /* \"#utility.yul\":3672:3678   */\n      dup5\n        /* \"#utility.yul\":3628:3699   */\n      tag_86\n      jump\t// in\n    tag_165:\n        /* \"#utility.yul\":3484:3706   */\n      swap3\n      swap2\n      pop\n      pop\n      jump\t// out\n        /* \"#utility.yul\":3712:3934   */\n    tag_30:\n        /* \"#utility.yul\":3805:3809   */\n      0x00\n        /* \"#utility.yul\":3843:3845   */\n      0x20\n        /* \"#utility.yul\":3832:3841   */\n      dup3\n        /* \"#utility.yul\":3828:3846   */\n      add\n        /* \"#utility.yul\":3820:3846   */\n      swap1\n      pop\n        /* \"#utility.yul\":3856:3927   */\n      tag_167\n        /* \"#utility.yul\":3924:3925   */\n      0x00\n        /* \"#utility.yul\":3913:3922   */\n      dup4\n        /* \"#utility.yul\":3909:3926   */\n      add\n        /* \"#utility.yul\":3900:3906   */\n      dup5\n        /* \"#utility.yul\":3856:3927   */\n      tag_84\n      jump\t// in\n    tag_167:\n        /* \"#utility.yul\":3712:3934   */\n      swap3\n      swap2\n      pop\n      pop\n      jump\t// out\n        /* \"#utility.yul\":3940:4057   */\n    tag_87:\n        /* \"#utility.yul\":4049:4050   */\n      0x00\n        /* \"#utility.yul\":4046:4047   */\n      dup1\n        /* \"#utility.yul\":4039:4051   */\n      revert\n        /* \"#utility.yul\":4063:4180   */\n    tag_88:\n        /* \"#utility.yul\":4172:4173   */\n      0x00\n        /* \"#utility.yul\":4169:4170   */\n      dup1\n        /* \"#utility.yul\":4162:4174   */\n      revert\n        /* \"#utility.yul\":4186:4366   */\n    tag_89:\n        /* \"#utility.yul\":4234:4311   */\n      0x4e487b7100000000000000000000000000000000000000000000000000000000\n        /* \"#utility.yul\":4231:4232   */\n      0x00\n        /* \"#utility.yul\":4224:4312   */\n      mstore\n        /* \"#utility.yul\":4331:4335   */\n      0x41\n        /* \"#utility.yul\":4328:4329   */\n      0x04\n        /* \"#utility.yul\":4321:4336   */\n      mstore\n        /* \"#utility.yul\":4355:4359   */\n      0x24\n        /* \"#utility.yul\":4352:4353   */\n      0x00\n        /* \"#utility.yul\":4345:4360   */\n      revert\n        /* \"#utility.yul\":4372:4653   */\n    tag_90:\n        /* \"#utility.yul\":4455:4482   */\n      tag_172\n        /* \"#utility.yul\":4477:4481   */\n      dup3\n        /* \"#utility.yul\":4455:4482   */\n      tag_82\n      jump\t// in\n    tag_172:\n        /* \"#utility.yul\":4447:4453   */\n      dup2\n        /* \"#utility.yul\":4443:4483   */\n      add\n        /* \"#utility.yul\":4585:4591   */\n      dup2\n        /* \"#utility.yul\":4573:4583   */\n      dup2\n        /* \"#utility.yul\":4570:4592   */\n      lt\n        /* \"#utility.yul\":4549:4567   */\n      0xffffffffffffffff\n        /* \"#utility.yul\":4537:4547   */\n      dup3\n        /* \"#utility.yul\":4534:4568   */\n      gt\n        /* \"#utility.yul\":4531:4593   */\n      or\n        /* \"#utility.yul\":4528:4616   */\n      iszero\n      tag_173\n      jumpi\n        /* \"#utility.yul\":4596:4614   */\n      tag_174\n      tag_89\n      jump\t// in\n    tag_174:\n        /* \"#utility.yul\":4528:4616   */\n    tag_173:\n        /* \"#utility.yul\":4636:4646   */\n      dup1\n        /* \"#utility.yul\":4632:4634   */\n      0x40\n        /* \"#utility.yul\":4625:4647   */\n      mstore\n        /* \"#utility.yul\":4415:4653   */\n      pop\n        /* \"#utility.yul\":4372:4653   */\n      pop\n      pop\n      jump\t// out\n        /* \"#utility.yul\":4659:4788   */\n    tag_91:\n        /* \"#utility.yul\":4693:4699   */\n      0x00\n        /* \"#utility.yul\":4720:4740   */\n      tag_176\n      tag_70\n      jump\t// in\n    tag_176:\n        /* \"#utility.yul\":4710:4740   */\n      swap1\n      pop\n        /* \"#utility.yul\":4749:4782   */\n      tag_177\n        /* \"#utility.yul\":4777:4781   */\n      dup3\n        /* \"#utility.yul\":4769:4775   */\n      dup3\n        /* \"#utility.yul\":4749:4782   */\n      tag_90\n      jump\t// in\n    tag_177:\n        /* \"#utility.yul\":4659:4788   */\n      swap2\n      swap1\n      pop\n      jump\t// out\n        /* \"#utility.yul\":4794:5102   */\n    tag_92:\n        /* \"#utility.yul\":4856:4860   */\n      0x00\n        /* \"#utility.yul\":4946:4964   */\n      0xffffffffffffffff\n        /* \"#utility.yul\":4938:4944   */\n      dup3\n        /* \"#utility.yul\":4935:4965   */\n      gt\n        /* \"#utility.yul\":4932:4988   */\n      iszero\n      tag_179\n      jumpi\n        /* \"#utility.yul\":4968:4986   */\n      tag_180\n      tag_89\n      jump\t// in\n    tag_180:\n        /* \"#utility.yul\":4932:4988   */\n    tag_179:\n        /* \"#utility.yul\":5006:5035   */\n      tag_181\n        /* \"#utility.yul\":5028:5034   */\n      dup3\n        /* \"#utility.yul\":5006:5035   */\n      tag_82\n      jump\t// in\n    tag_181:\n        /* \"#utility.yul\":4998:5035   */\n      swap1\n      pop\n        /* \"#utility.yul\":5090:5094   */\n      0x20\n        /* \"#utility.yul\":5084:5088   */\n      dup2\n        /* \"#utility.yul\":5080:5095   */\n      add\n        /* \"#utility.yul\":5072:5095   */\n      swap1\n      pop\n        /* \"#utility.yul\":4794:5102   */\n      swap2\n      swap1\n      pop\n      jump\t// out\n        /* \"#utility.yul\":5108:5254   */\n    tag_93:\n        /* \"#utility.yul\":5205:5211   */\n      dup3\n        /* \"#utility.yul\":5200:5203   */\n      dup2\n        /* \"#utility.yul\":5195:5198   */\n      dup4\n        /* \"#utility.yul\":5182:5212   */\n      calldatacopy\n        /* \"#utility.yul\":5246:5247   */\n      0x00\n        /* \"#utility.yul\":5237:5243   */\n      dup4\n        /* \"#utility.yul\":5232:5235   */\n      dup4\n        /* \"#utility.yul\":5228:5244   */\n      add\n        /* \"#utility.yul\":5221:5248   */\n      mstore\n        /* \"#utility.yul\":5108:5254   */\n      pop\n      pop\n      pop\n      jump\t// out\n        /* \"#utility.yul\":5260:5685   */\n    tag_94:\n        /* \"#utility.yul\":5338:5343   */\n      0x00\n        /* \"#utility.yul\":5363:5429   */\n      tag_184\n        /* \"#utility.yul\":5379:5428   */\n      tag_185\n        /* \"#utility.yul\":5421:5427   */\n      dup5\n        /* \"#utility.yul\":5379:5428   */\n      tag_92\n      jump\t// in\n    tag_185:\n        /* \"#utility.yul\":5363:5429   */\n      tag_91\n      jump\t// in\n    tag_184:\n        /* \"#utility.yul\":5354:5429   */\n      swap1\n      pop\n        /* \"#utility.yul\":5452:5458   */\n      dup3\n        /* \"#utility.yul\":5445:5450   */\n      dup2\n        /* \"#utility.yul\":5438:5459   */\n      mstore\n        /* \"#utility.yul\":5490:5494   */\n      0x20\n        /* \"#utility.yul\":5483:5488   */\n      dup2\n        /* \"#utility.yul\":5479:5495   */\n      add\n        /* \"#utility.yul\":5528:5531   */\n      dup5\n        /* \"#utility.yul\":5519:5525   */\n      dup5\n        /* \"#utility.yul\":5514:5517   */\n      dup5\n        /* \"#utility.yul\":5510:5526   */\n      add\n        /* \"#utility.yul\":5507:5532   */\n      gt\n        /* \"#utility.yul\":5504:5616   */\n      iszero\n      tag_186\n      jumpi\n        /* \"#utility.yul\":5535:5614   */\n      tag_187\n      tag_88\n      jump\t// in\n    tag_187:\n        /* \"#utility.yul\":5504:5616   */\n    tag_186:\n        /* \"#utility.yul\":5625:5679   */\n      tag_188\n        /* \"#utility.yul\":5672:5678   */\n      dup5\n        /* \"#utility.yul\":5667:5670   */\n      dup3\n        /* \"#utility.yul\":5662:5665   */\n      dup6\n        /* \"#utility.yul\":5625:5679   */\n      tag_93\n      jump\t// in\n    tag_188:\n        /* \"#utility.yul\":5344:5685   */\n      pop\n        /* \"#utility.yul\":5260:5685   */\n      swap4\n      swap3\n      pop\n      pop\n      pop\n      jump\t// out\n        /* \"#utility.yul\":5705:6045   */\n    tag_95:\n        /* \"#utility.yul\":5761:5766   */\n      0x00\n        /* \"#utility.yul\":5810:5813   */\n      dup3\n        /* \"#utility.yul\":5803:5807   */\n      0x1f\n        /* \"#utility.yul\":5795:5801   */\n      dup4\n        /* \"#utility.yul\":5791:5808   */\n      add\n        /* \"#utility.yul\":5787:5814   */\n      slt\n        /* \"#utility.yul\":5777:5899   */\n      tag_190\n      jumpi\n        /* \"#utility.yul\":5818:5897   */\n      tag_191\n      tag_87\n      jump\t// in\n    tag_191:\n        /* \"#utility.yul\":5777:5899   */\n    tag_190:\n        /* \"#utility.yul\":5935:5941   */\n      dup2\n        /* \"#utility.yul\":5922:5942   */\n      calldataload\n        /* \"#utility.yul\":5960:6039   */\n      tag_192\n        /* \"#utility.yul\":6035:6038   */\n      dup5\n        /* \"#utility.yul\":6027:6033   */\n      dup3\n        /* \"#utility.yul\":6020:6024   */\n      0x20\n        /* \"#utility.yul\":6012:6018   */\n      dup7\n        /* \"#utility.yul\":6008:6025   */\n      add\n        /* \"#utility.yul\":5960:6039   */\n      tag_94\n      jump\t// in\n    tag_192:\n        /* \"#utility.yul\":5951:6039   */\n      swap2\n      pop\n        /* \"#utility.yul\":5767:6045   */\n      pop\n        /* \"#utility.yul\":5705:6045   */\n      swap3\n      swap2\n      pop\n      pop\n      jump\t// out\n        /* \"#utility.yul\":6051:6167   */\n    tag_96:\n        /* \"#utility.yul\":6121:6142   */\n      tag_194\n        /* \"#utility.yul\":6136:6141   */\n      dup2\n        /* \"#utility.yul\":6121:6142   */\n      tag_77\n      jump\t// in\n    tag_194:\n        /* \"#utility.yul\":6114:6119   */\n      dup2\n        /* \"#utility.yul\":6111:6143   */\n      eq\n        /* \"#utility.yul\":6101:6161   */\n      tag_195\n      jumpi\n        /* \"#utility.yul\":6157:6158   */\n      0x00\n        /* \"#utility.yul\":6154:6155   */\n      dup1\n        /* \"#utility.yul\":6147:6159   */\n      revert\n        /* \"#utility.yul\":6101:6161   */\n    tag_195:\n        /* \"#utility.yul\":6051:6167   */\n      pop\n      jump\t// out\n        /* \"#utility.yul\":6173:6306   */\n    tag_97:\n        /* \"#utility.yul\":6216:6221   */\n      0x00\n        /* \"#utility.yul\":6254:6260   */\n      dup2\n        /* \"#utility.yul\":6241:6261   */\n      calldataload\n        /* \"#utility.yul\":6232:6261   */\n      swap1\n      pop\n        /* \"#utility.yul\":6270:6300   */\n      tag_197\n        /* \"#utility.yul\":6294:6299   */\n      dup2\n        /* \"#utility.yul\":6270:6300   */\n      tag_96\n      jump\t// in\n    tag_197:\n        /* \"#utility.yul\":6173:6306   */\n      swap3\n      swap2\n      pop\n      pop\n      jump\t// out\n        /* \"#utility.yul\":6312:7105   */\n    tag_33:\n        /* \"#utility.yul\":6396:6402   */\n      0x00\n        /* \"#utility.yul\":6404:6410   */\n      dup1\n        /* \"#utility.yul\":6412:6418   */\n      0x00\n        /* \"#utility.yul\":6461:6463   */\n      0x60\n        /* \"#utility.yul\":6449:6458   */\n      dup5\n        /* \"#utility.yul\":6440:6447   */\n      dup7\n        /* \"#utility.yul\":6436:6459   */\n      sub\n        /* \"#utility.yul\":6432:6464   */\n      slt\n        /* \"#utility.yul\":6429:6548   */\n      iszero\n      tag_199\n      jumpi\n        /* \"#utility.yul\":6467:6546   */\n      tag_200\n      tag_71\n      jump\t// in\n    tag_200:\n        /* \"#utility.yul\":6429:6548   */\n    tag_199:\n        /* \"#utility.yul\":6615:6616   */\n      0x00\n        /* \"#utility.yul\":6604:6613   */\n      dup5\n        /* \"#utility.yul\":6600:6617   */\n      add\n        /* \"#utility.yul\":6587:6618   */\n      calldataload\n        /* \"#utility.yul\":6645:6663   */\n      0xffffffffffffffff\n        /* \"#utility.yul\":6637:6643   */\n      dup2\n        /* \"#utility.yul\":6634:6664   */\n      gt\n        /* \"#utility.yul\":6631:6748   */\n      iszero\n      tag_201\n      jumpi\n        /* \"#utility.yul\":6667:6746   */\n      tag_202\n      tag_72\n      jump\t// in\n    tag_202:\n        /* \"#utility.yul\":6631:6748   */\n    tag_201:\n        /* \"#utility.yul\":6772:6835   */\n      tag_203\n        /* \"#utility.yul\":6827:6834   */\n      dup7\n        /* \"#utility.yul\":6818:6824   */\n      dup3\n        /* \"#utility.yul\":6807:6816   */\n      dup8\n        /* \"#utility.yul\":6803:6825   */\n      add\n        /* \"#utility.yul\":6772:6835   */\n      tag_95\n      jump\t// in\n    tag_203:\n        /* \"#utility.yul\":6762:6835   */\n      swap4\n      pop\n        /* \"#utility.yul\":6558:6845   */\n      pop\n        /* \"#utility.yul\":6884:6886   */\n      0x20\n        /* \"#utility.yul\":6910:6963   */\n      tag_204\n        /* \"#utility.yul\":6955:6962   */\n      dup7\n        /* \"#utility.yul\":6946:6952   */\n      dup3\n        /* \"#utility.yul\":6935:6944   */\n      dup8\n        /* \"#utility.yul\":6931:6953   */\n      add\n        /* \"#utility.yul\":6910:6963   */\n      tag_76\n      jump\t// in\n    tag_204:\n        /* \"#utility.yul\":6900:6963   */\n      swap3\n      pop\n        /* \"#utility.yul\":6855:6973   */\n      pop\n        /* \"#utility.yul\":7012:7014   */\n      0x40\n        /* \"#utility.yul\":7038:7088   */\n      tag_205\n        /* \"#utility.yul\":7080:7087   */\n      dup7\n        /* \"#utility.yul\":7071:7077   */\n      dup3\n        /* \"#utility.yul\":7060:7069   */\n      dup8\n        /* \"#utility.yul\":7056:7078   */\n      add\n        /* \"#utility.yul\":7038:7088   */\n      tag_97\n      jump\t// in\n    tag_205:\n        /* \"#utility.yul\":7028:7088   */\n      swap2\n      pop\n        /* \"#utility.yul\":6983:7098   */\n      pop\n        /* \"#utility.yul\":6312:7105   */\n      swap3\n      pop\n      swap3\n      pop\n      swap3\n      jump\t// out\n        /* \"#utility.yul\":7111:7276   */\n    tag_98:\n        /* \"#utility.yul\":7251:7268   */\n      0x496e76616c696420616464726573730000000000000000000000000000000000\n        /* \"#utility.yul\":7247:7248   */\n      0x00\n        /* \"#utility.yul\":7239:7245   */\n      dup3\n        /* \"#utility.yul\":7235:7249   */\n      add\n        /* \"#utility.yul\":7228:7269   */\n      mstore\n        /* \"#utility.yul\":7111:7276   */\n      pop\n      jump\t// out\n        /* \"#utility.yul\":7282:7648   */\n    tag_99:\n        /* \"#utility.yul\":7424:7427   */\n      0x00\n        /* \"#utility.yul\":7445:7512   */\n      tag_208\n        /* \"#utility.yul\":7509:7511   */\n      0x0f\n        /* \"#utility.yul\":7504:7507   */\n      dup4\n        /* \"#utility.yul\":7445:7512   */\n      tag_80\n      jump\t// in\n    tag_208:\n        /* \"#utility.yul\":7438:7512   */\n      swap2\n      pop\n        /* \"#utility.yul\":7521:7614   */\n      tag_209\n        /* \"#utility.yul\":7610:7613   */\n      dup3\n        /* \"#utility.yul\":7521:7614   */\n      tag_98\n      jump\t// in\n    tag_209:\n        /* \"#utility.yul\":7639:7641   */\n      0x20\n        /* \"#utility.yul\":7634:7637   */\n      dup3\n        /* \"#utility.yul\":7630:7642   */\n      add\n        /* \"#utility.yul\":7623:7642   */\n      swap1\n      pop\n        /* \"#utility.yul\":7282:7648   */\n      swap2\n      swap1\n      pop\n      jump\t// out\n        /* \"#utility.yul\":7654:8073   */\n    tag_38:\n        /* \"#utility.yul\":7820:7824   */\n      0x00\n        /* \"#utility.yul\":7858:7860   */\n      0x20\n        /* \"#utility.yul\":7847:7856   */\n      dup3\n        /* \"#utility.yul\":7843:7861   */\n      add\n        /* \"#utility.yul\":7835:7861   */\n      swap1\n      pop\n        /* \"#utility.yul\":7907:7916   */\n      dup2\n        /* \"#utility.yul\":7901:7905   */\n      dup2\n        /* \"#utility.yul\":7897:7917   */\n      sub\n        /* \"#utility.yul\":7893:7894   */\n      0x00\n        /* \"#utility.yul\":7882:7891   */\n      dup4\n        /* \"#utility.yul\":7878:7895   */\n      add\n        /* \"#utility.yul\":7871:7918   */\n      mstore\n        /* \"#utility.yul\":7935:8066   */\n      tag_211\n        /* \"#utility.yul\":8061:8065   */\n      dup2\n        /* \"#utility.yul\":7935:8066   */\n      tag_99\n      jump\t// in\n    tag_211:\n        /* \"#utility.yul\":7927:8066   */\n      swap1\n      pop\n        /* \"#utility.yul\":7654:8073   */\n      swap2\n      swap1\n      pop\n      jump\t// out\n        /* \"#utility.yul\":8079:8259   */\n    tag_100:\n        /* \"#utility.yul\":8127:8204   */\n      0x4e487b7100000000000000000000000000000000000000000000000000000000\n        /* \"#utility.yul\":8124:8125   */\n      0x00\n        /* \"#utility.yul\":8117:8205   */\n      mstore\n        /* \"#utility.yul\":8224:8228   */\n      0x22\n        /* \"#utility.yul\":8221:8222   */\n      0x04\n        /* \"#utility.yul\":8214:8229   */\n      mstore\n        /* \"#utility.yul\":8248:8252   */\n      0x24\n        /* \"#utility.yul\":8245:8246   */\n      0x00\n        /* \"#utility.yul\":8238:8253   */\n      revert\n        /* \"#utility.yul\":8265:8585   */\n    tag_43:\n        /* \"#utility.yul\":8309:8315   */\n      0x00\n        /* \"#utility.yul\":8346:8347   */\n      0x02\n        /* \"#utility.yul\":8340:8344   */\n      dup3\n        /* \"#utility.yul\":8336:8348   */\n      div\n        /* \"#utility.yul\":8326:8348   */\n      swap1\n      pop\n        /* \"#utility.yul\":8393:8394   */\n      0x01\n        /* \"#utility.yul\":8387:8391   */\n      dup3\n        /* \"#utility.yul\":8383:8395   */\n      and\n        /* \"#utility.yul\":8414:8432   */\n      dup1\n        /* \"#utility.yul\":8404:8485   */\n      tag_214\n      jumpi\n        /* \"#utility.yul\":8470:8474   */\n      0x7f\n        /* \"#utility.yul\":8462:8468   */\n      dup3\n        /* \"#utility.yul\":8458:8475   */\n      and\n        /* \"#utility.yul\":8448:8475   */\n      swap2\n      pop\n        /* \"#utility.yul\":8404:8485   */\n    tag_214:\n        /* \"#utility.yul\":8532:8534   */\n      0x20\n        /* \"#utility.yul\":8524:8530   */\n      dup3\n        /* \"#utility.yul\":8521:8535   */\n      lt\n        /* \"#utility.yul\":8501:8519   */\n      dup2\n        /* \"#utility.yul\":8498:8536   */\n      sub\n        /* \"#utility.yul\":8495:8579   */\n      tag_215\n      jumpi\n        /* \"#utility.yul\":8551:8569   */\n      tag_216\n      tag_100\n      jump\t// in\n    tag_216:\n        /* \"#utility.yul\":8495:8579   */\n    tag_215:\n        /* \"#utility.yul\":8316:8585   */\n      pop\n        /* \"#utility.yul\":8265:8585   */\n      swap2\n      swap1\n      pop\n      jump\t// out\n        /* \"#utility.yul\":8591:8811   */\n    tag_101:\n        /* \"#utility.yul\":8731:8765   */\n      0x4f6e6c792061646d696e2063616e2063616c6c20746869732066756e6374696f\n        /* \"#utility.yul\":8727:8728   */\n      0x00\n        /* \"#utility.yul\":8719:8725   */\n      dup3\n        /* \"#utility.yul\":8715:8729   */\n      add\n        /* \"#utility.yul\":8708:8766   */\n      mstore\n        /* \"#utility.yul\":8800:8803   */\n      0x6e00000000000000000000000000000000000000000000000000000000000000\n        /* \"#utility.yul\":8795:8797   */\n      0x20\n        /* \"#utility.yul\":8787:8793   */\n      dup3\n        /* \"#utility.yul\":8783:8798   */\n      add\n        /* \"#utility.yul\":8776:8804   */\n      mstore\n        /* \"#utility.yul\":8591:8811   */\n      pop\n      jump\t// out\n        /* \"#utility.yul\":8817:9183   */\n    tag_102:\n        /* \"#utility.yul\":8959:8962   */\n      0x00\n        /* \"#utility.yul\":8980:9047   */\n      tag_219\n        /* \"#utility.yul\":9044:9046   */\n      0x21\n        /* \"#utility.yul\":9039:9042   */\n      dup4\n        /* \"#utility.yul\":8980:9047   */\n      tag_80\n      jump\t// in\n    tag_219:\n        /* \"#utility.yul\":8973:9047   */\n      swap2\n      pop\n        /* \"#utility.yul\":9056:9149   */\n      tag_220\n        /* \"#utility.yul\":9145:9148   */\n      dup3\n        /* \"#utility.yul\":9056:9149   */\n      tag_101\n      jump\t// in\n    tag_220:\n        /* \"#utility.yul\":9174:9176   */\n      0x40\n        /* \"#utility.yul\":9169:9172   */\n      dup3\n        /* \"#utility.yul\":9165:9177   */\n      add\n        /* \"#utility.yul\":9158:9177   */\n      swap1\n      pop\n        /* \"#utility.yul\":8817:9183   */\n      swap2\n      swap1\n      pop\n      jump\t// out\n        /* \"#utility.yul\":9189:9608   */\n    tag_51:\n        /* \"#utility.yul\":9355:9359   */\n      0x00\n        /* \"#utility.yul\":9393:9395   */\n      0x20\n        /* \"#utility.yul\":9382:9391   */\n      dup3\n        /* \"#utility.yul\":9378:9396   */\n      add\n        /* \"#utility.yul\":9370:9396   */\n      swap1\n      pop\n        /* \"#utility.yul\":9442:9451   */\n      dup2\n        /* \"#utility.yul\":9436:9440   */\n      dup2\n        /* \"#utility.yul\":9432:9452   */\n      sub\n        /* \"#utility.yul\":9428:9429   */\n      0x00\n        /* \"#utility.yul\":9417:9426   */\n      dup4\n        /* \"#utility.yul\":9413:9430   */\n      add\n        /* \"#utility.yul\":9406:9453   */\n      mstore\n        /* \"#utility.yul\":9470:9601   */\n      tag_222\n        /* \"#utility.yul\":9596:9600   */\n      dup2\n        /* \"#utility.yul\":9470:9601   */\n      tag_102\n      jump\t// in\n    tag_222:\n        /* \"#utility.yul\":9462:9601   */\n      swap1\n      pop\n        /* \"#utility.yul\":9189:9608   */\n      swap2\n      swap1\n      pop\n      jump\t// out\n        /* \"#utility.yul\":9614:9784   */\n    tag_103:\n        /* \"#utility.yul\":9754:9776   */\n      0x4e616d652063616e6e6f7420626520656d707479000000000000000000000000\n        /* \"#utility.yul\":9750:9751   */\n      0x00\n        /* \"#utility.yul\":9742:9748   */\n      dup3\n        /* \"#utility.yul\":9738:9752   */\n      add\n        /* \"#utility.yul\":9731:9777   */\n      mstore\n        /* \"#utility.yul\":9614:9784   */\n      pop\n      jump\t// out\n        /* \"#utility.yul\":9790:10156   */\n    tag_104:\n        /* \"#utility.yul\":9932:9935   */\n      0x00\n        /* \"#utility.yul\":9953:10020   */\n      tag_225\n        /* \"#utility.yul\":10017:10019   */\n      0x14\n        /* \"#utility.yul\":10012:10015   */\n      dup4\n        /* \"#utility.yul\":9953:10020   */\n      tag_80\n      jump\t// in\n    tag_225:\n        /* \"#utility.yul\":9946:10020   */\n      swap2\n      pop\n        /* \"#utility.yul\":10029:10122   */\n      tag_226\n        /* \"#utility.yul\":10118:10121   */\n      dup3\n        /* \"#utility.yul\":10029:10122   */\n      tag_103\n      jump\t// in\n    tag_226:\n        /* \"#utility.yul\":10147:10149   */\n      0x20\n        /* \"#utility.yul\":10142:10145   */\n      dup3\n        /* \"#utility.yul\":10138:10150   */\n      add\n        /* \"#utility.yul\":10131:10150   */\n      swap1\n      pop\n        /* \"#utility.yul\":9790:10156   */\n      swap2\n      swap1\n      pop\n      jump\t// out\n        /* \"#utility.yul\":10162:10581   */\n    tag_61:\n        /* \"#utility.yul\":10328:10332   */\n      0x00\n        /* \"#utility.yul\":10366:10368   */\n      0x20\n        /* \"#utility.yul\":10355:10364   */\n      dup3\n        /* \"#utility.yul\":10351:10369   */\n      add\n        /* \"#utility.yul\":10343:10369   */\n      swap1\n      pop\n        /* \"#utility.yul\":10415:10424   */\n      dup2\n        /* \"#utility.yul\":10409:10413   */\n      dup2\n        /* \"#utility.yul\":10405:10425   */\n      sub\n        /* \"#utility.yul\":10401:10402   */\n      0x00\n        /* \"#utility.yul\":10390:10399   */\n      dup4\n        /* \"#utility.yul\":10386:10403   */\n      add\n        /* \"#utility.yul\":10379:10426   */\n      mstore\n        /* \"#utility.yul\":10443:10574   */\n      tag_228\n        /* \"#utility.yul\":10569:10573   */\n      dup2\n        /* \"#utility.yul\":10443:10574   */\n      tag_104\n      jump\t// in\n    tag_228:\n        /* \"#utility.yul\":10435:10574   */\n      swap1\n      pop\n        /* \"#utility.yul\":10162:10581   */\n      swap2\n      swap1\n      pop\n      jump\t// out\n        /* \"#utility.yul\":10587:10756   */\n    tag_105:\n        /* \"#utility.yul\":10727:10748   */\n      0x5573657220616c72656164792065786973747300000000000000000000000000\n        /* \"#utility.yul\":10723:10724   */\n      0x00\n        /* \"#utility.yul\":10715:10721   */\n      dup3\n        /* \"#utility.yul\":10711:10725   */\n      add\n        /* \"#utility.yul\":10704:10749   */\n      mstore\n        /* \"#utility.yul\":10587:10756   */\n      pop\n      jump\t// out\n        /* \"#utility.yul\":10762:11128   */\n    tag_106:\n        /* \"#utility.yul\":10904:10907   */\n      0x00\n        /* \"#utility.yul\":10925:10992   */\n      tag_231\n        /* \"#utility.yul\":10989:10991   */\n      0x13\n        /* \"#utility.yul\":10984:10987   */\n      dup4\n        /* \"#utility.yul\":10925:10992   */\n      tag_80\n      jump\t// in\n    tag_231:\n        /* \"#utility.yul\":10918:10992   */\n      swap2\n      pop\n        /* \"#utility.yul\":11001:11094   */\n      tag_232\n        /* \"#utility.yul\":11090:11093   */\n      dup3\n        /* \"#utility.yul\":11001:11094   */\n      tag_105\n      jump\t// in\n    tag_232:\n        /* \"#utility.yul\":11119:11121   */\n      0x20\n        /* \"#utility.yul\":11114:11117   */\n      dup3\n        /* \"#utility.yul\":11110:11122   */\n      add\n        /* \"#utility.yul\":11103:11122   */\n      swap1\n      pop\n        /* \"#utility.yul\":10762:11128   */\n      swap2\n      swap1\n      pop\n      jump\t// out\n        /* \"#utility.yul\":11134:11553   */\n    tag_64:\n        /* \"#utility.yul\":11300:11304   */\n      0x00\n        /* \"#utility.yul\":11338:11340   */\n      0x20\n        /* \"#utility.yul\":11327:11336   */\n      dup3\n        /* \"#utility.yul\":11323:11341   */\n      add\n        /* \"#utility.yul\":11315:11341   */\n      swap1\n      pop\n        /* \"#utility.yul\":11387:11396   */\n      dup2\n        /* \"#utility.yul\":11381:11385   */\n      dup2\n        /* \"#utility.yul\":11377:11397   */\n      sub\n        /* \"#utility.yul\":11373:11374   */\n      0x00\n        /* \"#utility.yul\":11362:11371   */\n      dup4\n        /* \"#utility.yul\":11358:11375   */\n      add\n        /* \"#utility.yul\":11351:11398   */\n      mstore\n        /* \"#utility.yul\":11415:11546   */\n      tag_234\n        /* \"#utility.yul\":11541:11545   */\n      dup2\n        /* \"#utility.yul\":11415:11546   */\n      tag_106\n      jump\t// in\n    tag_234:\n        /* \"#utility.yul\":11407:11546   */\n      swap1\n      pop\n        /* \"#utility.yul\":11134:11553   */\n      swap2\n      swap1\n      pop\n      jump\t// out\n        /* \"#utility.yul\":11559:11700   */\n    tag_107:\n        /* \"#utility.yul\":11608:11612   */\n      0x00\n        /* \"#utility.yul\":11631:11634   */\n      dup2\n        /* \"#utility.yul\":11623:11634   */\n      swap1\n      pop\n        /* \"#utility.yul\":11654:11657   */\n      dup2\n        /* \"#utility.yul\":11651:11652   */\n      0x00\n        /* \"#utility.yul\":11644:11658   */\n      mstore\n        /* \"#utility.yul\":11688:11692   */\n      0x20\n        /* \"#utility.yul\":11685:11686   */\n      0x00\n        /* \"#utility.yul\":11675:11693   */\n      keccak256\n        /* \"#utility.yul\":11667:11693   */\n      swap1\n      pop\n        /* \"#utility.yul\":11559:11700   */\n      swap2\n      swap1\n      pop\n      jump\t// out\n        /* \"#utility.yul\":11706:11799   */\n    tag_108:\n        /* \"#utility.yul\":11743:11749   */\n      0x00\n        /* \"#utility.yul\":11790:11792   */\n      0x20\n        /* \"#utility.yul\":11785:11787   */\n      0x1f\n        /* \"#utility.yul\":11778:11783   */\n      dup4\n        /* \"#utility.yul\":11774:11788   */\n      add\n        /* \"#utility.yul\":11770:11793   */\n      div\n        /* \"#utility.yul\":11760:11793   */\n      swap1\n      pop\n        /* \"#utility.yul\":11706:11799   */\n      swap2\n      swap1\n      pop\n      jump\t// out\n        /* \"#utility.yul\":11805:11912   */\n    tag_109:\n        /* \"#utility.yul\":11849:11857   */\n      0x00\n        /* \"#utility.yul\":11899:11904   */\n      dup3\n        /* \"#utility.yul\":11893:11897   */\n      dup3\n        /* \"#utility.yul\":11889:11905   */\n      shl\n        /* \"#utility.yul\":11868:11905   */\n      swap1\n      pop\n        /* \"#utility.yul\":11805:11912   */\n      swap3\n      swap2\n      pop\n      pop\n      jump\t// out\n        /* \"#utility.yul\":11918:12311   */\n    tag_110:\n        /* \"#utility.yul\":11987:11993   */\n      0x00\n        /* \"#utility.yul\":12037:12038   */\n      0x08\n        /* \"#utility.yul\":12025:12035   */\n      dup4\n        /* \"#utility.yul\":12021:12039   */\n      mul\n        /* \"#utility.yul\":12060:12157   */\n      tag_239\n        /* \"#utility.yul\":12090:12156   */\n      0xffffffffffffffffffffffffffffffffffffffffffffffffffffffffffffffff\n        /* \"#utility.yul\":12079:12088   */\n      dup3\n        /* \"#utility.yul\":12060:12157   */\n      tag_109\n      jump\t// in\n    tag_239:\n        /* \"#utility.yul\":12178:12217   */\n      tag_240\n        /* \"#utility.yul\":12208:12216   */\n      dup7\n        /* \"#utility.yul\":12197:12206   */\n      dup4\n        /* \"#utility.yul\":12178:12217   */\n      tag_109\n      jump\t// in\n    tag_240:\n        /* \"#utility.yul\":12166:12217   */\n      swap6\n      pop\n        /* \"#utility.yul\":12250:12254   */\n      dup1\n        /* \"#utility.yul\":12246:12255   */\n      not\n        /* \"#utility.yul\":12239:12244   */\n      dup5\n        /* \"#utility.yul\":12235:12256   */\n      and\n        /* \"#utility.yul\":12226:12256   */\n      swap4\n      pop\n        /* \"#utility.yul\":12299:12303   */\n      dup1\n        /* \"#utility.yul\":12289:12297   */\n      dup7\n        /* \"#utility.yul\":12285:12304   */\n      and\n        /* \"#utility.yul\":12278:12283   */\n      dup5\n        /* \"#utility.yul\":12275:12305   */\n      or\n        /* \"#utility.yul\":12265:12305   */\n      swap3\n      pop\n        /* \"#utility.yul\":11994:12311   */\n      pop\n      pop\n        /* \"#utility.yul\":11918:12311   */\n      swap4\n      swap3\n      pop\n      pop\n      pop\n      jump\t// out\n        /* \"#utility.yul\":12317:12377   */\n    tag_111:\n        /* \"#utility.yul\":12345:12348   */\n      0x00\n        /* \"#utility.yul\":12366:12371   */\n      dup2\n        /* \"#utility.yul\":12359:12371   */\n      swap1\n      pop\n        /* \"#utility.yul\":12317:12377   */\n      swap2\n      swap1\n      pop\n      jump\t// out\n        /* \"#utility.yul\":12383:12525   */\n    tag_112:\n        /* \"#utility.yul\":12433:12442   */\n      0x00\n        /* \"#utility.yul\":12466:12519   */\n      tag_243\n        /* \"#utility.yul\":12484:12518   */\n      tag_244\n        /* \"#utility.yul\":12493:12517   */\n      tag_245\n        /* \"#utility.yul\":12511:12516   */\n      dup5\n        /* \"#utility.yul\":12493:12517   */\n      tag_85\n      jump\t// in\n    tag_245:\n        /* \"#utility.yul\":12484:12518   */\n      tag_111\n      jump\t// in\n    tag_244:\n        /* \"#utility.yul\":12466:12519   */\n      tag_85\n      jump\t// in\n    tag_243:\n        /* \"#utility.yul\":12453:12519   */\n      swap1\n      pop\n        /* \"#utility.yul\":12383:12525   */\n      swap2\n      swap1\n      pop\n      jump\t// out\n        /* \"#utility.yul\":12531:12606   */\n    tag_113:\n        /* \"#utility.yul\":12574:12577   */\n      0x00\n        /* \"#utility.yul\":12595:12600   */\n      dup2\n        /* \"#utility.yul\":12588:12600   */\n      swap1\n      pop\n        /* \"#utility.yul\":12531:12606   */\n      swap2\n      swap1\n      pop\n      jump\t// out\n        /* \"#utility.yul\":12612:12881   */\n    tag_114:\n        /* \"#utility.yul\":12722:12761   */\n      tag_248\n        /* \"#utility.yul\":12753:12760   */\n      dup4\n        /* \"#utility.yul\":12722:12761   */\n      tag_112\n      jump\t// in\n    tag_248:\n        /* \"#utility.yul\":12783:12874   */\n      tag_249\n        /* \"#utility.yul\":12832:12873   */\n      tag_250\n        /* \"#utility.yul\":12856:12872   */\n      dup3\n        /* \"#utility.yul\":12832:12873   */\n      tag_113\n      jump\t// in\n    tag_250:\n        /* \"#utility.yul\":12824:12830   */\n      dup5\n        /* \"#utility.yul\":12817:12821   */\n      dup5\n        /* \"#utility.yul\":12811:12822   */\n      sload\n        /* \"#utility.yul\":12783:12874   */\n      tag_110\n      jump\t// in\n    tag_249:\n        /* \"#utility.yul\":12777:12781   */\n      dup3\n        /* \"#utility.yul\":12770:12875   */\n      sstore\n        /* \"#utility.yul\":12688:12881   */\n      pop\n        /* \"#utility.yul\":12612:12881   */\n      pop\n      pop\n      pop\n      jump\t// out\n        /* \"#utility.yul\":12887:12960   */\n    tag_115:\n        /* \"#utility.yul\":12932:12935   */\n      0x00\n        /* \"#utility.yul\":12887:12960   */\n      swap1\n      jump\t// out\n        /* \"#utility.yul\":12966:13155   */\n    tag_116:\n        /* \"#utility.yul\":13043:13075   */\n      tag_253\n      tag_115\n      jump\t// in\n    tag_253:\n        /* \"#utility.yul\":13084:13149   */\n      tag_254\n        /* \"#utility.yul\":13142:13148   */\n      dup2\n        /* \"#utility.yul\":13134:13140   */\n      dup5\n        /* \"#utility.yul\":13128:13132   */\n      dup5\n        /* \"#utility.yul\":13084:13149   */\n      tag_114\n      jump\t// in\n    tag_254:\n        /* \"#utility.yul\":13019:13155   */\n      pop\n        /* \"#utility.yul\":12966:13155   */\n      pop\n      pop\n      jump\t// out\n        /* \"#utility.yul\":13161:13347   */\n    tag_117:\n        /* \"#utility.yul\":13221:13341   */\n    tag_256:\n        /* \"#utility.yul\":13238:13241   */\n      dup2\n        /* \"#utility.yul\":13231:13236   */\n      dup2\n        /* \"#utility.yul\":13228:13242   */\n      lt\n        /* \"#utility.yul\":13221:13341   */\n      iszero\n      tag_258\n      jumpi\n        /* \"#utility.yul\":13292:13331   */\n      tag_259\n        /* \"#utility.yul\":13329:13330   */\n      0x00\n        /* \"#utility.yul\":13322:13327   */\n      dup3\n        /* \"#utility.yul\":13292:13331   */\n      tag_116\n      jump\t// in\n    tag_259:\n        /* \"#utility.yul\":13265:13266   */\n      0x01\n        /* \"#utility.yul\":13258:13263   */\n      dup2\n        /* \"#utility.yul\":13254:13267   */\n      add\n        /* \"#utility.yul\":13245:13267   */\n      swap1\n      pop\n        /* \"#utility.yul\":13221:13341   */\n      jump(tag_256)\n    tag_258:\n        /* \"#utility.yul\":13161:13347   */\n      pop\n      pop\n      jump\t// out\n        /* \"#utility.yul\":13353:13896   */\n    tag_118:\n        /* \"#utility.yul\":13454:13456   */\n      0x1f\n        /* \"#utility.yul\":13449:13452   */\n      dup3\n        /* \"#utility.yul\":13446:13457   */\n      gt\n        /* \"#utility.yul\":13443:13889   */\n      iszero\n      tag_261\n      jumpi\n        /* \"#utility.yul\":13488:13526   */\n      tag_262\n        /* \"#utility.yul\":13520:13525   */\n      dup2\n        /* \"#utility.yul\":13488:13526   */\n      tag_107\n      jump\t// in\n    tag_262:\n        /* \"#utility.yul\":13572:13601   */\n      tag_263\n        /* \"#utility.yul\":13590:13600   */\n      dup5\n        /* \"#utility.yul\":13572:13601   */\n      tag_108\n      jump\t// in\n    tag_263:\n        /* \"#utility.yul\":13562:13570   */\n      dup2\n        /* \"#utility.yul\":13558:13602   */\n      add\n        /* \"#utility.yul\":13755:13757   */\n      0x20\n        /* \"#utility.yul\":13743:13753   */\n      dup6\n        /* \"#utility.yul\":13740:13758   */\n      lt\n        /* \"#utility.yul\":13737:13786   */\n      iszero\n      tag_264\n      jumpi\n        /* \"#utility.yul\":13776:13784   */\n      dup2\n        /* \"#utility.yul\":13761:13784   */\n      swap1\n      pop\n        /* \"#utility.yul\":13737:13786   */\n    tag_264:\n        /* \"#utility.yul\":13799:13879   */\n      tag_265\n        /* \"#utility.yul\":13855:13877   */\n      tag_266\n        /* \"#utility.yul\":13873:13876   */\n      dup6\n        /* \"#utility.yul\":13855:13877   */\n      tag_108\n      jump\t// in\n    tag_266:\n        /* \"#utility.yul\":13845:13853   */\n      dup4\n        /* \"#utility.yul\":13841:13878   */\n      add\n        /* \"#utility.yul\":13828:13839   */\n      dup3\n        /* \"#utility.yul\":13799:13879   */\n      tag_117\n      jump\t// in\n    tag_265:\n        /* \"#utility.yul\":13458:13889   */\n      pop\n      pop\n        /* \"#utility.yul\":13443:13889   */\n    tag_261:\n        /* \"#utility.yul\":13353:13896   */\n      pop\n      pop\n      pop\n      jump\t// out\n        /* \"#utility.yul\":13902:14019   */\n    tag_119:\n        /* \"#utility.yul\":13956:13964   */\n      0x00\n        /* \"#utility.yul\":14006:14011   */\n      dup3\n        /* \"#utility.yul\":14000:14004   */\n      dup3\n        /* \"#utility.yul\":13996:14012   */\n      shr\n        /* \"#utility.yul\":13975:14012   */\n      swap1\n      pop\n        /* \"#utility.yul\":13902:14019   */\n      swap3\n      swap2\n      pop\n      pop\n      jump\t// out\n        /* \"#utility.yul\":14025:14194   */\n    tag_120:\n        /* \"#utility.yul\":14069:14075   */\n      0x00\n        /* \"#utility.yul\":14102:14153   */\n      tag_269\n        /* \"#utility.yul\":14150:14151   */\n      0x00\n        /* \"#utility.yul\":14146:14152   */\n      not\n        /* \"#utility.yul\":14138:14143   */\n      dup5\n        /* \"#utility.yul\":14135:14136   */\n      0x08\n        /* \"#utility.yul\":14131:14144   */\n      mul\n        /* \"#utility.yul\":14102:14153   */\n      tag_119\n      jump\t// in\n    tag_269:\n        /* \"#utility.yul\":14098:14154   */\n      not\n        /* \"#utility.yul\":14183:14187   */\n      dup1\n        /* \"#utility.yul\":14177:14181   */\n      dup4\n        /* \"#utility.yul\":14173:14188   */\n      and\n        /* \"#utility.yul\":14163:14188   */\n      swap2\n      pop\n        /* \"#utility.yul\":14076:14194   */\n      pop\n        /* \"#utility.yul\":14025:14194   */\n      swap3\n      swap2\n      pop\n      pop\n      jump\t// out\n        /* \"#utility.yul\":14199:14494   */\n    tag_121:\n        /* \"#utility.yul\":14275:14279   */\n      0x00\n        /* \"#utility.yul\":14421:14450   */\n      tag_271\n        /* \"#utility.yul\":14446:14449   */\n      dup4\n        /* \"#utility.yul\":14440:14444   */\n      dup4\n        /* \"#utility.yul\":14421:14450   */\n      tag_120\n      jump\t// in\n    tag_271:\n        /* \"#utility.yul\":14413:14450   */\n      swap2\n      pop\n        /* \"#utility.yul\":14483:14486   */\n      dup3\n        /* \"#utility.yul\":14480:14481   */\n      0x02\n        /* \"#utility.yul\":14476:14487   */\n      mul\n        /* \"#utility.yul\":14470:14474   */\n      dup3\n        /* \"#utility.yul\":14467:14488   */\n      or\n        /* \"#utility.yul\":14459:14488   */\n      swap1\n      pop\n        /* \"#utility.yul\":14199:14494   */\n      swap3\n      swap2\n      pop\n      pop\n      jump\t// out\n        /* \"#utility.yul\":14499:15894   */\n    tag_66:\n        /* \"#utility.yul\":14616:14653   */\n      tag_273\n        /* \"#utility.yul\":14649:14652   */\n      dup3\n        /* \"#utility.yul\":14616:14653   */\n      tag_79\n      jump\t// in\n    tag_273:\n        /* \"#utility.yul\":14718:14736   */\n      0xffffffffffffffff\n        /* \"#utility.yul\":14710:14716   */\n      dup2\n        /* \"#utility.yul\":14707:14737   */\n      gt\n        /* \"#utility.yul\":14704:14760   */\n      iszero\n      tag_274\n      jumpi\n        /* \"#utility.yul\":14740:14758   */\n      tag_275\n      tag_89\n      jump\t// in\n    tag_275:\n        /* \"#utility.yul\":14704:14760   */\n    tag_274:\n        /* \"#utility.yul\":14784:14822   */\n      tag_276\n        /* \"#utility.yul\":14816:14820   */\n      dup3\n        /* \"#utility.yul\":14810:14821   */\n      sload\n        /* \"#utility.yul\":14784:14822   */\n      tag_43\n      jump\t// in\n    tag_276:\n        /* \"#utility.yul\":14869:14936   */\n      tag_277\n        /* \"#utility.yul\":14929:14935   */\n      dup3\n        /* \"#utility.yul\":14921:14927   */\n      dup3\n        /* \"#utility.yul\":14915:14919   */\n      dup6\n        /* \"#utility.yul\":14869:14936   */\n      tag_118\n      jump\t// in\n    tag_277:\n        /* \"#utility.yul\":14963:14964   */\n      0x00\n        /* \"#utility.yul\":14987:14991   */\n      0x20\n        /* \"#utility.yul\":14974:14991   */\n      swap1\n      pop\n        /* \"#utility.yul\":15019:15021   */\n      0x1f\n        /* \"#utility.yul\":15011:15017   */\n      dup4\n        /* \"#utility.yul\":15008:15022   */\n      gt\n        /* \"#utility.yul\":15036:15037   */\n      0x01\n        /* \"#utility.yul\":15031:15649   */\n      dup2\n      eq\n      tag_279\n      jumpi\n        /* \"#utility.yul\":15693:15694   */\n      0x00\n        /* \"#utility.yul\":15710:15716   */\n      dup5\n        /* \"#utility.yul\":15707:15784   */\n      iszero\n      tag_280\n      jumpi\n        /* \"#utility.yul\":15759:15768   */\n      dup3\n        /* \"#utility.yul\":15754:15757   */\n      dup8\n        /* \"#utility.yul\":15750:15769   */\n      add\n        /* \"#utility.yul\":15744:15770   */\n      mload\n        /* \"#utility.yul\":15735:15770   */\n      swap1\n      pop\n        /* \"#utility.yul\":15707:15784   */\n    tag_280:\n        /* \"#utility.yul\":15810:15877   */\n      tag_281\n        /* \"#utility.yul\":15870:15876   */\n      dup6\n        /* \"#utility.yul\":15863:15868   */\n      dup3\n        /* \"#utility.yul\":15810:15877   */\n      tag_121\n      jump\t// in\n    tag_281:\n        /* \"#utility.yul\":15804:15808   */\n      dup7\n        /* \"#utility.yul\":15797:15878   */\n      sstore\n        /* \"#utility.yul\":15666:15888   */\n      pop\n        /* \"#utility.yul\":15001:15888   */\n      jump(tag_278)\n        /* \"#utility.yul\":15031:15649   */\n    tag_279:\n        /* \"#utility.yul\":15083:15087   */\n      0x1f\n        /* \"#utility.yul\":15079:15088   */\n      not\n        /* \"#utility.yul\":15071:15077   */\n      dup5\n        /* \"#utility.yul\":15067:15089   */\n      and\n        /* \"#utility.yul\":15117:15154   */\n      tag_282\n        /* \"#utility.yul\":15149:15153   */\n      dup7\n        /* \"#utility.yul\":15117:15154   */\n      tag_107\n      jump\t// in\n    tag_282:\n        /* \"#utility.yul\":15176:15177   */\n      0x00\n        /* \"#utility.yul\":15190:15398   */\n    tag_283:\n        /* \"#utility.yul\":15204:15211   */\n      dup3\n        /* \"#utility.yul\":15201:15202   */\n      dup2\n        /* \"#utility.yul\":15198:15212   */\n      lt\n        /* \"#utility.yul\":15190:15398   */\n      iszero\n      tag_285\n      jumpi\n        /* \"#utility.yul\":15283:15292   */\n      dup5\n        /* \"#utility.yul\":15278:15281   */\n      dup10\n        /* \"#utility.yul\":15274:15293   */\n      add\n        /* \"#utility.yul\":15268:15294   */\n      mload\n        /* \"#utility.yul\":15260:15266   */\n      dup3\n        /* \"#utility.yul\":15253:15295   */\n      sstore\n        /* \"#utility.yul\":15334:15335   */\n      0x01\n        /* \"#utility.yul\":15326:15332   */\n      dup3\n        /* \"#utility.yul\":15322:15336   */\n      add\n        /* \"#utility.yul\":15312:15336   */\n      swap2\n      pop\n        /* \"#utility.yul\":15381:15383   */\n      0x20\n        /* \"#utility.yul\":15370:15379   */\n      dup6\n        /* \"#utility.yul\":15366:15384   */\n      add\n        /* \"#utility.yul\":15353:15384   */\n      swap5\n      pop\n        /* \"#utility.yul\":15227:15231   */\n      0x20\n        /* \"#utility.yul\":15224:15225   */\n      dup2\n        /* \"#utility.yul\":15220:15232   */\n      add\n        /* \"#utility.yul\":15215:15232   */\n      swap1\n      pop\n        /* \"#utility.yul\":15190:15398   */\n      jump(tag_283)\n    tag_285:\n        /* \"#utility.yul\":15426:15432   */\n      dup7\n        /* \"#utility.yul\":15417:15424   */\n      dup4\n        /* \"#utility.yul\":15414:15433   */\n      lt\n        /* \"#utility.yul\":15411:15590   */\n      iszero\n      tag_286\n      jumpi\n        /* \"#utility.yul\":15484:15493   */\n      dup5\n        /* \"#utility.yul\":15479:15482   */\n      dup10\n        /* \"#utility.yul\":15475:15494   */\n      add\n        /* \"#utility.yul\":15469:15495   */\n      mload\n        /* \"#utility.yul\":15527:15575   */\n      tag_287\n        /* \"#utility.yul\":15569:15573   */\n      0x1f\n        /* \"#utility.yul\":15561:15567   */\n      dup10\n        /* \"#utility.yul\":15557:15574   */\n      and\n        /* \"#utility.yul\":15546:15555   */\n      dup3\n        /* \"#utility.yul\":15527:15575   */\n      tag_120\n      jump\t// in\n    tag_287:\n        /* \"#utility.yul\":15519:15525   */\n      dup4\n        /* \"#utility.yul\":15512:15576   */\n      sstore\n        /* \"#utility.yul\":15434:15590   */\n      pop\n        /* \"#utility.yul\":15411:15590   */\n    tag_286:\n        /* \"#utility.yul\":15636:15637   */\n      0x01\n        /* \"#utility.yul\":15632:15633   */\n      0x02\n        /* \"#utility.yul\":15624:15630   */\n      dup9\n        /* \"#utility.yul\":15620:15634   */\n      mul\n        /* \"#utility.yul\":15616:15638   */\n      add\n        /* \"#utility.yul\":15610:15614   */\n      dup9\n        /* \"#utility.yul\":15603:15639   */\n      sstore\n        /* \"#utility.yul\":15038:15649   */\n      pop\n      pop\n      pop\n        /* \"#utility.yul\":15001:15888   */\n    tag_278:\n      pop\n        /* \"#utility.yul\":14591:15894   */\n      pop\n      pop\n      pop\n        /* \"#utility.yul\":14499:15894   */\n      pop\n      pop\n      jump\t// out\n        /* \"#utility.yul\":15900:16311   */\n    tag_69:\n        /* \"#utility.yul\":16035:16039   */\n      0x00\n        /* \"#utility.yul\":16073:16075   */\n      0x40\n        /* \"#utility.yul\":16062:16071   */\n      dup3\n        /* \"#utility.yul\":16058:16076   */\n      add\n        /* \"#utility.yul\":16050:16076   */\n      swap1\n      pop\n        /* \"#utility.yul\":16122:16131   */\n      dup2\n        /* \"#utility.yul\":16116:16120   */\n      dup2\n        /* \"#utility.yul\":16112:16132   */\n      sub\n        /* \"#utility.yul\":16108:16109   */\n      0x00\n        /* \"#utility.yul\":16097:16106   */\n      dup4\n        /* \"#utility.yul\":16093:16110   */\n      add\n        /* \"#utility.yul\":16086:16133   */\n      mstore\n        /* \"#utility.yul\":16150:16228   */\n      tag_289\n        /* \"#utility.yul\":16223:16227   */\n      dup2\n        /* \"#utility.yul\":16214:16220   */\n      dup6\n        /* \"#utility.yul\":16150:16228   */\n      tag_83\n      jump\t// in\n    tag_289:\n        /* \"#utility.yul\":16142:16228   */\n      swap1\n      pop\n        /* \"#utility.yul\":16238:16304   */\n      tag_290\n        /* \"#utility.yul\":16300:16302   */\n      0x20\n        /* \"#utility.yul\":16289:16298   */\n      dup4\n        /* \"#utility.yul\":16285:16303   */\n      add\n        /* \"#utility.yul\":16276:16282   */\n      dup5\n        /* \"#utility.yul\":16238:16304   */\n      tag_78\n      jump\t// in\n    tag_290:\n        /* \"#utility.yul\":15900:16311   */\n      swap4\n      swap3\n      pop\n      pop\n      pop\n      jump\t// out\n\n    auxdata: 0xa264697066735822122072ce051cc55a5f23dcca7b6d07ad68c3e283040eded6a1ad36662f3ecb5ccc3b64736f6c63430008160033\n}\n",
				"bytecode": {
					"linkReferences": {},
					"object": "608060405234801561000f575f80fd5b503360025f6101000a81548173ffffffffffffffffffffffffffffffffffffffff021916908373ffffffffffffffffffffffffffffffffffffffff1602179055506111008061005d5f395ff3fe608060405234801561000f575f80fd5b5060043610610060575f3560e01c806324d7806c146100645780636f77926b146100945780638f283970146100c6578063b5cb15f7146100e2578063f851a44014610100578063fd43d2e01461011e575b5f80fd5b61007e600480360381019061007991906108ce565b61013a565b60405161008b9190610913565b60405180910390f35b6100ae60048036038101906100a991906108ce565b6101fd565b6040516100bd939291906109c5565b60405180910390f35b6100e060048036038101906100db91906108ce565b6103d4565b005b6100ea610514565b6040516100f79190610a19565b60405180910390f35b610108610520565b6040516101159190610a32565b60405180910390f35b61013860048036038101906101339190610ba1565b610545565b005b5f8073ffffffffffffffffffffffffffffffffffffffff168273ffffffffffffffffffffffffffffffffffffffff16036101a9576040517f08c379a00000000000000000000000000000000000000000000000000000000081526004016101a090610c57565b60405180910390fd5b5f808373ffffffffffffffffffffffffffffffffffffffff1673ffffffffffffffffffffffffffffffffffffffff1681526020019081526020015f2060010160149054906101000a900460ff169050919050565b60605f805f73ffffffffffffffffffffffffffffffffffffffff168473ffffffffffffffffffffffffffffffffffffffff160361026f576040517f08c379a000000000000000000000000000000000000000000000000000000000815260040161026690610c57565b60405180910390fd5b5f805f8673ffffffffffffffffffffffffffffffffffffffff1673ffffffffffffffffffffffffffffffffffffffff1681526020019081526020015f206040518060600160405290815f820180546102c690610ca2565b80601f01602080910402602001604051908101604052809291908181526020018280546102f290610ca2565b801561033d5780601f106103145761010080835404028352916020019161033d565b820191905f5260205f20905b81548152906001019060200180831161032057829003601f168201915b50505050508152602001600182015f9054906101000a900473ffffffffffffffffffffffffffffffffffffffff1673ffffffffffffffffffffffffffffffffffffffff1673ffffffffffffffffffffffffffffffffffffffff1681526020016001820160149054906101000a900460ff1615151515815250509050805f015181602001518260400151935093509350509193909250565b60025f9054906101000a900473ffffffffffffffffffffffffffffffffffffffff1673ffffffffffffffffffffffffffffffffffffffff163373ffffffffffffffffffffffffffffffffffffffff1614610463576040517f08c379a000000000000000000000000000000000000000000000000000000000815260040161045a90610d42565b60405180910390fd5b5f73ffffffffffffffffffffffffffffffffffffffff168173ffffffffffffffffffffffffffffffffffffffff16036104d1576040517f08c379a00000000000000000000000000000000000000000000000000000000081526004016104c890610c57565b60405180910390fd5b8060025f6101000a81548173ffffffffffffffffffffffffffffffffffffffff021916908373ffffffffffffffffffffffffffffffffffffffff16021790555050565b5f600180549050905090565b60025f9054906101000a900473ffffffffffffffffffffffffffffffffffffffff1681565b5f73ffffffffffffffffffffffffffffffffffffffff168273ffffffffffffffffffffffffffffffffffffffff16036105b3576040517f08c379a00000000000000000000000000000000000000000000000000000000081526004016105aa90610c57565b60405180910390fd5b5f8351116105f6576040517f08c379a00000000000000000000000000000000000000000000000000000000081526004016105ed90610daa565b60405180910390fd5b5f73ffffffffffffffffffffffffffffffffffffffff165f808473ffffffffffffffffffffffffffffffffffffffff1673ffffffffffffffffffffffffffffffffffffffff1681526020019081526020015f206001015f9054906101000a900473ffffffffffffffffffffffffffffffffffffffff1673ffffffffffffffffffffffffffffffffffffffff16146106c2576040517f08c379a00000000000000000000000000000000000000000000000000000000081526004016106b990610e12565b60405180910390fd5b60405180606001604052808481526020018373ffffffffffffffffffffffffffffffffffffffff1681526020018215158152505f808473ffffffffffffffffffffffffffffffffffffffff1673ffffffffffffffffffffffffffffffffffffffff1681526020019081526020015f205f820151815f0190816107449190610fcd565b506020820151816001015f6101000a81548173ffffffffffffffffffffffffffffffffffffffff021916908373ffffffffffffffffffffffffffffffffffffffff16021790555060408201518160010160146101000a81548160ff021916908315150217905550905050600182908060018154018082558091505060019003905f5260205f20015f9091909190916101000a81548173ffffffffffffffffffffffffffffffffffffffff021916908373ffffffffffffffffffffffffffffffffffffffff1602179055508173ffffffffffffffffffffffffffffffffffffffff167f8da4d08b660148e3aeec5166e2b51fd9cac5dfac04471806402bea745db272f7848360405161085692919061109c565b60405180910390a2505050565b5f604051905090565b5f80fd5b5f80fd5b5f73ffffffffffffffffffffffffffffffffffffffff82169050919050565b5f61089d82610874565b9050919050565b6108ad81610893565b81146108b7575f80fd5b50565b5f813590506108c8816108a4565b92915050565b5f602082840312156108e3576108e261086c565b5b5f6108f0848285016108ba565b91505092915050565b5f8115159050919050565b61090d816108f9565b82525050565b5f6020820190506109265f830184610904565b92915050565b5f81519050919050565b5f82825260208201905092915050565b5f5b83811015610963578082015181840152602081019050610948565b5f8484015250505050565b5f601f19601f8301169050919050565b5f6109888261092c565b6109928185610936565b93506109a2818560208601610946565b6109ab8161096e565b840191505092915050565b6109bf81610893565b82525050565b5f6060820190508181035f8301526109dd818661097e565b90506109ec60208301856109b6565b6109f96040830184610904565b949350505050565b5f819050919050565b610a1381610a01565b82525050565b5f602082019050610a2c5f830184610a0a565b92915050565b5f602082019050610a455f8301846109b6565b92915050565b5f80fd5b5f80fd5b7f4e487b71000000000000000000000000000000000000000000000000000000005f52604160045260245ffd5b610a898261096e565b810181811067ffffffffffffffff82111715610aa857610aa7610a53565b5b80604052505050565b5f610aba610863565b9050610ac68282610a80565b919050565b5f67ffffffffffffffff821115610ae557610ae4610a53565b5b610aee8261096e565b9050602081019050919050565b828183375f83830152505050565b5f610b1b610b1684610acb565b610ab1565b905082815260208101848484011115610b3757610b36610a4f565b5b610b42848285610afb565b509392505050565b5f82601f830112610b5e57610b5d610a4b565b5b8135610b6e848260208601610b09565b91505092915050565b610b80816108f9565b8114610b8a575f80fd5b50565b5f81359050610b9b81610b77565b92915050565b5f805f60608486031215610bb857610bb761086c565b5b5f84013567ffffffffffffffff811115610bd557610bd4610870565b5b610be186828701610b4a565b9350506020610bf2868287016108ba565b9250506040610c0386828701610b8d565b9150509250925092565b7f496e76616c6964206164647265737300000000000000000000000000000000005f82015250565b5f610c41600f83610936565b9150610c4c82610c0d565b602082019050919050565b5f6020820190508181035f830152610c6e81610c35565b9050919050565b7f4e487b71000000000000000000000000000000000000000000000000000000005f52602260045260245ffd5b5f6002820490506001821680610cb957607f821691505b602082108103610ccc57610ccb610c75565b5b50919050565b7f4f6e6c792061646d696e2063616e2063616c6c20746869732066756e6374696f5f8201527f6e00000000000000000000000000000000000000000000000000000000000000602082015250565b5f610d2c602183610936565b9150610d3782610cd2565b604082019050919050565b5f6020820190508181035f830152610d5981610d20565b9050919050565b7f4e616d652063616e6e6f7420626520656d7074790000000000000000000000005f82015250565b5f610d94601483610936565b9150610d9f82610d60565b602082019050919050565b5f6020820190508181035f830152610dc181610d88565b9050919050565b7f5573657220616c726561647920657869737473000000000000000000000000005f82015250565b5f610dfc601383610936565b9150610e0782610dc8565b602082019050919050565b5f6020820190508181035f830152610e2981610df0565b9050919050565b5f819050815f5260205f209050919050565b5f6020601f8301049050919050565b5f82821b905092915050565b5f60088302610e8c7fffffffffffffffffffffffffffffffffffffffffffffffffffffffffffffffff82610e51565b610e968683610e51565b95508019841693508086168417925050509392505050565b5f819050919050565b5f610ed1610ecc610ec784610a01565b610eae565b610a01565b9050919050565b5f819050919050565b610eea83610eb7565b610efe610ef682610ed8565b848454610e5d565b825550505050565b5f90565b610f12610f06565b610f1d818484610ee1565b505050565b5b81811015610f4057610f355f82610f0a565b600181019050610f23565b5050565b601f821115610f8557610f5681610e30565b610f5f84610e42565b81016020851015610f6e578190505b610f82610f7a85610e42565b830182610f22565b50505b505050565b5f82821c905092915050565b5f610fa55f1984600802610f8a565b1980831691505092915050565b5f610fbd8383610f96565b9150826002028217905092915050565b610fd68261092c565b67ffffffffffffffff811115610fef57610fee610a53565b5b610ff98254610ca2565b611004828285610f44565b5f60209050601f831160018114611035575f8415611023578287015190505b61102d8582610fb2565b865550611094565b601f19841661104386610e30565b5f5b8281101561106a57848901518255600182019150602085019450602081019050611045565b868310156110875784890151611083601f891682610f96565b8355505b6001600288020188555050505b505050505050565b5f6040820190508181035f8301526110b4818561097e565b90506110c36020830184610904565b939250505056fea264697066735822122072ce051cc55a5f23dcca7b6d07ad68c3e283040eded6a1ad36662f3ecb5ccc3b64736f6c63430008160033",
					"opcodes": "PUSH1 0x80 PUSH1 0x40 MSTORE CALLVALUE DUP1 ISZERO PUSH2 0xF JUMPI PUSH0 DUP1 REVERT JUMPDEST POP CALLER PUSH1 0x2 PUSH0 PUSH2 0x100 EXP DUP2 SLOAD DUP2 PUSH20 0xFFFFFFFFFFFFFFFFFFFFFFFFFFFFFFFFFFFFFFFF MUL NOT AND SWAP1 DUP4 PUSH20 0xFFFFFFFFFFFFFFFFFFFFFFFFFFFFFFFFFFFFFFFF AND MUL OR SWAP1 SSTORE POP PUSH2 0x1100 DUP1 PUSH2 0x5D PUSH0 CODECOPY PUSH0 RETURN INVALID PUSH1 0x80 PUSH1 0x40 MSTORE CALLVALUE DUP1 ISZERO PUSH2 0xF JUMPI PUSH0 DUP1 REVERT JUMPDEST POP PUSH1 0x4 CALLDATASIZE LT PUSH2 0x60 JUMPI PUSH0 CALLDATALOAD PUSH1 0xE0 SHR DUP1 PUSH4 0x24D7806C EQ PUSH2 0x64 JUMPI DUP1 PUSH4 0x6F77926B EQ PUSH2 0x94 JUMPI DUP1 PUSH4 0x8F283970 EQ PUSH2 0xC6 JUMPI DUP1 PUSH4 0xB5CB15F7 EQ PUSH2 0xE2 JUMPI DUP1 PUSH4 0xF851A440 EQ PUSH2 0x100 JUMPI DUP1 PUSH4 0xFD43D2E0 EQ PUSH2 0x11E JUMPI JUMPDEST PUSH0 DUP1 REVERT JUMPDEST PUSH2 0x7E PUSH1 0x4 DUP1 CALLDATASIZE SUB DUP2 ADD SWAP1 PUSH2 0x79 SWAP2 SWAP1 PUSH2 0x8CE JUMP JUMPDEST PUSH2 0x13A JUMP JUMPDEST PUSH1 0x40 MLOAD PUSH2 0x8B SWAP2 SWAP1 PUSH2 0x913 JUMP JUMPDEST PUSH1 0x40 MLOAD DUP1 SWAP2 SUB SWAP1 RETURN JUMPDEST PUSH2 0xAE PUSH1 0x4 DUP1 CALLDATASIZE SUB DUP2 ADD SWAP1 PUSH2 0xA9 SWAP2 SWAP1 PUSH2 0x8CE JUMP JUMPDEST PUSH2 0x1FD JUMP JUMPDEST PUSH1 0x40 MLOAD PUSH2 0xBD SWAP4 SWAP3 SWAP2 SWAP1 PUSH2 0x9C5 JUMP JUMPDEST PUSH1 0x40 MLOAD DUP1 SWAP2 SUB SWAP1 RETURN JUMPDEST PUSH2 0xE0 PUSH1 0x4 DUP1 CALLDATASIZE SUB DUP2 ADD SWAP1 PUSH2 0xDB SWAP2 SWAP1 PUSH2 0x8CE JUMP JUMPDEST PUSH2 0x3D4 JUMP JUMPDEST STOP JUMPDEST PUSH2 0xEA PUSH2 0x514 JUMP JUMPDEST PUSH1 0x40 MLOAD PUSH2 0xF7 SWAP2 SWAP1 PUSH2 0xA19 JUMP JUMPDEST PUSH1 0x40 MLOAD DUP1 SWAP2 SUB SWAP1 RETURN JUMPDEST PUSH2 0x108 PUSH2 0x520 JUMP JUMPDEST PUSH1 0x40 MLOAD PUSH2 0x115 SWAP2 SWAP1 PUSH2 0xA32 JUMP JUMPDEST PUSH1 0x40 MLOAD DUP1 SWAP2 SUB SWAP1 RETURN JUMPDEST PUSH2 0x138 PUSH1 0x4 DUP1 CALLDATASIZE SUB DUP2 ADD SWAP1 PUSH2 0x133 SWAP2 SWAP1 PUSH2 0xBA1 JUMP JUMPDEST PUSH2 0x545 JUMP JUMPDEST STOP JUMPDEST PUSH0 DUP1 PUSH20 0xFFFFFFFFFFFFFFFFFFFFFFFFFFFFFFFFFFFFFFFF AND DUP3 PUSH20 0xFFFFFFFFFFFFFFFFFFFFFFFFFFFFFFFFFFFFFFFF AND SUB PUSH2 0x1A9 JUMPI PUSH1 0x40 MLOAD PUSH32 0x8C379A000000000000000000000000000000000000000000000000000000000 DUP2 MSTORE PUSH1 0x4 ADD PUSH2 0x1A0 SWAP1 PUSH2 0xC57 JUMP JUMPDEST PUSH1 0x40 MLOAD DUP1 SWAP2 SUB SWAP1 REVERT JUMPDEST PUSH0 DUP1 DUP4 PUSH20 0xFFFFFFFFFFFFFFFFFFFFFFFFFFFFFFFFFFFFFFFF AND PUSH20 0xFFFFFFFFFFFFFFFFFFFFFFFFFFFFFFFFFFFFFFFF AND DUP2 MSTORE PUSH1 0x20 ADD SWAP1 DUP2 MSTORE PUSH1 0x20 ADD PUSH0 KECCAK256 PUSH1 0x1 ADD PUSH1 0x14 SWAP1 SLOAD SWAP1 PUSH2 0x100 EXP SWAP1 DIV PUSH1 0xFF AND SWAP1 POP SWAP2 SWAP1 POP JUMP JUMPDEST PUSH1 0x60 PUSH0 DUP1 PUSH0 PUSH20 0xFFFFFFFFFFFFFFFFFFFFFFFFFFFFFFFFFFFFFFFF AND DUP5 PUSH20 0xFFFFFFFFFFFFFFFFFFFFFFFFFFFFFFFFFFFFFFFF AND SUB PUSH2 0x26F JUMPI PUSH1 0x40 MLOAD PUSH32 0x8C379A000000000000000000000000000000000000000000000000000000000 DUP2 MSTORE PUSH1 0x4 ADD PUSH2 0x266 SWAP1 PUSH2 0xC57 JUMP JUMPDEST PUSH1 0x40 MLOAD DUP1 SWAP2 SUB SWAP1 REVERT JUMPDEST PUSH0 DUP1 PUSH0 DUP7 PUSH20 0xFFFFFFFFFFFFFFFFFFFFFFFFFFFFFFFFFFFFFFFF AND PUSH20 0xFFFFFFFFFFFFFFFFFFFFFFFFFFFFFFFFFFFFFFFF AND DUP2 MSTORE PUSH1 0x20 ADD SWAP1 DUP2 MSTORE PUSH1 0x20 ADD PUSH0 KECCAK256 PUSH1 0x40 MLOAD DUP1 PUSH1 0x60 ADD PUSH1 0x40 MSTORE SWAP1 DUP2 PUSH0 DUP3 ADD DUP1 SLOAD PUSH2 0x2C6 SWAP1 PUSH2 0xCA2 JUMP JUMPDEST DUP1 PUSH1 0x1F ADD PUSH1 0x20 DUP1 SWAP2 DIV MUL PUSH1 0x20 ADD PUSH1 0x40 MLOAD SWAP1 DUP2 ADD PUSH1 0x40 MSTORE DUP1 SWAP3 SWAP2 SWAP1 DUP2 DUP2 MSTORE PUSH1 0x20 ADD DUP3 DUP1 SLOAD PUSH2 0x2F2 SWAP1 PUSH2 0xCA2 JUMP JUMPDEST DUP1 ISZERO PUSH2 0x33D JUMPI DUP1 PUSH1 0x1F LT PUSH2 0x314 JUMPI PUSH2 0x100 DUP1 DUP4 SLOAD DIV MUL DUP4 MSTORE SWAP2 PUSH1 0x20 ADD SWAP2 PUSH2 0x33D JUMP JUMPDEST DUP3 ADD SWAP2 SWAP1 PUSH0 MSTORE PUSH1 0x20 PUSH0 KECCAK256 SWAP1 JUMPDEST DUP2 SLOAD DUP2 MSTORE SWAP1 PUSH1 0x1 ADD SWAP1 PUSH1 0x20 ADD DUP1 DUP4 GT PUSH2 0x320 JUMPI DUP3 SWAP1 SUB PUSH1 0x1F AND DUP3 ADD SWAP2 JUMPDEST POP POP POP POP POP DUP2 MSTORE PUSH1 0x20 ADD PUSH1 0x1 DUP3 ADD PUSH0 SWAP1 SLOAD SWAP1 PUSH2 0x100 EXP SWAP1 DIV PUSH20 0xFFFFFFFFFFFFFFFFFFFFFFFFFFFFFFFFFFFFFFFF AND PUSH20 0xFFFFFFFFFFFFFFFFFFFFFFFFFFFFFFFFFFFFFFFF AND PUSH20 0xFFFFFFFFFFFFFFFFFFFFFFFFFFFFFFFFFFFFFFFF AND DUP2 MSTORE PUSH1 0x20 ADD PUSH1 0x1 DUP3 ADD PUSH1 0x14 SWAP1 SLOAD SWAP1 PUSH2 0x100 EXP SWAP1 DIV PUSH1 0xFF AND ISZERO ISZERO ISZERO ISZERO DUP2 MSTORE POP POP SWAP1 POP DUP1 PUSH0 ADD MLOAD DUP2 PUSH1 0x20 ADD MLOAD DUP3 PUSH1 0x40 ADD MLOAD SWAP4 POP SWAP4 POP SWAP4 POP POP SWAP2 SWAP4 SWAP1 SWAP3 POP JUMP JUMPDEST PUSH1 0x2 PUSH0 SWAP1 SLOAD SWAP1 PUSH2 0x100 EXP SWAP1 DIV PUSH20 0xFFFFFFFFFFFFFFFFFFFFFFFFFFFFFFFFFFFFFFFF AND PUSH20 0xFFFFFFFFFFFFFFFFFFFFFFFFFFFFFFFFFFFFFFFF AND CALLER PUSH20 0xFFFFFFFFFFFFFFFFFFFFFFFFFFFFFFFFFFFFFFFF AND EQ PUSH2 0x463 JUMPI PUSH1 0x40 MLOAD PUSH32 0x8C379A000000000000000000000000000000000000000000000000000000000 DUP2 MSTORE PUSH1 0x4 ADD PUSH2 0x45A SWAP1 PUSH2 0xD42 JUMP JUMPDEST PUSH1 0x40 MLOAD DUP1 SWAP2 SUB SWAP1 REVERT JUMPDEST PUSH0 PUSH20 0xFFFFFFFFFFFFFFFFFFFFFFFFFFFFFFFFFFFFFFFF AND DUP2 PUSH20 0xFFFFFFFFFFFFFFFFFFFFFFFFFFFFFFFFFFFFFFFF AND SUB PUSH2 0x4D1 JUMPI PUSH1 0x40 MLOAD PUSH32 0x8C379A000000000000000000000000000000000000000000000000000000000 DUP2 MSTORE PUSH1 0x4 ADD PUSH2 0x4C8 SWAP1 PUSH2 0xC57 JUMP JUMPDEST PUSH1 0x40 MLOAD DUP1 SWAP2 SUB SWAP1 REVERT JUMPDEST DUP1 PUSH1 0x2 PUSH0 PUSH2 0x100 EXP DUP2 SLOAD DUP2 PUSH20 0xFFFFFFFFFFFFFFFFFFFFFFFFFFFFFFFFFFFFFFFF MUL NOT AND SWAP1 DUP4 PUSH20 0xFFFFFFFFFFFFFFFFFFFFFFFFFFFFFFFFFFFFFFFF AND MUL OR SWAP1 SSTORE POP POP JUMP JUMPDEST PUSH0 PUSH1 0x1 DUP1 SLOAD SWAP1 POP SWAP1 POP SWAP1 JUMP JUMPDEST PUSH1 0x2 PUSH0 SWAP1 SLOAD SWAP1 PUSH2 0x100 EXP SWAP1 DIV PUSH20 0xFFFFFFFFFFFFFFFFFFFFFFFFFFFFFFFFFFFFFFFF AND DUP2 JUMP JUMPDEST PUSH0 PUSH20 0xFFFFFFFFFFFFFFFFFFFFFFFFFFFFFFFFFFFFFFFF AND DUP3 PUSH20 0xFFFFFFFFFFFFFFFFFFFFFFFFFFFFFFFFFFFFFFFF AND SUB PUSH2 0x5B3 JUMPI PUSH1 0x40 MLOAD PUSH32 0x8C379A000000000000000000000000000000000000000000000000000000000 DUP2 MSTORE PUSH1 0x4 ADD PUSH2 0x5AA SWAP1 PUSH2 0xC57 JUMP JUMPDEST PUSH1 0x40 MLOAD DUP1 SWAP2 SUB SWAP1 REVERT JUMPDEST PUSH0 DUP4 MLOAD GT PUSH2 0x5F6 JUMPI PUSH1 0x40 MLOAD PUSH32 0x8C379A000000000000000000000000000000000000000000000000000000000 DUP2 MSTORE PUSH1 0x4 ADD PUSH2 0x5ED SWAP1 PUSH2 0xDAA JUMP JUMPDEST PUSH1 0x40 MLOAD DUP1 SWAP2 SUB SWAP1 REVERT JUMPDEST PUSH0 PUSH20 0xFFFFFFFFFFFFFFFFFFFFFFFFFFFFFFFFFFFFFFFF AND PUSH0 DUP1 DUP5 PUSH20 0xFFFFFFFFFFFFFFFFFFFFFFFFFFFFFFFFFFFFFFFF AND PUSH20 0xFFFFFFFFFFFFFFFFFFFFFFFFFFFFFFFFFFFFFFFF AND DUP2 MSTORE PUSH1 0x20 ADD SWAP1 DUP2 MSTORE PUSH1 0x20 ADD PUSH0 KECCAK256 PUSH1 0x1 ADD PUSH0 SWAP1 SLOAD SWAP1 PUSH2 0x100 EXP SWAP1 DIV PUSH20 0xFFFFFFFFFFFFFFFFFFFFFFFFFFFFFFFFFFFFFFFF AND PUSH20 0xFFFFFFFFFFFFFFFFFFFFFFFFFFFFFFFFFFFFFFFF AND EQ PUSH2 0x6C2 JUMPI PUSH1 0x40 MLOAD PUSH32 0x8C379A000000000000000000000000000000000000000000000000000000000 DUP2 MSTORE PUSH1 0x4 ADD PUSH2 0x6B9 SWAP1 PUSH2 0xE12 JUMP JUMPDEST PUSH1 0x40 MLOAD DUP1 SWAP2 SUB SWAP1 REVERT JUMPDEST PUSH1 0x40 MLOAD DUP1 PUSH1 0x60 ADD PUSH1 0x40 MSTORE DUP1 DUP5 DUP2 MSTORE PUSH1 0x20 ADD DUP4 PUSH20 0xFFFFFFFFFFFFFFFFFFFFFFFFFFFFFFFFFFFFFFFF AND DUP2 MSTORE PUSH1 0x20 ADD DUP3 ISZERO ISZERO DUP2 MSTORE POP PUSH0 DUP1 DUP5 PUSH20 0xFFFFFFFFFFFFFFFFFFFFFFFFFFFFFFFFFFFFFFFF AND PUSH20 0xFFFFFFFFFFFFFFFFFFFFFFFFFFFFFFFFFFFFFFFF AND DUP2 MSTORE PUSH1 0x20 ADD SWAP1 DUP2 MSTORE PUSH1 0x20 ADD PUSH0 KECCAK256 PUSH0 DUP3 ADD MLOAD DUP2 PUSH0 ADD SWAP1 DUP2 PUSH2 0x744 SWAP2 SWAP1 PUSH2 0xFCD JUMP JUMPDEST POP PUSH1 0x20 DUP3 ADD MLOAD DUP2 PUSH1 0x1 ADD PUSH0 PUSH2 0x100 EXP DUP2 SLOAD DUP2 PUSH20 0xFFFFFFFFFFFFFFFFFFFFFFFFFFFFFFFFFFFFFFFF MUL NOT AND SWAP1 DUP4 PUSH20 0xFFFFFFFFFFFFFFFFFFFFFFFFFFFFFFFFFFFFFFFF AND MUL OR SWAP1 SSTORE POP PUSH1 0x40 DUP3 ADD MLOAD DUP2 PUSH1 0x1 ADD PUSH1 0x14 PUSH2 0x100 EXP DUP2 SLOAD DUP2 PUSH1 0xFF MUL NOT AND SWAP1 DUP4 ISZERO ISZERO MUL OR SWAP1 SSTORE POP SWAP1 POP POP PUSH1 0x1 DUP3 SWAP1 DUP1 PUSH1 0x1 DUP2 SLOAD ADD DUP1 DUP3 SSTORE DUP1 SWAP2 POP POP PUSH1 0x1 SWAP1 SUB SWAP1 PUSH0 MSTORE PUSH1 0x20 PUSH0 KECCAK256 ADD PUSH0 SWAP1 SWAP2 SWAP1 SWAP2 SWAP1 SWAP2 PUSH2 0x100 EXP DUP2 SLOAD DUP2 PUSH20 0xFFFFFFFFFFFFFFFFFFFFFFFFFFFFFFFFFFFFFFFF MUL NOT AND SWAP1 DUP4 PUSH20 0xFFFFFFFFFFFFFFFFFFFFFFFFFFFFFFFFFFFFFFFF AND MUL OR SWAP1 SSTORE POP DUP2 PUSH20 0xFFFFFFFFFFFFFFFFFFFFFFFFFFFFFFFFFFFFFFFF AND PUSH32 0x8DA4D08B660148E3AEEC5166E2B51FD9CAC5DFAC04471806402BEA745DB272F7 DUP5 DUP4 PUSH1 0x40 MLOAD PUSH2 0x856 SWAP3 SWAP2 SWAP1 PUSH2 0x109C JUMP JUMPDEST PUSH1 0x40 MLOAD DUP1 SWAP2 SUB SWAP1 LOG2 POP POP POP JUMP JUMPDEST PUSH0 PUSH1 0x40 MLOAD SWAP1 POP SWAP1 JUMP JUMPDEST PUSH0 DUP1 REVERT JUMPDEST PUSH0 DUP1 REVERT JUMPDEST PUSH0 PUSH20 0xFFFFFFFFFFFFFFFFFFFFFFFFFFFFFFFFFFFFFFFF DUP3 AND SWAP1 POP SWAP2 SWAP1 POP JUMP JUMPDEST PUSH0 PUSH2 0x89D DUP3 PUSH2 0x874 JUMP JUMPDEST SWAP1 POP SWAP2 SWAP1 POP JUMP JUMPDEST PUSH2 0x8AD DUP2 PUSH2 0x893 JUMP JUMPDEST DUP2 EQ PUSH2 0x8B7 JUMPI PUSH0 DUP1 REVERT JUMPDEST POP JUMP JUMPDEST PUSH0 DUP2 CALLDATALOAD SWAP1 POP PUSH2 0x8C8 DUP2 PUSH2 0x8A4 JUMP JUMPDEST SWAP3 SWAP2 POP POP JUMP JUMPDEST PUSH0 PUSH1 0x20 DUP3 DUP5 SUB SLT ISZERO PUSH2 0x8E3 JUMPI PUSH2 0x8E2 PUSH2 0x86C JUMP JUMPDEST JUMPDEST PUSH0 PUSH2 0x8F0 DUP5 DUP3 DUP6 ADD PUSH2 0x8BA JUMP JUMPDEST SWAP2 POP POP SWAP3 SWAP2 POP POP JUMP JUMPDEST PUSH0 DUP2 ISZERO ISZERO SWAP1 POP SWAP2 SWAP1 POP JUMP JUMPDEST PUSH2 0x90D DUP2 PUSH2 0x8F9 JUMP JUMPDEST DUP3 MSTORE POP POP JUMP JUMPDEST PUSH0 PUSH1 0x20 DUP3 ADD SWAP1 POP PUSH2 0x926 PUSH0 DUP4 ADD DUP5 PUSH2 0x904 JUMP JUMPDEST SWAP3 SWAP2 POP POP JUMP JUMPDEST PUSH0 DUP2 MLOAD SWAP1 POP SWAP2 SWAP1 POP JUMP JUMPDEST PUSH0 DUP3 DUP3 MSTORE PUSH1 0x20 DUP3 ADD SWAP1 POP SWAP3 SWAP2 POP POP JUMP JUMPDEST PUSH0 JUMPDEST DUP4 DUP2 LT ISZERO PUSH2 0x963 JUMPI DUP1 DUP3 ADD MLOAD DUP2 DUP5 ADD MSTORE PUSH1 0x20 DUP2 ADD SWAP1 POP PUSH2 0x948 JUMP JUMPDEST PUSH0 DUP5 DUP5 ADD MSTORE POP POP POP POP JUMP JUMPDEST PUSH0 PUSH1 0x1F NOT PUSH1 0x1F DUP4 ADD AND SWAP1 POP SWAP2 SWAP1 POP JUMP JUMPDEST PUSH0 PUSH2 0x988 DUP3 PUSH2 0x92C JUMP JUMPDEST PUSH2 0x992 DUP2 DUP6 PUSH2 0x936 JUMP JUMPDEST SWAP4 POP PUSH2 0x9A2 DUP2 DUP6 PUSH1 0x20 DUP7 ADD PUSH2 0x946 JUMP JUMPDEST PUSH2 0x9AB DUP2 PUSH2 0x96E JUMP JUMPDEST DUP5 ADD SWAP2 POP POP SWAP3 SWAP2 POP POP JUMP JUMPDEST PUSH2 0x9BF DUP2 PUSH2 0x893 JUMP JUMPDEST DUP3 MSTORE POP POP JUMP JUMPDEST PUSH0 PUSH1 0x60 DUP3 ADD SWAP1 POP DUP2 DUP2 SUB PUSH0 DUP4 ADD MSTORE PUSH2 0x9DD DUP2 DUP7 PUSH2 0x97E JUMP JUMPDEST SWAP1 POP PUSH2 0x9EC PUSH1 0x20 DUP4 ADD DUP6 PUSH2 0x9B6 JUMP JUMPDEST PUSH2 0x9F9 PUSH1 0x40 DUP4 ADD DUP5 PUSH2 0x904 JUMP JUMPDEST SWAP5 SWAP4 POP POP POP POP JUMP JUMPDEST PUSH0 DUP2 SWAP1 POP SWAP2 SWAP1 POP JUMP JUMPDEST PUSH2 0xA13 DUP2 PUSH2 0xA01 JUMP JUMPDEST DUP3 MSTORE POP POP JUMP JUMPDEST PUSH0 PUSH1 0x20 DUP3 ADD SWAP1 POP PUSH2 0xA2C PUSH0 DUP4 ADD DUP5 PUSH2 0xA0A JUMP JUMPDEST SWAP3 SWAP2 POP POP JUMP JUMPDEST PUSH0 PUSH1 0x20 DUP3 ADD SWAP1 POP PUSH2 0xA45 PUSH0 DUP4 ADD DUP5 PUSH2 0x9B6 JUMP JUMPDEST SWAP3 SWAP2 POP POP JUMP JUMPDEST PUSH0 DUP1 REVERT JUMPDEST PUSH0 DUP1 REVERT JUMPDEST PUSH32 0x4E487B7100000000000000000000000000000000000000000000000000000000 PUSH0 MSTORE PUSH1 0x41 PUSH1 0x4 MSTORE PUSH1 0x24 PUSH0 REVERT JUMPDEST PUSH2 0xA89 DUP3 PUSH2 0x96E JUMP JUMPDEST DUP2 ADD DUP2 DUP2 LT PUSH8 0xFFFFFFFFFFFFFFFF DUP3 GT OR ISZERO PUSH2 0xAA8 JUMPI PUSH2 0xAA7 PUSH2 0xA53 JUMP JUMPDEST JUMPDEST DUP1 PUSH1 0x40 MSTORE POP POP POP JUMP JUMPDEST PUSH0 PUSH2 0xABA PUSH2 0x863 JUMP JUMPDEST SWAP1 POP PUSH2 0xAC6 DUP3 DUP3 PUSH2 0xA80 JUMP JUMPDEST SWAP2 SWAP1 POP JUMP JUMPDEST PUSH0 PUSH8 0xFFFFFFFFFFFFFFFF DUP3 GT ISZERO PUSH2 0xAE5 JUMPI PUSH2 0xAE4 PUSH2 0xA53 JUMP JUMPDEST JUMPDEST PUSH2 0xAEE DUP3 PUSH2 0x96E JUMP JUMPDEST SWAP1 POP PUSH1 0x20 DUP2 ADD SWAP1 POP SWAP2 SWAP1 POP JUMP JUMPDEST DUP3 DUP2 DUP4 CALLDATACOPY PUSH0 DUP4 DUP4 ADD MSTORE POP POP POP JUMP JUMPDEST PUSH0 PUSH2 0xB1B PUSH2 0xB16 DUP5 PUSH2 0xACB JUMP JUMPDEST PUSH2 0xAB1 JUMP JUMPDEST SWAP1 POP DUP3 DUP2 MSTORE PUSH1 0x20 DUP2 ADD DUP5 DUP5 DUP5 ADD GT ISZERO PUSH2 0xB37 JUMPI PUSH2 0xB36 PUSH2 0xA4F JUMP JUMPDEST JUMPDEST PUSH2 0xB42 DUP5 DUP3 DUP6 PUSH2 0xAFB JUMP JUMPDEST POP SWAP4 SWAP3 POP POP POP JUMP JUMPDEST PUSH0 DUP3 PUSH1 0x1F DUP4 ADD SLT PUSH2 0xB5E JUMPI PUSH2 0xB5D PUSH2 0xA4B JUMP JUMPDEST JUMPDEST DUP2 CALLDATALOAD PUSH2 0xB6E DUP5 DUP3 PUSH1 0x20 DUP7 ADD PUSH2 0xB09 JUMP JUMPDEST SWAP2 POP POP SWAP3 SWAP2 POP POP JUMP JUMPDEST PUSH2 0xB80 DUP2 PUSH2 0x8F9 JUMP JUMPDEST DUP2 EQ PUSH2 0xB8A JUMPI PUSH0 DUP1 REVERT JUMPDEST POP JUMP JUMPDEST PUSH0 DUP2 CALLDATALOAD SWAP1 POP PUSH2 0xB9B DUP2 PUSH2 0xB77 JUMP JUMPDEST SWAP3 SWAP2 POP POP JUMP JUMPDEST PUSH0 DUP1 PUSH0 PUSH1 0x60 DUP5 DUP7 SUB SLT ISZERO PUSH2 0xBB8 JUMPI PUSH2 0xBB7 PUSH2 0x86C JUMP JUMPDEST JUMPDEST PUSH0 DUP5 ADD CALLDATALOAD PUSH8 0xFFFFFFFFFFFFFFFF DUP2 GT ISZERO PUSH2 0xBD5 JUMPI PUSH2 0xBD4 PUSH2 0x870 JUMP JUMPDEST JUMPDEST PUSH2 0xBE1 DUP7 DUP3 DUP8 ADD PUSH2 0xB4A JUMP JUMPDEST SWAP4 POP POP PUSH1 0x20 PUSH2 0xBF2 DUP7 DUP3 DUP8 ADD PUSH2 0x8BA JUMP JUMPDEST SWAP3 POP POP PUSH1 0x40 PUSH2 0xC03 DUP7 DUP3 DUP8 ADD PUSH2 0xB8D JUMP JUMPDEST SWAP2 POP POP SWAP3 POP SWAP3 POP SWAP3 JUMP JUMPDEST PUSH32 0x496E76616C696420616464726573730000000000000000000000000000000000 PUSH0 DUP3 ADD MSTORE POP JUMP JUMPDEST PUSH0 PUSH2 0xC41 PUSH1 0xF DUP4 PUSH2 0x936 JUMP JUMPDEST SWAP2 POP PUSH2 0xC4C DUP3 PUSH2 0xC0D JUMP JUMPDEST PUSH1 0x20 DUP3 ADD SWAP1 POP SWAP2 SWAP1 POP JUMP JUMPDEST PUSH0 PUSH1 0x20 DUP3 ADD SWAP1 POP DUP2 DUP2 SUB PUSH0 DUP4 ADD MSTORE PUSH2 0xC6E DUP2 PUSH2 0xC35 JUMP JUMPDEST SWAP1 POP SWAP2 SWAP1 POP JUMP JUMPDEST PUSH32 0x4E487B7100000000000000000000000000000000000000000000000000000000 PUSH0 MSTORE PUSH1 0x22 PUSH1 0x4 MSTORE PUSH1 0x24 PUSH0 REVERT JUMPDEST PUSH0 PUSH1 0x2 DUP3 DIV SWAP1 POP PUSH1 0x1 DUP3 AND DUP1 PUSH2 0xCB9 JUMPI PUSH1 0x7F DUP3 AND SWAP2 POP JUMPDEST PUSH1 0x20 DUP3 LT DUP2 SUB PUSH2 0xCCC JUMPI PUSH2 0xCCB PUSH2 0xC75 JUMP JUMPDEST JUMPDEST POP SWAP2 SWAP1 POP JUMP JUMPDEST PUSH32 0x4F6E6C792061646D696E2063616E2063616C6C20746869732066756E6374696F PUSH0 DUP3 ADD MSTORE PUSH32 0x6E00000000000000000000000000000000000000000000000000000000000000 PUSH1 0x20 DUP3 ADD MSTORE POP JUMP JUMPDEST PUSH0 PUSH2 0xD2C PUSH1 0x21 DUP4 PUSH2 0x936 JUMP JUMPDEST SWAP2 POP PUSH2 0xD37 DUP3 PUSH2 0xCD2 JUMP JUMPDEST PUSH1 0x40 DUP3 ADD SWAP1 POP SWAP2 SWAP1 POP JUMP JUMPDEST PUSH0 PUSH1 0x20 DUP3 ADD SWAP1 POP DUP2 DUP2 SUB PUSH0 DUP4 ADD MSTORE PUSH2 0xD59 DUP2 PUSH2 0xD20 JUMP JUMPDEST SWAP1 POP SWAP2 SWAP1 POP JUMP JUMPDEST PUSH32 0x4E616D652063616E6E6F7420626520656D707479000000000000000000000000 PUSH0 DUP3 ADD MSTORE POP JUMP JUMPDEST PUSH0 PUSH2 0xD94 PUSH1 0x14 DUP4 PUSH2 0x936 JUMP JUMPDEST SWAP2 POP PUSH2 0xD9F DUP3 PUSH2 0xD60 JUMP JUMPDEST PUSH1 0x20 DUP3 ADD SWAP1 POP SWAP2 SWAP1 POP JUMP JUMPDEST PUSH0 PUSH1 0x20 DUP3 ADD SWAP1 POP DUP2 DUP2 SUB PUSH0 DUP4 ADD MSTORE PUSH2 0xDC1 DUP2 PUSH2 0xD88 JUMP JUMPDEST SWAP1 POP SWAP2 SWAP1 POP JUMP JUMPDEST PUSH32 0x5573657220616C72656164792065786973747300000000000000000000000000 PUSH0 DUP3 ADD MSTORE POP JUMP JUMPDEST PUSH0 PUSH2 0xDFC PUSH1 0x13 DUP4 PUSH2 0x936 JUMP JUMPDEST SWAP2 POP PUSH2 0xE07 DUP3 PUSH2 0xDC8 JUMP JUMPDEST PUSH1 0x20 DUP3 ADD SWAP1 POP SWAP2 SWAP1 POP JUMP JUMPDEST PUSH0 PUSH1 0x20 DUP3 ADD SWAP1 POP DUP2 DUP2 SUB PUSH0 DUP4 ADD MSTORE PUSH2 0xE29 DUP2 PUSH2 0xDF0 JUMP JUMPDEST SWAP1 POP SWAP2 SWAP1 POP JUMP JUMPDEST PUSH0 DUP2 SWAP1 POP DUP2 PUSH0 MSTORE PUSH1 0x20 PUSH0 KECCAK256 SWAP1 POP SWAP2 SWAP1 POP JUMP JUMPDEST PUSH0 PUSH1 0x20 PUSH1 0x1F DUP4 ADD DIV SWAP1 POP SWAP2 SWAP1 POP JUMP JUMPDEST PUSH0 DUP3 DUP3 SHL SWAP1 POP SWAP3 SWAP2 POP POP JUMP JUMPDEST PUSH0 PUSH1 0x8 DUP4 MUL PUSH2 0xE8C PUSH32 0xFFFFFFFFFFFFFFFFFFFFFFFFFFFFFFFFFFFFFFFFFFFFFFFFFFFFFFFFFFFFFFFF DUP3 PUSH2 0xE51 JUMP JUMPDEST PUSH2 0xE96 DUP7 DUP4 PUSH2 0xE51 JUMP JUMPDEST SWAP6 POP DUP1 NOT DUP5 AND SWAP4 POP DUP1 DUP7 AND DUP5 OR SWAP3 POP POP POP SWAP4 SWAP3 POP POP POP JUMP JUMPDEST PUSH0 DUP2 SWAP1 POP SWAP2 SWAP1 POP JUMP JUMPDEST PUSH0 PUSH2 0xED1 PUSH2 0xECC PUSH2 0xEC7 DUP5 PUSH2 0xA01 JUMP JUMPDEST PUSH2 0xEAE JUMP JUMPDEST PUSH2 0xA01 JUMP JUMPDEST SWAP1 POP SWAP2 SWAP1 POP JUMP JUMPDEST PUSH0 DUP2 SWAP1 POP SWAP2 SWAP1 POP JUMP JUMPDEST PUSH2 0xEEA DUP4 PUSH2 0xEB7 JUMP JUMPDEST PUSH2 0xEFE PUSH2 0xEF6 DUP3 PUSH2 0xED8 JUMP JUMPDEST DUP5 DUP5 SLOAD PUSH2 0xE5D JUMP JUMPDEST DUP3 SSTORE POP POP POP POP JUMP JUMPDEST PUSH0 SWAP1 JUMP JUMPDEST PUSH2 0xF12 PUSH2 0xF06 JUMP JUMPDEST PUSH2 0xF1D DUP2 DUP5 DUP5 PUSH2 0xEE1 JUMP JUMPDEST POP POP POP JUMP JUMPDEST JUMPDEST DUP2 DUP2 LT ISZERO PUSH2 0xF40 JUMPI PUSH2 0xF35 PUSH0 DUP3 PUSH2 0xF0A JUMP JUMPDEST PUSH1 0x1 DUP2 ADD SWAP1 POP PUSH2 0xF23 JUMP JUMPDEST POP POP JUMP JUMPDEST PUSH1 0x1F DUP3 GT ISZERO PUSH2 0xF85 JUMPI PUSH2 0xF56 DUP2 PUSH2 0xE30 JUMP JUMPDEST PUSH2 0xF5F DUP5 PUSH2 0xE42 JUMP JUMPDEST DUP2 ADD PUSH1 0x20 DUP6 LT ISZERO PUSH2 0xF6E JUMPI DUP2 SWAP1 POP JUMPDEST PUSH2 0xF82 PUSH2 0xF7A DUP6 PUSH2 0xE42 JUMP JUMPDEST DUP4 ADD DUP3 PUSH2 0xF22 JUMP JUMPDEST POP POP JUMPDEST POP POP POP JUMP JUMPDEST PUSH0 DUP3 DUP3 SHR SWAP1 POP SWAP3 SWAP2 POP POP JUMP JUMPDEST PUSH0 PUSH2 0xFA5 PUSH0 NOT DUP5 PUSH1 0x8 MUL PUSH2 0xF8A JUMP JUMPDEST NOT DUP1 DUP4 AND SWAP2 POP POP SWAP3 SWAP2 POP POP JUMP JUMPDEST PUSH0 PUSH2 0xFBD DUP4 DUP4 PUSH2 0xF96 JUMP JUMPDEST SWAP2 POP DUP3 PUSH1 0x2 MUL DUP3 OR SWAP1 POP SWAP3 SWAP2 POP POP JUMP JUMPDEST PUSH2 0xFD6 DUP3 PUSH2 0x92C JUMP JUMPDEST PUSH8 0xFFFFFFFFFFFFFFFF DUP2 GT ISZERO PUSH2 0xFEF JUMPI PUSH2 0xFEE PUSH2 0xA53 JUMP JUMPDEST JUMPDEST PUSH2 0xFF9 DUP3 SLOAD PUSH2 0xCA2 JUMP JUMPDEST PUSH2 0x1004 DUP3 DUP3 DUP6 PUSH2 0xF44 JUMP JUMPDEST PUSH0 PUSH1 0x20 SWAP1 POP PUSH1 0x1F DUP4 GT PUSH1 0x1 DUP2 EQ PUSH2 0x1035 JUMPI PUSH0 DUP5 ISZERO PUSH2 0x1023 JUMPI DUP3 DUP8 ADD MLOAD SWAP1 POP JUMPDEST PUSH2 0x102D DUP6 DUP3 PUSH2 0xFB2 JUMP JUMPDEST DUP7 SSTORE POP PUSH2 0x1094 JUMP JUMPDEST PUSH1 0x1F NOT DUP5 AND PUSH2 0x1043 DUP7 PUSH2 0xE30 JUMP JUMPDEST PUSH0 JUMPDEST DUP3 DUP2 LT ISZERO PUSH2 0x106A JUMPI DUP5 DUP10 ADD MLOAD DUP3 SSTORE PUSH1 0x1 DUP3 ADD SWAP2 POP PUSH1 0x20 DUP6 ADD SWAP5 POP PUSH1 0x20 DUP2 ADD SWAP1 POP PUSH2 0x1045 JUMP JUMPDEST DUP7 DUP4 LT ISZERO PUSH2 0x1087 JUMPI DUP5 DUP10 ADD MLOAD PUSH2 0x1083 PUSH1 0x1F DUP10 AND DUP3 PUSH2 0xF96 JUMP JUMPDEST DUP4 SSTORE POP JUMPDEST PUSH1 0x1 PUSH1 0x2 DUP9 MUL ADD DUP9 SSTORE POP POP POP JUMPDEST POP POP POP POP POP POP JUMP JUMPDEST PUSH0 PUSH1 0x40 DUP3 ADD SWAP1 POP DUP2 DUP2 SUB PUSH0 DUP4 ADD MSTORE PUSH2 0x10B4 DUP2 DUP6 PUSH2 0x97E JUMP JUMPDEST SWAP1 POP PUSH2 0x10C3 PUSH1 0x20 DUP4 ADD DUP5 PUSH2 0x904 JUMP JUMPDEST SWAP4 SWAP3 POP POP POP JUMP INVALID LOG2 PUSH5 0x6970667358 0x22 SLT KECCAK256 PUSH19 0xCE051CC55A5F23DCCA7B6D07AD68C3E283040E 0xDE 0xD6 LOG1 0xAD CALLDATASIZE PUSH7 0x2F3ECB5CCC3B64 PUSH20 0x6F6C634300081600330000000000000000000000 "
				},
				"gasEstimates": {
					"creation": {
						"codeDepositCost": "870400",
						"executionCost": "25166",
						"totalCost": "895566"
					},
					"external": {
						"addUser(string,address,bool)": "infinite",
						"admin()": "2574",
						"changeAdmin(address)": "26940",
						"getUser(address)": "infinite",
						"getUserCount()": "2484",
						"isAdmin(address)": "2940"
					}
				},
				"methodIdentifiers": {
					"addUser(string,address,bool)": "fd43d2e0",
					"admin()": "f851a440",
					"changeAdmin(address)": "8f283970",
					"getUser(address)": "6f77926b",
					"getUserCount()": "b5cb15f7",
					"isAdmin(address)": "24d7806c"
				}
			},
			"storageLayout": {
				"storage": [
					{
						"astId": 13,
						"contract": "Desktop/solidity/tubitak/login/contracts/UserPanel.sol:UserRegistry",
						"label": "users",
						"offset": 0,
						"slot": "0",
						"type": "t_mapping(t_address,t_struct(User)8_storage)"
					},
					{
						"astId": 16,
						"contract": "Desktop/solidity/tubitak/login/contracts/UserPanel.sol:UserRegistry",
						"label": "userAddresses",
						"offset": 0,
						"slot": "1",
						"type": "t_array(t_address)dyn_storage"
					},
					{
						"astId": 18,
						"contract": "Desktop/solidity/tubitak/login/contracts/UserPanel.sol:UserRegistry",
						"label": "admin",
						"offset": 0,
						"slot": "2",
						"type": "t_address"
					}
				],
				"types": {
					"t_address": {
						"encoding": "inplace",
						"label": "address",
						"numberOfBytes": "20"
					},
					"t_array(t_address)dyn_storage": {
						"base": "t_address",
						"encoding": "dynamic_array",
						"label": "address[]",
						"numberOfBytes": "32"
					},
					"t_bool": {
						"encoding": "inplace",
						"label": "bool",
						"numberOfBytes": "1"
					},
					"t_mapping(t_address,t_struct(User)8_storage)": {
						"encoding": "mapping",
						"key": "t_address",
						"label": "mapping(address => struct UserRegistry.User)",
						"numberOfBytes": "32",
						"value": "t_struct(User)8_storage"
					},
					"t_string_storage": {
						"encoding": "bytes",
						"label": "string",
						"numberOfBytes": "32"
					},
					"t_struct(User)8_storage": {
						"encoding": "inplace",
						"label": "struct UserRegistry.User",
						"members": [
							{
								"astId": 3,
								"contract": "Desktop/solidity/tubitak/login/contracts/UserPanel.sol:UserRegistry",
								"label": "name",
								"offset": 0,
								"slot": "0",
								"type": "t_string_storage"
							},
							{
								"astId": 5,
								"contract": "Desktop/solidity/tubitak/login/contracts/UserPanel.sol:UserRegistry",
								"label": "walletAddress",
								"offset": 0,
								"slot": "1",
								"type": "t_address"
							},
							{
								"astId": 7,
								"contract": "Desktop/solidity/tubitak/login/contracts/UserPanel.sol:UserRegistry",
								"label": "isAdmin",
								"offset": 20,
								"slot": "1",
								"type": "t_bool"
							}
						],
						"numberOfBytes": "64"
					}
				}
			},
			"userdoc": {
				"kind": "user",
				"methods": {},
				"version": 1
			}
		}
	}
}