{
	"Library/Library.sol": {
		"Search": {
			"abi": [
				{
					"inputs": [
						{
							"internalType": "uint256[]",
							"name": "list",
							"type": "uint256[]"
						},
						{
							"internalType": "uint256",
							"name": "data",
							"type": "uint256"
						}
					],
					"name": "indexOf",
					"outputs": [
						{
							"internalType": "uint256",
							"name": "",
							"type": "uint256"
						}
					],
					"stateMutability": "pure",
					"type": "function"
				}
			],
			"devdoc": {
				"kind": "dev",
				"methods": {},
				"version": 1
			},
			"evm": {
				"assembly": "    /* \"Library/Library.sol\":854:1136  library Search{... */\n  dataSize(sub_0)\n  dataOffset(sub_0)\n  0x0b\n  dup3\n  dup3\n  dup3\n  codecopy\n  dup1\n  mload\n  0x00\n  byte\n  0x73\n  eq\n  tag_1\n  jumpi\n  mstore(0x00, 0x4e487b7100000000000000000000000000000000000000000000000000000000)\n  mstore(0x04, 0x00)\n  revert(0x00, 0x24)\ntag_1:\n  mstore(0x00, address)\n  0x73\n  dup2\n  mstore8\n  dup3\n  dup2\n  return\nstop\n\nsub_0: assembly {\n        /* \"Library/Library.sol\":854:1136  library Search{... */\n      eq(address, deployTimeAddress())\n      mstore(0x40, 0x80)\n      jumpi(tag_1, lt(calldatasize, 0x04))\n      shr(0xe0, calldataload(0x00))\n      dup1\n      0x6457237b\n      eq\n      tag_2\n      jumpi\n    tag_1:\n      0x00\n      dup1\n      revert\n        /* \"Library/Library.sol\":877:1131  function indexOf(uint[] memory list,uint data) public pure returns(uint){... */\n    tag_2:\n      tag_3\n      0x04\n      dup1\n      calldatasize\n      sub\n      dup2\n      add\n      swap1\n      tag_4\n      swap2\n      swap1\n      tag_5\n      jump\t// in\n    tag_4:\n      tag_6\n      jump\t// in\n    tag_3:\n      mload(0x40)\n      tag_7\n      swap2\n      swap1\n      tag_8\n      jump\t// in\n    tag_7:\n      mload(0x40)\n      dup1\n      swap2\n      sub\n      swap1\n      return\n    tag_6:\n        /* \"Library/Library.sol\":944:948  uint */\n      0x00\n        /* \"Library/Library.sol\":967:973  uint i */\n      dup1\n        /* \"Library/Library.sol\":976:977  0 */\n      0x00\n        /* \"Library/Library.sol\":967:977  uint i = 0 */\n      swap1\n      pop\n        /* \"Library/Library.sol\":962:1091  for (uint i = 0; i < list.length; i++) ... */\n    tag_10:\n        /* \"Library/Library.sol\":983:987  list */\n      dup4\n        /* \"Library/Library.sol\":983:994  list.length */\n      mload\n        /* \"Library/Library.sol\":979:980  i */\n      dup2\n        /* \"Library/Library.sol\":979:994  i < list.length */\n      lt\n        /* \"Library/Library.sol\":962:1091  for (uint i = 0; i < list.length; i++) ... */\n      iszero\n      tag_11\n      jumpi\n        /* \"Library/Library.sol\":1038:1042  data */\n      dup3\n        /* \"Library/Library.sol\":1027:1031  list */\n      dup5\n        /* \"Library/Library.sol\":1032:1033  i */\n      dup3\n        /* \"Library/Library.sol\":1027:1034  list[i] */\n      dup2\n      mload\n      dup2\n      lt\n      tag_13\n      jumpi\n      tag_14\n      tag_15\n      jump\t// in\n    tag_14:\n    tag_13:\n      0x20\n      mul\n      0x20\n      add\n      add\n      mload\n        /* \"Library/Library.sol\":1027:1042  list[i] == data */\n      sub\n        /* \"Library/Library.sol\":1023:1080  if (list[i] == data) {... */\n      tag_16\n      jumpi\n        /* \"Library/Library.sol\":1066:1067  i */\n      dup1\n        /* \"Library/Library.sol\":1059:1067  return i */\n      swap2\n      pop\n      pop\n      jump(tag_9)\n        /* \"Library/Library.sol\":1023:1080  if (list[i] == data) {... */\n    tag_16:\n        /* \"Library/Library.sol\":996:999  i++ */\n      dup1\n      dup1\n      tag_17\n      swap1\n      tag_18\n      jump\t// in\n    tag_17:\n      swap2\n      pop\n      pop\n        /* \"Library/Library.sol\":962:1091  for (uint i = 0; i < list.length; i++) ... */\n      jump(tag_10)\n    tag_11:\n      pop\n        /* \"Library/Library.sol\":1110:1114  list */\n      dup3\n        /* \"Library/Library.sol\":1110:1121  list.length */\n      mload\n        /* \"Library/Library.sol\":1103:1121  return list.length */\n      swap1\n      pop\n        /* \"Library/Library.sol\":877:1131  function indexOf(uint[] memory list,uint data) public pure returns(uint){... */\n    tag_9:\n      swap3\n      swap2\n      pop\n      pop\n      jump\t// out\n        /* \"#utility.yul\":7:82   */\n    tag_19:\n        /* \"#utility.yul\":40:46   */\n      0x00\n        /* \"#utility.yul\":73:75   */\n      0x40\n        /* \"#utility.yul\":67:76   */\n      mload\n        /* \"#utility.yul\":57:76   */\n      swap1\n      pop\n        /* \"#utility.yul\":7:82   */\n      swap1\n      jump\t// out\n        /* \"#utility.yul\":88:205   */\n    tag_20:\n        /* \"#utility.yul\":197:198   */\n      0x00\n        /* \"#utility.yul\":194:195   */\n      dup1\n        /* \"#utility.yul\":187:199   */\n      revert\n        /* \"#utility.yul\":211:328   */\n    tag_21:\n        /* \"#utility.yul\":320:321   */\n      0x00\n        /* \"#utility.yul\":317:318   */\n      dup1\n        /* \"#utility.yul\":310:322   */\n      revert\n        /* \"#utility.yul\":334:451   */\n    tag_22:\n        /* \"#utility.yul\":443:444   */\n      0x00\n        /* \"#utility.yul\":440:441   */\n      dup1\n        /* \"#utility.yul\":433:445   */\n      revert\n        /* \"#utility.yul\":457:559   */\n    tag_23:\n        /* \"#utility.yul\":498:504   */\n      0x00\n        /* \"#utility.yul\":549:551   */\n      0x1f\n        /* \"#utility.yul\":545:552   */\n      not\n        /* \"#utility.yul\":540:542   */\n      0x1f\n        /* \"#utility.yul\":533:538   */\n      dup4\n        /* \"#utility.yul\":529:543   */\n      add\n        /* \"#utility.yul\":525:553   */\n      and\n        /* \"#utility.yul\":515:553   */\n      swap1\n      pop\n        /* \"#utility.yul\":457:559   */\n      swap2\n      swap1\n      pop\n      jump\t// out\n        /* \"#utility.yul\":565:745   */\n    tag_24:\n        /* \"#utility.yul\":613:690   */\n      0x4e487b7100000000000000000000000000000000000000000000000000000000\n        /* \"#utility.yul\":610:611   */\n      0x00\n        /* \"#utility.yul\":603:691   */\n      mstore\n        /* \"#utility.yul\":710:714   */\n      0x41\n        /* \"#utility.yul\":707:708   */\n      0x04\n        /* \"#utility.yul\":700:715   */\n      mstore\n        /* \"#utility.yul\":734:738   */\n      0x24\n        /* \"#utility.yul\":731:732   */\n      0x00\n        /* \"#utility.yul\":724:739   */\n      revert\n        /* \"#utility.yul\":751:1032   */\n    tag_25:\n        /* \"#utility.yul\":834:861   */\n      tag_44\n        /* \"#utility.yul\":856:860   */\n      dup3\n        /* \"#utility.yul\":834:861   */\n      tag_23\n      jump\t// in\n    tag_44:\n        /* \"#utility.yul\":826:832   */\n      dup2\n        /* \"#utility.yul\":822:862   */\n      add\n        /* \"#utility.yul\":964:970   */\n      dup2\n        /* \"#utility.yul\":952:962   */\n      dup2\n        /* \"#utility.yul\":949:971   */\n      lt\n        /* \"#utility.yul\":928:946   */\n      0xffffffffffffffff\n        /* \"#utility.yul\":916:926   */\n      dup3\n        /* \"#utility.yul\":913:947   */\n      gt\n        /* \"#utility.yul\":910:972   */\n      or\n        /* \"#utility.yul\":907:995   */\n      iszero\n      tag_45\n      jumpi\n        /* \"#utility.yul\":975:993   */\n      tag_46\n      tag_24\n      jump\t// in\n    tag_46:\n        /* \"#utility.yul\":907:995   */\n    tag_45:\n        /* \"#utility.yul\":1015:1025   */\n      dup1\n        /* \"#utility.yul\":1011:1013   */\n      0x40\n        /* \"#utility.yul\":1004:1026   */\n      mstore\n        /* \"#utility.yul\":794:1032   */\n      pop\n        /* \"#utility.yul\":751:1032   */\n      pop\n      pop\n      jump\t// out\n        /* \"#utility.yul\":1038:1167   */\n    tag_26:\n        /* \"#utility.yul\":1072:1078   */\n      0x00\n        /* \"#utility.yul\":1099:1119   */\n      tag_48\n      tag_19\n      jump\t// in\n    tag_48:\n        /* \"#utility.yul\":1089:1119   */\n      swap1\n      pop\n        /* \"#utility.yul\":1128:1161   */\n      tag_49\n        /* \"#utility.yul\":1156:1160   */\n      dup3\n        /* \"#utility.yul\":1148:1154   */\n      dup3\n        /* \"#utility.yul\":1128:1161   */\n      tag_25\n      jump\t// in\n    tag_49:\n        /* \"#utility.yul\":1038:1167   */\n      swap2\n      swap1\n      pop\n      jump\t// out\n        /* \"#utility.yul\":1173:1484   */\n    tag_27:\n        /* \"#utility.yul\":1250:1254   */\n      0x00\n        /* \"#utility.yul\":1340:1358   */\n      0xffffffffffffffff\n        /* \"#utility.yul\":1332:1338   */\n      dup3\n        /* \"#utility.yul\":1329:1359   */\n      gt\n        /* \"#utility.yul\":1326:1382   */\n      iszero\n      tag_51\n      jumpi\n        /* \"#utility.yul\":1362:1380   */\n      tag_52\n      tag_24\n      jump\t// in\n    tag_52:\n        /* \"#utility.yul\":1326:1382   */\n    tag_51:\n        /* \"#utility.yul\":1412:1416   */\n      0x20\n        /* \"#utility.yul\":1404:1410   */\n      dup3\n        /* \"#utility.yul\":1400:1417   */\n      mul\n        /* \"#utility.yul\":1392:1417   */\n      swap1\n      pop\n        /* \"#utility.yul\":1472:1476   */\n      0x20\n        /* \"#utility.yul\":1466:1470   */\n      dup2\n        /* \"#utility.yul\":1462:1477   */\n      add\n        /* \"#utility.yul\":1454:1477   */\n      swap1\n      pop\n        /* \"#utility.yul\":1173:1484   */\n      swap2\n      swap1\n      pop\n      jump\t// out\n        /* \"#utility.yul\":1490:1607   */\n    tag_28:\n        /* \"#utility.yul\":1599:1600   */\n      0x00\n        /* \"#utility.yul\":1596:1597   */\n      dup1\n        /* \"#utility.yul\":1589:1601   */\n      revert\n        /* \"#utility.yul\":1613:1690   */\n    tag_29:\n        /* \"#utility.yul\":1650:1657   */\n      0x00\n        /* \"#utility.yul\":1679:1684   */\n      dup2\n        /* \"#utility.yul\":1668:1684   */\n      swap1\n      pop\n        /* \"#utility.yul\":1613:1690   */\n      swap2\n      swap1\n      pop\n      jump\t// out\n        /* \"#utility.yul\":1696:1818   */\n    tag_30:\n        /* \"#utility.yul\":1769:1793   */\n      tag_56\n        /* \"#utility.yul\":1787:1792   */\n      dup2\n        /* \"#utility.yul\":1769:1793   */\n      tag_29\n      jump\t// in\n    tag_56:\n        /* \"#utility.yul\":1762:1767   */\n      dup2\n        /* \"#utility.yul\":1759:1794   */\n      eq\n        /* \"#utility.yul\":1749:1812   */\n      tag_57\n      jumpi\n        /* \"#utility.yul\":1808:1809   */\n      0x00\n        /* \"#utility.yul\":1805:1806   */\n      dup1\n        /* \"#utility.yul\":1798:1810   */\n      revert\n        /* \"#utility.yul\":1749:1812   */\n    tag_57:\n        /* \"#utility.yul\":1696:1818   */\n      pop\n      jump\t// out\n        /* \"#utility.yul\":1824:1963   */\n    tag_31:\n        /* \"#utility.yul\":1870:1875   */\n      0x00\n        /* \"#utility.yul\":1908:1914   */\n      dup2\n        /* \"#utility.yul\":1895:1915   */\n      calldataload\n        /* \"#utility.yul\":1886:1915   */\n      swap1\n      pop\n        /* \"#utility.yul\":1924:1957   */\n      tag_59\n        /* \"#utility.yul\":1951:1956   */\n      dup2\n        /* \"#utility.yul\":1924:1957   */\n      tag_30\n      jump\t// in\n    tag_59:\n        /* \"#utility.yul\":1824:1963   */\n      swap3\n      swap2\n      pop\n      pop\n      jump\t// out\n        /* \"#utility.yul\":1986:2696   */\n    tag_32:\n        /* \"#utility.yul\":2082:2087   */\n      0x00\n        /* \"#utility.yul\":2107:2188   */\n      tag_61\n        /* \"#utility.yul\":2123:2187   */\n      tag_62\n        /* \"#utility.yul\":2180:2186   */\n      dup5\n        /* \"#utility.yul\":2123:2187   */\n      tag_27\n      jump\t// in\n    tag_62:\n        /* \"#utility.yul\":2107:2188   */\n      tag_26\n      jump\t// in\n    tag_61:\n        /* \"#utility.yul\":2098:2188   */\n      swap1\n      pop\n        /* \"#utility.yul\":2208:2213   */\n      dup1\n        /* \"#utility.yul\":2237:2243   */\n      dup4\n        /* \"#utility.yul\":2230:2235   */\n      dup3\n        /* \"#utility.yul\":2223:2244   */\n      mstore\n        /* \"#utility.yul\":2271:2275   */\n      0x20\n        /* \"#utility.yul\":2264:2269   */\n      dup3\n        /* \"#utility.yul\":2260:2276   */\n      add\n        /* \"#utility.yul\":2253:2276   */\n      swap1\n      pop\n        /* \"#utility.yul\":2324:2328   */\n      0x20\n        /* \"#utility.yul\":2316:2322   */\n      dup5\n        /* \"#utility.yul\":2312:2329   */\n      mul\n        /* \"#utility.yul\":2304:2310   */\n      dup4\n        /* \"#utility.yul\":2300:2330   */\n      add\n        /* \"#utility.yul\":2353:2356   */\n      dup6\n        /* \"#utility.yul\":2345:2351   */\n      dup2\n        /* \"#utility.yul\":2342:2357   */\n      gt\n        /* \"#utility.yul\":2339:2461   */\n      iszero\n      tag_63\n      jumpi\n        /* \"#utility.yul\":2372:2451   */\n      tag_64\n      tag_28\n      jump\t// in\n    tag_64:\n        /* \"#utility.yul\":2339:2461   */\n    tag_63:\n        /* \"#utility.yul\":2487:2493   */\n      dup4\n        /* \"#utility.yul\":2470:2690   */\n    tag_65:\n        /* \"#utility.yul\":2504:2510   */\n      dup2\n        /* \"#utility.yul\":2499:2502   */\n      dup2\n        /* \"#utility.yul\":2496:2511   */\n      lt\n        /* \"#utility.yul\":2470:2690   */\n      iszero\n      tag_67\n      jumpi\n        /* \"#utility.yul\":2579:2582   */\n      dup1\n        /* \"#utility.yul\":2608:2645   */\n      tag_68\n        /* \"#utility.yul\":2641:2644   */\n      dup9\n        /* \"#utility.yul\":2629:2639   */\n      dup3\n        /* \"#utility.yul\":2608:2645   */\n      tag_31\n      jump\t// in\n    tag_68:\n        /* \"#utility.yul\":2603:2606   */\n      dup5\n        /* \"#utility.yul\":2596:2646   */\n      mstore\n        /* \"#utility.yul\":2675:2679   */\n      0x20\n        /* \"#utility.yul\":2670:2673   */\n      dup5\n        /* \"#utility.yul\":2666:2680   */\n      add\n        /* \"#utility.yul\":2659:2680   */\n      swap4\n      pop\n        /* \"#utility.yul\":2546:2690   */\n      pop\n        /* \"#utility.yul\":2530:2534   */\n      0x20\n        /* \"#utility.yul\":2525:2528   */\n      dup2\n        /* \"#utility.yul\":2521:2535   */\n      add\n        /* \"#utility.yul\":2514:2535   */\n      swap1\n      pop\n        /* \"#utility.yul\":2470:2690   */\n      jump(tag_65)\n    tag_67:\n        /* \"#utility.yul\":2474:2495   */\n      pop\n        /* \"#utility.yul\":2088:2696   */\n      pop\n      pop\n        /* \"#utility.yul\":1986:2696   */\n      swap4\n      swap3\n      pop\n      pop\n      pop\n      jump\t// out\n        /* \"#utility.yul\":2719:3089   */\n    tag_33:\n        /* \"#utility.yul\":2790:2795   */\n      0x00\n        /* \"#utility.yul\":2839:2842   */\n      dup3\n        /* \"#utility.yul\":2832:2836   */\n      0x1f\n        /* \"#utility.yul\":2824:2830   */\n      dup4\n        /* \"#utility.yul\":2820:2837   */\n      add\n        /* \"#utility.yul\":2816:2843   */\n      slt\n        /* \"#utility.yul\":2806:2928   */\n      tag_70\n      jumpi\n        /* \"#utility.yul\":2847:2926   */\n      tag_71\n      tag_22\n      jump\t// in\n    tag_71:\n        /* \"#utility.yul\":2806:2928   */\n    tag_70:\n        /* \"#utility.yul\":2964:2970   */\n      dup2\n        /* \"#utility.yul\":2951:2971   */\n      calldataload\n        /* \"#utility.yul\":2989:3083   */\n      tag_72\n        /* \"#utility.yul\":3079:3082   */\n      dup5\n        /* \"#utility.yul\":3071:3077   */\n      dup3\n        /* \"#utility.yul\":3064:3068   */\n      0x20\n        /* \"#utility.yul\":3056:3062   */\n      dup7\n        /* \"#utility.yul\":3052:3069   */\n      add\n        /* \"#utility.yul\":2989:3083   */\n      tag_32\n      jump\t// in\n    tag_72:\n        /* \"#utility.yul\":2980:3083   */\n      swap2\n      pop\n        /* \"#utility.yul\":2796:3089   */\n      pop\n        /* \"#utility.yul\":2719:3089   */\n      swap3\n      swap2\n      pop\n      pop\n      jump\t// out\n        /* \"#utility.yul\":3095:3779   */\n    tag_5:\n        /* \"#utility.yul\":3188:3194   */\n      0x00\n        /* \"#utility.yul\":3196:3202   */\n      dup1\n        /* \"#utility.yul\":3245:3247   */\n      0x40\n        /* \"#utility.yul\":3233:3242   */\n      dup4\n        /* \"#utility.yul\":3224:3231   */\n      dup6\n        /* \"#utility.yul\":3220:3243   */\n      sub\n        /* \"#utility.yul\":3216:3248   */\n      slt\n        /* \"#utility.yul\":3213:3332   */\n      iszero\n      tag_74\n      jumpi\n        /* \"#utility.yul\":3251:3330   */\n      tag_75\n      tag_20\n      jump\t// in\n    tag_75:\n        /* \"#utility.yul\":3213:3332   */\n    tag_74:\n        /* \"#utility.yul\":3399:3400   */\n      0x00\n        /* \"#utility.yul\":3388:3397   */\n      dup4\n        /* \"#utility.yul\":3384:3401   */\n      add\n        /* \"#utility.yul\":3371:3402   */\n      calldataload\n        /* \"#utility.yul\":3429:3447   */\n      0xffffffffffffffff\n        /* \"#utility.yul\":3421:3427   */\n      dup2\n        /* \"#utility.yul\":3418:3448   */\n      gt\n        /* \"#utility.yul\":3415:3532   */\n      iszero\n      tag_76\n      jumpi\n        /* \"#utility.yul\":3451:3530   */\n      tag_77\n      tag_21\n      jump\t// in\n    tag_77:\n        /* \"#utility.yul\":3415:3532   */\n    tag_76:\n        /* \"#utility.yul\":3556:3634   */\n      tag_78\n        /* \"#utility.yul\":3626:3633   */\n      dup6\n        /* \"#utility.yul\":3617:3623   */\n      dup3\n        /* \"#utility.yul\":3606:3615   */\n      dup7\n        /* \"#utility.yul\":3602:3624   */\n      add\n        /* \"#utility.yul\":3556:3634   */\n      tag_33\n      jump\t// in\n    tag_78:\n        /* \"#utility.yul\":3546:3634   */\n      swap3\n      pop\n        /* \"#utility.yul\":3342:3644   */\n      pop\n        /* \"#utility.yul\":3683:3685   */\n      0x20\n        /* \"#utility.yul\":3709:3762   */\n      tag_79\n        /* \"#utility.yul\":3754:3761   */\n      dup6\n        /* \"#utility.yul\":3745:3751   */\n      dup3\n        /* \"#utility.yul\":3734:3743   */\n      dup7\n        /* \"#utility.yul\":3730:3752   */\n      add\n        /* \"#utility.yul\":3709:3762   */\n      tag_31\n      jump\t// in\n    tag_79:\n        /* \"#utility.yul\":3699:3762   */\n      swap2\n      pop\n        /* \"#utility.yul\":3654:3772   */\n      pop\n        /* \"#utility.yul\":3095:3779   */\n      swap3\n      pop\n      swap3\n      swap1\n      pop\n      jump\t// out\n        /* \"#utility.yul\":3785:3911   */\n    tag_34:\n        /* \"#utility.yul\":3880:3904   */\n      tag_81\n        /* \"#utility.yul\":3898:3903   */\n      dup2\n        /* \"#utility.yul\":3880:3904   */\n      tag_29\n      jump\t// in\n    tag_81:\n        /* \"#utility.yul\":3875:3878   */\n      dup3\n        /* \"#utility.yul\":3868:3905   */\n      mstore\n        /* \"#utility.yul\":3785:3911   */\n      pop\n      pop\n      jump\t// out\n        /* \"#utility.yul\":3917:4155   */\n    tag_8:\n        /* \"#utility.yul\":4018:4022   */\n      0x00\n        /* \"#utility.yul\":4056:4058   */\n      0x20\n        /* \"#utility.yul\":4045:4054   */\n      dup3\n        /* \"#utility.yul\":4041:4059   */\n      add\n        /* \"#utility.yul\":4033:4059   */\n      swap1\n      pop\n        /* \"#utility.yul\":4069:4148   */\n      tag_83\n        /* \"#utility.yul\":4145:4146   */\n      0x00\n        /* \"#utility.yul\":4134:4143   */\n      dup4\n        /* \"#utility.yul\":4130:4147   */\n      add\n        /* \"#utility.yul\":4121:4127   */\n      dup5\n        /* \"#utility.yul\":4069:4148   */\n      tag_34\n      jump\t// in\n    tag_83:\n        /* \"#utility.yul\":3917:4155   */\n      swap3\n      swap2\n      pop\n      pop\n      jump\t// out\n        /* \"#utility.yul\":4161:4341   */\n    tag_15:\n        /* \"#utility.yul\":4209:4286   */\n      0x4e487b7100000000000000000000000000000000000000000000000000000000\n        /* \"#utility.yul\":4206:4207   */\n      0x00\n        /* \"#utility.yul\":4199:4287   */\n      mstore\n        /* \"#utility.yul\":4306:4310   */\n      0x32\n        /* \"#utility.yul\":4303:4304   */\n      0x04\n        /* \"#utility.yul\":4296:4311   */\n      mstore\n        /* \"#utility.yul\":4330:4334   */\n      0x24\n        /* \"#utility.yul\":4327:4328   */\n      0x00\n        /* \"#utility.yul\":4320:4335   */\n      revert\n        /* \"#utility.yul\":4347:4527   */\n    tag_35:\n        /* \"#utility.yul\":4395:4472   */\n      0x4e487b7100000000000000000000000000000000000000000000000000000000\n        /* \"#utility.yul\":4392:4393   */\n      0x00\n        /* \"#utility.yul\":4385:4473   */\n      mstore\n        /* \"#utility.yul\":4492:4496   */\n      0x11\n        /* \"#utility.yul\":4489:4490   */\n      0x04\n        /* \"#utility.yul\":4482:4497   */\n      mstore\n        /* \"#utility.yul\":4516:4520   */\n      0x24\n        /* \"#utility.yul\":4513:4514   */\n      0x00\n        /* \"#utility.yul\":4506:4521   */\n      revert\n        /* \"#utility.yul\":4533:4766   */\n    tag_18:\n        /* \"#utility.yul\":4572:4575   */\n      0x00\n        /* \"#utility.yul\":4595:4619   */\n      tag_87\n        /* \"#utility.yul\":4613:4618   */\n      dup3\n        /* \"#utility.yul\":4595:4619   */\n      tag_29\n      jump\t// in\n    tag_87:\n        /* \"#utility.yul\":4586:4619   */\n      swap2\n      pop\n        /* \"#utility.yul\":4641:4707   */\n      0xffffffffffffffffffffffffffffffffffffffffffffffffffffffffffffffff\n        /* \"#utility.yul\":4634:4639   */\n      dup3\n        /* \"#utility.yul\":4631:4708   */\n      sub\n        /* \"#utility.yul\":4628:4731   */\n      tag_88\n      jumpi\n        /* \"#utility.yul\":4711:4729   */\n      tag_89\n      tag_35\n      jump\t// in\n    tag_89:\n        /* \"#utility.yul\":4628:4731   */\n    tag_88:\n        /* \"#utility.yul\":4758:4759   */\n      0x01\n        /* \"#utility.yul\":4751:4756   */\n      dup3\n        /* \"#utility.yul\":4747:4760   */\n      add\n        /* \"#utility.yul\":4740:4760   */\n      swap1\n      pop\n        /* \"#utility.yul\":4533:4766   */\n      swap2\n      swap1\n      pop\n      jump\t// out\n\n    auxdata: 0xa2646970667358221220b77239d273fa80bfd1cdc23f80c8c3f05cdcfaf3ea5eb88742c6e54a869257df64736f6c63430008120033\n}\n",
				"bytecode": {
					"linkReferences": {},
					"object": "6103c9610053600b82828239805160001a607314610046577f4e487b7100000000000000000000000000000000000000000000000000000000600052600060045260246000fd5b30600052607381538281f3fe73000000000000000000000000000000000000000030146080604052600436106100355760003560e01c80636457237b1461003a575b600080fd5b610054600480360381019061004f9190610267565b61006a565b60405161006191906102d2565b60405180910390f35b600080600090505b83518110156100b8578284828151811061008f5761008e6102ed565b5b6020026020010151036100a557809150506100be565b80806100b09061034b565b915050610072565b50825190505b92915050565b6000604051905090565b600080fd5b600080fd5b600080fd5b6000601f19601f8301169050919050565b7f4e487b7100000000000000000000000000000000000000000000000000000000600052604160045260246000fd5b610126826100dd565b810181811067ffffffffffffffff82111715610145576101446100ee565b5b80604052505050565b60006101586100c4565b9050610164828261011d565b919050565b600067ffffffffffffffff821115610184576101836100ee565b5b602082029050602081019050919050565b600080fd5b6000819050919050565b6101ad8161019a565b81146101b857600080fd5b50565b6000813590506101ca816101a4565b92915050565b60006101e36101de84610169565b61014e565b9050808382526020820190506020840283018581111561020657610205610195565b5b835b8181101561022f578061021b88826101bb565b845260208401935050602081019050610208565b5050509392505050565b600082601f83011261024e5761024d6100d8565b5b813561025e8482602086016101d0565b91505092915050565b6000806040838503121561027e5761027d6100ce565b5b600083013567ffffffffffffffff81111561029c5761029b6100d3565b5b6102a885828601610239565b92505060206102b9858286016101bb565b9150509250929050565b6102cc8161019a565b82525050565b60006020820190506102e760008301846102c3565b92915050565b7f4e487b7100000000000000000000000000000000000000000000000000000000600052603260045260246000fd5b7f4e487b7100000000000000000000000000000000000000000000000000000000600052601160045260246000fd5b60006103568261019a565b91507fffffffffffffffffffffffffffffffffffffffffffffffffffffffffffffffff82036103885761038761031c565b5b60018201905091905056fea2646970667358221220b77239d273fa80bfd1cdc23f80c8c3f05cdcfaf3ea5eb88742c6e54a869257df64736f6c63430008120033",
					"opcodes": "PUSH2 0x3C9 PUSH2 0x53 PUSH1 0xB DUP3 DUP3 DUP3 CODECOPY DUP1 MLOAD PUSH1 0x0 BYTE PUSH1 0x73 EQ PUSH2 0x46 JUMPI PUSH32 0x4E487B7100000000000000000000000000000000000000000000000000000000 PUSH1 0x0 MSTORE PUSH1 0x0 PUSH1 0x4 MSTORE PUSH1 0x24 PUSH1 0x0 REVERT JUMPDEST ADDRESS PUSH1 0x0 MSTORE PUSH1 0x73 DUP2 MSTORE8 DUP3 DUP2 RETURN INVALID PUSH20 0x0 ADDRESS EQ PUSH1 0x80 PUSH1 0x40 MSTORE PUSH1 0x4 CALLDATASIZE LT PUSH2 0x35 JUMPI PUSH1 0x0 CALLDATALOAD PUSH1 0xE0 SHR DUP1 PUSH4 0x6457237B EQ PUSH2 0x3A JUMPI JUMPDEST PUSH1 0x0 DUP1 REVERT JUMPDEST PUSH2 0x54 PUSH1 0x4 DUP1 CALLDATASIZE SUB DUP2 ADD SWAP1 PUSH2 0x4F SWAP2 SWAP1 PUSH2 0x267 JUMP JUMPDEST PUSH2 0x6A JUMP JUMPDEST PUSH1 0x40 MLOAD PUSH2 0x61 SWAP2 SWAP1 PUSH2 0x2D2 JUMP JUMPDEST PUSH1 0x40 MLOAD DUP1 SWAP2 SUB SWAP1 RETURN JUMPDEST PUSH1 0x0 DUP1 PUSH1 0x0 SWAP1 POP JUMPDEST DUP4 MLOAD DUP2 LT ISZERO PUSH2 0xB8 JUMPI DUP3 DUP5 DUP3 DUP2 MLOAD DUP2 LT PUSH2 0x8F JUMPI PUSH2 0x8E PUSH2 0x2ED JUMP JUMPDEST JUMPDEST PUSH1 0x20 MUL PUSH1 0x20 ADD ADD MLOAD SUB PUSH2 0xA5 JUMPI DUP1 SWAP2 POP POP PUSH2 0xBE JUMP JUMPDEST DUP1 DUP1 PUSH2 0xB0 SWAP1 PUSH2 0x34B JUMP JUMPDEST SWAP2 POP POP PUSH2 0x72 JUMP JUMPDEST POP DUP3 MLOAD SWAP1 POP JUMPDEST SWAP3 SWAP2 POP POP JUMP JUMPDEST PUSH1 0x0 PUSH1 0x40 MLOAD SWAP1 POP SWAP1 JUMP JUMPDEST PUSH1 0x0 DUP1 REVERT JUMPDEST PUSH1 0x0 DUP1 REVERT JUMPDEST PUSH1 0x0 DUP1 REVERT JUMPDEST PUSH1 0x0 PUSH1 0x1F NOT PUSH1 0x1F DUP4 ADD AND SWAP1 POP SWAP2 SWAP1 POP JUMP JUMPDEST PUSH32 0x4E487B7100000000000000000000000000000000000000000000000000000000 PUSH1 0x0 MSTORE PUSH1 0x41 PUSH1 0x4 MSTORE PUSH1 0x24 PUSH1 0x0 REVERT JUMPDEST PUSH2 0x126 DUP3 PUSH2 0xDD JUMP JUMPDEST DUP2 ADD DUP2 DUP2 LT PUSH8 0xFFFFFFFFFFFFFFFF DUP3 GT OR ISZERO PUSH2 0x145 JUMPI PUSH2 0x144 PUSH2 0xEE JUMP JUMPDEST JUMPDEST DUP1 PUSH1 0x40 MSTORE POP POP POP JUMP JUMPDEST PUSH1 0x0 PUSH2 0x158 PUSH2 0xC4 JUMP JUMPDEST SWAP1 POP PUSH2 0x164 DUP3 DUP3 PUSH2 0x11D JUMP JUMPDEST SWAP2 SWAP1 POP JUMP JUMPDEST PUSH1 0x0 PUSH8 0xFFFFFFFFFFFFFFFF DUP3 GT ISZERO PUSH2 0x184 JUMPI PUSH2 0x183 PUSH2 0xEE JUMP JUMPDEST JUMPDEST PUSH1 0x20 DUP3 MUL SWAP1 POP PUSH1 0x20 DUP2 ADD SWAP1 POP SWAP2 SWAP1 POP JUMP JUMPDEST PUSH1 0x0 DUP1 REVERT JUMPDEST PUSH1 0x0 DUP2 SWAP1 POP SWAP2 SWAP1 POP JUMP JUMPDEST PUSH2 0x1AD DUP2 PUSH2 0x19A JUMP JUMPDEST DUP2 EQ PUSH2 0x1B8 JUMPI PUSH1 0x0 DUP1 REVERT JUMPDEST POP JUMP JUMPDEST PUSH1 0x0 DUP2 CALLDATALOAD SWAP1 POP PUSH2 0x1CA DUP2 PUSH2 0x1A4 JUMP JUMPDEST SWAP3 SWAP2 POP POP JUMP JUMPDEST PUSH1 0x0 PUSH2 0x1E3 PUSH2 0x1DE DUP5 PUSH2 0x169 JUMP JUMPDEST PUSH2 0x14E JUMP JUMPDEST SWAP1 POP DUP1 DUP4 DUP3 MSTORE PUSH1 0x20 DUP3 ADD SWAP1 POP PUSH1 0x20 DUP5 MUL DUP4 ADD DUP6 DUP2 GT ISZERO PUSH2 0x206 JUMPI PUSH2 0x205 PUSH2 0x195 JUMP JUMPDEST JUMPDEST DUP4 JUMPDEST DUP2 DUP2 LT ISZERO PUSH2 0x22F JUMPI DUP1 PUSH2 0x21B DUP9 DUP3 PUSH2 0x1BB JUMP JUMPDEST DUP5 MSTORE PUSH1 0x20 DUP5 ADD SWAP4 POP POP PUSH1 0x20 DUP2 ADD SWAP1 POP PUSH2 0x208 JUMP JUMPDEST POP POP POP SWAP4 SWAP3 POP POP POP JUMP JUMPDEST PUSH1 0x0 DUP3 PUSH1 0x1F DUP4 ADD SLT PUSH2 0x24E JUMPI PUSH2 0x24D PUSH2 0xD8 JUMP JUMPDEST JUMPDEST DUP2 CALLDATALOAD PUSH2 0x25E DUP5 DUP3 PUSH1 0x20 DUP7 ADD PUSH2 0x1D0 JUMP JUMPDEST SWAP2 POP POP SWAP3 SWAP2 POP POP JUMP JUMPDEST PUSH1 0x0 DUP1 PUSH1 0x40 DUP4 DUP6 SUB SLT ISZERO PUSH2 0x27E JUMPI PUSH2 0x27D PUSH2 0xCE JUMP JUMPDEST JUMPDEST PUSH1 0x0 DUP4 ADD CALLDATALOAD PUSH8 0xFFFFFFFFFFFFFFFF DUP2 GT ISZERO PUSH2 0x29C JUMPI PUSH2 0x29B PUSH2 0xD3 JUMP JUMPDEST JUMPDEST PUSH2 0x2A8 DUP6 DUP3 DUP7 ADD PUSH2 0x239 JUMP JUMPDEST SWAP3 POP POP PUSH1 0x20 PUSH2 0x2B9 DUP6 DUP3 DUP7 ADD PUSH2 0x1BB JUMP JUMPDEST SWAP2 POP POP SWAP3 POP SWAP3 SWAP1 POP JUMP JUMPDEST PUSH2 0x2CC DUP2 PUSH2 0x19A JUMP JUMPDEST DUP3 MSTORE POP POP JUMP JUMPDEST PUSH1 0x0 PUSH1 0x20 DUP3 ADD SWAP1 POP PUSH2 0x2E7 PUSH1 0x0 DUP4 ADD DUP5 PUSH2 0x2C3 JUMP JUMPDEST SWAP3 SWAP2 POP POP JUMP JUMPDEST PUSH32 0x4E487B7100000000000000000000000000000000000000000000000000000000 PUSH1 0x0 MSTORE PUSH1 0x32 PUSH1 0x4 MSTORE PUSH1 0x24 PUSH1 0x0 REVERT JUMPDEST PUSH32 0x4E487B7100000000000000000000000000000000000000000000000000000000 PUSH1 0x0 MSTORE PUSH1 0x11 PUSH1 0x4 MSTORE PUSH1 0x24 PUSH1 0x0 REVERT JUMPDEST PUSH1 0x0 PUSH2 0x356 DUP3 PUSH2 0x19A JUMP JUMPDEST SWAP2 POP PUSH32 0xFFFFFFFFFFFFFFFFFFFFFFFFFFFFFFFFFFFFFFFFFFFFFFFFFFFFFFFFFFFFFFFF DUP3 SUB PUSH2 0x388 JUMPI PUSH2 0x387 PUSH2 0x31C JUMP JUMPDEST JUMPDEST PUSH1 0x1 DUP3 ADD SWAP1 POP SWAP2 SWAP1 POP JUMP INVALID LOG2 PUSH5 0x6970667358 0x22 SLT KECCAK256 0xB7 PUSH19 0x39D273FA80BFD1CDC23F80C8C3F05CDCFAF3EA 0x5E 0xB8 DUP8 TIMESTAMP 0xC6 0xE5 0x4A DUP7 SWAP3 JUMPI 0xDF PUSH5 0x736F6C6343 STOP ADDMOD SLT STOP CALLER "
				},
				"gasEstimates": {
					"creation": {
						"codeDepositCost": "193800",
						"executionCost": "263",
						"totalCost": "194063"
					},
					"external": {
						"indexOf(uint256[],uint256)": "infinite"
					}
				},
				"methodIdentifiers": {
					"indexOf(uint256[],uint256)": "6457237b"
				}
			},
			"storageLayout": {
				"storage": [],
				"types": null
			},
			"userdoc": {
				"kind": "user",
				"methods": {},
				"version": 1
			}
		}
	}
}