{
	"Library/Library.sol": {
		"Math": {
			"abi": [
				{
					"inputs": [
						{
							"internalType": "uint256",
							"name": "x",
							"type": "uint256"
						},
						{
							"internalType": "uint256",
							"name": "y",
							"type": "uint256"
						}
					],
					"name": "divide",
					"outputs": [
						{
							"internalType": "uint256",
							"name": "",
							"type": "uint256"
						}
					],
					"stateMutability": "pure",
					"type": "function"
				},
				{
					"inputs": [
						{
							"internalType": "uint256",
							"name": "x",
							"type": "uint256"
						},
						{
							"internalType": "uint256",
							"name": "y",
							"type": "uint256"
						}
					],
					"name": "max",
					"outputs": [
						{
							"internalType": "uint256",
							"name": "",
							"type": "uint256"
						}
					],
					"stateMutability": "pure",
					"type": "function"
				},
				{
					"inputs": [
						{
							"internalType": "uint256",
							"name": "x",
							"type": "uint256"
						},
						{
							"internalType": "uint256",
							"name": "y",
							"type": "uint256"
						}
					],
					"name": "min",
					"outputs": [
						{
							"internalType": "uint256",
							"name": "",
							"type": "uint256"
						}
					],
					"stateMutability": "pure",
					"type": "function"
				},
				{
					"inputs": [
						{
							"internalType": "uint256",
							"name": "x",
							"type": "uint256"
						},
						{
							"internalType": "uint256",
							"name": "y",
							"type": "uint256"
						}
					],
					"name": "minus",
					"outputs": [
						{
							"internalType": "uint256",
							"name": "",
							"type": "uint256"
						}
					],
					"stateMutability": "pure",
					"type": "function"
				},
				{
					"inputs": [
						{
							"internalType": "uint256",
							"name": "x",
							"type": "uint256"
						},
						{
							"internalType": "uint256",
							"name": "y",
							"type": "uint256"
						}
					],
					"name": "multi",
					"outputs": [
						{
							"internalType": "uint256",
							"name": "",
							"type": "uint256"
						}
					],
					"stateMutability": "pure",
					"type": "function"
				},
				{
					"inputs": [
						{
							"internalType": "uint256",
							"name": "x",
							"type": "uint256"
						},
						{
							"internalType": "uint256",
							"name": "y",
							"type": "uint256"
						}
					],
					"name": "plus",
					"outputs": [
						{
							"internalType": "uint256",
							"name": "",
							"type": "uint256"
						}
					],
					"stateMutability": "pure",
					"type": "function"
				}
			],
			"devdoc": {
				"kind": "dev",
				"methods": {},
				"version": 1
			},
			"evm": {
				"assembly": "    /* \"Library/Library.sol\":60:850  library Math{... */\n  dataSize(sub_0)\n  dataOffset(sub_0)\n  0x0b\n  dup3\n  dup3\n  dup3\n  codecopy\n  dup1\n  mload\n  0x00\n  byte\n  0x73\n  eq\n  tag_1\n  jumpi\n  mstore(0x00, 0x4e487b7100000000000000000000000000000000000000000000000000000000)\n  mstore(0x04, 0x00)\n  revert(0x00, 0x24)\ntag_1:\n  mstore(0x00, address)\n  0x73\n  dup2\n  mstore8\n  dup3\n  dup2\n  return\nstop\n\nsub_0: assembly {\n        /* \"Library/Library.sol\":60:850  library Math{... */\n      eq(address, deployTimeAddress())\n      mstore(0x40, 0x80)\n      jumpi(tag_1, lt(calldatasize, 0x04))\n      shr(0xe0, calldataload(0x00))\n      dup1\n      0x5171762c\n      eq\n      tag_2\n      jumpi\n      dup1\n      0x66098d4f\n      eq\n      tag_3\n      jumpi\n      dup1\n      0x6d5433e6\n      eq\n      tag_4\n      jumpi\n      dup1\n      0x7ae2b5c7\n      eq\n      tag_5\n      jumpi\n      dup1\n      0xf4f3bdc1\n      eq\n      tag_6\n      jumpi\n      dup1\n      0xf88e9fbf\n      eq\n      tag_7\n      jumpi\n    tag_1:\n      0x00\n      dup1\n      revert\n        /* \"Library/Library.sol\":272:361  function multi(uint x,uint y) public pure returns(uint){... */\n    tag_2:\n      tag_8\n      0x04\n      dup1\n      calldatasize\n      sub\n      dup2\n      add\n      swap1\n      tag_9\n      swap2\n      swap1\n      tag_10\n      jump\t// in\n    tag_9:\n      tag_11\n      jump\t// in\n    tag_8:\n      mload(0x40)\n      tag_12\n      swap2\n      swap1\n      tag_13\n      jump\t// in\n    tag_12:\n      mload(0x40)\n      dup1\n      swap2\n      sub\n      swap1\n      return\n        /* \"Library/Library.sol\":79:167  function plus(uint x,uint y) public pure returns(uint){... */\n    tag_3:\n      tag_14\n      0x04\n      dup1\n      calldatasize\n      sub\n      dup2\n      add\n      swap1\n      tag_15\n      swap2\n      swap1\n      tag_10\n      jump\t// in\n    tag_15:\n      tag_16\n      jump\t// in\n    tag_14:\n      mload(0x40)\n      tag_17\n      swap2\n      swap1\n      tag_13\n      jump\t// in\n    tag_17:\n      mload(0x40)\n      dup1\n      swap2\n      sub\n      swap1\n      return\n        /* \"Library/Library.sol\":686:845  function max(uint x,uint y) public pure returns(uint){... */\n    tag_4:\n      tag_18\n      0x04\n      dup1\n      calldatasize\n      sub\n      dup2\n      add\n      swap1\n      tag_19\n      swap2\n      swap1\n      tag_10\n      jump\t// in\n    tag_19:\n      tag_20\n      jump\t// in\n    tag_18:\n      mload(0x40)\n      tag_21\n      swap2\n      swap1\n      tag_13\n      jump\t// in\n    tag_21:\n      mload(0x40)\n      dup1\n      swap2\n      sub\n      swap1\n      return\n        /* \"Library/Library.sol\":519:678  function min(uint x,uint y) public pure returns(uint){... */\n    tag_5:\n      tag_22\n      0x04\n      dup1\n      calldatasize\n      sub\n      dup2\n      add\n      swap1\n      tag_23\n      swap2\n      swap1\n      tag_10\n      jump\t// in\n    tag_23:\n      tag_24\n      jump\t// in\n    tag_22:\n      mload(0x40)\n      tag_25\n      swap2\n      swap1\n      tag_13\n      jump\t// in\n    tag_25:\n      mload(0x40)\n      dup1\n      swap2\n      sub\n      swap1\n      return\n        /* \"Library/Library.sol\":175:264  function minus(uint x,uint y) public pure returns(uint){... */\n    tag_6:\n      tag_26\n      0x04\n      dup1\n      calldatasize\n      sub\n      dup2\n      add\n      swap1\n      tag_27\n      swap2\n      swap1\n      tag_10\n      jump\t// in\n    tag_27:\n      tag_28\n      jump\t// in\n    tag_26:\n      mload(0x40)\n      tag_29\n      swap2\n      swap1\n      tag_13\n      jump\t// in\n    tag_29:\n      mload(0x40)\n      dup1\n      swap2\n      sub\n      swap1\n      return\n        /* \"Library/Library.sol\":369:511  function divide(uint x,uint y) public pure returns(uint){... */\n    tag_7:\n      tag_30\n      0x04\n      dup1\n      calldatasize\n      sub\n      dup2\n      add\n      swap1\n      tag_31\n      swap2\n      swap1\n      tag_10\n      jump\t// in\n    tag_31:\n      tag_32\n      jump\t// in\n    tag_30:\n      mload(0x40)\n      tag_33\n      swap2\n      swap1\n      tag_13\n      jump\t// in\n    tag_33:\n      mload(0x40)\n      dup1\n      swap2\n      sub\n      swap1\n      return\n        /* \"Library/Library.sol\":272:361  function multi(uint x,uint y) public pure returns(uint){... */\n    tag_11:\n        /* \"Library/Library.sol\":322:326  uint */\n      0x00\n        /* \"Library/Library.sol\":350:351  y */\n      dup2\n        /* \"Library/Library.sol\":346:347  x */\n      dup4\n        /* \"Library/Library.sol\":346:351  x * y */\n      tag_35\n      swap2\n      swap1\n      tag_36\n      jump\t// in\n    tag_35:\n        /* \"Library/Library.sol\":339:351  return x * y */\n      swap1\n      pop\n        /* \"Library/Library.sol\":272:361  function multi(uint x,uint y) public pure returns(uint){... */\n      swap3\n      swap2\n      pop\n      pop\n      jump\t// out\n        /* \"Library/Library.sol\":79:167  function plus(uint x,uint y) public pure returns(uint){... */\n    tag_16:\n        /* \"Library/Library.sol\":128:132  uint */\n      0x00\n        /* \"Library/Library.sol\":156:157  y */\n      dup2\n        /* \"Library/Library.sol\":152:153  x */\n      dup4\n        /* \"Library/Library.sol\":152:157  x + y */\n      tag_38\n      swap2\n      swap1\n      tag_39\n      jump\t// in\n    tag_38:\n        /* \"Library/Library.sol\":145:157  return x + y */\n      swap1\n      pop\n        /* \"Library/Library.sol\":79:167  function plus(uint x,uint y) public pure returns(uint){... */\n      swap3\n      swap2\n      pop\n      pop\n      jump\t// out\n        /* \"Library/Library.sol\":686:845  function max(uint x,uint y) public pure returns(uint){... */\n    tag_20:\n        /* \"Library/Library.sol\":734:738  uint */\n      0x00\n        /* \"Library/Library.sol\":757:758  y */\n      dup2\n        /* \"Library/Library.sol\":755:756  x */\n      dup4\n        /* \"Library/Library.sol\":755:758  x>y */\n      gt\n        /* \"Library/Library.sol\":751:836  if (x>y) {... */\n      iszero\n      tag_41\n      jumpi\n        /* \"Library/Library.sol\":778:779  x */\n      dup3\n        /* \"Library/Library.sol\":771:779  return x */\n      swap1\n      pop\n      jump(tag_40)\n        /* \"Library/Library.sol\":751:836  if (x>y) {... */\n    tag_41:\n        /* \"Library/Library.sol\":824:825  y */\n      dup2\n        /* \"Library/Library.sol\":817:825  return y */\n      swap1\n      pop\n        /* \"Library/Library.sol\":686:845  function max(uint x,uint y) public pure returns(uint){... */\n    tag_40:\n      swap3\n      swap2\n      pop\n      pop\n      jump\t// out\n        /* \"Library/Library.sol\":519:678  function min(uint x,uint y) public pure returns(uint){... */\n    tag_24:\n        /* \"Library/Library.sol\":567:571  uint */\n      0x00\n        /* \"Library/Library.sol\":590:591  y */\n      dup2\n        /* \"Library/Library.sol\":588:589  x */\n      dup4\n        /* \"Library/Library.sol\":588:591  x<y */\n      lt\n        /* \"Library/Library.sol\":584:669  if (x<y) {... */\n      iszero\n      tag_44\n      jumpi\n        /* \"Library/Library.sol\":611:612  x */\n      dup3\n        /* \"Library/Library.sol\":604:612  return x */\n      swap1\n      pop\n      jump(tag_43)\n        /* \"Library/Library.sol\":584:669  if (x<y) {... */\n    tag_44:\n        /* \"Library/Library.sol\":657:658  y */\n      dup2\n        /* \"Library/Library.sol\":650:658  return y */\n      swap1\n      pop\n        /* \"Library/Library.sol\":519:678  function min(uint x,uint y) public pure returns(uint){... */\n    tag_43:\n      swap3\n      swap2\n      pop\n      pop\n      jump\t// out\n        /* \"Library/Library.sol\":175:264  function minus(uint x,uint y) public pure returns(uint){... */\n    tag_28:\n        /* \"Library/Library.sol\":225:229  uint */\n      0x00\n        /* \"Library/Library.sol\":253:254  y */\n      dup2\n        /* \"Library/Library.sol\":249:250  x */\n      dup4\n        /* \"Library/Library.sol\":249:254  x - y */\n      tag_47\n      swap2\n      swap1\n      tag_48\n      jump\t// in\n    tag_47:\n        /* \"Library/Library.sol\":242:254  return x - y */\n      swap1\n      pop\n        /* \"Library/Library.sol\":175:264  function minus(uint x,uint y) public pure returns(uint){... */\n      swap3\n      swap2\n      pop\n      pop\n      jump\t// out\n        /* \"Library/Library.sol\":369:511  function divide(uint x,uint y) public pure returns(uint){... */\n    tag_32:\n        /* \"Library/Library.sol\":420:424  uint */\n      0x00\n        /* \"Library/Library.sol\":456:457  0 */\n      dup1\n        /* \"Library/Library.sol\":452:453  y */\n      dup3\n        /* \"Library/Library.sol\":452:457  y !=0 */\n      sub\n        /* \"Library/Library.sol\":444:476  require(y !=0,\"Bu sayi olamaz!\") */\n      tag_50\n      jumpi\n      mload(0x40)\n      0x08c379a000000000000000000000000000000000000000000000000000000000\n      dup2\n      mstore\n      0x04\n      add\n      tag_51\n      swap1\n      tag_52\n      jump\t// in\n    tag_51:\n      mload(0x40)\n      dup1\n      swap2\n      sub\n      swap1\n      revert\n    tag_50:\n        /* \"Library/Library.sol\":500:501  y */\n      dup2\n        /* \"Library/Library.sol\":496:497  x */\n      dup4\n        /* \"Library/Library.sol\":496:501  x / y */\n      tag_53\n      swap2\n      swap1\n      tag_54\n      jump\t// in\n    tag_53:\n        /* \"Library/Library.sol\":488:501  return  x / y */\n      swap1\n      pop\n        /* \"Library/Library.sol\":369:511  function divide(uint x,uint y) public pure returns(uint){... */\n      swap3\n      swap2\n      pop\n      pop\n      jump\t// out\n        /* \"#utility.yul\":88:205   */\n    tag_56:\n        /* \"#utility.yul\":197:198   */\n      0x00\n        /* \"#utility.yul\":194:195   */\n      dup1\n        /* \"#utility.yul\":187:199   */\n      revert\n        /* \"#utility.yul\":334:411   */\n    tag_58:\n        /* \"#utility.yul\":371:378   */\n      0x00\n        /* \"#utility.yul\":400:405   */\n      dup2\n        /* \"#utility.yul\":389:405   */\n      swap1\n      pop\n        /* \"#utility.yul\":334:411   */\n      swap2\n      swap1\n      pop\n      jump\t// out\n        /* \"#utility.yul\":417:539   */\n    tag_59:\n        /* \"#utility.yul\":490:514   */\n      tag_73\n        /* \"#utility.yul\":508:513   */\n      dup2\n        /* \"#utility.yul\":490:514   */\n      tag_58\n      jump\t// in\n    tag_73:\n        /* \"#utility.yul\":483:488   */\n      dup2\n        /* \"#utility.yul\":480:515   */\n      eq\n        /* \"#utility.yul\":470:533   */\n      tag_74\n      jumpi\n        /* \"#utility.yul\":529:530   */\n      0x00\n        /* \"#utility.yul\":526:527   */\n      dup1\n        /* \"#utility.yul\":519:531   */\n      revert\n        /* \"#utility.yul\":470:533   */\n    tag_74:\n        /* \"#utility.yul\":417:539   */\n      pop\n      jump\t// out\n        /* \"#utility.yul\":545:684   */\n    tag_60:\n        /* \"#utility.yul\":591:596   */\n      0x00\n        /* \"#utility.yul\":629:635   */\n      dup2\n        /* \"#utility.yul\":616:636   */\n      calldataload\n        /* \"#utility.yul\":607:636   */\n      swap1\n      pop\n        /* \"#utility.yul\":645:678   */\n      tag_76\n        /* \"#utility.yul\":672:677   */\n      dup2\n        /* \"#utility.yul\":645:678   */\n      tag_59\n      jump\t// in\n    tag_76:\n        /* \"#utility.yul\":545:684   */\n      swap3\n      swap2\n      pop\n      pop\n      jump\t// out\n        /* \"#utility.yul\":690:1164   */\n    tag_10:\n        /* \"#utility.yul\":758:764   */\n      0x00\n        /* \"#utility.yul\":766:772   */\n      dup1\n        /* \"#utility.yul\":815:817   */\n      0x40\n        /* \"#utility.yul\":803:812   */\n      dup4\n        /* \"#utility.yul\":794:801   */\n      dup6\n        /* \"#utility.yul\":790:813   */\n      sub\n        /* \"#utility.yul\":786:818   */\n      slt\n        /* \"#utility.yul\":783:902   */\n      iszero\n      tag_78\n      jumpi\n        /* \"#utility.yul\":821:900   */\n      tag_79\n      tag_56\n      jump\t// in\n    tag_79:\n        /* \"#utility.yul\":783:902   */\n    tag_78:\n        /* \"#utility.yul\":941:942   */\n      0x00\n        /* \"#utility.yul\":966:1019   */\n      tag_80\n        /* \"#utility.yul\":1011:1018   */\n      dup6\n        /* \"#utility.yul\":1002:1008   */\n      dup3\n        /* \"#utility.yul\":991:1000   */\n      dup7\n        /* \"#utility.yul\":987:1009   */\n      add\n        /* \"#utility.yul\":966:1019   */\n      tag_60\n      jump\t// in\n    tag_80:\n        /* \"#utility.yul\":956:1019   */\n      swap3\n      pop\n        /* \"#utility.yul\":912:1029   */\n      pop\n        /* \"#utility.yul\":1068:1070   */\n      0x20\n        /* \"#utility.yul\":1094:1147   */\n      tag_81\n        /* \"#utility.yul\":1139:1146   */\n      dup6\n        /* \"#utility.yul\":1130:1136   */\n      dup3\n        /* \"#utility.yul\":1119:1128   */\n      dup7\n        /* \"#utility.yul\":1115:1137   */\n      add\n        /* \"#utility.yul\":1094:1147   */\n      tag_60\n      jump\t// in\n    tag_81:\n        /* \"#utility.yul\":1084:1147   */\n      swap2\n      pop\n        /* \"#utility.yul\":1039:1157   */\n      pop\n        /* \"#utility.yul\":690:1164   */\n      swap3\n      pop\n      swap3\n      swap1\n      pop\n      jump\t// out\n        /* \"#utility.yul\":1170:1296   */\n    tag_61:\n        /* \"#utility.yul\":1265:1289   */\n      tag_83\n        /* \"#utility.yul\":1283:1288   */\n      dup2\n        /* \"#utility.yul\":1265:1289   */\n      tag_58\n      jump\t// in\n    tag_83:\n        /* \"#utility.yul\":1260:1263   */\n      dup3\n        /* \"#utility.yul\":1253:1290   */\n      mstore\n        /* \"#utility.yul\":1170:1296   */\n      pop\n      pop\n      jump\t// out\n        /* \"#utility.yul\":1302:1540   */\n    tag_13:\n        /* \"#utility.yul\":1403:1407   */\n      0x00\n        /* \"#utility.yul\":1441:1443   */\n      0x20\n        /* \"#utility.yul\":1430:1439   */\n      dup3\n        /* \"#utility.yul\":1426:1444   */\n      add\n        /* \"#utility.yul\":1418:1444   */\n      swap1\n      pop\n        /* \"#utility.yul\":1454:1533   */\n      tag_85\n        /* \"#utility.yul\":1530:1531   */\n      0x00\n        /* \"#utility.yul\":1519:1528   */\n      dup4\n        /* \"#utility.yul\":1515:1532   */\n      add\n        /* \"#utility.yul\":1506:1512   */\n      dup5\n        /* \"#utility.yul\":1454:1533   */\n      tag_61\n      jump\t// in\n    tag_85:\n        /* \"#utility.yul\":1302:1540   */\n      swap3\n      swap2\n      pop\n      pop\n      jump\t// out\n        /* \"#utility.yul\":1546:1726   */\n    tag_62:\n        /* \"#utility.yul\":1594:1671   */\n      0x4e487b7100000000000000000000000000000000000000000000000000000000\n        /* \"#utility.yul\":1591:1592   */\n      0x00\n        /* \"#utility.yul\":1584:1672   */\n      mstore\n        /* \"#utility.yul\":1691:1695   */\n      0x11\n        /* \"#utility.yul\":1688:1689   */\n      0x04\n        /* \"#utility.yul\":1681:1696   */\n      mstore\n        /* \"#utility.yul\":1715:1719   */\n      0x24\n        /* \"#utility.yul\":1712:1713   */\n      0x00\n        /* \"#utility.yul\":1705:1720   */\n      revert\n        /* \"#utility.yul\":1732:2142   */\n    tag_36:\n        /* \"#utility.yul\":1772:1779   */\n      0x00\n        /* \"#utility.yul\":1795:1815   */\n      tag_88\n        /* \"#utility.yul\":1813:1814   */\n      dup3\n        /* \"#utility.yul\":1795:1815   */\n      tag_58\n      jump\t// in\n    tag_88:\n        /* \"#utility.yul\":1790:1815   */\n      swap2\n      pop\n        /* \"#utility.yul\":1829:1849   */\n      tag_89\n        /* \"#utility.yul\":1847:1848   */\n      dup4\n        /* \"#utility.yul\":1829:1849   */\n      tag_58\n      jump\t// in\n    tag_89:\n        /* \"#utility.yul\":1824:1849   */\n      swap3\n      pop\n        /* \"#utility.yul\":1884:1885   */\n      dup3\n        /* \"#utility.yul\":1881:1882   */\n      dup3\n        /* \"#utility.yul\":1877:1886   */\n      mul\n        /* \"#utility.yul\":1906:1936   */\n      tag_90\n        /* \"#utility.yul\":1924:1935   */\n      dup2\n        /* \"#utility.yul\":1906:1936   */\n      tag_58\n      jump\t// in\n    tag_90:\n        /* \"#utility.yul\":1895:1936   */\n      swap2\n      pop\n        /* \"#utility.yul\":2085:2086   */\n      dup3\n        /* \"#utility.yul\":2076:2083   */\n      dup3\n        /* \"#utility.yul\":2072:2087   */\n      div\n        /* \"#utility.yul\":2069:2070   */\n      dup5\n        /* \"#utility.yul\":2066:2088   */\n      eq\n        /* \"#utility.yul\":2046:2047   */\n      dup4\n        /* \"#utility.yul\":2039:2048   */\n      iszero\n        /* \"#utility.yul\":2019:2102   */\n      or\n        /* \"#utility.yul\":1996:2135   */\n      tag_91\n      jumpi\n        /* \"#utility.yul\":2115:2133   */\n      tag_92\n      tag_62\n      jump\t// in\n    tag_92:\n        /* \"#utility.yul\":1996:2135   */\n    tag_91:\n        /* \"#utility.yul\":1780:2142   */\n      pop\n        /* \"#utility.yul\":1732:2142   */\n      swap3\n      swap2\n      pop\n      pop\n      jump\t// out\n        /* \"#utility.yul\":2148:2339   */\n    tag_39:\n        /* \"#utility.yul\":2188:2191   */\n      0x00\n        /* \"#utility.yul\":2207:2227   */\n      tag_94\n        /* \"#utility.yul\":2225:2226   */\n      dup3\n        /* \"#utility.yul\":2207:2227   */\n      tag_58\n      jump\t// in\n    tag_94:\n        /* \"#utility.yul\":2202:2227   */\n      swap2\n      pop\n        /* \"#utility.yul\":2241:2261   */\n      tag_95\n        /* \"#utility.yul\":2259:2260   */\n      dup4\n        /* \"#utility.yul\":2241:2261   */\n      tag_58\n      jump\t// in\n    tag_95:\n        /* \"#utility.yul\":2236:2261   */\n      swap3\n      pop\n        /* \"#utility.yul\":2284:2285   */\n      dup3\n        /* \"#utility.yul\":2281:2282   */\n      dup3\n        /* \"#utility.yul\":2277:2286   */\n      add\n        /* \"#utility.yul\":2270:2286   */\n      swap1\n      pop\n        /* \"#utility.yul\":2305:2308   */\n      dup1\n        /* \"#utility.yul\":2302:2303   */\n      dup3\n        /* \"#utility.yul\":2299:2309   */\n      gt\n        /* \"#utility.yul\":2296:2332   */\n      iszero\n      tag_96\n      jumpi\n        /* \"#utility.yul\":2312:2330   */\n      tag_97\n      tag_62\n      jump\t// in\n    tag_97:\n        /* \"#utility.yul\":2296:2332   */\n    tag_96:\n        /* \"#utility.yul\":2148:2339   */\n      swap3\n      swap2\n      pop\n      pop\n      jump\t// out\n        /* \"#utility.yul\":2345:2539   */\n    tag_48:\n        /* \"#utility.yul\":2385:2389   */\n      0x00\n        /* \"#utility.yul\":2405:2425   */\n      tag_99\n        /* \"#utility.yul\":2423:2424   */\n      dup3\n        /* \"#utility.yul\":2405:2425   */\n      tag_58\n      jump\t// in\n    tag_99:\n        /* \"#utility.yul\":2400:2425   */\n      swap2\n      pop\n        /* \"#utility.yul\":2439:2459   */\n      tag_100\n        /* \"#utility.yul\":2457:2458   */\n      dup4\n        /* \"#utility.yul\":2439:2459   */\n      tag_58\n      jump\t// in\n    tag_100:\n        /* \"#utility.yul\":2434:2459   */\n      swap3\n      pop\n        /* \"#utility.yul\":2483:2484   */\n      dup3\n        /* \"#utility.yul\":2480:2481   */\n      dup3\n        /* \"#utility.yul\":2476:2485   */\n      sub\n        /* \"#utility.yul\":2468:2485   */\n      swap1\n      pop\n        /* \"#utility.yul\":2507:2508   */\n      dup2\n        /* \"#utility.yul\":2501:2505   */\n      dup2\n        /* \"#utility.yul\":2498:2509   */\n      gt\n        /* \"#utility.yul\":2495:2532   */\n      iszero\n      tag_101\n      jumpi\n        /* \"#utility.yul\":2512:2530   */\n      tag_102\n      tag_62\n      jump\t// in\n    tag_102:\n        /* \"#utility.yul\":2495:2532   */\n    tag_101:\n        /* \"#utility.yul\":2345:2539   */\n      swap3\n      swap2\n      pop\n      pop\n      jump\t// out\n        /* \"#utility.yul\":2545:2714   */\n    tag_63:\n        /* \"#utility.yul\":2629:2640   */\n      0x00\n        /* \"#utility.yul\":2663:2669   */\n      dup3\n        /* \"#utility.yul\":2658:2661   */\n      dup3\n        /* \"#utility.yul\":2651:2670   */\n      mstore\n        /* \"#utility.yul\":2703:2707   */\n      0x20\n        /* \"#utility.yul\":2698:2701   */\n      dup3\n        /* \"#utility.yul\":2694:2708   */\n      add\n        /* \"#utility.yul\":2679:2708   */\n      swap1\n      pop\n        /* \"#utility.yul\":2545:2714   */\n      swap3\n      swap2\n      pop\n      pop\n      jump\t// out\n        /* \"#utility.yul\":2720:2885   */\n    tag_64:\n        /* \"#utility.yul\":2860:2877   */\n      0x42752073617969206f6c616d617a210000000000000000000000000000000000\n        /* \"#utility.yul\":2856:2857   */\n      0x00\n        /* \"#utility.yul\":2848:2854   */\n      dup3\n        /* \"#utility.yul\":2844:2858   */\n      add\n        /* \"#utility.yul\":2837:2878   */\n      mstore\n        /* \"#utility.yul\":2720:2885   */\n      pop\n      jump\t// out\n        /* \"#utility.yul\":2891:3257   */\n    tag_65:\n        /* \"#utility.yul\":3033:3036   */\n      0x00\n        /* \"#utility.yul\":3054:3121   */\n      tag_106\n        /* \"#utility.yul\":3118:3120   */\n      0x0f\n        /* \"#utility.yul\":3113:3116   */\n      dup4\n        /* \"#utility.yul\":3054:3121   */\n      tag_63\n      jump\t// in\n    tag_106:\n        /* \"#utility.yul\":3047:3121   */\n      swap2\n      pop\n        /* \"#utility.yul\":3130:3223   */\n      tag_107\n        /* \"#utility.yul\":3219:3222   */\n      dup3\n        /* \"#utility.yul\":3130:3223   */\n      tag_64\n      jump\t// in\n    tag_107:\n        /* \"#utility.yul\":3248:3250   */\n      0x20\n        /* \"#utility.yul\":3243:3246   */\n      dup3\n        /* \"#utility.yul\":3239:3251   */\n      add\n        /* \"#utility.yul\":3232:3251   */\n      swap1\n      pop\n        /* \"#utility.yul\":2891:3257   */\n      swap2\n      swap1\n      pop\n      jump\t// out\n        /* \"#utility.yul\":3263:3682   */\n    tag_52:\n        /* \"#utility.yul\":3429:3433   */\n      0x00\n        /* \"#utility.yul\":3467:3469   */\n      0x20\n        /* \"#utility.yul\":3456:3465   */\n      dup3\n        /* \"#utility.yul\":3452:3470   */\n      add\n        /* \"#utility.yul\":3444:3470   */\n      swap1\n      pop\n        /* \"#utility.yul\":3516:3525   */\n      dup2\n        /* \"#utility.yul\":3510:3514   */\n      dup2\n        /* \"#utility.yul\":3506:3526   */\n      sub\n        /* \"#utility.yul\":3502:3503   */\n      0x00\n        /* \"#utility.yul\":3491:3500   */\n      dup4\n        /* \"#utility.yul\":3487:3504   */\n      add\n        /* \"#utility.yul\":3480:3527   */\n      mstore\n        /* \"#utility.yul\":3544:3675   */\n      tag_109\n        /* \"#utility.yul\":3670:3674   */\n      dup2\n        /* \"#utility.yul\":3544:3675   */\n      tag_65\n      jump\t// in\n    tag_109:\n        /* \"#utility.yul\":3536:3675   */\n      swap1\n      pop\n        /* \"#utility.yul\":3263:3682   */\n      swap2\n      swap1\n      pop\n      jump\t// out\n        /* \"#utility.yul\":3688:3868   */\n    tag_66:\n        /* \"#utility.yul\":3736:3813   */\n      0x4e487b7100000000000000000000000000000000000000000000000000000000\n        /* \"#utility.yul\":3733:3734   */\n      0x00\n        /* \"#utility.yul\":3726:3814   */\n      mstore\n        /* \"#utility.yul\":3833:3837   */\n      0x12\n        /* \"#utility.yul\":3830:3831   */\n      0x04\n        /* \"#utility.yul\":3823:3838   */\n      mstore\n        /* \"#utility.yul\":3857:3861   */\n      0x24\n        /* \"#utility.yul\":3854:3855   */\n      0x00\n        /* \"#utility.yul\":3847:3862   */\n      revert\n        /* \"#utility.yul\":3874:4059   */\n    tag_54:\n        /* \"#utility.yul\":3914:3915   */\n      0x00\n        /* \"#utility.yul\":3931:3951   */\n      tag_112\n        /* \"#utility.yul\":3949:3950   */\n      dup3\n        /* \"#utility.yul\":3931:3951   */\n      tag_58\n      jump\t// in\n    tag_112:\n        /* \"#utility.yul\":3926:3951   */\n      swap2\n      pop\n        /* \"#utility.yul\":3965:3985   */\n      tag_113\n        /* \"#utility.yul\":3983:3984   */\n      dup4\n        /* \"#utility.yul\":3965:3985   */\n      tag_58\n      jump\t// in\n    tag_113:\n        /* \"#utility.yul\":3960:3985   */\n      swap3\n      pop\n        /* \"#utility.yul\":4004:4005   */\n      dup3\n        /* \"#utility.yul\":3994:4029   */\n      tag_114\n      jumpi\n        /* \"#utility.yul\":4009:4027   */\n      tag_115\n      tag_66\n      jump\t// in\n    tag_115:\n        /* \"#utility.yul\":3994:4029   */\n    tag_114:\n        /* \"#utility.yul\":4051:4052   */\n      dup3\n        /* \"#utility.yul\":4048:4049   */\n      dup3\n        /* \"#utility.yul\":4044:4053   */\n      div\n        /* \"#utility.yul\":4039:4053   */\n      swap1\n      pop\n        /* \"#utility.yul\":3874:4059   */\n      swap3\n      swap2\n      pop\n      pop\n      jump\t// out\n\n    auxdata: 0xa26469706673582212206c6e120a2790e83995842f2ffb40f3c952c367c9c7b60acf34cbd3957bfc0ce564736f6c63430008120033\n}\n",
				"bytecode": {
					"linkReferences": {},
					"object": "6104f4610053600b82828239805160001a607314610046577f4e487b7100000000000000000000000000000000000000000000000000000000600052600060045260246000fd5b30600052607381538281f3fe730000000000000000000000000000000000000000301460806040526004361061006c5760003560e01c80635171762c1461007157806366098d4f146100a15780636d5433e6146100d15780637ae2b5c714610101578063f4f3bdc114610131578063f88e9fbf14610161575b600080fd5b61008b6004803603810190610086919061029e565b610191565b60405161009891906102ed565b60405180910390f35b6100bb60048036038101906100b6919061029e565b6101a7565b6040516100c891906102ed565b60405180910390f35b6100eb60048036038101906100e6919061029e565b6101bd565b6040516100f891906102ed565b60405180910390f35b61011b6004803603810190610116919061029e565b6101d9565b60405161012891906102ed565b60405180910390f35b61014b6004803603810190610146919061029e565b6101f5565b60405161015891906102ed565b60405180910390f35b61017b6004803603810190610176919061029e565b61020b565b60405161018891906102ed565b60405180910390f35b6000818361019f9190610337565b905092915050565b600081836101b59190610379565b905092915050565b6000818311156101cf578290506101d3565b8190505b92915050565b6000818310156101eb578290506101ef565b8190505b92915050565b6000818361020391906103ad565b905092915050565b600080820361024f576040517f08c379a00000000000000000000000000000000000000000000000000000000081526004016102469061043e565b60405180910390fd5b818361025b919061048d565b905092915050565b600080fd5b6000819050919050565b61027b81610268565b811461028657600080fd5b50565b60008135905061029881610272565b92915050565b600080604083850312156102b5576102b4610263565b5b60006102c385828601610289565b92505060206102d485828601610289565b9150509250929050565b6102e781610268565b82525050565b600060208201905061030260008301846102de565b92915050565b7f4e487b7100000000000000000000000000000000000000000000000000000000600052601160045260246000fd5b600061034282610268565b915061034d83610268565b925082820261035b81610268565b9150828204841483151761037257610371610308565b5b5092915050565b600061038482610268565b915061038f83610268565b92508282019050808211156103a7576103a6610308565b5b92915050565b60006103b882610268565b91506103c383610268565b92508282039050818111156103db576103da610308565b5b92915050565b600082825260208201905092915050565b7f42752073617969206f6c616d617a210000000000000000000000000000000000600082015250565b6000610428600f836103e1565b9150610433826103f2565b602082019050919050565b600060208201905081810360008301526104578161041b565b9050919050565b7f4e487b7100000000000000000000000000000000000000000000000000000000600052601260045260246000fd5b600061049882610268565b91506104a383610268565b9250826104b3576104b261045e565b5b82820490509291505056fea26469706673582212206c6e120a2790e83995842f2ffb40f3c952c367c9c7b60acf34cbd3957bfc0ce564736f6c63430008120033",
					"opcodes": "PUSH2 0x4F4 PUSH2 0x53 PUSH1 0xB DUP3 DUP3 DUP3 CODECOPY DUP1 MLOAD PUSH1 0x0 BYTE PUSH1 0x73 EQ PUSH2 0x46 JUMPI PUSH32 0x4E487B7100000000000000000000000000000000000000000000000000000000 PUSH1 0x0 MSTORE PUSH1 0x0 PUSH1 0x4 MSTORE PUSH1 0x24 PUSH1 0x0 REVERT JUMPDEST ADDRESS PUSH1 0x0 MSTORE PUSH1 0x73 DUP2 MSTORE8 DUP3 DUP2 RETURN INVALID PUSH20 0x0 ADDRESS EQ PUSH1 0x80 PUSH1 0x40 MSTORE PUSH1 0x4 CALLDATASIZE LT PUSH2 0x6C JUMPI PUSH1 0x0 CALLDATALOAD PUSH1 0xE0 SHR DUP1 PUSH4 0x5171762C EQ PUSH2 0x71 JUMPI DUP1 PUSH4 0x66098D4F EQ PUSH2 0xA1 JUMPI DUP1 PUSH4 0x6D5433E6 EQ PUSH2 0xD1 JUMPI DUP1 PUSH4 0x7AE2B5C7 EQ PUSH2 0x101 JUMPI DUP1 PUSH4 0xF4F3BDC1 EQ PUSH2 0x131 JUMPI DUP1 PUSH4 0xF88E9FBF EQ PUSH2 0x161 JUMPI JUMPDEST PUSH1 0x0 DUP1 REVERT JUMPDEST PUSH2 0x8B PUSH1 0x4 DUP1 CALLDATASIZE SUB DUP2 ADD SWAP1 PUSH2 0x86 SWAP2 SWAP1 PUSH2 0x29E JUMP JUMPDEST PUSH2 0x191 JUMP JUMPDEST PUSH1 0x40 MLOAD PUSH2 0x98 SWAP2 SWAP1 PUSH2 0x2ED JUMP JUMPDEST PUSH1 0x40 MLOAD DUP1 SWAP2 SUB SWAP1 RETURN JUMPDEST PUSH2 0xBB PUSH1 0x4 DUP1 CALLDATASIZE SUB DUP2 ADD SWAP1 PUSH2 0xB6 SWAP2 SWAP1 PUSH2 0x29E JUMP JUMPDEST PUSH2 0x1A7 JUMP JUMPDEST PUSH1 0x40 MLOAD PUSH2 0xC8 SWAP2 SWAP1 PUSH2 0x2ED JUMP JUMPDEST PUSH1 0x40 MLOAD DUP1 SWAP2 SUB SWAP1 RETURN JUMPDEST PUSH2 0xEB PUSH1 0x4 DUP1 CALLDATASIZE SUB DUP2 ADD SWAP1 PUSH2 0xE6 SWAP2 SWAP1 PUSH2 0x29E JUMP JUMPDEST PUSH2 0x1BD JUMP JUMPDEST PUSH1 0x40 MLOAD PUSH2 0xF8 SWAP2 SWAP1 PUSH2 0x2ED JUMP JUMPDEST PUSH1 0x40 MLOAD DUP1 SWAP2 SUB SWAP1 RETURN JUMPDEST PUSH2 0x11B PUSH1 0x4 DUP1 CALLDATASIZE SUB DUP2 ADD SWAP1 PUSH2 0x116 SWAP2 SWAP1 PUSH2 0x29E JUMP JUMPDEST PUSH2 0x1D9 JUMP JUMPDEST PUSH1 0x40 MLOAD PUSH2 0x128 SWAP2 SWAP1 PUSH2 0x2ED JUMP JUMPDEST PUSH1 0x40 MLOAD DUP1 SWAP2 SUB SWAP1 RETURN JUMPDEST PUSH2 0x14B PUSH1 0x4 DUP1 CALLDATASIZE SUB DUP2 ADD SWAP1 PUSH2 0x146 SWAP2 SWAP1 PUSH2 0x29E JUMP JUMPDEST PUSH2 0x1F5 JUMP JUMPDEST PUSH1 0x40 MLOAD PUSH2 0x158 SWAP2 SWAP1 PUSH2 0x2ED JUMP JUMPDEST PUSH1 0x40 MLOAD DUP1 SWAP2 SUB SWAP1 RETURN JUMPDEST PUSH2 0x17B PUSH1 0x4 DUP1 CALLDATASIZE SUB DUP2 ADD SWAP1 PUSH2 0x176 SWAP2 SWAP1 PUSH2 0x29E JUMP JUMPDEST PUSH2 0x20B JUMP JUMPDEST PUSH1 0x40 MLOAD PUSH2 0x188 SWAP2 SWAP1 PUSH2 0x2ED JUMP JUMPDEST PUSH1 0x40 MLOAD DUP1 SWAP2 SUB SWAP1 RETURN JUMPDEST PUSH1 0x0 DUP2 DUP4 PUSH2 0x19F SWAP2 SWAP1 PUSH2 0x337 JUMP JUMPDEST SWAP1 POP SWAP3 SWAP2 POP POP JUMP JUMPDEST PUSH1 0x0 DUP2 DUP4 PUSH2 0x1B5 SWAP2 SWAP1 PUSH2 0x379 JUMP JUMPDEST SWAP1 POP SWAP3 SWAP2 POP POP JUMP JUMPDEST PUSH1 0x0 DUP2 DUP4 GT ISZERO PUSH2 0x1CF JUMPI DUP3 SWAP1 POP PUSH2 0x1D3 JUMP JUMPDEST DUP2 SWAP1 POP JUMPDEST SWAP3 SWAP2 POP POP JUMP JUMPDEST PUSH1 0x0 DUP2 DUP4 LT ISZERO PUSH2 0x1EB JUMPI DUP3 SWAP1 POP PUSH2 0x1EF JUMP JUMPDEST DUP2 SWAP1 POP JUMPDEST SWAP3 SWAP2 POP POP JUMP JUMPDEST PUSH1 0x0 DUP2 DUP4 PUSH2 0x203 SWAP2 SWAP1 PUSH2 0x3AD JUMP JUMPDEST SWAP1 POP SWAP3 SWAP2 POP POP JUMP JUMPDEST PUSH1 0x0 DUP1 DUP3 SUB PUSH2 0x24F JUMPI PUSH1 0x40 MLOAD PUSH32 0x8C379A000000000000000000000000000000000000000000000000000000000 DUP2 MSTORE PUSH1 0x4 ADD PUSH2 0x246 SWAP1 PUSH2 0x43E JUMP JUMPDEST PUSH1 0x40 MLOAD DUP1 SWAP2 SUB SWAP1 REVERT JUMPDEST DUP2 DUP4 PUSH2 0x25B SWAP2 SWAP1 PUSH2 0x48D JUMP JUMPDEST SWAP1 POP SWAP3 SWAP2 POP POP JUMP JUMPDEST PUSH1 0x0 DUP1 REVERT JUMPDEST PUSH1 0x0 DUP2 SWAP1 POP SWAP2 SWAP1 POP JUMP JUMPDEST PUSH2 0x27B DUP2 PUSH2 0x268 JUMP JUMPDEST DUP2 EQ PUSH2 0x286 JUMPI PUSH1 0x0 DUP1 REVERT JUMPDEST POP JUMP JUMPDEST PUSH1 0x0 DUP2 CALLDATALOAD SWAP1 POP PUSH2 0x298 DUP2 PUSH2 0x272 JUMP JUMPDEST SWAP3 SWAP2 POP POP JUMP JUMPDEST PUSH1 0x0 DUP1 PUSH1 0x40 DUP4 DUP6 SUB SLT ISZERO PUSH2 0x2B5 JUMPI PUSH2 0x2B4 PUSH2 0x263 JUMP JUMPDEST JUMPDEST PUSH1 0x0 PUSH2 0x2C3 DUP6 DUP3 DUP7 ADD PUSH2 0x289 JUMP JUMPDEST SWAP3 POP POP PUSH1 0x20 PUSH2 0x2D4 DUP6 DUP3 DUP7 ADD PUSH2 0x289 JUMP JUMPDEST SWAP2 POP POP SWAP3 POP SWAP3 SWAP1 POP JUMP JUMPDEST PUSH2 0x2E7 DUP2 PUSH2 0x268 JUMP JUMPDEST DUP3 MSTORE POP POP JUMP JUMPDEST PUSH1 0x0 PUSH1 0x20 DUP3 ADD SWAP1 POP PUSH2 0x302 PUSH1 0x0 DUP4 ADD DUP5 PUSH2 0x2DE JUMP JUMPDEST SWAP3 SWAP2 POP POP JUMP JUMPDEST PUSH32 0x4E487B7100000000000000000000000000000000000000000000000000000000 PUSH1 0x0 MSTORE PUSH1 0x11 PUSH1 0x4 MSTORE PUSH1 0x24 PUSH1 0x0 REVERT JUMPDEST PUSH1 0x0 PUSH2 0x342 DUP3 PUSH2 0x268 JUMP JUMPDEST SWAP2 POP PUSH2 0x34D DUP4 PUSH2 0x268 JUMP JUMPDEST SWAP3 POP DUP3 DUP3 MUL PUSH2 0x35B DUP2 PUSH2 0x268 JUMP JUMPDEST SWAP2 POP DUP3 DUP3 DIV DUP5 EQ DUP4 ISZERO OR PUSH2 0x372 JUMPI PUSH2 0x371 PUSH2 0x308 JUMP JUMPDEST JUMPDEST POP SWAP3 SWAP2 POP POP JUMP JUMPDEST PUSH1 0x0 PUSH2 0x384 DUP3 PUSH2 0x268 JUMP JUMPDEST SWAP2 POP PUSH2 0x38F DUP4 PUSH2 0x268 JUMP JUMPDEST SWAP3 POP DUP3 DUP3 ADD SWAP1 POP DUP1 DUP3 GT ISZERO PUSH2 0x3A7 JUMPI PUSH2 0x3A6 PUSH2 0x308 JUMP JUMPDEST JUMPDEST SWAP3 SWAP2 POP POP JUMP JUMPDEST PUSH1 0x0 PUSH2 0x3B8 DUP3 PUSH2 0x268 JUMP JUMPDEST SWAP2 POP PUSH2 0x3C3 DUP4 PUSH2 0x268 JUMP JUMPDEST SWAP3 POP DUP3 DUP3 SUB SWAP1 POP DUP2 DUP2 GT ISZERO PUSH2 0x3DB JUMPI PUSH2 0x3DA PUSH2 0x308 JUMP JUMPDEST JUMPDEST SWAP3 SWAP2 POP POP JUMP JUMPDEST PUSH1 0x0 DUP3 DUP3 MSTORE PUSH1 0x20 DUP3 ADD SWAP1 POP SWAP3 SWAP2 POP POP JUMP JUMPDEST PUSH32 0x42752073617969206F6C616D617A210000000000000000000000000000000000 PUSH1 0x0 DUP3 ADD MSTORE POP JUMP JUMPDEST PUSH1 0x0 PUSH2 0x428 PUSH1 0xF DUP4 PUSH2 0x3E1 JUMP JUMPDEST SWAP2 POP PUSH2 0x433 DUP3 PUSH2 0x3F2 JUMP JUMPDEST PUSH1 0x20 DUP3 ADD SWAP1 POP SWAP2 SWAP1 POP JUMP JUMPDEST PUSH1 0x0 PUSH1 0x20 DUP3 ADD SWAP1 POP DUP2 DUP2 SUB PUSH1 0x0 DUP4 ADD MSTORE PUSH2 0x457 DUP2 PUSH2 0x41B JUMP JUMPDEST SWAP1 POP SWAP2 SWAP1 POP JUMP JUMPDEST PUSH32 0x4E487B7100000000000000000000000000000000000000000000000000000000 PUSH1 0x0 MSTORE PUSH1 0x12 PUSH1 0x4 MSTORE PUSH1 0x24 PUSH1 0x0 REVERT JUMPDEST PUSH1 0x0 PUSH2 0x498 DUP3 PUSH2 0x268 JUMP JUMPDEST SWAP2 POP PUSH2 0x4A3 DUP4 PUSH2 0x268 JUMP JUMPDEST SWAP3 POP DUP3 PUSH2 0x4B3 JUMPI PUSH2 0x4B2 PUSH2 0x45E JUMP JUMPDEST JUMPDEST DUP3 DUP3 DIV SWAP1 POP SWAP3 SWAP2 POP POP JUMP INVALID LOG2 PUSH5 0x6970667358 0x22 SLT KECCAK256 PUSH13 0x6E120A2790E83995842F2FFB40 RETURN 0xC9 MSTORE 0xC3 PUSH8 0xC9C7B60ACF34CBD3 SWAP6 PUSH28 0xFC0CE564736F6C634300081200330000000000000000000000000000 "
				},
				"gasEstimates": {
					"creation": {
						"codeDepositCost": "253600",
						"executionCost": "319",
						"totalCost": "253919"
					},
					"external": {
						"divide(uint256,uint256)": "infinite",
						"max(uint256,uint256)": "infinite",
						"min(uint256,uint256)": "infinite",
						"minus(uint256,uint256)": "infinite",
						"multi(uint256,uint256)": "infinite",
						"plus(uint256,uint256)": "infinite"
					}
				},
				"methodIdentifiers": {
					"divide(uint256,uint256)": "f88e9fbf",
					"max(uint256,uint256)": "6d5433e6",
					"min(uint256,uint256)": "7ae2b5c7",
					"minus(uint256,uint256)": "f4f3bdc1",
					"multi(uint256,uint256)": "5171762c",
					"plus(uint256,uint256)": "66098d4f"
				}
			},
			"storageLayout": {
				"storage": [],
				"types": null
			},
			"userdoc": {
				"kind": "user",
				"methods": {},
				"version": 1
			}
		}
	}
}