{
	"Library/Library.sol": {
		"Library": {
			"abi": [
				{
					"inputs": [
						{
							"internalType": "uint256[]",
							"name": "x",
							"type": "uint256[]"
						},
						{
							"internalType": "uint256",
							"name": "y",
							"type": "uint256"
						}
					],
					"name": "trial1",
					"outputs": [
						{
							"internalType": "uint256",
							"name": "",
							"type": "uint256"
						}
					],
					"stateMutability": "pure",
					"type": "function"
				},
				{
					"inputs": [
						{
							"internalType": "uint256",
							"name": "x",
							"type": "uint256"
						},
						{
							"internalType": "uint256",
							"name": "y",
							"type": "uint256"
						}
					],
					"name": "trial2",
					"outputs": [
						{
							"internalType": "uint256",
							"name": "",
							"type": "uint256"
						}
					],
					"stateMutability": "pure",
					"type": "function"
				},
				{
					"inputs": [
						{
							"internalType": "uint256",
							"name": "x",
							"type": "uint256"
						},
						{
							"internalType": "uint256",
							"name": "y",
							"type": "uint256"
						}
					],
					"name": "trial3",
					"outputs": [
						{
							"internalType": "uint256",
							"name": "",
							"type": "uint256"
						}
					],
					"stateMutability": "pure",
					"type": "function"
				},
				{
					"inputs": [
						{
							"internalType": "uint256",
							"name": "x",
							"type": "uint256"
						},
						{
							"internalType": "uint256",
							"name": "y",
							"type": "uint256"
						}
					],
					"name": "trial4",
					"outputs": [
						{
							"internalType": "uint256",
							"name": "",
							"type": "uint256"
						}
					],
					"stateMutability": "pure",
					"type": "function"
				},
				{
					"inputs": [
						{
							"internalType": "uint256",
							"name": "x",
							"type": "uint256"
						},
						{
							"internalType": "uint256",
							"name": "y",
							"type": "uint256"
						}
					],
					"name": "trial5",
					"outputs": [
						{
							"internalType": "uint256",
							"name": "",
							"type": "uint256"
						}
					],
					"stateMutability": "pure",
					"type": "function"
				},
				{
					"inputs": [
						{
							"internalType": "uint256",
							"name": "x",
							"type": "uint256"
						},
						{
							"internalType": "uint256",
							"name": "y",
							"type": "uint256"
						}
					],
					"name": "trial6",
					"outputs": [
						{
							"internalType": "uint256",
							"name": "",
							"type": "uint256"
						}
					],
					"stateMutability": "pure",
					"type": "function"
				}
			],
			"devdoc": {
				"kind": "dev",
				"methods": {},
				"version": 1
			},
			"evm": {
				"assembly": "    /* \"Library/Library.sol\":1645:2399  contract Library{... */\n  mstore(0x40, 0x80)\n  callvalue\n  dup1\n  iszero\n  tag_1\n  jumpi\n  0x00\n  dup1\n  revert\ntag_1:\n  pop\n  dataSize(sub_0)\n  dup1\n  dataOffset(sub_0)\n  0x00\n  codecopy\n  0x00\n  return\nstop\n\nsub_0: assembly {\n        /* \"Library/Library.sol\":1645:2399  contract Library{... */\n      mstore(0x40, 0x80)\n      callvalue\n      dup1\n      iszero\n      tag_1\n      jumpi\n      0x00\n      dup1\n      revert\n    tag_1:\n      pop\n      jumpi(tag_2, lt(calldatasize, 0x04))\n      shr(0xe0, calldataload(0x00))\n      dup1\n      0x3d80de1a\n      eq\n      tag_3\n      jumpi\n      dup1\n      0x54b503b4\n      eq\n      tag_4\n      jumpi\n      dup1\n      0x9aa2005f\n      eq\n      tag_5\n      jumpi\n      dup1\n      0xdf6b93ec\n      eq\n      tag_6\n      jumpi\n      dup1\n      0xe72e4d49\n      eq\n      tag_7\n      jumpi\n      dup1\n      0xf34b178d\n      eq\n      tag_8\n      jumpi\n    tag_2:\n      0x00\n      dup1\n      revert\n        /* \"Library/Library.sol\":1729:1833  function trial1(uint[] memory x,uint y) public pure returns(uint){... */\n    tag_3:\n      tag_9\n      0x04\n      dup1\n      calldatasize\n      sub\n      dup2\n      add\n      swap1\n      tag_10\n      swap2\n      swap1\n      tag_11\n      jump\t// in\n    tag_10:\n      tag_12\n      jump\t// in\n    tag_9:\n      mload(0x40)\n      tag_13\n      swap2\n      swap1\n      tag_14\n      jump\t// in\n    tag_13:\n      mload(0x40)\n      dup1\n      swap2\n      sub\n      swap1\n      return\n        /* \"Library/Library.sol\":1945:2043  function trial3(uint x,uint y) public pure returns(uint){... */\n    tag_4:\n      tag_15\n      0x04\n      dup1\n      calldatasize\n      sub\n      dup2\n      add\n      swap1\n      tag_16\n      swap2\n      swap1\n      tag_17\n      jump\t// in\n    tag_16:\n      tag_18\n      jump\t// in\n    tag_15:\n      mload(0x40)\n      tag_19\n      swap2\n      swap1\n      tag_14\n      jump\t// in\n    tag_19:\n      mload(0x40)\n      dup1\n      swap2\n      sub\n      swap1\n      return\n        /* \"Library/Library.sol\":1840:1938  function trial2(uint x,uint y) public pure returns(uint){... */\n    tag_5:\n      tag_20\n      0x04\n      dup1\n      calldatasize\n      sub\n      dup2\n      add\n      swap1\n      tag_21\n      swap2\n      swap1\n      tag_17\n      jump\t// in\n    tag_21:\n      tag_22\n      jump\t// in\n    tag_20:\n      mload(0x40)\n      tag_23\n      swap2\n      swap1\n      tag_14\n      jump\t// in\n    tag_23:\n      mload(0x40)\n      dup1\n      swap2\n      sub\n      swap1\n      return\n        /* \"Library/Library.sol\":2259:2355  function trial6(uint x,uint y) public pure returns(uint){... */\n    tag_6:\n      tag_24\n      0x04\n      dup1\n      calldatasize\n      sub\n      dup2\n      add\n      swap1\n      tag_25\n      swap2\n      swap1\n      tag_17\n      jump\t// in\n    tag_25:\n      tag_26\n      jump\t// in\n    tag_24:\n      mload(0x40)\n      tag_27\n      swap2\n      swap1\n      tag_14\n      jump\t// in\n    tag_27:\n      mload(0x40)\n      dup1\n      swap2\n      sub\n      swap1\n      return\n        /* \"Library/Library.sol\":2050:2149  function trial4(uint x,uint y) public pure returns(uint){... */\n    tag_7:\n      tag_28\n      0x04\n      dup1\n      calldatasize\n      sub\n      dup2\n      add\n      swap1\n      tag_29\n      swap2\n      swap1\n      tag_17\n      jump\t// in\n    tag_29:\n      tag_30\n      jump\t// in\n    tag_28:\n      mload(0x40)\n      tag_31\n      swap2\n      swap1\n      tag_14\n      jump\t// in\n    tag_31:\n      mload(0x40)\n      dup1\n      swap2\n      sub\n      swap1\n      return\n        /* \"Library/Library.sol\":2156:2252  function trial5(uint x,uint y) public pure returns(uint){... */\n    tag_8:\n      tag_32\n      0x04\n      dup1\n      calldatasize\n      sub\n      dup2\n      add\n      swap1\n      tag_33\n      swap2\n      swap1\n      tag_17\n      jump\t// in\n    tag_33:\n      tag_34\n      jump\t// in\n    tag_32:\n      mload(0x40)\n      tag_35\n      swap2\n      swap1\n      tag_14\n      jump\t// in\n    tag_35:\n      mload(0x40)\n      dup1\n      swap2\n      sub\n      swap1\n      return\n        /* \"Library/Library.sol\":1729:1833  function trial1(uint[] memory x,uint y) public pure returns(uint){... */\n    tag_12:\n        /* \"Library/Library.sol\":1789:1793  uint */\n      0x00\n        /* \"Library/Library.sol\":1812:1813  x */\n      dup3\n        /* \"Library/Library.sol\":1812:1821  x.indexOf */\n      linkerSymbol(\"cf3df3d9b3837f7f5167794abe1efa32123b2f0289376f4ae0948c8fa8c6a073\")\n      0x6457237b\n      swap1\n      swap2\n        /* \"Library/Library.sol\":1822:1823  y */\n      dup5\n        /* \"Library/Library.sol\":1812:1824  x.indexOf(y) */\n      mload(0x40)\n      dup4\n      0xffffffff\n      and\n      0xe0\n      shl\n      dup2\n      mstore\n      0x04\n      add\n      tag_37\n      swap3\n      swap2\n      swap1\n      tag_38\n      jump\t// in\n    tag_37:\n      0x20\n      mload(0x40)\n      dup1\n      dup4\n      sub\n      dup2\n      dup7\n      gas\n      delegatecall\n      iszero\n      dup1\n      iszero\n      tag_40\n      jumpi\n      returndatasize\n      0x00\n      dup1\n      returndatacopy\n      revert(0x00, returndatasize)\n    tag_40:\n      pop\n      pop\n      pop\n      pop\n      mload(0x40)\n      returndatasize\n      not(0x1f)\n      0x1f\n      dup3\n      add\n      and\n      dup3\n      add\n      dup1\n      0x40\n      mstore\n      pop\n      dup2\n      add\n      swap1\n      tag_41\n      swap2\n      swap1\n      tag_42\n      jump\t// in\n    tag_41:\n        /* \"Library/Library.sol\":1805:1824  return x.indexOf(y) */\n      swap1\n      pop\n        /* \"Library/Library.sol\":1729:1833  function trial1(uint[] memory x,uint y) public pure returns(uint){... */\n      swap3\n      swap2\n      pop\n      pop\n      jump\t// out\n        /* \"Library/Library.sol\":1945:2043  function trial3(uint x,uint y) public pure returns(uint){... */\n    tag_18:\n        /* \"Library/Library.sol\":1996:2000  uint */\n      0x00\n        /* \"Library/Library.sol\":2019:2023  Math */\n      linkerSymbol(\"c91ff267375e64e7608124233cda233b3a9c9ce96fe692657799e7fe9df4476f\")\n        /* \"Library/Library.sol\":2019:2029  Math.multi */\n      0x5171762c\n        /* \"Library/Library.sol\":2030:2031  x */\n      dup5\n        /* \"Library/Library.sol\":2032:2033  y */\n      dup5\n        /* \"Library/Library.sol\":2019:2034  Math.multi(x,y) */\n      mload(0x40)\n      dup4\n      0xffffffff\n      and\n      0xe0\n      shl\n      dup2\n      mstore\n      0x04\n      add\n      tag_44\n      swap3\n      swap2\n      swap1\n      tag_45\n      jump\t// in\n    tag_44:\n      0x20\n      mload(0x40)\n      dup1\n      dup4\n      sub\n      dup2\n      dup7\n      gas\n      delegatecall\n      iszero\n      dup1\n      iszero\n      tag_47\n      jumpi\n      returndatasize\n      0x00\n      dup1\n      returndatacopy\n      revert(0x00, returndatasize)\n    tag_47:\n      pop\n      pop\n      pop\n      pop\n      mload(0x40)\n      returndatasize\n      not(0x1f)\n      0x1f\n      dup3\n      add\n      and\n      dup3\n      add\n      dup1\n      0x40\n      mstore\n      pop\n      dup2\n      add\n      swap1\n      tag_48\n      swap2\n      swap1\n      tag_42\n      jump\t// in\n    tag_48:\n        /* \"Library/Library.sol\":2012:2034  return Math.multi(x,y) */\n      swap1\n      pop\n        /* \"Library/Library.sol\":1945:2043  function trial3(uint x,uint y) public pure returns(uint){... */\n      swap3\n      swap2\n      pop\n      pop\n      jump\t// out\n        /* \"Library/Library.sol\":1840:1938  function trial2(uint x,uint y) public pure returns(uint){... */\n    tag_22:\n        /* \"Library/Library.sol\":1891:1895  uint */\n      0x00\n        /* \"Library/Library.sol\":1914:1918  Math */\n      linkerSymbol(\"c91ff267375e64e7608124233cda233b3a9c9ce96fe692657799e7fe9df4476f\")\n        /* \"Library/Library.sol\":1914:1924  Math.minus */\n      0xf4f3bdc1\n        /* \"Library/Library.sol\":1925:1926  x */\n      dup5\n        /* \"Library/Library.sol\":1927:1928  y */\n      dup5\n        /* \"Library/Library.sol\":1914:1929  Math.minus(x,y) */\n      mload(0x40)\n      dup4\n      0xffffffff\n      and\n      0xe0\n      shl\n      dup2\n      mstore\n      0x04\n      add\n      tag_50\n      swap3\n      swap2\n      swap1\n      tag_45\n      jump\t// in\n    tag_50:\n      0x20\n      mload(0x40)\n      dup1\n      dup4\n      sub\n      dup2\n      dup7\n      gas\n      delegatecall\n      iszero\n      dup1\n      iszero\n      tag_52\n      jumpi\n      returndatasize\n      0x00\n      dup1\n      returndatacopy\n      revert(0x00, returndatasize)\n    tag_52:\n      pop\n      pop\n      pop\n      pop\n      mload(0x40)\n      returndatasize\n      not(0x1f)\n      0x1f\n      dup3\n      add\n      and\n      dup3\n      add\n      dup1\n      0x40\n      mstore\n      pop\n      dup2\n      add\n      swap1\n      tag_53\n      swap2\n      swap1\n      tag_42\n      jump\t// in\n    tag_53:\n        /* \"Library/Library.sol\":1907:1929  return Math.minus(x,y) */\n      swap1\n      pop\n        /* \"Library/Library.sol\":1840:1938  function trial2(uint x,uint y) public pure returns(uint){... */\n      swap3\n      swap2\n      pop\n      pop\n      jump\t// out\n        /* \"Library/Library.sol\":2259:2355  function trial6(uint x,uint y) public pure returns(uint){... */\n    tag_26:\n        /* \"Library/Library.sol\":2310:2314  uint */\n      0x00\n        /* \"Library/Library.sol\":2333:2337  Math */\n      linkerSymbol(\"c91ff267375e64e7608124233cda233b3a9c9ce96fe692657799e7fe9df4476f\")\n        /* \"Library/Library.sol\":2333:2341  Math.min */\n      0x7ae2b5c7\n        /* \"Library/Library.sol\":2342:2343  x */\n      dup5\n        /* \"Library/Library.sol\":2344:2345  y */\n      dup5\n        /* \"Library/Library.sol\":2333:2346  Math.min(x,y) */\n      mload(0x40)\n      dup4\n      0xffffffff\n      and\n      0xe0\n      shl\n      dup2\n      mstore\n      0x04\n      add\n      tag_55\n      swap3\n      swap2\n      swap1\n      tag_45\n      jump\t// in\n    tag_55:\n      0x20\n      mload(0x40)\n      dup1\n      dup4\n      sub\n      dup2\n      dup7\n      gas\n      delegatecall\n      iszero\n      dup1\n      iszero\n      tag_57\n      jumpi\n      returndatasize\n      0x00\n      dup1\n      returndatacopy\n      revert(0x00, returndatasize)\n    tag_57:\n      pop\n      pop\n      pop\n      pop\n      mload(0x40)\n      returndatasize\n      not(0x1f)\n      0x1f\n      dup3\n      add\n      and\n      dup3\n      add\n      dup1\n      0x40\n      mstore\n      pop\n      dup2\n      add\n      swap1\n      tag_58\n      swap2\n      swap1\n      tag_42\n      jump\t// in\n    tag_58:\n        /* \"Library/Library.sol\":2326:2346  return Math.min(x,y) */\n      swap1\n      pop\n        /* \"Library/Library.sol\":2259:2355  function trial6(uint x,uint y) public pure returns(uint){... */\n      swap3\n      swap2\n      pop\n      pop\n      jump\t// out\n        /* \"Library/Library.sol\":2050:2149  function trial4(uint x,uint y) public pure returns(uint){... */\n    tag_30:\n        /* \"Library/Library.sol\":2101:2105  uint */\n      0x00\n        /* \"Library/Library.sol\":2124:2128  Math */\n      linkerSymbol(\"c91ff267375e64e7608124233cda233b3a9c9ce96fe692657799e7fe9df4476f\")\n        /* \"Library/Library.sol\":2124:2135  Math.divide */\n      0xf88e9fbf\n        /* \"Library/Library.sol\":2136:2137  x */\n      dup5\n        /* \"Library/Library.sol\":2138:2139  y */\n      dup5\n        /* \"Library/Library.sol\":2124:2140  Math.divide(x,y) */\n      mload(0x40)\n      dup4\n      0xffffffff\n      and\n      0xe0\n      shl\n      dup2\n      mstore\n      0x04\n      add\n      tag_60\n      swap3\n      swap2\n      swap1\n      tag_45\n      jump\t// in\n    tag_60:\n      0x20\n      mload(0x40)\n      dup1\n      dup4\n      sub\n      dup2\n      dup7\n      gas\n      delegatecall\n      iszero\n      dup1\n      iszero\n      tag_62\n      jumpi\n      returndatasize\n      0x00\n      dup1\n      returndatacopy\n      revert(0x00, returndatasize)\n    tag_62:\n      pop\n      pop\n      pop\n      pop\n      mload(0x40)\n      returndatasize\n      not(0x1f)\n      0x1f\n      dup3\n      add\n      and\n      dup3\n      add\n      dup1\n      0x40\n      mstore\n      pop\n      dup2\n      add\n      swap1\n      tag_63\n      swap2\n      swap1\n      tag_42\n      jump\t// in\n    tag_63:\n        /* \"Library/Library.sol\":2117:2140  return Math.divide(x,y) */\n      swap1\n      pop\n        /* \"Library/Library.sol\":2050:2149  function trial4(uint x,uint y) public pure returns(uint){... */\n      swap3\n      swap2\n      pop\n      pop\n      jump\t// out\n        /* \"Library/Library.sol\":2156:2252  function trial5(uint x,uint y) public pure returns(uint){... */\n    tag_34:\n        /* \"Library/Library.sol\":2207:2211  uint */\n      0x00\n        /* \"Library/Library.sol\":2230:2234  Math */\n      linkerSymbol(\"c91ff267375e64e7608124233cda233b3a9c9ce96fe692657799e7fe9df4476f\")\n        /* \"Library/Library.sol\":2230:2238  Math.max */\n      0x6d5433e6\n        /* \"Library/Library.sol\":2239:2240  x */\n      dup5\n        /* \"Library/Library.sol\":2241:2242  y */\n      dup5\n        /* \"Library/Library.sol\":2230:2243  Math.max(x,y) */\n      mload(0x40)\n      dup4\n      0xffffffff\n      and\n      0xe0\n      shl\n      dup2\n      mstore\n      0x04\n      add\n      tag_65\n      swap3\n      swap2\n      swap1\n      tag_45\n      jump\t// in\n    tag_65:\n      0x20\n      mload(0x40)\n      dup1\n      dup4\n      sub\n      dup2\n      dup7\n      gas\n      delegatecall\n      iszero\n      dup1\n      iszero\n      tag_67\n      jumpi\n      returndatasize\n      0x00\n      dup1\n      returndatacopy\n      revert(0x00, returndatasize)\n    tag_67:\n      pop\n      pop\n      pop\n      pop\n      mload(0x40)\n      returndatasize\n      not(0x1f)\n      0x1f\n      dup3\n      add\n      and\n      dup3\n      add\n      dup1\n      0x40\n      mstore\n      pop\n      dup2\n      add\n      swap1\n      tag_68\n      swap2\n      swap1\n      tag_42\n      jump\t// in\n    tag_68:\n        /* \"Library/Library.sol\":2223:2243  return Math.max(x,y) */\n      swap1\n      pop\n        /* \"Library/Library.sol\":2156:2252  function trial5(uint x,uint y) public pure returns(uint){... */\n      swap3\n      swap2\n      pop\n      pop\n      jump\t// out\n        /* \"#utility.yul\":7:82   */\n    tag_69:\n        /* \"#utility.yul\":40:46   */\n      0x00\n        /* \"#utility.yul\":73:75   */\n      0x40\n        /* \"#utility.yul\":67:76   */\n      mload\n        /* \"#utility.yul\":57:76   */\n      swap1\n      pop\n        /* \"#utility.yul\":7:82   */\n      swap1\n      jump\t// out\n        /* \"#utility.yul\":88:205   */\n    tag_70:\n        /* \"#utility.yul\":197:198   */\n      0x00\n        /* \"#utility.yul\":194:195   */\n      dup1\n        /* \"#utility.yul\":187:199   */\n      revert\n        /* \"#utility.yul\":211:328   */\n    tag_71:\n        /* \"#utility.yul\":320:321   */\n      0x00\n        /* \"#utility.yul\":317:318   */\n      dup1\n        /* \"#utility.yul\":310:322   */\n      revert\n        /* \"#utility.yul\":334:451   */\n    tag_72:\n        /* \"#utility.yul\":443:444   */\n      0x00\n        /* \"#utility.yul\":440:441   */\n      dup1\n        /* \"#utility.yul\":433:445   */\n      revert\n        /* \"#utility.yul\":457:559   */\n    tag_73:\n        /* \"#utility.yul\":498:504   */\n      0x00\n        /* \"#utility.yul\":549:551   */\n      0x1f\n        /* \"#utility.yul\":545:552   */\n      not\n        /* \"#utility.yul\":540:542   */\n      0x1f\n        /* \"#utility.yul\":533:538   */\n      dup4\n        /* \"#utility.yul\":529:543   */\n      add\n        /* \"#utility.yul\":525:553   */\n      and\n        /* \"#utility.yul\":515:553   */\n      swap1\n      pop\n        /* \"#utility.yul\":457:559   */\n      swap2\n      swap1\n      pop\n      jump\t// out\n        /* \"#utility.yul\":565:745   */\n    tag_74:\n        /* \"#utility.yul\":613:690   */\n      0x4e487b7100000000000000000000000000000000000000000000000000000000\n        /* \"#utility.yul\":610:611   */\n      0x00\n        /* \"#utility.yul\":603:691   */\n      mstore\n        /* \"#utility.yul\":710:714   */\n      0x41\n        /* \"#utility.yul\":707:708   */\n      0x04\n        /* \"#utility.yul\":700:715   */\n      mstore\n        /* \"#utility.yul\":734:738   */\n      0x24\n        /* \"#utility.yul\":731:732   */\n      0x00\n        /* \"#utility.yul\":724:739   */\n      revert\n        /* \"#utility.yul\":751:1032   */\n    tag_75:\n        /* \"#utility.yul\":834:861   */\n      tag_102\n        /* \"#utility.yul\":856:860   */\n      dup3\n        /* \"#utility.yul\":834:861   */\n      tag_73\n      jump\t// in\n    tag_102:\n        /* \"#utility.yul\":826:832   */\n      dup2\n        /* \"#utility.yul\":822:862   */\n      add\n        /* \"#utility.yul\":964:970   */\n      dup2\n        /* \"#utility.yul\":952:962   */\n      dup2\n        /* \"#utility.yul\":949:971   */\n      lt\n        /* \"#utility.yul\":928:946   */\n      0xffffffffffffffff\n        /* \"#utility.yul\":916:926   */\n      dup3\n        /* \"#utility.yul\":913:947   */\n      gt\n        /* \"#utility.yul\":910:972   */\n      or\n        /* \"#utility.yul\":907:995   */\n      iszero\n      tag_103\n      jumpi\n        /* \"#utility.yul\":975:993   */\n      tag_104\n      tag_74\n      jump\t// in\n    tag_104:\n        /* \"#utility.yul\":907:995   */\n    tag_103:\n        /* \"#utility.yul\":1015:1025   */\n      dup1\n        /* \"#utility.yul\":1011:1013   */\n      0x40\n        /* \"#utility.yul\":1004:1026   */\n      mstore\n        /* \"#utility.yul\":794:1032   */\n      pop\n        /* \"#utility.yul\":751:1032   */\n      pop\n      pop\n      jump\t// out\n        /* \"#utility.yul\":1038:1167   */\n    tag_76:\n        /* \"#utility.yul\":1072:1078   */\n      0x00\n        /* \"#utility.yul\":1099:1119   */\n      tag_106\n      tag_69\n      jump\t// in\n    tag_106:\n        /* \"#utility.yul\":1089:1119   */\n      swap1\n      pop\n        /* \"#utility.yul\":1128:1161   */\n      tag_107\n        /* \"#utility.yul\":1156:1160   */\n      dup3\n        /* \"#utility.yul\":1148:1154   */\n      dup3\n        /* \"#utility.yul\":1128:1161   */\n      tag_75\n      jump\t// in\n    tag_107:\n        /* \"#utility.yul\":1038:1167   */\n      swap2\n      swap1\n      pop\n      jump\t// out\n        /* \"#utility.yul\":1173:1484   */\n    tag_77:\n        /* \"#utility.yul\":1250:1254   */\n      0x00\n        /* \"#utility.yul\":1340:1358   */\n      0xffffffffffffffff\n        /* \"#utility.yul\":1332:1338   */\n      dup3\n        /* \"#utility.yul\":1329:1359   */\n      gt\n        /* \"#utility.yul\":1326:1382   */\n      iszero\n      tag_109\n      jumpi\n        /* \"#utility.yul\":1362:1380   */\n      tag_110\n      tag_74\n      jump\t// in\n    tag_110:\n        /* \"#utility.yul\":1326:1382   */\n    tag_109:\n        /* \"#utility.yul\":1412:1416   */\n      0x20\n        /* \"#utility.yul\":1404:1410   */\n      dup3\n        /* \"#utility.yul\":1400:1417   */\n      mul\n        /* \"#utility.yul\":1392:1417   */\n      swap1\n      pop\n        /* \"#utility.yul\":1472:1476   */\n      0x20\n        /* \"#utility.yul\":1466:1470   */\n      dup2\n        /* \"#utility.yul\":1462:1477   */\n      add\n        /* \"#utility.yul\":1454:1477   */\n      swap1\n      pop\n        /* \"#utility.yul\":1173:1484   */\n      swap2\n      swap1\n      pop\n      jump\t// out\n        /* \"#utility.yul\":1490:1607   */\n    tag_78:\n        /* \"#utility.yul\":1599:1600   */\n      0x00\n        /* \"#utility.yul\":1596:1597   */\n      dup1\n        /* \"#utility.yul\":1589:1601   */\n      revert\n        /* \"#utility.yul\":1613:1690   */\n    tag_79:\n        /* \"#utility.yul\":1650:1657   */\n      0x00\n        /* \"#utility.yul\":1679:1684   */\n      dup2\n        /* \"#utility.yul\":1668:1684   */\n      swap1\n      pop\n        /* \"#utility.yul\":1613:1690   */\n      swap2\n      swap1\n      pop\n      jump\t// out\n        /* \"#utility.yul\":1696:1818   */\n    tag_80:\n        /* \"#utility.yul\":1769:1793   */\n      tag_114\n        /* \"#utility.yul\":1787:1792   */\n      dup2\n        /* \"#utility.yul\":1769:1793   */\n      tag_79\n      jump\t// in\n    tag_114:\n        /* \"#utility.yul\":1762:1767   */\n      dup2\n        /* \"#utility.yul\":1759:1794   */\n      eq\n        /* \"#utility.yul\":1749:1812   */\n      tag_115\n      jumpi\n        /* \"#utility.yul\":1808:1809   */\n      0x00\n        /* \"#utility.yul\":1805:1806   */\n      dup1\n        /* \"#utility.yul\":1798:1810   */\n      revert\n        /* \"#utility.yul\":1749:1812   */\n    tag_115:\n        /* \"#utility.yul\":1696:1818   */\n      pop\n      jump\t// out\n        /* \"#utility.yul\":1824:1963   */\n    tag_81:\n        /* \"#utility.yul\":1870:1875   */\n      0x00\n        /* \"#utility.yul\":1908:1914   */\n      dup2\n        /* \"#utility.yul\":1895:1915   */\n      calldataload\n        /* \"#utility.yul\":1886:1915   */\n      swap1\n      pop\n        /* \"#utility.yul\":1924:1957   */\n      tag_117\n        /* \"#utility.yul\":1951:1956   */\n      dup2\n        /* \"#utility.yul\":1924:1957   */\n      tag_80\n      jump\t// in\n    tag_117:\n        /* \"#utility.yul\":1824:1963   */\n      swap3\n      swap2\n      pop\n      pop\n      jump\t// out\n        /* \"#utility.yul\":1986:2696   */\n    tag_82:\n        /* \"#utility.yul\":2082:2087   */\n      0x00\n        /* \"#utility.yul\":2107:2188   */\n      tag_119\n        /* \"#utility.yul\":2123:2187   */\n      tag_120\n        /* \"#utility.yul\":2180:2186   */\n      dup5\n        /* \"#utility.yul\":2123:2187   */\n      tag_77\n      jump\t// in\n    tag_120:\n        /* \"#utility.yul\":2107:2188   */\n      tag_76\n      jump\t// in\n    tag_119:\n        /* \"#utility.yul\":2098:2188   */\n      swap1\n      pop\n        /* \"#utility.yul\":2208:2213   */\n      dup1\n        /* \"#utility.yul\":2237:2243   */\n      dup4\n        /* \"#utility.yul\":2230:2235   */\n      dup3\n        /* \"#utility.yul\":2223:2244   */\n      mstore\n        /* \"#utility.yul\":2271:2275   */\n      0x20\n        /* \"#utility.yul\":2264:2269   */\n      dup3\n        /* \"#utility.yul\":2260:2276   */\n      add\n        /* \"#utility.yul\":2253:2276   */\n      swap1\n      pop\n        /* \"#utility.yul\":2324:2328   */\n      0x20\n        /* \"#utility.yul\":2316:2322   */\n      dup5\n        /* \"#utility.yul\":2312:2329   */\n      mul\n        /* \"#utility.yul\":2304:2310   */\n      dup4\n        /* \"#utility.yul\":2300:2330   */\n      add\n        /* \"#utility.yul\":2353:2356   */\n      dup6\n        /* \"#utility.yul\":2345:2351   */\n      dup2\n        /* \"#utility.yul\":2342:2357   */\n      gt\n        /* \"#utility.yul\":2339:2461   */\n      iszero\n      tag_121\n      jumpi\n        /* \"#utility.yul\":2372:2451   */\n      tag_122\n      tag_78\n      jump\t// in\n    tag_122:\n        /* \"#utility.yul\":2339:2461   */\n    tag_121:\n        /* \"#utility.yul\":2487:2493   */\n      dup4\n        /* \"#utility.yul\":2470:2690   */\n    tag_123:\n        /* \"#utility.yul\":2504:2510   */\n      dup2\n        /* \"#utility.yul\":2499:2502   */\n      dup2\n        /* \"#utility.yul\":2496:2511   */\n      lt\n        /* \"#utility.yul\":2470:2690   */\n      iszero\n      tag_125\n      jumpi\n        /* \"#utility.yul\":2579:2582   */\n      dup1\n        /* \"#utility.yul\":2608:2645   */\n      tag_126\n        /* \"#utility.yul\":2641:2644   */\n      dup9\n        /* \"#utility.yul\":2629:2639   */\n      dup3\n        /* \"#utility.yul\":2608:2645   */\n      tag_81\n      jump\t// in\n    tag_126:\n        /* \"#utility.yul\":2603:2606   */\n      dup5\n        /* \"#utility.yul\":2596:2646   */\n      mstore\n        /* \"#utility.yul\":2675:2679   */\n      0x20\n        /* \"#utility.yul\":2670:2673   */\n      dup5\n        /* \"#utility.yul\":2666:2680   */\n      add\n        /* \"#utility.yul\":2659:2680   */\n      swap4\n      pop\n        /* \"#utility.yul\":2546:2690   */\n      pop\n        /* \"#utility.yul\":2530:2534   */\n      0x20\n        /* \"#utility.yul\":2525:2528   */\n      dup2\n        /* \"#utility.yul\":2521:2535   */\n      add\n        /* \"#utility.yul\":2514:2535   */\n      swap1\n      pop\n        /* \"#utility.yul\":2470:2690   */\n      jump(tag_123)\n    tag_125:\n        /* \"#utility.yul\":2474:2495   */\n      pop\n        /* \"#utility.yul\":2088:2696   */\n      pop\n      pop\n        /* \"#utility.yul\":1986:2696   */\n      swap4\n      swap3\n      pop\n      pop\n      pop\n      jump\t// out\n        /* \"#utility.yul\":2719:3089   */\n    tag_83:\n        /* \"#utility.yul\":2790:2795   */\n      0x00\n        /* \"#utility.yul\":2839:2842   */\n      dup3\n        /* \"#utility.yul\":2832:2836   */\n      0x1f\n        /* \"#utility.yul\":2824:2830   */\n      dup4\n        /* \"#utility.yul\":2820:2837   */\n      add\n        /* \"#utility.yul\":2816:2843   */\n      slt\n        /* \"#utility.yul\":2806:2928   */\n      tag_128\n      jumpi\n        /* \"#utility.yul\":2847:2926   */\n      tag_129\n      tag_72\n      jump\t// in\n    tag_129:\n        /* \"#utility.yul\":2806:2928   */\n    tag_128:\n        /* \"#utility.yul\":2964:2970   */\n      dup2\n        /* \"#utility.yul\":2951:2971   */\n      calldataload\n        /* \"#utility.yul\":2989:3083   */\n      tag_130\n        /* \"#utility.yul\":3079:3082   */\n      dup5\n        /* \"#utility.yul\":3071:3077   */\n      dup3\n        /* \"#utility.yul\":3064:3068   */\n      0x20\n        /* \"#utility.yul\":3056:3062   */\n      dup7\n        /* \"#utility.yul\":3052:3069   */\n      add\n        /* \"#utility.yul\":2989:3083   */\n      tag_82\n      jump\t// in\n    tag_130:\n        /* \"#utility.yul\":2980:3083   */\n      swap2\n      pop\n        /* \"#utility.yul\":2796:3089   */\n      pop\n        /* \"#utility.yul\":2719:3089   */\n      swap3\n      swap2\n      pop\n      pop\n      jump\t// out\n        /* \"#utility.yul\":3095:3779   */\n    tag_11:\n        /* \"#utility.yul\":3188:3194   */\n      0x00\n        /* \"#utility.yul\":3196:3202   */\n      dup1\n        /* \"#utility.yul\":3245:3247   */\n      0x40\n        /* \"#utility.yul\":3233:3242   */\n      dup4\n        /* \"#utility.yul\":3224:3231   */\n      dup6\n        /* \"#utility.yul\":3220:3243   */\n      sub\n        /* \"#utility.yul\":3216:3248   */\n      slt\n        /* \"#utility.yul\":3213:3332   */\n      iszero\n      tag_132\n      jumpi\n        /* \"#utility.yul\":3251:3330   */\n      tag_133\n      tag_70\n      jump\t// in\n    tag_133:\n        /* \"#utility.yul\":3213:3332   */\n    tag_132:\n        /* \"#utility.yul\":3399:3400   */\n      0x00\n        /* \"#utility.yul\":3388:3397   */\n      dup4\n        /* \"#utility.yul\":3384:3401   */\n      add\n        /* \"#utility.yul\":3371:3402   */\n      calldataload\n        /* \"#utility.yul\":3429:3447   */\n      0xffffffffffffffff\n        /* \"#utility.yul\":3421:3427   */\n      dup2\n        /* \"#utility.yul\":3418:3448   */\n      gt\n        /* \"#utility.yul\":3415:3532   */\n      iszero\n      tag_134\n      jumpi\n        /* \"#utility.yul\":3451:3530   */\n      tag_135\n      tag_71\n      jump\t// in\n    tag_135:\n        /* \"#utility.yul\":3415:3532   */\n    tag_134:\n        /* \"#utility.yul\":3556:3634   */\n      tag_136\n        /* \"#utility.yul\":3626:3633   */\n      dup6\n        /* \"#utility.yul\":3617:3623   */\n      dup3\n        /* \"#utility.yul\":3606:3615   */\n      dup7\n        /* \"#utility.yul\":3602:3624   */\n      add\n        /* \"#utility.yul\":3556:3634   */\n      tag_83\n      jump\t// in\n    tag_136:\n        /* \"#utility.yul\":3546:3634   */\n      swap3\n      pop\n        /* \"#utility.yul\":3342:3644   */\n      pop\n        /* \"#utility.yul\":3683:3685   */\n      0x20\n        /* \"#utility.yul\":3709:3762   */\n      tag_137\n        /* \"#utility.yul\":3754:3761   */\n      dup6\n        /* \"#utility.yul\":3745:3751   */\n      dup3\n        /* \"#utility.yul\":3734:3743   */\n      dup7\n        /* \"#utility.yul\":3730:3752   */\n      add\n        /* \"#utility.yul\":3709:3762   */\n      tag_81\n      jump\t// in\n    tag_137:\n        /* \"#utility.yul\":3699:3762   */\n      swap2\n      pop\n        /* \"#utility.yul\":3654:3772   */\n      pop\n        /* \"#utility.yul\":3095:3779   */\n      swap3\n      pop\n      swap3\n      swap1\n      pop\n      jump\t// out\n        /* \"#utility.yul\":3785:3903   */\n    tag_84:\n        /* \"#utility.yul\":3872:3896   */\n      tag_139\n        /* \"#utility.yul\":3890:3895   */\n      dup2\n        /* \"#utility.yul\":3872:3896   */\n      tag_79\n      jump\t// in\n    tag_139:\n        /* \"#utility.yul\":3867:3870   */\n      dup3\n        /* \"#utility.yul\":3860:3897   */\n      mstore\n        /* \"#utility.yul\":3785:3903   */\n      pop\n      pop\n      jump\t// out\n        /* \"#utility.yul\":3909:4131   */\n    tag_14:\n        /* \"#utility.yul\":4002:4006   */\n      0x00\n        /* \"#utility.yul\":4040:4042   */\n      0x20\n        /* \"#utility.yul\":4029:4038   */\n      dup3\n        /* \"#utility.yul\":4025:4043   */\n      add\n        /* \"#utility.yul\":4017:4043   */\n      swap1\n      pop\n        /* \"#utility.yul\":4053:4124   */\n      tag_141\n        /* \"#utility.yul\":4121:4122   */\n      0x00\n        /* \"#utility.yul\":4110:4119   */\n      dup4\n        /* \"#utility.yul\":4106:4123   */\n      add\n        /* \"#utility.yul\":4097:4103   */\n      dup5\n        /* \"#utility.yul\":4053:4124   */\n      tag_84\n      jump\t// in\n    tag_141:\n        /* \"#utility.yul\":3909:4131   */\n      swap3\n      swap2\n      pop\n      pop\n      jump\t// out\n        /* \"#utility.yul\":4137:4611   */\n    tag_17:\n        /* \"#utility.yul\":4205:4211   */\n      0x00\n        /* \"#utility.yul\":4213:4219   */\n      dup1\n        /* \"#utility.yul\":4262:4264   */\n      0x40\n        /* \"#utility.yul\":4250:4259   */\n      dup4\n        /* \"#utility.yul\":4241:4248   */\n      dup6\n        /* \"#utility.yul\":4237:4260   */\n      sub\n        /* \"#utility.yul\":4233:4265   */\n      slt\n        /* \"#utility.yul\":4230:4349   */\n      iszero\n      tag_143\n      jumpi\n        /* \"#utility.yul\":4268:4347   */\n      tag_144\n      tag_70\n      jump\t// in\n    tag_144:\n        /* \"#utility.yul\":4230:4349   */\n    tag_143:\n        /* \"#utility.yul\":4388:4389   */\n      0x00\n        /* \"#utility.yul\":4413:4466   */\n      tag_145\n        /* \"#utility.yul\":4458:4465   */\n      dup6\n        /* \"#utility.yul\":4449:4455   */\n      dup3\n        /* \"#utility.yul\":4438:4447   */\n      dup7\n        /* \"#utility.yul\":4434:4456   */\n      add\n        /* \"#utility.yul\":4413:4466   */\n      tag_81\n      jump\t// in\n    tag_145:\n        /* \"#utility.yul\":4403:4466   */\n      swap3\n      pop\n        /* \"#utility.yul\":4359:4476   */\n      pop\n        /* \"#utility.yul\":4515:4517   */\n      0x20\n        /* \"#utility.yul\":4541:4594   */\n      tag_146\n        /* \"#utility.yul\":4586:4593   */\n      dup6\n        /* \"#utility.yul\":4577:4583   */\n      dup3\n        /* \"#utility.yul\":4566:4575   */\n      dup7\n        /* \"#utility.yul\":4562:4584   */\n      add\n        /* \"#utility.yul\":4541:4594   */\n      tag_81\n      jump\t// in\n    tag_146:\n        /* \"#utility.yul\":4531:4594   */\n      swap2\n      pop\n        /* \"#utility.yul\":4486:4604   */\n      pop\n        /* \"#utility.yul\":4137:4611   */\n      swap3\n      pop\n      swap3\n      swap1\n      pop\n      jump\t// out\n        /* \"#utility.yul\":4617:4731   */\n    tag_85:\n        /* \"#utility.yul\":4684:4690   */\n      0x00\n        /* \"#utility.yul\":4718:4723   */\n      dup2\n        /* \"#utility.yul\":4712:4724   */\n      mload\n        /* \"#utility.yul\":4702:4724   */\n      swap1\n      pop\n        /* \"#utility.yul\":4617:4731   */\n      swap2\n      swap1\n      pop\n      jump\t// out\n        /* \"#utility.yul\":4737:4929   */\n    tag_86:\n        /* \"#utility.yul\":4844:4855   */\n      0x00\n        /* \"#utility.yul\":4878:4884   */\n      dup3\n        /* \"#utility.yul\":4873:4876   */\n      dup3\n        /* \"#utility.yul\":4866:4885   */\n      mstore\n        /* \"#utility.yul\":4918:4922   */\n      0x20\n        /* \"#utility.yul\":4913:4916   */\n      dup3\n        /* \"#utility.yul\":4909:4923   */\n      add\n        /* \"#utility.yul\":4894:4923   */\n      swap1\n      pop\n        /* \"#utility.yul\":4737:4929   */\n      swap3\n      swap2\n      pop\n      pop\n      jump\t// out\n        /* \"#utility.yul\":4935:5067   */\n    tag_87:\n        /* \"#utility.yul\":5002:5006   */\n      0x00\n        /* \"#utility.yul\":5025:5028   */\n      dup2\n        /* \"#utility.yul\":5017:5028   */\n      swap1\n      pop\n        /* \"#utility.yul\":5055:5059   */\n      0x20\n        /* \"#utility.yul\":5050:5053   */\n      dup3\n        /* \"#utility.yul\":5046:5060   */\n      add\n        /* \"#utility.yul\":5038:5060   */\n      swap1\n      pop\n        /* \"#utility.yul\":4935:5067   */\n      swap2\n      swap1\n      pop\n      jump\t// out\n        /* \"#utility.yul\":5073:5189   */\n    tag_88:\n        /* \"#utility.yul\":5158:5182   */\n      tag_151\n        /* \"#utility.yul\":5176:5181   */\n      dup2\n        /* \"#utility.yul\":5158:5182   */\n      tag_79\n      jump\t// in\n    tag_151:\n        /* \"#utility.yul\":5153:5156   */\n      dup3\n        /* \"#utility.yul\":5146:5183   */\n      mstore\n        /* \"#utility.yul\":5073:5189   */\n      pop\n      pop\n      jump\t// out\n        /* \"#utility.yul\":5195:5390   */\n    tag_89:\n        /* \"#utility.yul\":5272:5282   */\n      0x00\n        /* \"#utility.yul\":5293:5347   */\n      tag_153\n        /* \"#utility.yul\":5343:5346   */\n      dup4\n        /* \"#utility.yul\":5335:5341   */\n      dup4\n        /* \"#utility.yul\":5293:5347   */\n      tag_88\n      jump\t// in\n    tag_153:\n        /* \"#utility.yul\":5379:5383   */\n      0x20\n        /* \"#utility.yul\":5374:5377   */\n      dup4\n        /* \"#utility.yul\":5370:5384   */\n      add\n        /* \"#utility.yul\":5356:5384   */\n      swap1\n      pop\n        /* \"#utility.yul\":5195:5390   */\n      swap3\n      swap2\n      pop\n      pop\n      jump\t// out\n        /* \"#utility.yul\":5396:5509   */\n    tag_90:\n        /* \"#utility.yul\":5466:5470   */\n      0x00\n        /* \"#utility.yul\":5498:5502   */\n      0x20\n        /* \"#utility.yul\":5493:5496   */\n      dup3\n        /* \"#utility.yul\":5489:5503   */\n      add\n        /* \"#utility.yul\":5481:5503   */\n      swap1\n      pop\n        /* \"#utility.yul\":5396:5509   */\n      swap2\n      swap1\n      pop\n      jump\t// out\n        /* \"#utility.yul\":5545:6301   */\n    tag_91:\n        /* \"#utility.yul\":5672:5675   */\n      0x00\n        /* \"#utility.yul\":5701:5755   */\n      tag_156\n        /* \"#utility.yul\":5749:5754   */\n      dup3\n        /* \"#utility.yul\":5701:5755   */\n      tag_85\n      jump\t// in\n    tag_156:\n        /* \"#utility.yul\":5771:5865   */\n      tag_157\n        /* \"#utility.yul\":5858:5864   */\n      dup2\n        /* \"#utility.yul\":5853:5856   */\n      dup6\n        /* \"#utility.yul\":5771:5865   */\n      tag_86\n      jump\t// in\n    tag_157:\n        /* \"#utility.yul\":5764:5865   */\n      swap4\n      pop\n        /* \"#utility.yul\":5889:5945   */\n      tag_158\n        /* \"#utility.yul\":5939:5944   */\n      dup4\n        /* \"#utility.yul\":5889:5945   */\n      tag_87\n      jump\t// in\n    tag_158:\n        /* \"#utility.yul\":5968:5975   */\n      dup1\n        /* \"#utility.yul\":5999:6000   */\n      0x00\n        /* \"#utility.yul\":5984:6276   */\n    tag_159:\n        /* \"#utility.yul\":6009:6015   */\n      dup4\n        /* \"#utility.yul\":6006:6007   */\n      dup2\n        /* \"#utility.yul\":6003:6016   */\n      lt\n        /* \"#utility.yul\":5984:6276   */\n      iszero\n      tag_161\n      jumpi\n        /* \"#utility.yul\":6085:6091   */\n      dup2\n        /* \"#utility.yul\":6079:6092   */\n      mload\n        /* \"#utility.yul\":6112:6183   */\n      tag_162\n        /* \"#utility.yul\":6179:6182   */\n      dup9\n        /* \"#utility.yul\":6164:6177   */\n      dup3\n        /* \"#utility.yul\":6112:6183   */\n      tag_89\n      jump\t// in\n    tag_162:\n        /* \"#utility.yul\":6105:6183   */\n      swap8\n      pop\n        /* \"#utility.yul\":6206:6266   */\n      tag_163\n        /* \"#utility.yul\":6259:6265   */\n      dup4\n        /* \"#utility.yul\":6206:6266   */\n      tag_90\n      jump\t// in\n    tag_163:\n        /* \"#utility.yul\":6196:6266   */\n      swap3\n      pop\n        /* \"#utility.yul\":6044:6276   */\n      pop\n        /* \"#utility.yul\":6031:6032   */\n      0x01\n        /* \"#utility.yul\":6028:6029   */\n      dup2\n        /* \"#utility.yul\":6024:6033   */\n      add\n        /* \"#utility.yul\":6019:6033   */\n      swap1\n      pop\n        /* \"#utility.yul\":5984:6276   */\n      jump(tag_159)\n    tag_161:\n        /* \"#utility.yul\":5988:6002   */\n      pop\n        /* \"#utility.yul\":6292:6295   */\n      dup6\n        /* \"#utility.yul\":6285:6295   */\n      swap4\n      pop\n        /* \"#utility.yul\":5677:6301   */\n      pop\n      pop\n      pop\n        /* \"#utility.yul\":5545:6301   */\n      swap3\n      swap2\n      pop\n      pop\n      jump\t// out\n        /* \"#utility.yul\":6307:6433   */\n    tag_92:\n        /* \"#utility.yul\":6402:6426   */\n      tag_165\n        /* \"#utility.yul\":6420:6425   */\n      dup2\n        /* \"#utility.yul\":6402:6426   */\n      tag_79\n      jump\t// in\n    tag_165:\n        /* \"#utility.yul\":6397:6400   */\n      dup3\n        /* \"#utility.yul\":6390:6427   */\n      mstore\n        /* \"#utility.yul\":6307:6433   */\n      pop\n      pop\n      jump\t// out\n        /* \"#utility.yul\":6439:6946   */\n    tag_38:\n        /* \"#utility.yul\":6618:6622   */\n      0x00\n        /* \"#utility.yul\":6656:6658   */\n      0x40\n        /* \"#utility.yul\":6645:6654   */\n      dup3\n        /* \"#utility.yul\":6641:6659   */\n      add\n        /* \"#utility.yul\":6633:6659   */\n      swap1\n      pop\n        /* \"#utility.yul\":6705:6714   */\n      dup2\n        /* \"#utility.yul\":6699:6703   */\n      dup2\n        /* \"#utility.yul\":6695:6715   */\n      sub\n        /* \"#utility.yul\":6691:6692   */\n      0x00\n        /* \"#utility.yul\":6680:6689   */\n      dup4\n        /* \"#utility.yul\":6676:6693   */\n      add\n        /* \"#utility.yul\":6669:6716   */\n      mstore\n        /* \"#utility.yul\":6733:6849   */\n      tag_167\n        /* \"#utility.yul\":6844:6848   */\n      dup2\n        /* \"#utility.yul\":6835:6841   */\n      dup6\n        /* \"#utility.yul\":6733:6849   */\n      tag_91\n      jump\t// in\n    tag_167:\n        /* \"#utility.yul\":6725:6849   */\n      swap1\n      pop\n        /* \"#utility.yul\":6859:6939   */\n      tag_168\n        /* \"#utility.yul\":6935:6937   */\n      0x20\n        /* \"#utility.yul\":6924:6933   */\n      dup4\n        /* \"#utility.yul\":6920:6938   */\n      add\n        /* \"#utility.yul\":6911:6917   */\n      dup5\n        /* \"#utility.yul\":6859:6939   */\n      tag_92\n      jump\t// in\n    tag_168:\n        /* \"#utility.yul\":6439:6946   */\n      swap4\n      swap3\n      pop\n      pop\n      pop\n      jump\t// out\n        /* \"#utility.yul\":6952:7095   */\n    tag_93:\n        /* \"#utility.yul\":7009:7014   */\n      0x00\n        /* \"#utility.yul\":7040:7046   */\n      dup2\n        /* \"#utility.yul\":7034:7047   */\n      mload\n        /* \"#utility.yul\":7025:7047   */\n      swap1\n      pop\n        /* \"#utility.yul\":7056:7089   */\n      tag_170\n        /* \"#utility.yul\":7083:7088   */\n      dup2\n        /* \"#utility.yul\":7056:7089   */\n      tag_80\n      jump\t// in\n    tag_170:\n        /* \"#utility.yul\":6952:7095   */\n      swap3\n      swap2\n      pop\n      pop\n      jump\t// out\n        /* \"#utility.yul\":7101:7452   */\n    tag_42:\n        /* \"#utility.yul\":7171:7177   */\n      0x00\n        /* \"#utility.yul\":7220:7222   */\n      0x20\n        /* \"#utility.yul\":7208:7217   */\n      dup3\n        /* \"#utility.yul\":7199:7206   */\n      dup5\n        /* \"#utility.yul\":7195:7218   */\n      sub\n        /* \"#utility.yul\":7191:7223   */\n      slt\n        /* \"#utility.yul\":7188:7307   */\n      iszero\n      tag_172\n      jumpi\n        /* \"#utility.yul\":7226:7305   */\n      tag_173\n      tag_70\n      jump\t// in\n    tag_173:\n        /* \"#utility.yul\":7188:7307   */\n    tag_172:\n        /* \"#utility.yul\":7346:7347   */\n      0x00\n        /* \"#utility.yul\":7371:7435   */\n      tag_174\n        /* \"#utility.yul\":7427:7434   */\n      dup5\n        /* \"#utility.yul\":7418:7424   */\n      dup3\n        /* \"#utility.yul\":7407:7416   */\n      dup6\n        /* \"#utility.yul\":7403:7425   */\n      add\n        /* \"#utility.yul\":7371:7435   */\n      tag_93\n      jump\t// in\n    tag_174:\n        /* \"#utility.yul\":7361:7435   */\n      swap2\n      pop\n        /* \"#utility.yul\":7317:7445   */\n      pop\n        /* \"#utility.yul\":7101:7452   */\n      swap3\n      swap2\n      pop\n      pop\n      jump\t// out\n        /* \"#utility.yul\":7458:7814   */\n    tag_45:\n        /* \"#utility.yul\":7587:7591   */\n      0x00\n        /* \"#utility.yul\":7625:7627   */\n      0x40\n        /* \"#utility.yul\":7614:7623   */\n      dup3\n        /* \"#utility.yul\":7610:7628   */\n      add\n        /* \"#utility.yul\":7602:7628   */\n      swap1\n      pop\n        /* \"#utility.yul\":7638:7717   */\n      tag_176\n        /* \"#utility.yul\":7714:7715   */\n      0x00\n        /* \"#utility.yul\":7703:7712   */\n      dup4\n        /* \"#utility.yul\":7699:7716   */\n      add\n        /* \"#utility.yul\":7690:7696   */\n      dup6\n        /* \"#utility.yul\":7638:7717   */\n      tag_92\n      jump\t// in\n    tag_176:\n        /* \"#utility.yul\":7727:7807   */\n      tag_177\n        /* \"#utility.yul\":7803:7805   */\n      0x20\n        /* \"#utility.yul\":7792:7801   */\n      dup4\n        /* \"#utility.yul\":7788:7806   */\n      add\n        /* \"#utility.yul\":7779:7785   */\n      dup5\n        /* \"#utility.yul\":7727:7807   */\n      tag_92\n      jump\t// in\n    tag_177:\n        /* \"#utility.yul\":7458:7814   */\n      swap4\n      swap3\n      pop\n      pop\n      pop\n      jump\t// out\n\n    auxdata: 0xa2646970667358221220ee3299d624c9c2ce41996c4805251346df60fde2d62caaf85ce69a6fca269c5364736f6c63430008120033\n}\n",
				"bytecode": {
					"linkReferences": {
						"Library/Library.sol": {
							"Math": [
								{
									"length": 20,
									"start": 561
								},
								{
									"length": 20,
									"start": 693
								},
								{
									"length": 20,
									"start": 825
								},
								{
									"length": 20,
									"start": 957
								},
								{
									"length": 20,
									"start": 1089
								}
							],
							"Search": [
								{
									"length": 20,
									"start": 428
								}
							]
						}
					},
					"object": "608060405234801561001057600080fd5b506108a8806100206000396000f3fe608060405234801561001057600080fd5b50600436106100625760003560e01c80633d80de1a1461006757806354b503b4146100975780639aa2005f146100c7578063df6b93ec146100f7578063e72e4d4914610127578063f34b178d14610157575b600080fd5b610081600480360381019061007c9190610644565b610187565b60405161008e91906106af565b60405180910390f35b6100b160048036038101906100ac91906106ca565b61020d565b6040516100be91906106af565b60405180910390f35b6100e160048036038101906100dc91906106ca565b610291565b6040516100ee91906106af565b60405180910390f35b610111600480360381019061010c91906106ca565b610315565b60405161011e91906106af565b60405180910390f35b610141600480360381019061013c91906106ca565b610399565b60405161014e91906106af565b60405180910390f35b610171600480360381019061016c91906106ca565b61041d565b60405161017e91906106af565b60405180910390f35b60008273__$cf3df3d9b3837f7f5167794abe1efa3212$__636457237b9091846040518363ffffffff1660e01b81526004016101c49291906107d7565b602060405180830381865af41580156101e1573d6000803e3d6000fd5b505050506040513d601f19601f82011682018060405250810190610205919061081c565b905092915050565b600073__$c91ff267375e64e7608124233cda233b3a$__635171762c84846040518363ffffffff1660e01b8152600401610248929190610849565b602060405180830381865af4158015610265573d6000803e3d6000fd5b505050506040513d601f19601f82011682018060405250810190610289919061081c565b905092915050565b600073__$c91ff267375e64e7608124233cda233b3a$__63f4f3bdc184846040518363ffffffff1660e01b81526004016102cc929190610849565b602060405180830381865af41580156102e9573d6000803e3d6000fd5b505050506040513d601f19601f8201168201806040525081019061030d919061081c565b905092915050565b600073__$c91ff267375e64e7608124233cda233b3a$__637ae2b5c784846040518363ffffffff1660e01b8152600401610350929190610849565b602060405180830381865af415801561036d573d6000803e3d6000fd5b505050506040513d601f19601f82011682018060405250810190610391919061081c565b905092915050565b600073__$c91ff267375e64e7608124233cda233b3a$__63f88e9fbf84846040518363ffffffff1660e01b81526004016103d4929190610849565b602060405180830381865af41580156103f1573d6000803e3d6000fd5b505050506040513d601f19601f82011682018060405250810190610415919061081c565b905092915050565b600073__$c91ff267375e64e7608124233cda233b3a$__636d5433e684846040518363ffffffff1660e01b8152600401610458929190610849565b602060405180830381865af4158015610475573d6000803e3d6000fd5b505050506040513d601f19601f82011682018060405250810190610499919061081c565b905092915050565b6000604051905090565b600080fd5b600080fd5b600080fd5b6000601f19601f8301169050919050565b7f4e487b7100000000000000000000000000000000000000000000000000000000600052604160045260246000fd5b610503826104ba565b810181811067ffffffffffffffff82111715610522576105216104cb565b5b80604052505050565b60006105356104a1565b905061054182826104fa565b919050565b600067ffffffffffffffff821115610561576105606104cb565b5b602082029050602081019050919050565b600080fd5b6000819050919050565b61058a81610577565b811461059557600080fd5b50565b6000813590506105a781610581565b92915050565b60006105c06105bb84610546565b61052b565b905080838252602082019050602084028301858111156105e3576105e2610572565b5b835b8181101561060c57806105f88882610598565b8452602084019350506020810190506105e5565b5050509392505050565b600082601f83011261062b5761062a6104b5565b5b813561063b8482602086016105ad565b91505092915050565b6000806040838503121561065b5761065a6104ab565b5b600083013567ffffffffffffffff811115610679576106786104b0565b5b61068585828601610616565b925050602061069685828601610598565b9150509250929050565b6106a981610577565b82525050565b60006020820190506106c460008301846106a0565b92915050565b600080604083850312156106e1576106e06104ab565b5b60006106ef85828601610598565b925050602061070085828601610598565b9150509250929050565b600081519050919050565b600082825260208201905092915050565b6000819050602082019050919050565b61073f81610577565b82525050565b60006107518383610736565b60208301905092915050565b6000602082019050919050565b60006107758261070a565b61077f8185610715565b935061078a83610726565b8060005b838110156107bb5781516107a28882610745565b97506107ad8361075d565b92505060018101905061078e565b5085935050505092915050565b6107d181610577565b82525050565b600060408201905081810360008301526107f1818561076a565b905061080060208301846107c8565b9392505050565b60008151905061081681610581565b92915050565b600060208284031215610832576108316104ab565b5b600061084084828501610807565b91505092915050565b600060408201905061085e60008301856107c8565b61086b60208301846107c8565b939250505056fea2646970667358221220ee3299d624c9c2ce41996c4805251346df60fde2d62caaf85ce69a6fca269c5364736f6c63430008120033",
					"opcodes": "PUSH1 0x80 PUSH1 0x40 MSTORE CALLVALUE DUP1 ISZERO PUSH2 0x10 JUMPI PUSH1 0x0 DUP1 REVERT JUMPDEST POP PUSH2 0x8A8 DUP1 PUSH2 0x20 PUSH1 0x0 CODECOPY PUSH1 0x0 RETURN INVALID PUSH1 0x80 PUSH1 0x40 MSTORE CALLVALUE DUP1 ISZERO PUSH2 0x10 JUMPI PUSH1 0x0 DUP1 REVERT JUMPDEST POP PUSH1 0x4 CALLDATASIZE LT PUSH2 0x62 JUMPI PUSH1 0x0 CALLDATALOAD PUSH1 0xE0 SHR DUP1 PUSH4 0x3D80DE1A EQ PUSH2 0x67 JUMPI DUP1 PUSH4 0x54B503B4 EQ PUSH2 0x97 JUMPI DUP1 PUSH4 0x9AA2005F EQ PUSH2 0xC7 JUMPI DUP1 PUSH4 0xDF6B93EC EQ PUSH2 0xF7 JUMPI DUP1 PUSH4 0xE72E4D49 EQ PUSH2 0x127 JUMPI DUP1 PUSH4 0xF34B178D EQ PUSH2 0x157 JUMPI JUMPDEST PUSH1 0x0 DUP1 REVERT JUMPDEST PUSH2 0x81 PUSH1 0x4 DUP1 CALLDATASIZE SUB DUP2 ADD SWAP1 PUSH2 0x7C SWAP2 SWAP1 PUSH2 0x644 JUMP JUMPDEST PUSH2 0x187 JUMP JUMPDEST PUSH1 0x40 MLOAD PUSH2 0x8E SWAP2 SWAP1 PUSH2 0x6AF JUMP JUMPDEST PUSH1 0x40 MLOAD DUP1 SWAP2 SUB SWAP1 RETURN JUMPDEST PUSH2 0xB1 PUSH1 0x4 DUP1 CALLDATASIZE SUB DUP2 ADD SWAP1 PUSH2 0xAC SWAP2 SWAP1 PUSH2 0x6CA JUMP JUMPDEST PUSH2 0x20D JUMP JUMPDEST PUSH1 0x40 MLOAD PUSH2 0xBE SWAP2 SWAP1 PUSH2 0x6AF JUMP JUMPDEST PUSH1 0x40 MLOAD DUP1 SWAP2 SUB SWAP1 RETURN JUMPDEST PUSH2 0xE1 PUSH1 0x4 DUP1 CALLDATASIZE SUB DUP2 ADD SWAP1 PUSH2 0xDC SWAP2 SWAP1 PUSH2 0x6CA JUMP JUMPDEST PUSH2 0x291 JUMP JUMPDEST PUSH1 0x40 MLOAD PUSH2 0xEE SWAP2 SWAP1 PUSH2 0x6AF JUMP JUMPDEST PUSH1 0x40 MLOAD DUP1 SWAP2 SUB SWAP1 RETURN JUMPDEST PUSH2 0x111 PUSH1 0x4 DUP1 CALLDATASIZE SUB DUP2 ADD SWAP1 PUSH2 0x10C SWAP2 SWAP1 PUSH2 0x6CA JUMP JUMPDEST PUSH2 0x315 JUMP JUMPDEST PUSH1 0x40 MLOAD PUSH2 0x11E SWAP2 SWAP1 PUSH2 0x6AF JUMP JUMPDEST PUSH1 0x40 MLOAD DUP1 SWAP2 SUB SWAP1 RETURN JUMPDEST PUSH2 0x141 PUSH1 0x4 DUP1 CALLDATASIZE SUB DUP2 ADD SWAP1 PUSH2 0x13C SWAP2 SWAP1 PUSH2 0x6CA JUMP JUMPDEST PUSH2 0x399 JUMP JUMPDEST PUSH1 0x40 MLOAD PUSH2 0x14E SWAP2 SWAP1 PUSH2 0x6AF JUMP JUMPDEST PUSH1 0x40 MLOAD DUP1 SWAP2 SUB SWAP1 RETURN JUMPDEST PUSH2 0x171 PUSH1 0x4 DUP1 CALLDATASIZE SUB DUP2 ADD SWAP1 PUSH2 0x16C SWAP2 SWAP1 PUSH2 0x6CA JUMP JUMPDEST PUSH2 0x41D JUMP JUMPDEST PUSH1 0x40 MLOAD PUSH2 0x17E SWAP2 SWAP1 PUSH2 0x6AF JUMP JUMPDEST PUSH1 0x40 MLOAD DUP1 SWAP2 SUB SWAP1 RETURN JUMPDEST PUSH1 0x0 DUP3 PUSH20 0x0 PUSH4 0x6457237B SWAP1 SWAP2 DUP5 PUSH1 0x40 MLOAD DUP4 PUSH4 0xFFFFFFFF AND PUSH1 0xE0 SHL DUP2 MSTORE PUSH1 0x4 ADD PUSH2 0x1C4 SWAP3 SWAP2 SWAP1 PUSH2 0x7D7 JUMP JUMPDEST PUSH1 0x20 PUSH1 0x40 MLOAD DUP1 DUP4 SUB DUP2 DUP7 GAS DELEGATECALL ISZERO DUP1 ISZERO PUSH2 0x1E1 JUMPI RETURNDATASIZE PUSH1 0x0 DUP1 RETURNDATACOPY RETURNDATASIZE PUSH1 0x0 REVERT JUMPDEST POP POP POP POP PUSH1 0x40 MLOAD RETURNDATASIZE PUSH1 0x1F NOT PUSH1 0x1F DUP3 ADD AND DUP3 ADD DUP1 PUSH1 0x40 MSTORE POP DUP2 ADD SWAP1 PUSH2 0x205 SWAP2 SWAP1 PUSH2 0x81C JUMP JUMPDEST SWAP1 POP SWAP3 SWAP2 POP POP JUMP JUMPDEST PUSH1 0x0 PUSH20 0x0 PUSH4 0x5171762C DUP5 DUP5 PUSH1 0x40 MLOAD DUP4 PUSH4 0xFFFFFFFF AND PUSH1 0xE0 SHL DUP2 MSTORE PUSH1 0x4 ADD PUSH2 0x248 SWAP3 SWAP2 SWAP1 PUSH2 0x849 JUMP JUMPDEST PUSH1 0x20 PUSH1 0x40 MLOAD DUP1 DUP4 SUB DUP2 DUP7 GAS DELEGATECALL ISZERO DUP1 ISZERO PUSH2 0x265 JUMPI RETURNDATASIZE PUSH1 0x0 DUP1 RETURNDATACOPY RETURNDATASIZE PUSH1 0x0 REVERT JUMPDEST POP POP POP POP PUSH1 0x40 MLOAD RETURNDATASIZE PUSH1 0x1F NOT PUSH1 0x1F DUP3 ADD AND DUP3 ADD DUP1 PUSH1 0x40 MSTORE POP DUP2 ADD SWAP1 PUSH2 0x289 SWAP2 SWAP1 PUSH2 0x81C JUMP JUMPDEST SWAP1 POP SWAP3 SWAP2 POP POP JUMP JUMPDEST PUSH1 0x0 PUSH20 0x0 PUSH4 0xF4F3BDC1 DUP5 DUP5 PUSH1 0x40 MLOAD DUP4 PUSH4 0xFFFFFFFF AND PUSH1 0xE0 SHL DUP2 MSTORE PUSH1 0x4 ADD PUSH2 0x2CC SWAP3 SWAP2 SWAP1 PUSH2 0x849 JUMP JUMPDEST PUSH1 0x20 PUSH1 0x40 MLOAD DUP1 DUP4 SUB DUP2 DUP7 GAS DELEGATECALL ISZERO DUP1 ISZERO PUSH2 0x2E9 JUMPI RETURNDATASIZE PUSH1 0x0 DUP1 RETURNDATACOPY RETURNDATASIZE PUSH1 0x0 REVERT JUMPDEST POP POP POP POP PUSH1 0x40 MLOAD RETURNDATASIZE PUSH1 0x1F NOT PUSH1 0x1F DUP3 ADD AND DUP3 ADD DUP1 PUSH1 0x40 MSTORE POP DUP2 ADD SWAP1 PUSH2 0x30D SWAP2 SWAP1 PUSH2 0x81C JUMP JUMPDEST SWAP1 POP SWAP3 SWAP2 POP POP JUMP JUMPDEST PUSH1 0x0 PUSH20 0x0 PUSH4 0x7AE2B5C7 DUP5 DUP5 PUSH1 0x40 MLOAD DUP4 PUSH4 0xFFFFFFFF AND PUSH1 0xE0 SHL DUP2 MSTORE PUSH1 0x4 ADD PUSH2 0x350 SWAP3 SWAP2 SWAP1 PUSH2 0x849 JUMP JUMPDEST PUSH1 0x20 PUSH1 0x40 MLOAD DUP1 DUP4 SUB DUP2 DUP7 GAS DELEGATECALL ISZERO DUP1 ISZERO PUSH2 0x36D JUMPI RETURNDATASIZE PUSH1 0x0 DUP1 RETURNDATACOPY RETURNDATASIZE PUSH1 0x0 REVERT JUMPDEST POP POP POP POP PUSH1 0x40 MLOAD RETURNDATASIZE PUSH1 0x1F NOT PUSH1 0x1F DUP3 ADD AND DUP3 ADD DUP1 PUSH1 0x40 MSTORE POP DUP2 ADD SWAP1 PUSH2 0x391 SWAP2 SWAP1 PUSH2 0x81C JUMP JUMPDEST SWAP1 POP SWAP3 SWAP2 POP POP JUMP JUMPDEST PUSH1 0x0 PUSH20 0x0 PUSH4 0xF88E9FBF DUP5 DUP5 PUSH1 0x40 MLOAD DUP4 PUSH4 0xFFFFFFFF AND PUSH1 0xE0 SHL DUP2 MSTORE PUSH1 0x4 ADD PUSH2 0x3D4 SWAP3 SWAP2 SWAP1 PUSH2 0x849 JUMP JUMPDEST PUSH1 0x20 PUSH1 0x40 MLOAD DUP1 DUP4 SUB DUP2 DUP7 GAS DELEGATECALL ISZERO DUP1 ISZERO PUSH2 0x3F1 JUMPI RETURNDATASIZE PUSH1 0x0 DUP1 RETURNDATACOPY RETURNDATASIZE PUSH1 0x0 REVERT JUMPDEST POP POP POP POP PUSH1 0x40 MLOAD RETURNDATASIZE PUSH1 0x1F NOT PUSH1 0x1F DUP3 ADD AND DUP3 ADD DUP1 PUSH1 0x40 MSTORE POP DUP2 ADD SWAP1 PUSH2 0x415 SWAP2 SWAP1 PUSH2 0x81C JUMP JUMPDEST SWAP1 POP SWAP3 SWAP2 POP POP JUMP JUMPDEST PUSH1 0x0 PUSH20 0x0 PUSH4 0x6D5433E6 DUP5 DUP5 PUSH1 0x40 MLOAD DUP4 PUSH4 0xFFFFFFFF AND PUSH1 0xE0 SHL DUP2 MSTORE PUSH1 0x4 ADD PUSH2 0x458 SWAP3 SWAP2 SWAP1 PUSH2 0x849 JUMP JUMPDEST PUSH1 0x20 PUSH1 0x40 MLOAD DUP1 DUP4 SUB DUP2 DUP7 GAS DELEGATECALL ISZERO DUP1 ISZERO PUSH2 0x475 JUMPI RETURNDATASIZE PUSH1 0x0 DUP1 RETURNDATACOPY RETURNDATASIZE PUSH1 0x0 REVERT JUMPDEST POP POP POP POP PUSH1 0x40 MLOAD RETURNDATASIZE PUSH1 0x1F NOT PUSH1 0x1F DUP3 ADD AND DUP3 ADD DUP1 PUSH1 0x40 MSTORE POP DUP2 ADD SWAP1 PUSH2 0x499 SWAP2 SWAP1 PUSH2 0x81C JUMP JUMPDEST SWAP1 POP SWAP3 SWAP2 POP POP JUMP JUMPDEST PUSH1 0x0 PUSH1 0x40 MLOAD SWAP1 POP SWAP1 JUMP JUMPDEST PUSH1 0x0 DUP1 REVERT JUMPDEST PUSH1 0x0 DUP1 REVERT JUMPDEST PUSH1 0x0 DUP1 REVERT JUMPDEST PUSH1 0x0 PUSH1 0x1F NOT PUSH1 0x1F DUP4 ADD AND SWAP1 POP SWAP2 SWAP1 POP JUMP JUMPDEST PUSH32 0x4E487B7100000000000000000000000000000000000000000000000000000000 PUSH1 0x0 MSTORE PUSH1 0x41 PUSH1 0x4 MSTORE PUSH1 0x24 PUSH1 0x0 REVERT JUMPDEST PUSH2 0x503 DUP3 PUSH2 0x4BA JUMP JUMPDEST DUP2 ADD DUP2 DUP2 LT PUSH8 0xFFFFFFFFFFFFFFFF DUP3 GT OR ISZERO PUSH2 0x522 JUMPI PUSH2 0x521 PUSH2 0x4CB JUMP JUMPDEST JUMPDEST DUP1 PUSH1 0x40 MSTORE POP POP POP JUMP JUMPDEST PUSH1 0x0 PUSH2 0x535 PUSH2 0x4A1 JUMP JUMPDEST SWAP1 POP PUSH2 0x541 DUP3 DUP3 PUSH2 0x4FA JUMP JUMPDEST SWAP2 SWAP1 POP JUMP JUMPDEST PUSH1 0x0 PUSH8 0xFFFFFFFFFFFFFFFF DUP3 GT ISZERO PUSH2 0x561 JUMPI PUSH2 0x560 PUSH2 0x4CB JUMP JUMPDEST JUMPDEST PUSH1 0x20 DUP3 MUL SWAP1 POP PUSH1 0x20 DUP2 ADD SWAP1 POP SWAP2 SWAP1 POP JUMP JUMPDEST PUSH1 0x0 DUP1 REVERT JUMPDEST PUSH1 0x0 DUP2 SWAP1 POP SWAP2 SWAP1 POP JUMP JUMPDEST PUSH2 0x58A DUP2 PUSH2 0x577 JUMP JUMPDEST DUP2 EQ PUSH2 0x595 JUMPI PUSH1 0x0 DUP1 REVERT JUMPDEST POP JUMP JUMPDEST PUSH1 0x0 DUP2 CALLDATALOAD SWAP1 POP PUSH2 0x5A7 DUP2 PUSH2 0x581 JUMP JUMPDEST SWAP3 SWAP2 POP POP JUMP JUMPDEST PUSH1 0x0 PUSH2 0x5C0 PUSH2 0x5BB DUP5 PUSH2 0x546 JUMP JUMPDEST PUSH2 0x52B JUMP JUMPDEST SWAP1 POP DUP1 DUP4 DUP3 MSTORE PUSH1 0x20 DUP3 ADD SWAP1 POP PUSH1 0x20 DUP5 MUL DUP4 ADD DUP6 DUP2 GT ISZERO PUSH2 0x5E3 JUMPI PUSH2 0x5E2 PUSH2 0x572 JUMP JUMPDEST JUMPDEST DUP4 JUMPDEST DUP2 DUP2 LT ISZERO PUSH2 0x60C JUMPI DUP1 PUSH2 0x5F8 DUP9 DUP3 PUSH2 0x598 JUMP JUMPDEST DUP5 MSTORE PUSH1 0x20 DUP5 ADD SWAP4 POP POP PUSH1 0x20 DUP2 ADD SWAP1 POP PUSH2 0x5E5 JUMP JUMPDEST POP POP POP SWAP4 SWAP3 POP POP POP JUMP JUMPDEST PUSH1 0x0 DUP3 PUSH1 0x1F DUP4 ADD SLT PUSH2 0x62B JUMPI PUSH2 0x62A PUSH2 0x4B5 JUMP JUMPDEST JUMPDEST DUP2 CALLDATALOAD PUSH2 0x63B DUP5 DUP3 PUSH1 0x20 DUP7 ADD PUSH2 0x5AD JUMP JUMPDEST SWAP2 POP POP SWAP3 SWAP2 POP POP JUMP JUMPDEST PUSH1 0x0 DUP1 PUSH1 0x40 DUP4 DUP6 SUB SLT ISZERO PUSH2 0x65B JUMPI PUSH2 0x65A PUSH2 0x4AB JUMP JUMPDEST JUMPDEST PUSH1 0x0 DUP4 ADD CALLDATALOAD PUSH8 0xFFFFFFFFFFFFFFFF DUP2 GT ISZERO PUSH2 0x679 JUMPI PUSH2 0x678 PUSH2 0x4B0 JUMP JUMPDEST JUMPDEST PUSH2 0x685 DUP6 DUP3 DUP7 ADD PUSH2 0x616 JUMP JUMPDEST SWAP3 POP POP PUSH1 0x20 PUSH2 0x696 DUP6 DUP3 DUP7 ADD PUSH2 0x598 JUMP JUMPDEST SWAP2 POP POP SWAP3 POP SWAP3 SWAP1 POP JUMP JUMPDEST PUSH2 0x6A9 DUP2 PUSH2 0x577 JUMP JUMPDEST DUP3 MSTORE POP POP JUMP JUMPDEST PUSH1 0x0 PUSH1 0x20 DUP3 ADD SWAP1 POP PUSH2 0x6C4 PUSH1 0x0 DUP4 ADD DUP5 PUSH2 0x6A0 JUMP JUMPDEST SWAP3 SWAP2 POP POP JUMP JUMPDEST PUSH1 0x0 DUP1 PUSH1 0x40 DUP4 DUP6 SUB SLT ISZERO PUSH2 0x6E1 JUMPI PUSH2 0x6E0 PUSH2 0x4AB JUMP JUMPDEST JUMPDEST PUSH1 0x0 PUSH2 0x6EF DUP6 DUP3 DUP7 ADD PUSH2 0x598 JUMP JUMPDEST SWAP3 POP POP PUSH1 0x20 PUSH2 0x700 DUP6 DUP3 DUP7 ADD PUSH2 0x598 JUMP JUMPDEST SWAP2 POP POP SWAP3 POP SWAP3 SWAP1 POP JUMP JUMPDEST PUSH1 0x0 DUP2 MLOAD SWAP1 POP SWAP2 SWAP1 POP JUMP JUMPDEST PUSH1 0x0 DUP3 DUP3 MSTORE PUSH1 0x20 DUP3 ADD SWAP1 POP SWAP3 SWAP2 POP POP JUMP JUMPDEST PUSH1 0x0 DUP2 SWAP1 POP PUSH1 0x20 DUP3 ADD SWAP1 POP SWAP2 SWAP1 POP JUMP JUMPDEST PUSH2 0x73F DUP2 PUSH2 0x577 JUMP JUMPDEST DUP3 MSTORE POP POP JUMP JUMPDEST PUSH1 0x0 PUSH2 0x751 DUP4 DUP4 PUSH2 0x736 JUMP JUMPDEST PUSH1 0x20 DUP4 ADD SWAP1 POP SWAP3 SWAP2 POP POP JUMP JUMPDEST PUSH1 0x0 PUSH1 0x20 DUP3 ADD SWAP1 POP SWAP2 SWAP1 POP JUMP JUMPDEST PUSH1 0x0 PUSH2 0x775 DUP3 PUSH2 0x70A JUMP JUMPDEST PUSH2 0x77F DUP2 DUP6 PUSH2 0x715 JUMP JUMPDEST SWAP4 POP PUSH2 0x78A DUP4 PUSH2 0x726 JUMP JUMPDEST DUP1 PUSH1 0x0 JUMPDEST DUP4 DUP2 LT ISZERO PUSH2 0x7BB JUMPI DUP2 MLOAD PUSH2 0x7A2 DUP9 DUP3 PUSH2 0x745 JUMP JUMPDEST SWAP8 POP PUSH2 0x7AD DUP4 PUSH2 0x75D JUMP JUMPDEST SWAP3 POP POP PUSH1 0x1 DUP2 ADD SWAP1 POP PUSH2 0x78E JUMP JUMPDEST POP DUP6 SWAP4 POP POP POP POP SWAP3 SWAP2 POP POP JUMP JUMPDEST PUSH2 0x7D1 DUP2 PUSH2 0x577 JUMP JUMPDEST DUP3 MSTORE POP POP JUMP JUMPDEST PUSH1 0x0 PUSH1 0x40 DUP3 ADD SWAP1 POP DUP2 DUP2 SUB PUSH1 0x0 DUP4 ADD MSTORE PUSH2 0x7F1 DUP2 DUP6 PUSH2 0x76A JUMP JUMPDEST SWAP1 POP PUSH2 0x800 PUSH1 0x20 DUP4 ADD DUP5 PUSH2 0x7C8 JUMP JUMPDEST SWAP4 SWAP3 POP POP POP JUMP JUMPDEST PUSH1 0x0 DUP2 MLOAD SWAP1 POP PUSH2 0x816 DUP2 PUSH2 0x581 JUMP JUMPDEST SWAP3 SWAP2 POP POP JUMP JUMPDEST PUSH1 0x0 PUSH1 0x20 DUP3 DUP5 SUB SLT ISZERO PUSH2 0x832 JUMPI PUSH2 0x831 PUSH2 0x4AB JUMP JUMPDEST JUMPDEST PUSH1 0x0 PUSH2 0x840 DUP5 DUP3 DUP6 ADD PUSH2 0x807 JUMP JUMPDEST SWAP2 POP POP SWAP3 SWAP2 POP POP JUMP JUMPDEST PUSH1 0x0 PUSH1 0x40 DUP3 ADD SWAP1 POP PUSH2 0x85E PUSH1 0x0 DUP4 ADD DUP6 PUSH2 0x7C8 JUMP JUMPDEST PUSH2 0x86B PUSH1 0x20 DUP4 ADD DUP5 PUSH2 0x7C8 JUMP JUMPDEST SWAP4 SWAP3 POP POP POP JUMP INVALID LOG2 PUSH5 0x6970667358 0x22 SLT KECCAK256 0xEE ORIGIN SWAP10 0xD6 0x24 0xC9 0xC2 0xCE COINBASE SWAP10 PUSH13 0x4805251346DF60FDE2D62CAAF8 0x5C 0xE6 SWAP11 PUSH16 0xCA269C5364736F6C6343000812003300 "
				},
				"gasEstimates": {
					"creation": {
						"codeDepositCost": "443200",
						"executionCost": "480",
						"totalCost": "443680"
					},
					"external": {
						"trial1(uint256[],uint256)": "infinite",
						"trial2(uint256,uint256)": "infinite",
						"trial3(uint256,uint256)": "infinite",
						"trial4(uint256,uint256)": "infinite",
						"trial5(uint256,uint256)": "infinite",
						"trial6(uint256,uint256)": "infinite"
					}
				},
				"methodIdentifiers": {
					"trial1(uint256[],uint256)": "3d80de1a",
					"trial2(uint256,uint256)": "9aa2005f",
					"trial3(uint256,uint256)": "54b503b4",
					"trial4(uint256,uint256)": "e72e4d49",
					"trial5(uint256,uint256)": "f34b178d",
					"trial6(uint256,uint256)": "df6b93ec"
				}
			},
			"storageLayout": {
				"storage": [],
				"types": null
			},
			"userdoc": {
				"kind": "user",
				"methods": {},
				"version": 1
			}
		}
	}
}