{
  "_format": "hh-sol-artifact-1",
  "contractName": "Lock",
  "sourceName": "contracts/Lock.sol",
  "abi": [
    {
      "inputs": [
        {
          "internalType": "address",
          "name": "tokenAddress",
          "type": "address"
        }
      ],
      "stateMutability": "nonpayable",
      "type": "constructor"
    },
    {
      "inputs": [
        {
          "internalType": "address",
          "name": "",
          "type": "address"
        }
      ],
      "name": "deadline",
      "outputs": [
        {
          "internalType": "uint256",
          "name": "",
          "type": "uint256"
        }
      ],
      "stateMutability": "view",
      "type": "function"
    },
    {
      "inputs": [
        {
          "internalType": "uint256",
          "name": "amount",
          "type": "uint256"
        },
        {
          "internalType": "uint256",
          "name": "time",
          "type": "uint256"
        }
      ],
      "name": "lockTokens",
      "outputs": [],
      "stateMutability": "nonpayable",
      "type": "function"
    },
    {
      "inputs": [],
      "name": "lockerCount",
      "outputs": [
        {
          "internalType": "uint256",
          "name": "",
          "type": "uint256"
        }
      ],
      "stateMutability": "view",
      "type": "function"
    },
    {
      "inputs": [
        {
          "internalType": "address",
          "name": "",
          "type": "address"
        }
      ],
      "name": "lockers",
      "outputs": [
        {
          "internalType": "uint256",
          "name": "",
          "type": "uint256"
        }
      ],
      "stateMutability": "view",
      "type": "function"
    },
    {
      "inputs": [],
      "name": "totalLocked",
      "outputs": [
        {
          "internalType": "uint256",
          "name": "",
          "type": "uint256"
        }
      ],
      "stateMutability": "view",
      "type": "function"
    },
    {
      "inputs": [],
      "name": "withdrawTokens",
      "outputs": [],
      "stateMutability": "nonpayable",
      "type": "function"
    }
  ],
  "bytecode": "0x608060405234801561001057600080fd5b50604051610fe6380380610fe68339818101604052810190610032919061008d565b806000806101000a81548173ffffffffffffffffffffffffffffffffffffffff021916908373ffffffffffffffffffffffffffffffffffffffff160217905550506100ff565b600081519050610087816100e8565b92915050565b60006020828403121561009f57600080fd5b60006100ad84828501610078565b91505092915050565b60006100c1826100c8565b9050919050565b600073ffffffffffffffffffffffffffffffffffffffff82169050919050565b6100f1816100b6565b81146100fc57600080fd5b50565b610ed88061010e6000396000f3fe608060405234801561001057600080fd5b50600436106100625760003560e01c80632c8e7a21146100675780635403b3941461009757806356891412146100c757806389158d8e146100e55780638d8f2adb14610101578063ccd96eb61461010b575b600080fd5b610081600480360381019061007c9190610883565b610129565b60405161008e9190610b55565b60405180910390f35b6100b160048036038101906100ac9190610883565b610141565b6040516100be9190610b55565b60405180910390f35b6100cf610159565b6040516100dc9190610b55565b60405180910390f35b6100ff60048036038101906100fa91906108d5565b61015f565b005b6101096103fc565b005b61011361072a565b6040516101209190610b55565b60405180910390f35b60036020528060005260406000206000915090505481565b60046020528060005260406000206000915090505481565b60025481565b600082116101a2576040517f08c379a000000000000000000000000000000000000000000000000000000000815260040161019990610ab5565b60405180910390fd5b600081116101e5576040517f08c379a00000000000000000000000000000000000000000000000000000000081526004016101dc90610b35565b60405180910390fd5b6000600360003373ffffffffffffffffffffffffffffffffffffffff1673ffffffffffffffffffffffffffffffffffffffff1681526020019081526020016000205411610245576001600081548092919061023f90610cbb565b91905055505b81600260008282546102579190610b8c565b9250508190555081600360003373ffffffffffffffffffffffffffffffffffffffff1673ffffffffffffffffffffffffffffffffffffffff16815260200190815260200160002060008282546102ad9190610b8c565b9250508190555080426102c09190610b8c565b600460003373ffffffffffffffffffffffffffffffffffffffff1673ffffffffffffffffffffffffffffffffffffffff1681526020019081526020016000208190555060008060009054906101000a900473ffffffffffffffffffffffffffffffffffffffff1673ffffffffffffffffffffffffffffffffffffffff166323b872dd3330866040518463ffffffff1660e01b815260040161036393929190610a17565b602060405180830381600087803b15801561037d57600080fd5b505af1158015610391573d6000803e3d6000fd5b505050506040513d601f19601f820116820180604052508101906103b591906108ac565b9050806103f7576040517f08c379a00000000000000000000000000000000000000000000000000000000081526004016103ee90610b15565b60405180910390fd5b505050565b6000600360003373ffffffffffffffffffffffffffffffffffffffff1673ffffffffffffffffffffffffffffffffffffffff168152602001908152602001600020541161047e576040517f08c379a000000000000000000000000000000000000000000000000000000000815260040161047590610af5565b60405180910390fd5b600460003373ffffffffffffffffffffffffffffffffffffffff1673ffffffffffffffffffffffffffffffffffffffff16815260200190815260200160002054421015610500576040517f08c379a00000000000000000000000000000000000000000000000000000000081526004016104f790610ad5565b60405180910390fd5b6000600360003373ffffffffffffffffffffffffffffffffffffffff1673ffffffffffffffffffffffffffffffffffffffff1681526020019081526020016000205490506105846040518060400160405280600681526020017f3c3e3c3e3c3e00000000000000000000000000000000000000000000000000008152503383610730565b600360003373ffffffffffffffffffffffffffffffffffffffff1673ffffffffffffffffffffffffffffffffffffffff16815260200190815260200160002060009055600460003373ffffffffffffffffffffffffffffffffffffffff1673ffffffffffffffffffffffffffffffffffffffff16815260200190815260200160002060009055806002600082825461061c9190610be2565b925050819055506001600081548092919061063690610c91565b919050555060008054906101000a900473ffffffffffffffffffffffffffffffffffffffff1673ffffffffffffffffffffffffffffffffffffffff1663a9059cbb33836040518363ffffffff1660e01b8152600401610696929190610a4e565b602060405180830381600087803b1580156106b057600080fd5b505af11580156106c4573d6000803e3d6000fd5b505050506040513d601f19601f820116820180604052508101906106e891906108ac565b610727576040517f08c379a000000000000000000000000000000000000000000000000000000000815260040161071e90610b15565b60405180910390fd5b50565b60015481565b6107ca83838360405160240161074893929190610a77565b6040516020818303038152906040527f0d26b925000000000000000000000000000000000000000000000000000000007bffffffffffffffffffffffffffffffffffffffffffffffffffffffff19166020820180517bffffffffffffffffffffffffffffffffffffffffffffffffffffffff83818316178352505050506107cf565b505050565b6107e6816107de6107e961080a565b63ffffffff16565b50565b60006a636f6e736f6c652e6c6f679050600080835160208501845afa505050565b610815819050919050565b7f4e487b7100000000000000000000000000000000000000000000000000000000600052605160045260246000fd5b60008135905061085381610e5d565b92915050565b60008151905061086881610e74565b92915050565b60008135905061087d81610e8b565b92915050565b60006020828403121561089557600080fd5b60006108a384828501610844565b91505092915050565b6000602082840312156108be57600080fd5b60006108cc84828501610859565b91505092915050565b600080604083850312156108e857600080fd5b60006108f68582860161086e565b92505060206109078582860161086e565b9150509250929050565b61091a81610c16565b82525050565b600061092b82610b70565b6109358185610b7b565b9350610945818560208601610c5e565b61094e81610d33565b840191505092915050565b6000610966602383610b7b565b915061097182610d44565b604082019050919050565b6000610989601583610b7b565b915061099482610d93565b602082019050919050565b60006109ac601183610b7b565b91506109b782610dbc565b602082019050919050565b60006109cf601083610b7b565b91506109da82610de5565b602082019050919050565b60006109f2602383610b7b565b91506109fd82610e0e565b604082019050919050565b610a1181610c54565b82525050565b6000606082019050610a2c6000830186610911565b610a396020830185610911565b610a466040830184610a08565b949350505050565b6000604082019050610a636000830185610911565b610a706020830184610a08565b9392505050565b60006060820190508181036000830152610a918186610920565b9050610aa06020830185610911565b610aad6040830184610a08565b949350505050565b60006020820190508181036000830152610ace81610959565b9050919050565b60006020820190508181036000830152610aee8161097c565b9050919050565b60006020820190508181036000830152610b0e8161099f565b9050919050565b60006020820190508181036000830152610b2e816109c2565b9050919050565b60006020820190508181036000830152610b4e816109e5565b9050919050565b6000602082019050610b6a6000830184610a08565b92915050565b600081519050919050565b600082825260208201905092915050565b6000610b9782610c54565b9150610ba283610c54565b9250827fffffffffffffffffffffffffffffffffffffffffffffffffffffffffffffffff03821115610bd757610bd6610d04565b5b828201905092915050565b6000610bed82610c54565b9150610bf883610c54565b925082821015610c0b57610c0a610d04565b5b828203905092915050565b6000610c2182610c34565b9050919050565b60008115159050919050565b600073ffffffffffffffffffffffffffffffffffffffff82169050919050565b6000819050919050565b60005b83811015610c7c578082015181840152602081019050610c61565b83811115610c8b576000848401525b50505050565b6000610c9c82610c54565b91506000821415610cb057610caf610d04565b5b600182039050919050565b6000610cc682610c54565b91507fffffffffffffffffffffffffffffffffffffffffffffffffffffffffffffffff821415610cf957610cf8610d04565b5b600182019050919050565b7f4e487b7100000000000000000000000000000000000000000000000000000000600052601160045260246000fd5b6000601f19601f8301169050919050565b7f546f6b656e20616d6f756e74206d75737420626520626967676572207468616e60008201527f20302e0000000000000000000000000000000000000000000000000000000000602082015250565b7f446561646c696e65206973206e6f74206f7665722e0000000000000000000000600082015250565b7f4e6f7420656e6f75676820746f6b656e2e000000000000000000000000000000600082015250565b7f5472616e73666572206661696c65642e00000000000000000000000000000000600082015250565b7f4c6f636b696e672074696d65206d75737420626520626967676572207468616e60008201527f20302e0000000000000000000000000000000000000000000000000000000000602082015250565b610e6681610c16565b8114610e7157600080fd5b50565b610e7d81610c28565b8114610e8857600080fd5b50565b610e9481610c54565b8114610e9f57600080fd5b5056fea2646970667358221220842cdca3b814d358fa5cdde61e82deba8cd7b9a390fe275cb79195fbbf3ddfa664736f6c63430008020033",
  "linkReferences": {},
  "deployedLinkReferences": {}
}