{
	"SendEtherıum/Transfer.sol": {
		"Bank": {
			"abi": [
				{
					"stateMutability": "payable",
					"type": "fallback"
				},
				{
					"inputs": [],
					"name": "fallbackCount",
					"outputs": [
						{
							"internalType": "uint256",
							"name": "",
							"type": "uint256"
						}
					],
					"stateMutability": "view",
					"type": "function"
				},
				{
					"inputs": [],
					"name": "receiveCount",
					"outputs": [
						{
							"internalType": "uint256",
							"name": "",
							"type": "uint256"
						}
					],
					"stateMutability": "view",
					"type": "function"
				},
				{
					"inputs": [],
					"name": "sendEtherToContract",
					"outputs": [],
					"stateMutability": "payable",
					"type": "function"
				},
				{
					"inputs": [],
					"name": "showBalance",
					"outputs": [
						{
							"internalType": "uint256",
							"name": "",
							"type": "uint256"
						}
					],
					"stateMutability": "view",
					"type": "function"
				},
				{
					"inputs": [
						{
							"internalType": "address payable",
							"name": "to",
							"type": "address"
						},
						{
							"internalType": "uint256",
							"name": "amount",
							"type": "uint256"
						}
					],
					"name": "withDraw",
					"outputs": [],
					"stateMutability": "nonpayable",
					"type": "function"
				},
				{
					"stateMutability": "payable",
					"type": "receive"
				}
			],
			"devdoc": {
				"kind": "dev",
				"methods": {},
				"version": 1
			},
			"evm": {
				"assembly": "    /* \"SendEther\\xc4\\xb1um/Transfer.sol\":58:1275  contract Bank{... */\n  mstore(0x40, 0x80)\n    /* \"SendEther\\xc4\\xb1um/Transfer.sol\":952:953  0 */\n  0x00\n    /* \"SendEther\\xc4\\xb1um/Transfer.sol\":925:953  uint public receiveCount = 0 */\n  0x01\n  sstore\n    /* \"SendEther\\xc4\\xb1um/Transfer.sol\":990:991  0 */\n  0x00\n    /* \"SendEther\\xc4\\xb1um/Transfer.sol\":962:991  uint public fallbackCount = 0 */\n  0x02\n  sstore\n    /* \"SendEther\\xc4\\xb1um/Transfer.sol\":58:1275  contract Bank{... */\n  callvalue\n  dup1\n  iszero\n  tag_1\n  jumpi\n  0x00\n  dup1\n  revert\ntag_1:\n  pop\n  dataSize(sub_0)\n  dup1\n  dataOffset(sub_0)\n  0x00\n  codecopy\n  0x00\n  return\nstop\n\nsub_0: assembly {\n        /* \"SendEther\\xc4\\xb1um/Transfer.sol\":58:1275  contract Bank{... */\n      mstore(0x40, 0x80)\n      jumpi(tag_1, lt(calldatasize, 0x04))\n      shr(0xe0, calldataload(0x00))\n      dup1\n      0x191e2e83\n      eq\n      tag_3\n      jumpi\n      dup1\n      0x325ec768\n      eq\n      tag_4\n      jumpi\n      dup1\n      0x7ba85592\n      eq\n      tag_5\n      jumpi\n      dup1\n      0x81b2d07b\n      eq\n      tag_6\n      jumpi\n      dup1\n      0xf776bd06\n      eq\n      tag_7\n      jumpi\n      jump(tag_2)\n    tag_1:\n      jumpi(tag_2, calldatasize)\n        /* \"SendEther\\xc4\\xb1um/Transfer.sol\":1113:1114  1 */\n      0x01\n        /* \"SendEther\\xc4\\xb1um/Transfer.sol\":1097:1109  receiveCount */\n      dup1\n      0x00\n        /* \"SendEther\\xc4\\xb1um/Transfer.sol\":1097:1114  receiveCount += 1 */\n      dup3\n      dup3\n      sload\n      tag_10\n      swap2\n      swap1\n      tag_11\n      jump\t// in\n    tag_10:\n      swap3\n      pop\n      pop\n      dup2\n      swap1\n      sstore\n      stop\n        /* \"SendEther\\xc4\\xb1um/Transfer.sol\":58:1275  contract Bank{... */\n    tag_2:\n        /* \"SendEther\\xc4\\xb1um/Transfer.sol\":1247:1248  1 */\n      0x01\n        /* \"SendEther\\xc4\\xb1um/Transfer.sol\":1230:1243  fallbackCount */\n      0x02\n      0x00\n        /* \"SendEther\\xc4\\xb1um/Transfer.sol\":1230:1248  fallbackCount += 1 */\n      dup3\n      dup3\n      sload\n      tag_14\n      swap2\n      swap1\n      tag_11\n      jump\t// in\n    tag_14:\n      swap3\n      pop\n      pop\n      dup2\n      swap1\n      sstore\n      stop\n        /* \"SendEther\\xc4\\xb1um/Transfer.sol\":413:661  function withDraw(address payable to,uint amount) external{... */\n    tag_3:\n      callvalue\n      dup1\n      iszero\n      tag_15\n      jumpi\n      0x00\n      dup1\n      revert\n    tag_15:\n      pop\n      tag_16\n      0x04\n      dup1\n      calldatasize\n      sub\n      dup2\n      add\n      swap1\n      tag_17\n      swap2\n      swap1\n      tag_18\n      jump\t// in\n    tag_17:\n      tag_19\n      jump\t// in\n    tag_16:\n      stop\n        /* \"SendEther\\xc4\\xb1um/Transfer.sol\":118:282  function sendEtherToContract() payable external{... */\n    tag_4:\n      tag_20\n      tag_21\n      jump\t// in\n    tag_20:\n      stop\n        /* \"SendEther\\xc4\\xb1um/Transfer.sol\":925:953  uint public receiveCount = 0 */\n    tag_5:\n      callvalue\n      dup1\n      iszero\n      tag_22\n      jumpi\n      0x00\n      dup1\n      revert\n    tag_22:\n      pop\n      tag_23\n      tag_24\n      jump\t// in\n    tag_23:\n      mload(0x40)\n      tag_25\n      swap2\n      swap1\n      tag_26\n      jump\t// in\n    tag_25:\n      mload(0x40)\n      dup1\n      swap2\n      sub\n      swap1\n      return\n        /* \"SendEther\\xc4\\xb1um/Transfer.sol\":290:405  function showBalance() external view returns(uint){... */\n    tag_6:\n      callvalue\n      dup1\n      iszero\n      tag_27\n      jumpi\n      0x00\n      dup1\n      revert\n    tag_27:\n      pop\n      tag_28\n      tag_29\n      jump\t// in\n    tag_28:\n      mload(0x40)\n      tag_30\n      swap2\n      swap1\n      tag_26\n      jump\t// in\n    tag_30:\n      mload(0x40)\n      dup1\n      swap2\n      sub\n      swap1\n      return\n        /* \"SendEther\\xc4\\xb1um/Transfer.sol\":962:991  uint public fallbackCount = 0 */\n    tag_7:\n      callvalue\n      dup1\n      iszero\n      tag_31\n      jumpi\n      0x00\n      dup1\n      revert\n    tag_31:\n      pop\n      tag_32\n      tag_33\n      jump\t// in\n    tag_32:\n      mload(0x40)\n      tag_34\n      swap2\n      swap1\n      tag_26\n      jump\t// in\n    tag_34:\n      mload(0x40)\n      dup1\n      swap2\n      sub\n      swap1\n      return\n        /* \"SendEther\\xc4\\xb1um/Transfer.sol\":413:661  function withDraw(address payable to,uint amount) external{... */\n    tag_19:\n        /* \"SendEther\\xc4\\xb1um/Transfer.sol\":514:520  amount */\n      dup1\n        /* \"SendEther\\xc4\\xb1um/Transfer.sol\":490:498  balances */\n      0x00\n        /* \"SendEther\\xc4\\xb1um/Transfer.sol\":490:510  balances[msg.sender] */\n      dup1\n        /* \"SendEther\\xc4\\xb1um/Transfer.sol\":499:509  msg.sender */\n      caller\n        /* \"SendEther\\xc4\\xb1um/Transfer.sol\":490:510  balances[msg.sender] */\n      0xffffffffffffffffffffffffffffffffffffffff\n      and\n      0xffffffffffffffffffffffffffffffffffffffff\n      and\n      dup2\n      mstore\n      0x20\n      add\n      swap1\n      dup2\n      mstore\n      0x20\n      add\n      0x00\n      keccak256\n      sload\n        /* \"SendEther\\xc4\\xb1um/Transfer.sol\":490:520  balances[msg.sender] >= amount */\n      lt\n      iszero\n        /* \"SendEther\\xc4\\xb1um/Transfer.sol\":482:539  require(balances[msg.sender] >= amount,\"Yetersiz bakiye\") */\n      tag_36\n      jumpi\n      mload(0x40)\n      0x08c379a000000000000000000000000000000000000000000000000000000000\n      dup2\n      mstore\n      0x04\n      add\n      tag_37\n      swap1\n      tag_38\n      jump\t// in\n    tag_37:\n      mload(0x40)\n      dup1\n      swap2\n      sub\n      swap1\n      revert\n    tag_36:\n        /* \"SendEther\\xc4\\xb1um/Transfer.sol\":550:552  to */\n      dup2\n        /* \"SendEther\\xc4\\xb1um/Transfer.sol\":550:561  to.transfer */\n      0xffffffffffffffffffffffffffffffffffffffff\n      and\n        /* \"SendEther\\xc4\\xb1um/Transfer.sol\":550:569  to.transfer(amount) */\n      0x08fc\n        /* \"SendEther\\xc4\\xb1um/Transfer.sol\":562:568  amount */\n      dup3\n        /* \"SendEther\\xc4\\xb1um/Transfer.sol\":550:569  to.transfer(amount) */\n      swap1\n      dup2\n      iszero\n      mul\n      swap1\n      mload(0x40)\n      0x00\n      mload(0x40)\n      dup1\n      dup4\n      sub\n      dup2\n      dup6\n      dup9\n      dup9\n      call\n      swap4\n      pop\n      pop\n      pop\n      pop\n      iszero\n      dup1\n      iszero\n      tag_40\n      jumpi\n      returndatasize\n      0x00\n      dup1\n      returndatacopy\n      revert(0x00, returndatasize)\n    tag_40:\n      pop\n        /* \"SendEther\\xc4\\xb1um/Transfer.sol\":647:653  amount */\n      dup1\n        /* \"SendEther\\xc4\\xb1um/Transfer.sol\":623:631  balances */\n      0x00\n        /* \"SendEther\\xc4\\xb1um/Transfer.sol\":623:643  balances[msg.sender] */\n      dup1\n        /* \"SendEther\\xc4\\xb1um/Transfer.sol\":632:642  msg.sender */\n      caller\n        /* \"SendEther\\xc4\\xb1um/Transfer.sol\":623:643  balances[msg.sender] */\n      0xffffffffffffffffffffffffffffffffffffffff\n      and\n      0xffffffffffffffffffffffffffffffffffffffff\n      and\n      dup2\n      mstore\n      0x20\n      add\n      swap1\n      dup2\n      mstore\n      0x20\n      add\n      0x00\n      keccak256\n      0x00\n        /* \"SendEther\\xc4\\xb1um/Transfer.sol\":623:653  balances[msg.sender] -= amount */\n      dup3\n      dup3\n      sload\n      tag_41\n      swap2\n      swap1\n      tag_42\n      jump\t// in\n    tag_41:\n      swap3\n      pop\n      pop\n      dup2\n      swap1\n      sstore\n      pop\n        /* \"SendEther\\xc4\\xb1um/Transfer.sol\":413:661  function withDraw(address payable to,uint amount) external{... */\n      pop\n      pop\n      jump\t// out\n        /* \"SendEther\\xc4\\xb1um/Transfer.sol\":118:282  function sendEtherToContract() payable external{... */\n    tag_21:\n        /* \"SendEther\\xc4\\xb1um/Transfer.sol\":202:211  msg.value */\n      callvalue\n        /* \"SendEther\\xc4\\xb1um/Transfer.sol\":179:187  balances */\n      0x00\n        /* \"SendEther\\xc4\\xb1um/Transfer.sol\":179:199  balances[msg.sender] */\n      dup1\n        /* \"SendEther\\xc4\\xb1um/Transfer.sol\":188:198  msg.sender */\n      caller\n        /* \"SendEther\\xc4\\xb1um/Transfer.sol\":179:199  balances[msg.sender] */\n      0xffffffffffffffffffffffffffffffffffffffff\n      and\n      0xffffffffffffffffffffffffffffffffffffffff\n      and\n      dup2\n      mstore\n      0x20\n      add\n      swap1\n      dup2\n      mstore\n      0x20\n      add\n      0x00\n      keccak256\n        /* \"SendEther\\xc4\\xb1um/Transfer.sol\":179:211  balances[msg.sender] = msg.value */\n      dup2\n      swap1\n      sstore\n      pop\n        /* \"SendEther\\xc4\\xb1um/Transfer.sol\":118:282  function sendEtherToContract() payable external{... */\n      jump\t// out\n        /* \"SendEther\\xc4\\xb1um/Transfer.sol\":925:953  uint public receiveCount = 0 */\n    tag_24:\n      sload(0x01)\n      dup2\n      jump\t// out\n        /* \"SendEther\\xc4\\xb1um/Transfer.sol\":290:405  function showBalance() external view returns(uint){... */\n    tag_29:\n        /* \"SendEther\\xc4\\xb1um/Transfer.sol\":335:339  uint */\n      0x00\n        /* \"SendEther\\xc4\\xb1um/Transfer.sol\":359:367  balances */\n      dup1\n        /* \"SendEther\\xc4\\xb1um/Transfer.sol\":359:379  balances[msg.sender] */\n      0x00\n        /* \"SendEther\\xc4\\xb1um/Transfer.sol\":368:378  msg.sender */\n      caller\n        /* \"SendEther\\xc4\\xb1um/Transfer.sol\":359:379  balances[msg.sender] */\n      0xffffffffffffffffffffffffffffffffffffffff\n      and\n      0xffffffffffffffffffffffffffffffffffffffff\n      and\n      dup2\n      mstore\n      0x20\n      add\n      swap1\n      dup2\n      mstore\n      0x20\n      add\n      0x00\n      keccak256\n      sload\n        /* \"SendEther\\xc4\\xb1um/Transfer.sol\":352:379  return balances[msg.sender] */\n      swap1\n      pop\n        /* \"SendEther\\xc4\\xb1um/Transfer.sol\":290:405  function showBalance() external view returns(uint){... */\n      swap1\n      jump\t// out\n        /* \"SendEther\\xc4\\xb1um/Transfer.sol\":962:991  uint public fallbackCount = 0 */\n    tag_33:\n      sload(0x02)\n      dup2\n      jump\t// out\n        /* \"#utility.yul\":7:84   */\n    tag_45:\n        /* \"#utility.yul\":44:51   */\n      0x00\n        /* \"#utility.yul\":73:78   */\n      dup2\n        /* \"#utility.yul\":62:78   */\n      swap1\n      pop\n        /* \"#utility.yul\":7:84   */\n      swap2\n      swap1\n      pop\n      jump\t// out\n        /* \"#utility.yul\":90:270   */\n    tag_46:\n        /* \"#utility.yul\":138:215   */\n      0x4e487b7100000000000000000000000000000000000000000000000000000000\n        /* \"#utility.yul\":135:136   */\n      0x00\n        /* \"#utility.yul\":128:216   */\n      mstore\n        /* \"#utility.yul\":235:239   */\n      0x11\n        /* \"#utility.yul\":232:233   */\n      0x04\n        /* \"#utility.yul\":225:240   */\n      mstore\n        /* \"#utility.yul\":259:263   */\n      0x24\n        /* \"#utility.yul\":256:257   */\n      0x00\n        /* \"#utility.yul\":249:264   */\n      revert\n        /* \"#utility.yul\":276:467   */\n    tag_11:\n        /* \"#utility.yul\":316:319   */\n      0x00\n        /* \"#utility.yul\":335:355   */\n      tag_64\n        /* \"#utility.yul\":353:354   */\n      dup3\n        /* \"#utility.yul\":335:355   */\n      tag_45\n      jump\t// in\n    tag_64:\n        /* \"#utility.yul\":330:355   */\n      swap2\n      pop\n        /* \"#utility.yul\":369:389   */\n      tag_65\n        /* \"#utility.yul\":387:388   */\n      dup4\n        /* \"#utility.yul\":369:389   */\n      tag_45\n      jump\t// in\n    tag_65:\n        /* \"#utility.yul\":364:389   */\n      swap3\n      pop\n        /* \"#utility.yul\":412:413   */\n      dup3\n        /* \"#utility.yul\":409:410   */\n      dup3\n        /* \"#utility.yul\":405:414   */\n      add\n        /* \"#utility.yul\":398:414   */\n      swap1\n      pop\n        /* \"#utility.yul\":433:436   */\n      dup1\n        /* \"#utility.yul\":430:431   */\n      dup3\n        /* \"#utility.yul\":427:437   */\n      gt\n        /* \"#utility.yul\":424:460   */\n      iszero\n      tag_66\n      jumpi\n        /* \"#utility.yul\":440:458   */\n      tag_67\n      tag_46\n      jump\t// in\n    tag_67:\n        /* \"#utility.yul\":424:460   */\n    tag_66:\n        /* \"#utility.yul\":276:467   */\n      swap3\n      swap2\n      pop\n      pop\n      jump\t// out\n        /* \"#utility.yul\":554:671   */\n    tag_48:\n        /* \"#utility.yul\":663:664   */\n      0x00\n        /* \"#utility.yul\":660:661   */\n      dup1\n        /* \"#utility.yul\":653:665   */\n      revert\n        /* \"#utility.yul\":800:926   */\n    tag_50:\n        /* \"#utility.yul\":837:844   */\n      0x00\n        /* \"#utility.yul\":877:919   */\n      0xffffffffffffffffffffffffffffffffffffffff\n        /* \"#utility.yul\":870:875   */\n      dup3\n        /* \"#utility.yul\":866:920   */\n      and\n        /* \"#utility.yul\":855:920   */\n      swap1\n      pop\n        /* \"#utility.yul\":800:926   */\n      swap2\n      swap1\n      pop\n      jump\t// out\n        /* \"#utility.yul\":932:1036   */\n    tag_51:\n        /* \"#utility.yul\":977:984   */\n      0x00\n        /* \"#utility.yul\":1006:1030   */\n      tag_73\n        /* \"#utility.yul\":1024:1029   */\n      dup3\n        /* \"#utility.yul\":1006:1030   */\n      tag_50\n      jump\t// in\n    tag_73:\n        /* \"#utility.yul\":995:1030   */\n      swap1\n      pop\n        /* \"#utility.yul\":932:1036   */\n      swap2\n      swap1\n      pop\n      jump\t// out\n        /* \"#utility.yul\":1042:1180   */\n    tag_52:\n        /* \"#utility.yul\":1123:1155   */\n      tag_75\n        /* \"#utility.yul\":1149:1154   */\n      dup2\n        /* \"#utility.yul\":1123:1155   */\n      tag_51\n      jump\t// in\n    tag_75:\n        /* \"#utility.yul\":1116:1121   */\n      dup2\n        /* \"#utility.yul\":1113:1156   */\n      eq\n        /* \"#utility.yul\":1103:1174   */\n      tag_76\n      jumpi\n        /* \"#utility.yul\":1170:1171   */\n      0x00\n        /* \"#utility.yul\":1167:1168   */\n      dup1\n        /* \"#utility.yul\":1160:1172   */\n      revert\n        /* \"#utility.yul\":1103:1174   */\n    tag_76:\n        /* \"#utility.yul\":1042:1180   */\n      pop\n      jump\t// out\n        /* \"#utility.yul\":1186:1341   */\n    tag_53:\n        /* \"#utility.yul\":1240:1245   */\n      0x00\n        /* \"#utility.yul\":1278:1284   */\n      dup2\n        /* \"#utility.yul\":1265:1285   */\n      calldataload\n        /* \"#utility.yul\":1256:1285   */\n      swap1\n      pop\n        /* \"#utility.yul\":1294:1335   */\n      tag_78\n        /* \"#utility.yul\":1329:1334   */\n      dup2\n        /* \"#utility.yul\":1294:1335   */\n      tag_52\n      jump\t// in\n    tag_78:\n        /* \"#utility.yul\":1186:1341   */\n      swap3\n      swap2\n      pop\n      pop\n      jump\t// out\n        /* \"#utility.yul\":1347:1469   */\n    tag_54:\n        /* \"#utility.yul\":1420:1444   */\n      tag_80\n        /* \"#utility.yul\":1438:1443   */\n      dup2\n        /* \"#utility.yul\":1420:1444   */\n      tag_45\n      jump\t// in\n    tag_80:\n        /* \"#utility.yul\":1413:1418   */\n      dup2\n        /* \"#utility.yul\":1410:1445   */\n      eq\n        /* \"#utility.yul\":1400:1463   */\n      tag_81\n      jumpi\n        /* \"#utility.yul\":1459:1460   */\n      0x00\n        /* \"#utility.yul\":1456:1457   */\n      dup1\n        /* \"#utility.yul\":1449:1461   */\n      revert\n        /* \"#utility.yul\":1400:1463   */\n    tag_81:\n        /* \"#utility.yul\":1347:1469   */\n      pop\n      jump\t// out\n        /* \"#utility.yul\":1475:1614   */\n    tag_55:\n        /* \"#utility.yul\":1521:1526   */\n      0x00\n        /* \"#utility.yul\":1559:1565   */\n      dup2\n        /* \"#utility.yul\":1546:1566   */\n      calldataload\n        /* \"#utility.yul\":1537:1566   */\n      swap1\n      pop\n        /* \"#utility.yul\":1575:1608   */\n      tag_83\n        /* \"#utility.yul\":1602:1607   */\n      dup2\n        /* \"#utility.yul\":1575:1608   */\n      tag_54\n      jump\t// in\n    tag_83:\n        /* \"#utility.yul\":1475:1614   */\n      swap3\n      swap2\n      pop\n      pop\n      jump\t// out\n        /* \"#utility.yul\":1620:2110   */\n    tag_18:\n        /* \"#utility.yul\":1696:1702   */\n      0x00\n        /* \"#utility.yul\":1704:1710   */\n      dup1\n        /* \"#utility.yul\":1753:1755   */\n      0x40\n        /* \"#utility.yul\":1741:1750   */\n      dup4\n        /* \"#utility.yul\":1732:1739   */\n      dup6\n        /* \"#utility.yul\":1728:1751   */\n      sub\n        /* \"#utility.yul\":1724:1756   */\n      slt\n        /* \"#utility.yul\":1721:1840   */\n      iszero\n      tag_85\n      jumpi\n        /* \"#utility.yul\":1759:1838   */\n      tag_86\n      tag_48\n      jump\t// in\n    tag_86:\n        /* \"#utility.yul\":1721:1840   */\n    tag_85:\n        /* \"#utility.yul\":1879:1880   */\n      0x00\n        /* \"#utility.yul\":1904:1965   */\n      tag_87\n        /* \"#utility.yul\":1957:1964   */\n      dup6\n        /* \"#utility.yul\":1948:1954   */\n      dup3\n        /* \"#utility.yul\":1937:1946   */\n      dup7\n        /* \"#utility.yul\":1933:1955   */\n      add\n        /* \"#utility.yul\":1904:1965   */\n      tag_53\n      jump\t// in\n    tag_87:\n        /* \"#utility.yul\":1894:1965   */\n      swap3\n      pop\n        /* \"#utility.yul\":1850:1975   */\n      pop\n        /* \"#utility.yul\":2014:2016   */\n      0x20\n        /* \"#utility.yul\":2040:2093   */\n      tag_88\n        /* \"#utility.yul\":2085:2092   */\n      dup6\n        /* \"#utility.yul\":2076:2082   */\n      dup3\n        /* \"#utility.yul\":2065:2074   */\n      dup7\n        /* \"#utility.yul\":2061:2083   */\n      add\n        /* \"#utility.yul\":2040:2093   */\n      tag_55\n      jump\t// in\n    tag_88:\n        /* \"#utility.yul\":2030:2093   */\n      swap2\n      pop\n        /* \"#utility.yul\":1985:2103   */\n      pop\n        /* \"#utility.yul\":1620:2110   */\n      swap3\n      pop\n      swap3\n      swap1\n      pop\n      jump\t// out\n        /* \"#utility.yul\":2116:2234   */\n    tag_56:\n        /* \"#utility.yul\":2203:2227   */\n      tag_90\n        /* \"#utility.yul\":2221:2226   */\n      dup2\n        /* \"#utility.yul\":2203:2227   */\n      tag_45\n      jump\t// in\n    tag_90:\n        /* \"#utility.yul\":2198:2201   */\n      dup3\n        /* \"#utility.yul\":2191:2228   */\n      mstore\n        /* \"#utility.yul\":2116:2234   */\n      pop\n      pop\n      jump\t// out\n        /* \"#utility.yul\":2240:2462   */\n    tag_26:\n        /* \"#utility.yul\":2333:2337   */\n      0x00\n        /* \"#utility.yul\":2371:2373   */\n      0x20\n        /* \"#utility.yul\":2360:2369   */\n      dup3\n        /* \"#utility.yul\":2356:2374   */\n      add\n        /* \"#utility.yul\":2348:2374   */\n      swap1\n      pop\n        /* \"#utility.yul\":2384:2455   */\n      tag_92\n        /* \"#utility.yul\":2452:2453   */\n      0x00\n        /* \"#utility.yul\":2441:2450   */\n      dup4\n        /* \"#utility.yul\":2437:2454   */\n      add\n        /* \"#utility.yul\":2428:2434   */\n      dup5\n        /* \"#utility.yul\":2384:2455   */\n      tag_56\n      jump\t// in\n    tag_92:\n        /* \"#utility.yul\":2240:2462   */\n      swap3\n      swap2\n      pop\n      pop\n      jump\t// out\n        /* \"#utility.yul\":2468:2637   */\n    tag_57:\n        /* \"#utility.yul\":2552:2563   */\n      0x00\n        /* \"#utility.yul\":2586:2592   */\n      dup3\n        /* \"#utility.yul\":2581:2584   */\n      dup3\n        /* \"#utility.yul\":2574:2593   */\n      mstore\n        /* \"#utility.yul\":2626:2630   */\n      0x20\n        /* \"#utility.yul\":2621:2624   */\n      dup3\n        /* \"#utility.yul\":2617:2631   */\n      add\n        /* \"#utility.yul\":2602:2631   */\n      swap1\n      pop\n        /* \"#utility.yul\":2468:2637   */\n      swap3\n      swap2\n      pop\n      pop\n      jump\t// out\n        /* \"#utility.yul\":2643:2808   */\n    tag_58:\n        /* \"#utility.yul\":2783:2800   */\n      0x596574657273697a2062616b6979650000000000000000000000000000000000\n        /* \"#utility.yul\":2779:2780   */\n      0x00\n        /* \"#utility.yul\":2771:2777   */\n      dup3\n        /* \"#utility.yul\":2767:2781   */\n      add\n        /* \"#utility.yul\":2760:2801   */\n      mstore\n        /* \"#utility.yul\":2643:2808   */\n      pop\n      jump\t// out\n        /* \"#utility.yul\":2814:3180   */\n    tag_59:\n        /* \"#utility.yul\":2956:2959   */\n      0x00\n        /* \"#utility.yul\":2977:3044   */\n      tag_96\n        /* \"#utility.yul\":3041:3043   */\n      0x0f\n        /* \"#utility.yul\":3036:3039   */\n      dup4\n        /* \"#utility.yul\":2977:3044   */\n      tag_57\n      jump\t// in\n    tag_96:\n        /* \"#utility.yul\":2970:3044   */\n      swap2\n      pop\n        /* \"#utility.yul\":3053:3146   */\n      tag_97\n        /* \"#utility.yul\":3142:3145   */\n      dup3\n        /* \"#utility.yul\":3053:3146   */\n      tag_58\n      jump\t// in\n    tag_97:\n        /* \"#utility.yul\":3171:3173   */\n      0x20\n        /* \"#utility.yul\":3166:3169   */\n      dup3\n        /* \"#utility.yul\":3162:3174   */\n      add\n        /* \"#utility.yul\":3155:3174   */\n      swap1\n      pop\n        /* \"#utility.yul\":2814:3180   */\n      swap2\n      swap1\n      pop\n      jump\t// out\n        /* \"#utility.yul\":3186:3605   */\n    tag_38:\n        /* \"#utility.yul\":3352:3356   */\n      0x00\n        /* \"#utility.yul\":3390:3392   */\n      0x20\n        /* \"#utility.yul\":3379:3388   */\n      dup3\n        /* \"#utility.yul\":3375:3393   */\n      add\n        /* \"#utility.yul\":3367:3393   */\n      swap1\n      pop\n        /* \"#utility.yul\":3439:3448   */\n      dup2\n        /* \"#utility.yul\":3433:3437   */\n      dup2\n        /* \"#utility.yul\":3429:3449   */\n      sub\n        /* \"#utility.yul\":3425:3426   */\n      0x00\n        /* \"#utility.yul\":3414:3423   */\n      dup4\n        /* \"#utility.yul\":3410:3427   */\n      add\n        /* \"#utility.yul\":3403:3450   */\n      mstore\n        /* \"#utility.yul\":3467:3598   */\n      tag_99\n        /* \"#utility.yul\":3593:3597   */\n      dup2\n        /* \"#utility.yul\":3467:3598   */\n      tag_59\n      jump\t// in\n    tag_99:\n        /* \"#utility.yul\":3459:3598   */\n      swap1\n      pop\n        /* \"#utility.yul\":3186:3605   */\n      swap2\n      swap1\n      pop\n      jump\t// out\n        /* \"#utility.yul\":3611:3805   */\n    tag_42:\n        /* \"#utility.yul\":3651:3655   */\n      0x00\n        /* \"#utility.yul\":3671:3691   */\n      tag_101\n        /* \"#utility.yul\":3689:3690   */\n      dup3\n        /* \"#utility.yul\":3671:3691   */\n      tag_45\n      jump\t// in\n    tag_101:\n        /* \"#utility.yul\":3666:3691   */\n      swap2\n      pop\n        /* \"#utility.yul\":3705:3725   */\n      tag_102\n        /* \"#utility.yul\":3723:3724   */\n      dup4\n        /* \"#utility.yul\":3705:3725   */\n      tag_45\n      jump\t// in\n    tag_102:\n        /* \"#utility.yul\":3700:3725   */\n      swap3\n      pop\n        /* \"#utility.yul\":3749:3750   */\n      dup3\n        /* \"#utility.yul\":3746:3747   */\n      dup3\n        /* \"#utility.yul\":3742:3751   */\n      sub\n        /* \"#utility.yul\":3734:3751   */\n      swap1\n      pop\n        /* \"#utility.yul\":3773:3774   */\n      dup2\n        /* \"#utility.yul\":3767:3771   */\n      dup2\n        /* \"#utility.yul\":3764:3775   */\n      gt\n        /* \"#utility.yul\":3761:3798   */\n      iszero\n      tag_103\n      jumpi\n        /* \"#utility.yul\":3778:3796   */\n      tag_104\n      tag_46\n      jump\t// in\n    tag_104:\n        /* \"#utility.yul\":3761:3798   */\n    tag_103:\n        /* \"#utility.yul\":3611:3805   */\n      swap3\n      swap2\n      pop\n      pop\n      jump\t// out\n\n    auxdata: 0xa26469706673582212205b35029c14a4a0db45a09b742808b457c0e9c838dfd6f8771f7c55955e278a5c64736f6c63430008120033\n}\n",
				"bytecode": {
					"linkReferences": {},
					"object": "60806040526000600155600060025534801561001a57600080fd5b506105418061002a6000396000f3fe60806040526004361061004e5760003560e01c8063191e2e8314610088578063325ec768146100b15780637ba85592146100bb57806381b2d07b146100e6578063f776bd06146101115761006d565b3661006d576001806000828254610065919061032d565b925050819055005b600160026000828254610080919061032d565b925050819055005b34801561009457600080fd5b506100af60048036038101906100aa91906103f0565b61013c565b005b6100b961025d565b005b3480156100c757600080fd5b506100d06102a2565b6040516100dd919061043f565b60405180910390f35b3480156100f257600080fd5b506100fb6102a8565b604051610108919061043f565b60405180910390f35b34801561011d57600080fd5b506101266102ee565b604051610133919061043f565b60405180910390f35b806000803373ffffffffffffffffffffffffffffffffffffffff1673ffffffffffffffffffffffffffffffffffffffff1681526020019081526020016000205410156101bd576040517f08c379a00000000000000000000000000000000000000000000000000000000081526004016101b4906104b7565b60405180910390fd5b8173ffffffffffffffffffffffffffffffffffffffff166108fc829081150290604051600060405180830381858888f19350505050158015610203573d6000803e3d6000fd5b50806000803373ffffffffffffffffffffffffffffffffffffffff1673ffffffffffffffffffffffffffffffffffffffff168152602001908152602001600020600082825461025291906104d7565b925050819055505050565b346000803373ffffffffffffffffffffffffffffffffffffffff1673ffffffffffffffffffffffffffffffffffffffff16815260200190815260200160002081905550565b60015481565b60008060003373ffffffffffffffffffffffffffffffffffffffff1673ffffffffffffffffffffffffffffffffffffffff16815260200190815260200160002054905090565b60025481565b6000819050919050565b7f4e487b7100000000000000000000000000000000000000000000000000000000600052601160045260246000fd5b6000610338826102f4565b9150610343836102f4565b925082820190508082111561035b5761035a6102fe565b5b92915050565b600080fd5b600073ffffffffffffffffffffffffffffffffffffffff82169050919050565b600061039182610366565b9050919050565b6103a181610386565b81146103ac57600080fd5b50565b6000813590506103be81610398565b92915050565b6103cd816102f4565b81146103d857600080fd5b50565b6000813590506103ea816103c4565b92915050565b6000806040838503121561040757610406610361565b5b6000610415858286016103af565b9250506020610426858286016103db565b9150509250929050565b610439816102f4565b82525050565b60006020820190506104546000830184610430565b92915050565b600082825260208201905092915050565b7f596574657273697a2062616b6979650000000000000000000000000000000000600082015250565b60006104a1600f8361045a565b91506104ac8261046b565b602082019050919050565b600060208201905081810360008301526104d081610494565b9050919050565b60006104e2826102f4565b91506104ed836102f4565b9250828203905081811115610505576105046102fe565b5b9291505056fea26469706673582212205b35029c14a4a0db45a09b742808b457c0e9c838dfd6f8771f7c55955e278a5c64736f6c63430008120033",
					"opcodes": "PUSH1 0x80 PUSH1 0x40 MSTORE PUSH1 0x0 PUSH1 0x1 SSTORE PUSH1 0x0 PUSH1 0x2 SSTORE CALLVALUE DUP1 ISZERO PUSH2 0x1A JUMPI PUSH1 0x0 DUP1 REVERT JUMPDEST POP PUSH2 0x541 DUP1 PUSH2 0x2A PUSH1 0x0 CODECOPY PUSH1 0x0 RETURN INVALID PUSH1 0x80 PUSH1 0x40 MSTORE PUSH1 0x4 CALLDATASIZE LT PUSH2 0x4E JUMPI PUSH1 0x0 CALLDATALOAD PUSH1 0xE0 SHR DUP1 PUSH4 0x191E2E83 EQ PUSH2 0x88 JUMPI DUP1 PUSH4 0x325EC768 EQ PUSH2 0xB1 JUMPI DUP1 PUSH4 0x7BA85592 EQ PUSH2 0xBB JUMPI DUP1 PUSH4 0x81B2D07B EQ PUSH2 0xE6 JUMPI DUP1 PUSH4 0xF776BD06 EQ PUSH2 0x111 JUMPI PUSH2 0x6D JUMP JUMPDEST CALLDATASIZE PUSH2 0x6D JUMPI PUSH1 0x1 DUP1 PUSH1 0x0 DUP3 DUP3 SLOAD PUSH2 0x65 SWAP2 SWAP1 PUSH2 0x32D JUMP JUMPDEST SWAP3 POP POP DUP2 SWAP1 SSTORE STOP JUMPDEST PUSH1 0x1 PUSH1 0x2 PUSH1 0x0 DUP3 DUP3 SLOAD PUSH2 0x80 SWAP2 SWAP1 PUSH2 0x32D JUMP JUMPDEST SWAP3 POP POP DUP2 SWAP1 SSTORE STOP JUMPDEST CALLVALUE DUP1 ISZERO PUSH2 0x94 JUMPI PUSH1 0x0 DUP1 REVERT JUMPDEST POP PUSH2 0xAF PUSH1 0x4 DUP1 CALLDATASIZE SUB DUP2 ADD SWAP1 PUSH2 0xAA SWAP2 SWAP1 PUSH2 0x3F0 JUMP JUMPDEST PUSH2 0x13C JUMP JUMPDEST STOP JUMPDEST PUSH2 0xB9 PUSH2 0x25D JUMP JUMPDEST STOP JUMPDEST CALLVALUE DUP1 ISZERO PUSH2 0xC7 JUMPI PUSH1 0x0 DUP1 REVERT JUMPDEST POP PUSH2 0xD0 PUSH2 0x2A2 JUMP JUMPDEST PUSH1 0x40 MLOAD PUSH2 0xDD SWAP2 SWAP1 PUSH2 0x43F JUMP JUMPDEST PUSH1 0x40 MLOAD DUP1 SWAP2 SUB SWAP1 RETURN JUMPDEST CALLVALUE DUP1 ISZERO PUSH2 0xF2 JUMPI PUSH1 0x0 DUP1 REVERT JUMPDEST POP PUSH2 0xFB PUSH2 0x2A8 JUMP JUMPDEST PUSH1 0x40 MLOAD PUSH2 0x108 SWAP2 SWAP1 PUSH2 0x43F JUMP JUMPDEST PUSH1 0x40 MLOAD DUP1 SWAP2 SUB SWAP1 RETURN JUMPDEST CALLVALUE DUP1 ISZERO PUSH2 0x11D JUMPI PUSH1 0x0 DUP1 REVERT JUMPDEST POP PUSH2 0x126 PUSH2 0x2EE JUMP JUMPDEST PUSH1 0x40 MLOAD PUSH2 0x133 SWAP2 SWAP1 PUSH2 0x43F JUMP JUMPDEST PUSH1 0x40 MLOAD DUP1 SWAP2 SUB SWAP1 RETURN JUMPDEST DUP1 PUSH1 0x0 DUP1 CALLER PUSH20 0xFFFFFFFFFFFFFFFFFFFFFFFFFFFFFFFFFFFFFFFF AND PUSH20 0xFFFFFFFFFFFFFFFFFFFFFFFFFFFFFFFFFFFFFFFF AND DUP2 MSTORE PUSH1 0x20 ADD SWAP1 DUP2 MSTORE PUSH1 0x20 ADD PUSH1 0x0 KECCAK256 SLOAD LT ISZERO PUSH2 0x1BD JUMPI PUSH1 0x40 MLOAD PUSH32 0x8C379A000000000000000000000000000000000000000000000000000000000 DUP2 MSTORE PUSH1 0x4 ADD PUSH2 0x1B4 SWAP1 PUSH2 0x4B7 JUMP JUMPDEST PUSH1 0x40 MLOAD DUP1 SWAP2 SUB SWAP1 REVERT JUMPDEST DUP2 PUSH20 0xFFFFFFFFFFFFFFFFFFFFFFFFFFFFFFFFFFFFFFFF AND PUSH2 0x8FC DUP3 SWAP1 DUP2 ISZERO MUL SWAP1 PUSH1 0x40 MLOAD PUSH1 0x0 PUSH1 0x40 MLOAD DUP1 DUP4 SUB DUP2 DUP6 DUP9 DUP9 CALL SWAP4 POP POP POP POP ISZERO DUP1 ISZERO PUSH2 0x203 JUMPI RETURNDATASIZE PUSH1 0x0 DUP1 RETURNDATACOPY RETURNDATASIZE PUSH1 0x0 REVERT JUMPDEST POP DUP1 PUSH1 0x0 DUP1 CALLER PUSH20 0xFFFFFFFFFFFFFFFFFFFFFFFFFFFFFFFFFFFFFFFF AND PUSH20 0xFFFFFFFFFFFFFFFFFFFFFFFFFFFFFFFFFFFFFFFF AND DUP2 MSTORE PUSH1 0x20 ADD SWAP1 DUP2 MSTORE PUSH1 0x20 ADD PUSH1 0x0 KECCAK256 PUSH1 0x0 DUP3 DUP3 SLOAD PUSH2 0x252 SWAP2 SWAP1 PUSH2 0x4D7 JUMP JUMPDEST SWAP3 POP POP DUP2 SWAP1 SSTORE POP POP POP JUMP JUMPDEST CALLVALUE PUSH1 0x0 DUP1 CALLER PUSH20 0xFFFFFFFFFFFFFFFFFFFFFFFFFFFFFFFFFFFFFFFF AND PUSH20 0xFFFFFFFFFFFFFFFFFFFFFFFFFFFFFFFFFFFFFFFF AND DUP2 MSTORE PUSH1 0x20 ADD SWAP1 DUP2 MSTORE PUSH1 0x20 ADD PUSH1 0x0 KECCAK256 DUP2 SWAP1 SSTORE POP JUMP JUMPDEST PUSH1 0x1 SLOAD DUP2 JUMP JUMPDEST PUSH1 0x0 DUP1 PUSH1 0x0 CALLER PUSH20 0xFFFFFFFFFFFFFFFFFFFFFFFFFFFFFFFFFFFFFFFF AND PUSH20 0xFFFFFFFFFFFFFFFFFFFFFFFFFFFFFFFFFFFFFFFF AND DUP2 MSTORE PUSH1 0x20 ADD SWAP1 DUP2 MSTORE PUSH1 0x20 ADD PUSH1 0x0 KECCAK256 SLOAD SWAP1 POP SWAP1 JUMP JUMPDEST PUSH1 0x2 SLOAD DUP2 JUMP JUMPDEST PUSH1 0x0 DUP2 SWAP1 POP SWAP2 SWAP1 POP JUMP JUMPDEST PUSH32 0x4E487B7100000000000000000000000000000000000000000000000000000000 PUSH1 0x0 MSTORE PUSH1 0x11 PUSH1 0x4 MSTORE PUSH1 0x24 PUSH1 0x0 REVERT JUMPDEST PUSH1 0x0 PUSH2 0x338 DUP3 PUSH2 0x2F4 JUMP JUMPDEST SWAP2 POP PUSH2 0x343 DUP4 PUSH2 0x2F4 JUMP JUMPDEST SWAP3 POP DUP3 DUP3 ADD SWAP1 POP DUP1 DUP3 GT ISZERO PUSH2 0x35B JUMPI PUSH2 0x35A PUSH2 0x2FE JUMP JUMPDEST JUMPDEST SWAP3 SWAP2 POP POP JUMP JUMPDEST PUSH1 0x0 DUP1 REVERT JUMPDEST PUSH1 0x0 PUSH20 0xFFFFFFFFFFFFFFFFFFFFFFFFFFFFFFFFFFFFFFFF DUP3 AND SWAP1 POP SWAP2 SWAP1 POP JUMP JUMPDEST PUSH1 0x0 PUSH2 0x391 DUP3 PUSH2 0x366 JUMP JUMPDEST SWAP1 POP SWAP2 SWAP1 POP JUMP JUMPDEST PUSH2 0x3A1 DUP2 PUSH2 0x386 JUMP JUMPDEST DUP2 EQ PUSH2 0x3AC JUMPI PUSH1 0x0 DUP1 REVERT JUMPDEST POP JUMP JUMPDEST PUSH1 0x0 DUP2 CALLDATALOAD SWAP1 POP PUSH2 0x3BE DUP2 PUSH2 0x398 JUMP JUMPDEST SWAP3 SWAP2 POP POP JUMP JUMPDEST PUSH2 0x3CD DUP2 PUSH2 0x2F4 JUMP JUMPDEST DUP2 EQ PUSH2 0x3D8 JUMPI PUSH1 0x0 DUP1 REVERT JUMPDEST POP JUMP JUMPDEST PUSH1 0x0 DUP2 CALLDATALOAD SWAP1 POP PUSH2 0x3EA DUP2 PUSH2 0x3C4 JUMP JUMPDEST SWAP3 SWAP2 POP POP JUMP JUMPDEST PUSH1 0x0 DUP1 PUSH1 0x40 DUP4 DUP6 SUB SLT ISZERO PUSH2 0x407 JUMPI PUSH2 0x406 PUSH2 0x361 JUMP JUMPDEST JUMPDEST PUSH1 0x0 PUSH2 0x415 DUP6 DUP3 DUP7 ADD PUSH2 0x3AF JUMP JUMPDEST SWAP3 POP POP PUSH1 0x20 PUSH2 0x426 DUP6 DUP3 DUP7 ADD PUSH2 0x3DB JUMP JUMPDEST SWAP2 POP POP SWAP3 POP SWAP3 SWAP1 POP JUMP JUMPDEST PUSH2 0x439 DUP2 PUSH2 0x2F4 JUMP JUMPDEST DUP3 MSTORE POP POP JUMP JUMPDEST PUSH1 0x0 PUSH1 0x20 DUP3 ADD SWAP1 POP PUSH2 0x454 PUSH1 0x0 DUP4 ADD DUP5 PUSH2 0x430 JUMP JUMPDEST SWAP3 SWAP2 POP POP JUMP JUMPDEST PUSH1 0x0 DUP3 DUP3 MSTORE PUSH1 0x20 DUP3 ADD SWAP1 POP SWAP3 SWAP2 POP POP JUMP JUMPDEST PUSH32 0x596574657273697A2062616B6979650000000000000000000000000000000000 PUSH1 0x0 DUP3 ADD MSTORE POP JUMP JUMPDEST PUSH1 0x0 PUSH2 0x4A1 PUSH1 0xF DUP4 PUSH2 0x45A JUMP JUMPDEST SWAP2 POP PUSH2 0x4AC DUP3 PUSH2 0x46B JUMP JUMPDEST PUSH1 0x20 DUP3 ADD SWAP1 POP SWAP2 SWAP1 POP JUMP JUMPDEST PUSH1 0x0 PUSH1 0x20 DUP3 ADD SWAP1 POP DUP2 DUP2 SUB PUSH1 0x0 DUP4 ADD MSTORE PUSH2 0x4D0 DUP2 PUSH2 0x494 JUMP JUMPDEST SWAP1 POP SWAP2 SWAP1 POP JUMP JUMPDEST PUSH1 0x0 PUSH2 0x4E2 DUP3 PUSH2 0x2F4 JUMP JUMPDEST SWAP2 POP PUSH2 0x4ED DUP4 PUSH2 0x2F4 JUMP JUMPDEST SWAP3 POP DUP3 DUP3 SUB SWAP1 POP DUP2 DUP2 GT ISZERO PUSH2 0x505 JUMPI PUSH2 0x504 PUSH2 0x2FE JUMP JUMPDEST JUMPDEST SWAP3 SWAP2 POP POP JUMP INVALID LOG2 PUSH5 0x6970667358 0x22 SLT KECCAK256 JUMPDEST CALLDATALOAD MUL SWAP13 EQ LOG4 LOG0 0xDB GASLIMIT LOG0 SWAP12 PUSH21 0x2808B457C0E9C838DFD6F8771F7C55955E278A5C64 PUSH20 0x6F6C634300081200330000000000000000000000 "
				},
				"gasEstimates": {
					"creation": {
						"codeDepositCost": "269000",
						"executionCost": "10324",
						"totalCost": "279324"
					},
					"external": {
						"": "infinite",
						"fallbackCount()": "2495",
						"receiveCount()": "2451",
						"sendEtherToContract()": "22322",
						"showBalance()": "2570",
						"withDraw(address,uint256)": "infinite"
					}
				},
				"methodIdentifiers": {
					"fallbackCount()": "f776bd06",
					"receiveCount()": "7ba85592",
					"sendEtherToContract()": "325ec768",
					"showBalance()": "81b2d07b",
					"withDraw(address,uint256)": "191e2e83"
				}
			},
			"storageLayout": {
				"storage": [
					{
						"astId": 5,
						"contract": "SendEtherıum/Transfer.sol:Bank",
						"label": "balances",
						"offset": 0,
						"slot": "0",
						"type": "t_mapping(t_address,t_uint256)"
					},
					{
						"astId": 62,
						"contract": "SendEtherıum/Transfer.sol:Bank",
						"label": "receiveCount",
						"offset": 0,
						"slot": "1",
						"type": "t_uint256"
					},
					{
						"astId": 65,
						"contract": "SendEtherıum/Transfer.sol:Bank",
						"label": "fallbackCount",
						"offset": 0,
						"slot": "2",
						"type": "t_uint256"
					}
				],
				"types": {
					"t_address": {
						"encoding": "inplace",
						"label": "address",
						"numberOfBytes": "20"
					},
					"t_mapping(t_address,t_uint256)": {
						"encoding": "mapping",
						"key": "t_address",
						"label": "mapping(address => uint256)",
						"numberOfBytes": "32",
						"value": "t_uint256"
					},
					"t_uint256": {
						"encoding": "inplace",
						"label": "uint256",
						"numberOfBytes": "32"
					}
				}
			},
			"userdoc": {
				"kind": "user",
				"methods": {},
				"version": 1
			}
		}
	}
}