{"contracts/UserRegistry.sol":{"UserRegistry":{"abi":[{"anonymous":false,"inputs":[{"indexed":false,"internalType":"address","name":"userAddress","type":"address"},{"indexed":false,"internalType":"string","name":"username","type":"string"}],"name":"UserRegistered","type":"event"},{"inputs":[{"internalType":"address","name":"_userAddress","type":"address"}],"name":"getUser","outputs":[{"internalType":"string","name":"","type":"string"},{"internalType":"bool","name":"","type":"bool"}],"stateMutability":"view","type":"function"},{"inputs":[{"internalType":"string","name":"_username","type":"string"},{"internalType":"string","name":"_passwordHash","type":"string"}],"name":"registerUser","outputs":[],"stateMutability":"nonpayable","type":"function"}],"evm":{"bytecode":{"linkReferences":{},"object":"608060405234801561001057600080fd5b50610a92806100206000396000f3fe608060405234801561001057600080fd5b50600436106100365760003560e01c80631d2e4afd1461003b5780636f77926b14610057575b600080fd5b610055600480360381019061005091906104fc565b610088565b005b610071600480360381019061006c91906105d2565b6101ff565b60405161007f929190610699565b60405180910390f35b6000803373ffffffffffffffffffffffffffffffffffffffff1673ffffffffffffffffffffffffffffffffffffffff16815260200190815260200160002060020160009054906101000a900460ff1615610117576040517f08c379a000000000000000000000000000000000000000000000000000000000815260040161010e90610715565b60405180910390fd5b6040518060600160405280838152602001828152602001600115158152506000803373ffffffffffffffffffffffffffffffffffffffff1673ffffffffffffffffffffffffffffffffffffffff1681526020019081526020016000206000820151816000019081610188919061094b565b50602082015181600101908161019e919061094b565b5060408201518160020160006101000a81548160ff0219169083151502179055509050507f48cac28ad4dc618e15f4c2dd5e97751182f166de97b25618318b2112aa951a2f33836040516101f3929190610a2c565b60405180910390a15050565b60606000806000808573ffffffffffffffffffffffffffffffffffffffff1673ffffffffffffffffffffffffffffffffffffffff16815260200190815260200160002060405180606001604052908160008201805461025d90610764565b80601f016020809104026020016040519081016040528092919081815260200182805461028990610764565b80156102d65780601f106102ab576101008083540402835291602001916102d6565b820191906000526020600020905b8154815290600101906020018083116102b957829003601f168201915b505050505081526020016001820180546102ef90610764565b80601f016020809104026020016040519081016040528092919081815260200182805461031b90610764565b80156103685780601f1061033d57610100808354040283529160200191610368565b820191906000526020600020905b81548152906001019060200180831161034b57829003601f168201915b505050505081526020016002820160009054906101000a900460ff1615151515815250509050806000015181604001519250925050915091565b6000604051905090565b600080fd5b600080fd5b600080fd5b600080fd5b6000601f19601f8301169050919050565b7f4e487b7100000000000000000000000000000000000000000000000000000000600052604160045260246000fd5b610409826103c0565b810181811067ffffffffffffffff82111715610428576104276103d1565b5b80604052505050565b600061043b6103a2565b90506104478282610400565b919050565b600067ffffffffffffffff821115610467576104666103d1565b5b610470826103c0565b9050602081019050919050565b82818337600083830152505050565b600061049f61049a8461044c565b610431565b9050828152602081018484840111156104bb576104ba6103bb565b5b6104c684828561047d565b509392505050565b600082601f8301126104e3576104e26103b6565b5b81356104f384826020860161048c565b91505092915050565b60008060408385031215610513576105126103ac565b5b600083013567ffffffffffffffff811115610531576105306103b1565b5b61053d858286016104ce565b925050602083013567ffffffffffffffff81111561055e5761055d6103b1565b5b61056a858286016104ce565b9150509250929050565b600073ffffffffffffffffffffffffffffffffffffffff82169050919050565b600061059f82610574565b9050919050565b6105af81610594565b81146105ba57600080fd5b50565b6000813590506105cc816105a6565b92915050565b6000602082840312156105e8576105e76103ac565b5b60006105f6848285016105bd565b91505092915050565b600081519050919050565b600082825260208201905092915050565b60005b8381101561063957808201518184015260208101905061061e565b60008484015250505050565b6000610650826105ff565b61065a818561060a565b935061066a81856020860161061b565b610673816103c0565b840191505092915050565b60008115159050919050565b6106938161067e565b82525050565b600060408201905081810360008301526106b38185610645565b90506106c2602083018461068a565b9392505050565b7f5573657220697320616c726561647920726567697374657265642e0000000000600082015250565b60006106ff601b8361060a565b915061070a826106c9565b602082019050919050565b6000602082019050818103600083015261072e816106f2565b9050919050565b7f4e487b7100000000000000000000000000000000000000000000000000000000600052602260045260246000fd5b6000600282049050600182168061077c57607f821691505b60208210810361078f5761078e610735565b5b50919050565b60008190508160005260206000209050919050565b60006020601f8301049050919050565b600082821b905092915050565b6000600883026107f77fffffffffffffffffffffffffffffffffffffffffffffffffffffffffffffffff826107ba565b61080186836107ba565b95508019841693508086168417925050509392505050565b6000819050919050565b6000819050919050565b600061084861084361083e84610819565b610823565b610819565b9050919050565b6000819050919050565b6108628361082d565b61087661086e8261084f565b8484546107c7565b825550505050565b600090565b61088b61087e565b610896818484610859565b505050565b5b818110156108ba576108af600082610883565b60018101905061089c565b5050565b601f8211156108ff576108d081610795565b6108d9846107aa565b810160208510156108e8578190505b6108fc6108f4856107aa565b83018261089b565b50505b505050565b600082821c905092915050565b600061092260001984600802610904565b1980831691505092915050565b600061093b8383610911565b9150826002028217905092915050565b610954826105ff565b67ffffffffffffffff81111561096d5761096c6103d1565b5b6109778254610764565b6109828282856108be565b600060209050601f8311600181146109b557600084156109a3578287015190505b6109ad858261092f565b865550610a15565b601f1984166109c386610795565b60005b828110156109eb578489015182556001820191506020850194506020810190506109c6565b86831015610a085784890151610a04601f891682610911565b8355505b6001600288020188555050505b505050505050565b610a2681610594565b82525050565b6000604082019050610a416000830185610a1d565b8181036020830152610a538184610645565b9050939250505056fea26469706673582212208a3f7a1c62d73bb51ee3b8cd7b87ecf172b54ab35bf02e1554bdc07eda772afc64736f6c63430008180033","opcodes":"PUSH1 0x80 PUSH1 0x40 MSTORE CALLVALUE DUP1 ISZERO PUSH2 0x10 JUMPI PUSH1 0x0 DUP1 REVERT JUMPDEST POP PUSH2 0xA92 DUP1 PUSH2 0x20 PUSH1 0x0 CODECOPY PUSH1 0x0 RETURN INVALID PUSH1 0x80 PUSH1 0x40 MSTORE CALLVALUE DUP1 ISZERO PUSH2 0x10 JUMPI PUSH1 0x0 DUP1 REVERT JUMPDEST POP PUSH1 0x4 CALLDATASIZE LT PUSH2 0x36 JUMPI PUSH1 0x0 CALLDATALOAD PUSH1 0xE0 SHR DUP1 PUSH4 0x1D2E4AFD EQ PUSH2 0x3B JUMPI DUP1 PUSH4 0x6F77926B EQ PUSH2 0x57 JUMPI JUMPDEST PUSH1 0x0 DUP1 REVERT JUMPDEST PUSH2 0x55 PUSH1 0x4 DUP1 CALLDATASIZE SUB DUP2 ADD SWAP1 PUSH2 0x50 SWAP2 SWAP1 PUSH2 0x4FC JUMP JUMPDEST PUSH2 0x88 JUMP JUMPDEST STOP JUMPDEST PUSH2 0x71 PUSH1 0x4 DUP1 CALLDATASIZE SUB DUP2 ADD SWAP1 PUSH2 0x6C SWAP2 SWAP1 PUSH2 0x5D2 JUMP JUMPDEST PUSH2 0x1FF JUMP JUMPDEST PUSH1 0x40 MLOAD PUSH2 0x7F SWAP3 SWAP2 SWAP1 PUSH2 0x699 JUMP JUMPDEST PUSH1 0x40 MLOAD DUP1 SWAP2 SUB SWAP1 RETURN JUMPDEST PUSH1 0x0 DUP1 CALLER PUSH20 0xFFFFFFFFFFFFFFFFFFFFFFFFFFFFFFFFFFFFFFFF AND PUSH20 0xFFFFFFFFFFFFFFFFFFFFFFFFFFFFFFFFFFFFFFFF AND DUP2 MSTORE PUSH1 0x20 ADD SWAP1 DUP2 MSTORE PUSH1 0x20 ADD PUSH1 0x0 KECCAK256 PUSH1 0x2 ADD PUSH1 0x0 SWAP1 SLOAD SWAP1 PUSH2 0x100 EXP SWAP1 DIV PUSH1 0xFF AND ISZERO PUSH2 0x117 JUMPI PUSH1 0x40 MLOAD PUSH32 0x8C379A000000000000000000000000000000000000000000000000000000000 DUP2 MSTORE PUSH1 0x4 ADD PUSH2 0x10E SWAP1 PUSH2 0x715 JUMP JUMPDEST PUSH1 0x40 MLOAD DUP1 SWAP2 SUB SWAP1 REVERT JUMPDEST PUSH1 0x40 MLOAD DUP1 PUSH1 0x60 ADD PUSH1 0x40 MSTORE DUP1 DUP4 DUP2 MSTORE PUSH1 0x20 ADD DUP3 DUP2 MSTORE PUSH1 0x20 ADD PUSH1 0x1 ISZERO ISZERO DUP2 MSTORE POP PUSH1 0x0 DUP1 CALLER PUSH20 0xFFFFFFFFFFFFFFFFFFFFFFFFFFFFFFFFFFFFFFFF AND PUSH20 0xFFFFFFFFFFFFFFFFFFFFFFFFFFFFFFFFFFFFFFFF AND DUP2 MSTORE PUSH1 0x20 ADD SWAP1 DUP2 MSTORE PUSH1 0x20 ADD PUSH1 0x0 KECCAK256 PUSH1 0x0 DUP3 ADD MLOAD DUP2 PUSH1 0x0 ADD SWAP1 DUP2 PUSH2 0x188 SWAP2 SWAP1 PUSH2 0x94B JUMP JUMPDEST POP PUSH1 0x20 DUP3 ADD MLOAD DUP2 PUSH1 0x1 ADD SWAP1 DUP2 PUSH2 0x19E SWAP2 SWAP1 PUSH2 0x94B JUMP JUMPDEST POP PUSH1 0x40 DUP3 ADD MLOAD DUP2 PUSH1 0x2 ADD PUSH1 0x0 PUSH2 0x100 EXP DUP2 SLOAD DUP2 PUSH1 0xFF MUL NOT AND SWAP1 DUP4 ISZERO ISZERO MUL OR SWAP1 SSTORE POP SWAP1 POP POP PUSH32 0x48CAC28AD4DC618E15F4C2DD5E97751182F166DE97B25618318B2112AA951A2F CALLER DUP4 PUSH1 0x40 MLOAD PUSH2 0x1F3 SWAP3 SWAP2 SWAP1 PUSH2 0xA2C JUMP JUMPDEST PUSH1 0x40 MLOAD DUP1 SWAP2 SUB SWAP1 LOG1 POP POP JUMP JUMPDEST PUSH1 0x60 PUSH1 0x0 DUP1 PUSH1 0x0 DUP1 DUP6 PUSH20 0xFFFFFFFFFFFFFFFFFFFFFFFFFFFFFFFFFFFFFFFF AND PUSH20 0xFFFFFFFFFFFFFFFFFFFFFFFFFFFFFFFFFFFFFFFF AND DUP2 MSTORE PUSH1 0x20 ADD SWAP1 DUP2 MSTORE PUSH1 0x20 ADD PUSH1 0x0 KECCAK256 PUSH1 0x40 MLOAD DUP1 PUSH1 0x60 ADD PUSH1 0x40 MSTORE SWAP1 DUP2 PUSH1 0x0 DUP3 ADD DUP1 SLOAD PUSH2 0x25D SWAP1 PUSH2 0x764 JUMP JUMPDEST DUP1 PUSH1 0x1F ADD PUSH1 0x20 DUP1 SWAP2 DIV MUL PUSH1 0x20 ADD PUSH1 0x40 MLOAD SWAP1 DUP2 ADD PUSH1 0x40 MSTORE DUP1 SWAP3 SWAP2 SWAP1 DUP2 DUP2 MSTORE PUSH1 0x20 ADD DUP3 DUP1 SLOAD PUSH2 0x289 SWAP1 PUSH2 0x764 JUMP JUMPDEST DUP1 ISZERO PUSH2 0x2D6 JUMPI DUP1 PUSH1 0x1F LT PUSH2 0x2AB JUMPI PUSH2 0x100 DUP1 DUP4 SLOAD DIV MUL DUP4 MSTORE SWAP2 PUSH1 0x20 ADD SWAP2 PUSH2 0x2D6 JUMP JUMPDEST DUP3 ADD SWAP2 SWAP1 PUSH1 0x0 MSTORE PUSH1 0x20 PUSH1 0x0 KECCAK256 SWAP1 JUMPDEST DUP2 SLOAD DUP2 MSTORE SWAP1 PUSH1 0x1 ADD SWAP1 PUSH1 0x20 ADD DUP1 DUP4 GT PUSH2 0x2B9 JUMPI DUP3 SWAP1 SUB PUSH1 0x1F AND DUP3 ADD SWAP2 JUMPDEST POP POP POP POP POP DUP2 MSTORE PUSH1 0x20 ADD PUSH1 0x1 DUP3 ADD DUP1 SLOAD PUSH2 0x2EF SWAP1 PUSH2 0x764 JUMP JUMPDEST DUP1 PUSH1 0x1F ADD PUSH1 0x20 DUP1 SWAP2 DIV MUL PUSH1 0x20 ADD PUSH1 0x40 MLOAD SWAP1 DUP2 ADD PUSH1 0x40 MSTORE DUP1 SWAP3 SWAP2 SWAP1 DUP2 DUP2 MSTORE PUSH1 0x20 ADD DUP3 DUP1 SLOAD PUSH2 0x31B SWAP1 PUSH2 0x764 JUMP JUMPDEST DUP1 ISZERO PUSH2 0x368 JUMPI DUP1 PUSH1 0x1F LT PUSH2 0x33D JUMPI PUSH2 0x100 DUP1 DUP4 SLOAD DIV MUL DUP4 MSTORE SWAP2 PUSH1 0x20 ADD SWAP2 PUSH2 0x368 JUMP JUMPDEST DUP3 ADD SWAP2 SWAP1 PUSH1 0x0 MSTORE PUSH1 0x20 PUSH1 0x0 KECCAK256 SWAP1 JUMPDEST DUP2 SLOAD DUP2 MSTORE SWAP1 PUSH1 0x1 ADD SWAP1 PUSH1 0x20 ADD DUP1 DUP4 GT PUSH2 0x34B JUMPI DUP3 SWAP1 SUB PUSH1 0x1F AND DUP3 ADD SWAP2 JUMPDEST POP POP POP POP POP DUP2 MSTORE PUSH1 0x20 ADD PUSH1 0x2 DUP3 ADD PUSH1 0x0 SWAP1 SLOAD SWAP1 PUSH2 0x100 EXP SWAP1 DIV PUSH1 0xFF AND ISZERO ISZERO ISZERO ISZERO DUP2 MSTORE POP POP SWAP1 POP DUP1 PUSH1 0x0 ADD MLOAD DUP2 PUSH1 0x40 ADD MLOAD SWAP3 POP SWAP3 POP POP SWAP2 POP SWAP2 JUMP JUMPDEST PUSH1 0x0 PUSH1 0x40 MLOAD SWAP1 POP SWAP1 JUMP JUMPDEST PUSH1 0x0 DUP1 REVERT JUMPDEST PUSH1 0x0 DUP1 REVERT JUMPDEST PUSH1 0x0 DUP1 REVERT JUMPDEST PUSH1 0x0 DUP1 REVERT JUMPDEST PUSH1 0x0 PUSH1 0x1F NOT PUSH1 0x1F DUP4 ADD AND SWAP1 POP SWAP2 SWAP1 POP JUMP JUMPDEST PUSH32 0x4E487B7100000000000000000000000000000000000000000000000000000000 PUSH1 0x0 MSTORE PUSH1 0x41 PUSH1 0x4 MSTORE PUSH1 0x24 PUSH1 0x0 REVERT JUMPDEST PUSH2 0x409 DUP3 PUSH2 0x3C0 JUMP JUMPDEST DUP2 ADD DUP2 DUP2 LT PUSH8 0xFFFFFFFFFFFFFFFF DUP3 GT OR ISZERO PUSH2 0x428 JUMPI PUSH2 0x427 PUSH2 0x3D1 JUMP JUMPDEST JUMPDEST DUP1 PUSH1 0x40 MSTORE POP POP POP JUMP JUMPDEST PUSH1 0x0 PUSH2 0x43B PUSH2 0x3A2 JUMP JUMPDEST SWAP1 POP PUSH2 0x447 DUP3 DUP3 PUSH2 0x400 JUMP JUMPDEST SWAP2 SWAP1 POP JUMP JUMPDEST PUSH1 0x0 PUSH8 0xFFFFFFFFFFFFFFFF DUP3 GT ISZERO PUSH2 0x467 JUMPI PUSH2 0x466 PUSH2 0x3D1 JUMP JUMPDEST JUMPDEST PUSH2 0x470 DUP3 PUSH2 0x3C0 JUMP JUMPDEST SWAP1 POP PUSH1 0x20 DUP2 ADD SWAP1 POP SWAP2 SWAP1 POP JUMP JUMPDEST DUP3 DUP2 DUP4 CALLDATACOPY PUSH1 0x0 DUP4 DUP4 ADD MSTORE POP POP POP JUMP JUMPDEST PUSH1 0x0 PUSH2 0x49F PUSH2 0x49A DUP5 PUSH2 0x44C JUMP JUMPDEST PUSH2 0x431 JUMP JUMPDEST SWAP1 POP DUP3 DUP2 MSTORE PUSH1 0x20 DUP2 ADD DUP5 DUP5 DUP5 ADD GT ISZERO PUSH2 0x4BB JUMPI PUSH2 0x4BA PUSH2 0x3BB JUMP JUMPDEST JUMPDEST PUSH2 0x4C6 DUP5 DUP3 DUP6 PUSH2 0x47D JUMP JUMPDEST POP SWAP4 SWAP3 POP POP POP JUMP JUMPDEST PUSH1 0x0 DUP3 PUSH1 0x1F DUP4 ADD SLT PUSH2 0x4E3 JUMPI PUSH2 0x4E2 PUSH2 0x3B6 JUMP JUMPDEST JUMPDEST DUP2 CALLDATALOAD PUSH2 0x4F3 DUP5 DUP3 PUSH1 0x20 DUP7 ADD PUSH2 0x48C JUMP JUMPDEST SWAP2 POP POP SWAP3 SWAP2 POP POP JUMP JUMPDEST PUSH1 0x0 DUP1 PUSH1 0x40 DUP4 DUP6 SUB SLT ISZERO PUSH2 0x513 JUMPI PUSH2 0x512 PUSH2 0x3AC JUMP JUMPDEST JUMPDEST PUSH1 0x0 DUP4 ADD CALLDATALOAD PUSH8 0xFFFFFFFFFFFFFFFF DUP2 GT ISZERO PUSH2 0x531 JUMPI PUSH2 0x530 PUSH2 0x3B1 JUMP JUMPDEST JUMPDEST PUSH2 0x53D DUP6 DUP3 DUP7 ADD PUSH2 0x4CE JUMP JUMPDEST SWAP3 POP POP PUSH1 0x20 DUP4 ADD CALLDATALOAD PUSH8 0xFFFFFFFFFFFFFFFF DUP2 GT ISZERO PUSH2 0x55E JUMPI PUSH2 0x55D PUSH2 0x3B1 JUMP JUMPDEST JUMPDEST PUSH2 0x56A DUP6 DUP3 DUP7 ADD PUSH2 0x4CE JUMP JUMPDEST SWAP2 POP POP SWAP3 POP SWAP3 SWAP1 POP JUMP JUMPDEST PUSH1 0x0 PUSH20 0xFFFFFFFFFFFFFFFFFFFFFFFFFFFFFFFFFFFFFFFF DUP3 AND SWAP1 POP SWAP2 SWAP1 POP JUMP JUMPDEST PUSH1 0x0 PUSH2 0x59F DUP3 PUSH2 0x574 JUMP JUMPDEST SWAP1 POP SWAP2 SWAP1 POP JUMP JUMPDEST PUSH2 0x5AF DUP2 PUSH2 0x594 JUMP JUMPDEST DUP2 EQ PUSH2 0x5BA JUMPI PUSH1 0x0 DUP1 REVERT JUMPDEST POP JUMP JUMPDEST PUSH1 0x0 DUP2 CALLDATALOAD SWAP1 POP PUSH2 0x5CC DUP2 PUSH2 0x5A6 JUMP JUMPDEST SWAP3 SWAP2 POP POP JUMP JUMPDEST PUSH1 0x0 PUSH1 0x20 DUP3 DUP5 SUB SLT ISZERO PUSH2 0x5E8 JUMPI PUSH2 0x5E7 PUSH2 0x3AC JUMP JUMPDEST JUMPDEST PUSH1 0x0 PUSH2 0x5F6 DUP5 DUP3 DUP6 ADD PUSH2 0x5BD JUMP JUMPDEST SWAP2 POP POP SWAP3 SWAP2 POP POP JUMP JUMPDEST PUSH1 0x0 DUP2 MLOAD SWAP1 POP SWAP2 SWAP1 POP JUMP JUMPDEST PUSH1 0x0 DUP3 DUP3 MSTORE PUSH1 0x20 DUP3 ADD SWAP1 POP SWAP3 SWAP2 POP POP JUMP JUMPDEST PUSH1 0x0 JUMPDEST DUP4 DUP2 LT ISZERO PUSH2 0x639 JUMPI DUP1 DUP3 ADD MLOAD DUP2 DUP5 ADD MSTORE PUSH1 0x20 DUP2 ADD SWAP1 POP PUSH2 0x61E JUMP JUMPDEST PUSH1 0x0 DUP5 DUP5 ADD MSTORE POP POP POP POP JUMP JUMPDEST PUSH1 0x0 PUSH2 0x650 DUP3 PUSH2 0x5FF JUMP JUMPDEST PUSH2 0x65A DUP2 DUP6 PUSH2 0x60A JUMP JUMPDEST SWAP4 POP PUSH2 0x66A DUP2 DUP6 PUSH1 0x20 DUP7 ADD PUSH2 0x61B JUMP JUMPDEST PUSH2 0x673 DUP2 PUSH2 0x3C0 JUMP JUMPDEST DUP5 ADD SWAP2 POP POP SWAP3 SWAP2 POP POP JUMP JUMPDEST PUSH1 0x0 DUP2 ISZERO ISZERO SWAP1 POP SWAP2 SWAP1 POP JUMP JUMPDEST PUSH2 0x693 DUP2 PUSH2 0x67E JUMP JUMPDEST DUP3 MSTORE POP POP JUMP JUMPDEST PUSH1 0x0 PUSH1 0x40 DUP3 ADD SWAP1 POP DUP2 DUP2 SUB PUSH1 0x0 DUP4 ADD MSTORE PUSH2 0x6B3 DUP2 DUP6 PUSH2 0x645 JUMP JUMPDEST SWAP1 POP PUSH2 0x6C2 PUSH1 0x20 DUP4 ADD DUP5 PUSH2 0x68A JUMP JUMPDEST SWAP4 SWAP3 POP POP POP JUMP JUMPDEST PUSH32 0x5573657220697320616C726561647920726567697374657265642E0000000000 PUSH1 0x0 DUP3 ADD MSTORE POP JUMP JUMPDEST PUSH1 0x0 PUSH2 0x6FF PUSH1 0x1B DUP4 PUSH2 0x60A JUMP JUMPDEST SWAP2 POP PUSH2 0x70A DUP3 PUSH2 0x6C9 JUMP JUMPDEST PUSH1 0x20 DUP3 ADD SWAP1 POP SWAP2 SWAP1 POP JUMP JUMPDEST PUSH1 0x0 PUSH1 0x20 DUP3 ADD SWAP1 POP DUP2 DUP2 SUB PUSH1 0x0 DUP4 ADD MSTORE PUSH2 0x72E DUP2 PUSH2 0x6F2 JUMP JUMPDEST SWAP1 POP SWAP2 SWAP1 POP JUMP JUMPDEST PUSH32 0x4E487B7100000000000000000000000000000000000000000000000000000000 PUSH1 0x0 MSTORE PUSH1 0x22 PUSH1 0x4 MSTORE PUSH1 0x24 PUSH1 0x0 REVERT JUMPDEST PUSH1 0x0 PUSH1 0x2 DUP3 DIV SWAP1 POP PUSH1 0x1 DUP3 AND DUP1 PUSH2 0x77C JUMPI PUSH1 0x7F DUP3 AND SWAP2 POP JUMPDEST PUSH1 0x20 DUP3 LT DUP2 SUB PUSH2 0x78F JUMPI PUSH2 0x78E PUSH2 0x735 JUMP JUMPDEST JUMPDEST POP SWAP2 SWAP1 POP JUMP JUMPDEST PUSH1 0x0 DUP2 SWAP1 POP DUP2 PUSH1 0x0 MSTORE PUSH1 0x20 PUSH1 0x0 KECCAK256 SWAP1 POP SWAP2 SWAP1 POP JUMP JUMPDEST PUSH1 0x0 PUSH1 0x20 PUSH1 0x1F DUP4 ADD DIV SWAP1 POP SWAP2 SWAP1 POP JUMP JUMPDEST PUSH1 0x0 DUP3 DUP3 SHL SWAP1 POP SWAP3 SWAP2 POP POP JUMP JUMPDEST PUSH1 0x0 PUSH1 0x8 DUP4 MUL PUSH2 0x7F7 PUSH32 0xFFFFFFFFFFFFFFFFFFFFFFFFFFFFFFFFFFFFFFFFFFFFFFFFFFFFFFFFFFFFFFFF DUP3 PUSH2 0x7BA JUMP JUMPDEST PUSH2 0x801 DUP7 DUP4 PUSH2 0x7BA JUMP JUMPDEST SWAP6 POP DUP1 NOT DUP5 AND SWAP4 POP DUP1 DUP7 AND DUP5 OR SWAP3 POP POP POP SWAP4 SWAP3 POP POP POP JUMP JUMPDEST PUSH1 0x0 DUP2 SWAP1 POP SWAP2 SWAP1 POP JUMP JUMPDEST PUSH1 0x0 DUP2 SWAP1 POP SWAP2 SWAP1 POP JUMP JUMPDEST PUSH1 0x0 PUSH2 0x848 PUSH2 0x843 PUSH2 0x83E DUP5 PUSH2 0x819 JUMP JUMPDEST PUSH2 0x823 JUMP JUMPDEST PUSH2 0x819 JUMP JUMPDEST SWAP1 POP SWAP2 SWAP1 POP JUMP JUMPDEST PUSH1 0x0 DUP2 SWAP1 POP SWAP2 SWAP1 POP JUMP JUMPDEST PUSH2 0x862 DUP4 PUSH2 0x82D JUMP JUMPDEST PUSH2 0x876 PUSH2 0x86E DUP3 PUSH2 0x84F JUMP JUMPDEST DUP5 DUP5 SLOAD PUSH2 0x7C7 JUMP JUMPDEST DUP3 SSTORE POP POP POP POP JUMP JUMPDEST PUSH1 0x0 SWAP1 JUMP JUMPDEST PUSH2 0x88B PUSH2 0x87E JUMP JUMPDEST PUSH2 0x896 DUP2 DUP5 DUP5 PUSH2 0x859 JUMP JUMPDEST POP POP POP JUMP JUMPDEST JUMPDEST DUP2 DUP2 LT ISZERO PUSH2 0x8BA JUMPI PUSH2 0x8AF PUSH1 0x0 DUP3 PUSH2 0x883 JUMP JUMPDEST PUSH1 0x1 DUP2 ADD SWAP1 POP PUSH2 0x89C JUMP JUMPDEST POP POP JUMP JUMPDEST PUSH1 0x1F DUP3 GT ISZERO PUSH2 0x8FF JUMPI PUSH2 0x8D0 DUP2 PUSH2 0x795 JUMP JUMPDEST PUSH2 0x8D9 DUP5 PUSH2 0x7AA JUMP JUMPDEST DUP2 ADD PUSH1 0x20 DUP6 LT ISZERO PUSH2 0x8E8 JUMPI DUP2 SWAP1 POP JUMPDEST PUSH2 0x8FC PUSH2 0x8F4 DUP6 PUSH2 0x7AA JUMP JUMPDEST DUP4 ADD DUP3 PUSH2 0x89B JUMP JUMPDEST POP POP JUMPDEST POP POP POP JUMP JUMPDEST PUSH1 0x0 DUP3 DUP3 SHR SWAP1 POP SWAP3 SWAP2 POP POP JUMP JUMPDEST PUSH1 0x0 PUSH2 0x922 PUSH1 0x0 NOT DUP5 PUSH1 0x8 MUL PUSH2 0x904 JUMP JUMPDEST NOT DUP1 DUP4 AND SWAP2 POP POP SWAP3 SWAP2 POP POP JUMP JUMPDEST PUSH1 0x0 PUSH2 0x93B DUP4 DUP4 PUSH2 0x911 JUMP JUMPDEST SWAP2 POP DUP3 PUSH1 0x2 MUL DUP3 OR SWAP1 POP SWAP3 SWAP2 POP POP JUMP JUMPDEST PUSH2 0x954 DUP3 PUSH2 0x5FF JUMP JUMPDEST PUSH8 0xFFFFFFFFFFFFFFFF DUP2 GT ISZERO PUSH2 0x96D JUMPI PUSH2 0x96C PUSH2 0x3D1 JUMP JUMPDEST JUMPDEST PUSH2 0x977 DUP3 SLOAD PUSH2 0x764 JUMP JUMPDEST PUSH2 0x982 DUP3 DUP3 DUP6 PUSH2 0x8BE JUMP JUMPDEST PUSH1 0x0 PUSH1 0x20 SWAP1 POP PUSH1 0x1F DUP4 GT PUSH1 0x1 DUP2 EQ PUSH2 0x9B5 JUMPI PUSH1 0x0 DUP5 ISZERO PUSH2 0x9A3 JUMPI DUP3 DUP8 ADD MLOAD SWAP1 POP JUMPDEST PUSH2 0x9AD DUP6 DUP3 PUSH2 0x92F JUMP JUMPDEST DUP7 SSTORE POP PUSH2 0xA15 JUMP JUMPDEST PUSH1 0x1F NOT DUP5 AND PUSH2 0x9C3 DUP7 PUSH2 0x795 JUMP JUMPDEST PUSH1 0x0 JUMPDEST DUP3 DUP2 LT ISZERO PUSH2 0x9EB JUMPI DUP5 DUP10 ADD MLOAD DUP3 SSTORE PUSH1 0x1 DUP3 ADD SWAP2 POP PUSH1 0x20 DUP6 ADD SWAP5 POP PUSH1 0x20 DUP2 ADD SWAP1 POP PUSH2 0x9C6 JUMP JUMPDEST DUP7 DUP4 LT ISZERO PUSH2 0xA08 JUMPI DUP5 DUP10 ADD MLOAD PUSH2 0xA04 PUSH1 0x1F DUP10 AND DUP3 PUSH2 0x911 JUMP JUMPDEST DUP4 SSTORE POP JUMPDEST PUSH1 0x1 PUSH1 0x2 DUP9 MUL ADD DUP9 SSTORE POP POP POP JUMPDEST POP POP POP POP POP POP JUMP JUMPDEST PUSH2 0xA26 DUP2 PUSH2 0x594 JUMP JUMPDEST DUP3 MSTORE POP POP JUMP JUMPDEST PUSH1 0x0 PUSH1 0x40 DUP3 ADD SWAP1 POP PUSH2 0xA41 PUSH1 0x0 DUP4 ADD DUP6 PUSH2 0xA1D JUMP JUMPDEST DUP2 DUP2 SUB PUSH1 0x20 DUP4 ADD MSTORE PUSH2 0xA53 DUP2 DUP5 PUSH2 0x645 JUMP JUMPDEST SWAP1 POP SWAP4 SWAP3 POP POP POP JUMP INVALID LOG2 PUSH5 0x6970667358 0x22 SLT KECCAK256 DUP11 EXTCODEHASH PUSH27 0x1C62D73BB51EE3B8CD7B87ECF172B54AB35BF02E1554BDC07EDA77 0x2A 0xFC PUSH5 0x736F6C6343 STOP ADDMOD XOR STOP CALLER "},"methodIdentifiers":{"getUser(address)":"6f77926b","registerUser(string,string)":"1d2e4afd"}}}}}