{"contracts/UserRegistry.sol":{"UserRegistry":{"abi":[{"anonymous":false,"inputs":[{"indexed":true,"internalType":"address","name":"userAddress","type":"address"},{"indexed":false,"internalType":"bytes32","name":"usernameHash","type":"bytes32"}],"name":"UserRegistered","type":"event"},{"inputs":[{"internalType":"string","name":"_password","type":"string"}],"name":"checkPassword","outputs":[{"internalType":"bool","name":"","type":"bool"}],"stateMutability":"view","type":"function"},{"inputs":[{"internalType":"address","name":"_userAddress","type":"address"}],"name":"getUsername","outputs":[{"internalType":"string","name":"","type":"string"}],"stateMutability":"view","type":"function"},{"inputs":[{"internalType":"string","name":"_username","type":"string"},{"internalType":"string","name":"_password","type":"string"}],"name":"register","outputs":[],"stateMutability":"nonpayable","type":"function"}],"evm":{"bytecode":{"linkReferences":{},"object":"608060405234801561001057600080fd5b50610b75806100206000396000f3fe608060405234801561001057600080fd5b50600436106100415760003560e01c80633ffbd47f1461004657806387e16d4d14610062578063ce43c03214610092575b600080fd5b610060600480360381019061005b9190610729565b6100c2565b005b61007c600480360381019061007791906107a1565b61025c565b6040516100899190610805565b60405180910390f35b6100ac60048036038101906100a7919061087e565b61035b565b6040516100b9919061092a565b60405180910390f35b6000801b6000803373ffffffffffffffffffffffffffffffffffffffff1673ffffffffffffffffffffffffffffffffffffffff1681526020019081526020016000206000015414610148576040517f08c379a000000000000000000000000000000000000000000000000000000000815260040161013f90610998565b60405180910390fd5b60008260405160200161015b91906109f4565b60405160208183030381529060405280519060200120905060008260405160200161018691906109f4565b6040516020818303038152906040528051906020012090506040518060400160405280838152602001828152506000803373ffffffffffffffffffffffffffffffffffffffff1673ffffffffffffffffffffffffffffffffffffffff16815260200190815260200160002060008201518160000155602082015181600101559050503373ffffffffffffffffffffffffffffffffffffffff167f4c5d15f5779ae1ecd7d55bd3283d898e29c35743d172bd7b83a16e17bc0afe2a8360405161024e9190610a24565b60405180910390a250505050565b60008060001b6000803373ffffffffffffffffffffffffffffffffffffffff1673ffffffffffffffffffffffffffffffffffffffff16815260200190815260200160002060000154036102e4576040517f08c379a00000000000000000000000000000000000000000000000000000000081526004016102db90610a8b565b60405180910390fd5b6000826040516020016102f791906109f4565b604051602081830303815290604052805190602001209050806000803373ffffffffffffffffffffffffffffffffffffffff1673ffffffffffffffffffffffffffffffffffffffff1681526020019081526020016000206001015414915050919050565b60606000801b6000808473ffffffffffffffffffffffffffffffffffffffff1673ffffffffffffffffffffffffffffffffffffffff16815260200190815260200160002060000154036103e3576040517f08c379a00000000000000000000000000000000000000000000000000000000081526004016103da90610a8b565b60405180910390fd5b61042d6000808473ffffffffffffffffffffffffffffffffffffffff1673ffffffffffffffffffffffffffffffffffffffff16815260200190815260200160002060000154610434565b9050919050565b606060005b60208160ff1610801561048b5750600060f81b838260ff166020811061046257610461610aab565b5b1a60f81b7effffffffffffffffffffffffffffffffffffffffffffffffffffffffffffff191614155b156104a357808061049b90610b16565b915050610439565b60008160ff1667ffffffffffffffff8111156104c2576104c16105fe565b5b6040519080825280601f01601f1916602001820160405280156104f45781602001600182028036833780820191505090505b509050600091505b60208260ff1610801561054e5750600060f81b848360ff166020811061052557610524610aab565b5b1a60f81b7effffffffffffffffffffffffffffffffffffffffffffffffffffffffffffff191614155b156105c557838260ff166020811061056957610568610aab565b5b1a60f81b818360ff168151811061058357610582610aab565b5b60200101907effffffffffffffffffffffffffffffffffffffffffffffffffffffffffffff1916908160001a90535081806105bd90610b16565b9250506104fc565b8092505050919050565b6000604051905090565b600080fd5b600080fd5b600080fd5b600080fd5b6000601f19601f8301169050919050565b7f4e487b7100000000000000000000000000000000000000000000000000000000600052604160045260246000fd5b610636826105ed565b810181811067ffffffffffffffff82111715610655576106546105fe565b5b80604052505050565b60006106686105cf565b9050610674828261062d565b919050565b600067ffffffffffffffff821115610694576106936105fe565b5b61069d826105ed565b9050602081019050919050565b82818337600083830152505050565b60006106cc6106c784610679565b61065e565b9050828152602081018484840111156106e8576106e76105e8565b5b6106f38482856106aa565b509392505050565b600082601f8301126107105761070f6105e3565b5b81356107208482602086016106b9565b91505092915050565b600080604083850312156107405761073f6105d9565b5b600083013567ffffffffffffffff81111561075e5761075d6105de565b5b61076a858286016106fb565b925050602083013567ffffffffffffffff81111561078b5761078a6105de565b5b610797858286016106fb565b9150509250929050565b6000602082840312156107b7576107b66105d9565b5b600082013567ffffffffffffffff8111156107d5576107d46105de565b5b6107e1848285016106fb565b91505092915050565b60008115159050919050565b6107ff816107ea565b82525050565b600060208201905061081a60008301846107f6565b92915050565b600073ffffffffffffffffffffffffffffffffffffffff82169050919050565b600061084b82610820565b9050919050565b61085b81610840565b811461086657600080fd5b50565b60008135905061087881610852565b92915050565b600060208284031215610894576108936105d9565b5b60006108a284828501610869565b91505092915050565b600081519050919050565b600082825260208201905092915050565b60005b838110156108e55780820151818401526020810190506108ca565b60008484015250505050565b60006108fc826108ab565b61090681856108b6565b93506109168185602086016108c7565b61091f816105ed565b840191505092915050565b6000602082019050818103600083015261094481846108f1565b905092915050565b7f5573657220616c72656164792072656769737465726564000000000000000000600082015250565b60006109826017836108b6565b915061098d8261094c565b602082019050919050565b600060208201905081810360008301526109b181610975565b9050919050565b600081905092915050565b60006109ce826108ab565b6109d881856109b8565b93506109e88185602086016108c7565b80840191505092915050565b6000610a0082846109c3565b915081905092915050565b6000819050919050565b610a1e81610a0b565b82525050565b6000602082019050610a396000830184610a15565b92915050565b7f55736572206e6f74207265676973746572656400000000000000000000000000600082015250565b6000610a756013836108b6565b9150610a8082610a3f565b602082019050919050565b60006020820190508181036000830152610aa481610a68565b9050919050565b7f4e487b7100000000000000000000000000000000000000000000000000000000600052603260045260246000fd5b7f4e487b7100000000000000000000000000000000000000000000000000000000600052601160045260246000fd5b600060ff82169050919050565b6000610b2182610b09565b915060ff8203610b3457610b33610ada565b5b60018201905091905056fea26469706673582212201a0277c49c17b65f3fec75d99124fdb2fb87d9c895a1e7f5c064ae780369265364736f6c63430008180033","opcodes":"PUSH1 0x80 PUSH1 0x40 MSTORE CALLVALUE DUP1 ISZERO PUSH2 0x10 JUMPI PUSH1 0x0 DUP1 REVERT JUMPDEST POP PUSH2 0xB75 DUP1 PUSH2 0x20 PUSH1 0x0 CODECOPY PUSH1 0x0 RETURN INVALID PUSH1 0x80 PUSH1 0x40 MSTORE CALLVALUE DUP1 ISZERO PUSH2 0x10 JUMPI PUSH1 0x0 DUP1 REVERT JUMPDEST POP PUSH1 0x4 CALLDATASIZE LT PUSH2 0x41 JUMPI PUSH1 0x0 CALLDATALOAD PUSH1 0xE0 SHR DUP1 PUSH4 0x3FFBD47F EQ PUSH2 0x46 JUMPI DUP1 PUSH4 0x87E16D4D EQ PUSH2 0x62 JUMPI DUP1 PUSH4 0xCE43C032 EQ PUSH2 0x92 JUMPI JUMPDEST PUSH1 0x0 DUP1 REVERT JUMPDEST PUSH2 0x60 PUSH1 0x4 DUP1 CALLDATASIZE SUB DUP2 ADD SWAP1 PUSH2 0x5B SWAP2 SWAP1 PUSH2 0x729 JUMP JUMPDEST PUSH2 0xC2 JUMP JUMPDEST STOP JUMPDEST PUSH2 0x7C PUSH1 0x4 DUP1 CALLDATASIZE SUB DUP2 ADD SWAP1 PUSH2 0x77 SWAP2 SWAP1 PUSH2 0x7A1 JUMP JUMPDEST PUSH2 0x25C JUMP JUMPDEST PUSH1 0x40 MLOAD PUSH2 0x89 SWAP2 SWAP1 PUSH2 0x805 JUMP JUMPDEST PUSH1 0x40 MLOAD DUP1 SWAP2 SUB SWAP1 RETURN JUMPDEST PUSH2 0xAC PUSH1 0x4 DUP1 CALLDATASIZE SUB DUP2 ADD SWAP1 PUSH2 0xA7 SWAP2 SWAP1 PUSH2 0x87E JUMP JUMPDEST PUSH2 0x35B JUMP JUMPDEST PUSH1 0x40 MLOAD PUSH2 0xB9 SWAP2 SWAP1 PUSH2 0x92A JUMP JUMPDEST PUSH1 0x40 MLOAD DUP1 SWAP2 SUB SWAP1 RETURN JUMPDEST PUSH1 0x0 DUP1 SHL PUSH1 0x0 DUP1 CALLER PUSH20 0xFFFFFFFFFFFFFFFFFFFFFFFFFFFFFFFFFFFFFFFF AND PUSH20 0xFFFFFFFFFFFFFFFFFFFFFFFFFFFFFFFFFFFFFFFF AND DUP2 MSTORE PUSH1 0x20 ADD SWAP1 DUP2 MSTORE PUSH1 0x20 ADD PUSH1 0x0 KECCAK256 PUSH1 0x0 ADD SLOAD EQ PUSH2 0x148 JUMPI PUSH1 0x40 MLOAD PUSH32 0x8C379A000000000000000000000000000000000000000000000000000000000 DUP2 MSTORE PUSH1 0x4 ADD PUSH2 0x13F SWAP1 PUSH2 0x998 JUMP JUMPDEST PUSH1 0x40 MLOAD DUP1 SWAP2 SUB SWAP1 REVERT JUMPDEST PUSH1 0x0 DUP3 PUSH1 0x40 MLOAD PUSH1 0x20 ADD PUSH2 0x15B SWAP2 SWAP1 PUSH2 0x9F4 JUMP JUMPDEST PUSH1 0x40 MLOAD PUSH1 0x20 DUP2 DUP4 SUB SUB DUP2 MSTORE SWAP1 PUSH1 0x40 MSTORE DUP1 MLOAD SWAP1 PUSH1 0x20 ADD KECCAK256 SWAP1 POP PUSH1 0x0 DUP3 PUSH1 0x40 MLOAD PUSH1 0x20 ADD PUSH2 0x186 SWAP2 SWAP1 PUSH2 0x9F4 JUMP JUMPDEST PUSH1 0x40 MLOAD PUSH1 0x20 DUP2 DUP4 SUB SUB DUP2 MSTORE SWAP1 PUSH1 0x40 MSTORE DUP1 MLOAD SWAP1 PUSH1 0x20 ADD KECCAK256 SWAP1 POP PUSH1 0x40 MLOAD DUP1 PUSH1 0x40 ADD PUSH1 0x40 MSTORE DUP1 DUP4 DUP2 MSTORE PUSH1 0x20 ADD DUP3 DUP2 MSTORE POP PUSH1 0x0 DUP1 CALLER PUSH20 0xFFFFFFFFFFFFFFFFFFFFFFFFFFFFFFFFFFFFFFFF AND PUSH20 0xFFFFFFFFFFFFFFFFFFFFFFFFFFFFFFFFFFFFFFFF AND DUP2 MSTORE PUSH1 0x20 ADD SWAP1 DUP2 MSTORE PUSH1 0x20 ADD PUSH1 0x0 KECCAK256 PUSH1 0x0 DUP3 ADD MLOAD DUP2 PUSH1 0x0 ADD SSTORE PUSH1 0x20 DUP3 ADD MLOAD DUP2 PUSH1 0x1 ADD SSTORE SWAP1 POP POP CALLER PUSH20 0xFFFFFFFFFFFFFFFFFFFFFFFFFFFFFFFFFFFFFFFF AND PUSH32 0x4C5D15F5779AE1ECD7D55BD3283D898E29C35743D172BD7B83A16E17BC0AFE2A DUP4 PUSH1 0x40 MLOAD PUSH2 0x24E SWAP2 SWAP1 PUSH2 0xA24 JUMP JUMPDEST PUSH1 0x40 MLOAD DUP1 SWAP2 SUB SWAP1 LOG2 POP POP POP POP JUMP JUMPDEST PUSH1 0x0 DUP1 PUSH1 0x0 SHL PUSH1 0x0 DUP1 CALLER PUSH20 0xFFFFFFFFFFFFFFFFFFFFFFFFFFFFFFFFFFFFFFFF AND PUSH20 0xFFFFFFFFFFFFFFFFFFFFFFFFFFFFFFFFFFFFFFFF AND DUP2 MSTORE PUSH1 0x20 ADD SWAP1 DUP2 MSTORE PUSH1 0x20 ADD PUSH1 0x0 KECCAK256 PUSH1 0x0 ADD SLOAD SUB PUSH2 0x2E4 JUMPI PUSH1 0x40 MLOAD PUSH32 0x8C379A000000000000000000000000000000000000000000000000000000000 DUP2 MSTORE PUSH1 0x4 ADD PUSH2 0x2DB SWAP1 PUSH2 0xA8B JUMP JUMPDEST PUSH1 0x40 MLOAD DUP1 SWAP2 SUB SWAP1 REVERT JUMPDEST PUSH1 0x0 DUP3 PUSH1 0x40 MLOAD PUSH1 0x20 ADD PUSH2 0x2F7 SWAP2 SWAP1 PUSH2 0x9F4 JUMP JUMPDEST PUSH1 0x40 MLOAD PUSH1 0x20 DUP2 DUP4 SUB SUB DUP2 MSTORE SWAP1 PUSH1 0x40 MSTORE DUP1 MLOAD SWAP1 PUSH1 0x20 ADD KECCAK256 SWAP1 POP DUP1 PUSH1 0x0 DUP1 CALLER PUSH20 0xFFFFFFFFFFFFFFFFFFFFFFFFFFFFFFFFFFFFFFFF AND PUSH20 0xFFFFFFFFFFFFFFFFFFFFFFFFFFFFFFFFFFFFFFFF AND DUP2 MSTORE PUSH1 0x20 ADD SWAP1 DUP2 MSTORE PUSH1 0x20 ADD PUSH1 0x0 KECCAK256 PUSH1 0x1 ADD SLOAD EQ SWAP2 POP POP SWAP2 SWAP1 POP JUMP JUMPDEST PUSH1 0x60 PUSH1 0x0 DUP1 SHL PUSH1 0x0 DUP1 DUP5 PUSH20 0xFFFFFFFFFFFFFFFFFFFFFFFFFFFFFFFFFFFFFFFF AND PUSH20 0xFFFFFFFFFFFFFFFFFFFFFFFFFFFFFFFFFFFFFFFF AND DUP2 MSTORE PUSH1 0x20 ADD SWAP1 DUP2 MSTORE PUSH1 0x20 ADD PUSH1 0x0 KECCAK256 PUSH1 0x0 ADD SLOAD SUB PUSH2 0x3E3 JUMPI PUSH1 0x40 MLOAD PUSH32 0x8C379A000000000000000000000000000000000000000000000000000000000 DUP2 MSTORE PUSH1 0x4 ADD PUSH2 0x3DA SWAP1 PUSH2 0xA8B JUMP JUMPDEST PUSH1 0x40 MLOAD DUP1 SWAP2 SUB SWAP1 REVERT JUMPDEST PUSH2 0x42D PUSH1 0x0 DUP1 DUP5 PUSH20 0xFFFFFFFFFFFFFFFFFFFFFFFFFFFFFFFFFFFFFFFF AND PUSH20 0xFFFFFFFFFFFFFFFFFFFFFFFFFFFFFFFFFFFFFFFF AND DUP2 MSTORE PUSH1 0x20 ADD SWAP1 DUP2 MSTORE PUSH1 0x20 ADD PUSH1 0x0 KECCAK256 PUSH1 0x0 ADD SLOAD PUSH2 0x434 JUMP JUMPDEST SWAP1 POP SWAP2 SWAP1 POP JUMP JUMPDEST PUSH1 0x60 PUSH1 0x0 JUMPDEST PUSH1 0x20 DUP2 PUSH1 0xFF AND LT DUP1 ISZERO PUSH2 0x48B JUMPI POP PUSH1 0x0 PUSH1 0xF8 SHL DUP4 DUP3 PUSH1 0xFF AND PUSH1 0x20 DUP2 LT PUSH2 0x462 JUMPI PUSH2 0x461 PUSH2 0xAAB JUMP JUMPDEST JUMPDEST BYTE PUSH1 0xF8 SHL PUSH31 0xFFFFFFFFFFFFFFFFFFFFFFFFFFFFFFFFFFFFFFFFFFFFFFFFFFFFFFFFFFFFFF NOT AND EQ ISZERO JUMPDEST ISZERO PUSH2 0x4A3 JUMPI DUP1 DUP1 PUSH2 0x49B SWAP1 PUSH2 0xB16 JUMP JUMPDEST SWAP2 POP POP PUSH2 0x439 JUMP JUMPDEST PUSH1 0x0 DUP2 PUSH1 0xFF AND PUSH8 0xFFFFFFFFFFFFFFFF DUP2 GT ISZERO PUSH2 0x4C2 JUMPI PUSH2 0x4C1 PUSH2 0x5FE JUMP JUMPDEST JUMPDEST PUSH1 0x40 MLOAD SWAP1 DUP1 DUP3 MSTORE DUP1 PUSH1 0x1F ADD PUSH1 0x1F NOT AND PUSH1 0x20 ADD DUP3 ADD PUSH1 0x40 MSTORE DUP1 ISZERO PUSH2 0x4F4 JUMPI DUP2 PUSH1 0x20 ADD PUSH1 0x1 DUP3 MUL DUP1 CALLDATASIZE DUP4 CALLDATACOPY DUP1 DUP3 ADD SWAP2 POP POP SWAP1 POP JUMPDEST POP SWAP1 POP PUSH1 0x0 SWAP2 POP JUMPDEST PUSH1 0x20 DUP3 PUSH1 0xFF AND LT DUP1 ISZERO PUSH2 0x54E JUMPI POP PUSH1 0x0 PUSH1 0xF8 SHL DUP5 DUP4 PUSH1 0xFF AND PUSH1 0x20 DUP2 LT PUSH2 0x525 JUMPI PUSH2 0x524 PUSH2 0xAAB JUMP JUMPDEST JUMPDEST BYTE PUSH1 0xF8 SHL PUSH31 0xFFFFFFFFFFFFFFFFFFFFFFFFFFFFFFFFFFFFFFFFFFFFFFFFFFFFFFFFFFFFFF NOT AND EQ ISZERO JUMPDEST ISZERO PUSH2 0x5C5 JUMPI DUP4 DUP3 PUSH1 0xFF AND PUSH1 0x20 DUP2 LT PUSH2 0x569 JUMPI PUSH2 0x568 PUSH2 0xAAB JUMP JUMPDEST JUMPDEST BYTE PUSH1 0xF8 SHL DUP2 DUP4 PUSH1 0xFF AND DUP2 MLOAD DUP2 LT PUSH2 0x583 JUMPI PUSH2 0x582 PUSH2 0xAAB JUMP JUMPDEST JUMPDEST PUSH1 0x20 ADD ADD SWAP1 PUSH31 0xFFFFFFFFFFFFFFFFFFFFFFFFFFFFFFFFFFFFFFFFFFFFFFFFFFFFFFFFFFFFFF NOT AND SWAP1 DUP2 PUSH1 0x0 BYTE SWAP1 MSTORE8 POP DUP2 DUP1 PUSH2 0x5BD SWAP1 PUSH2 0xB16 JUMP JUMPDEST SWAP3 POP POP PUSH2 0x4FC JUMP JUMPDEST DUP1 SWAP3 POP POP POP SWAP2 SWAP1 POP JUMP JUMPDEST PUSH1 0x0 PUSH1 0x40 MLOAD SWAP1 POP SWAP1 JUMP JUMPDEST PUSH1 0x0 DUP1 REVERT JUMPDEST PUSH1 0x0 DUP1 REVERT JUMPDEST PUSH1 0x0 DUP1 REVERT JUMPDEST PUSH1 0x0 DUP1 REVERT JUMPDEST PUSH1 0x0 PUSH1 0x1F NOT PUSH1 0x1F DUP4 ADD AND SWAP1 POP SWAP2 SWAP1 POP JUMP JUMPDEST PUSH32 0x4E487B7100000000000000000000000000000000000000000000000000000000 PUSH1 0x0 MSTORE PUSH1 0x41 PUSH1 0x4 MSTORE PUSH1 0x24 PUSH1 0x0 REVERT JUMPDEST PUSH2 0x636 DUP3 PUSH2 0x5ED JUMP JUMPDEST DUP2 ADD DUP2 DUP2 LT PUSH8 0xFFFFFFFFFFFFFFFF DUP3 GT OR ISZERO PUSH2 0x655 JUMPI PUSH2 0x654 PUSH2 0x5FE JUMP JUMPDEST JUMPDEST DUP1 PUSH1 0x40 MSTORE POP POP POP JUMP JUMPDEST PUSH1 0x0 PUSH2 0x668 PUSH2 0x5CF JUMP JUMPDEST SWAP1 POP PUSH2 0x674 DUP3 DUP3 PUSH2 0x62D JUMP JUMPDEST SWAP2 SWAP1 POP JUMP JUMPDEST PUSH1 0x0 PUSH8 0xFFFFFFFFFFFFFFFF DUP3 GT ISZERO PUSH2 0x694 JUMPI PUSH2 0x693 PUSH2 0x5FE JUMP JUMPDEST JUMPDEST PUSH2 0x69D DUP3 PUSH2 0x5ED JUMP JUMPDEST SWAP1 POP PUSH1 0x20 DUP2 ADD SWAP1 POP SWAP2 SWAP1 POP JUMP JUMPDEST DUP3 DUP2 DUP4 CALLDATACOPY PUSH1 0x0 DUP4 DUP4 ADD MSTORE POP POP POP JUMP JUMPDEST PUSH1 0x0 PUSH2 0x6CC PUSH2 0x6C7 DUP5 PUSH2 0x679 JUMP JUMPDEST PUSH2 0x65E JUMP JUMPDEST SWAP1 POP DUP3 DUP2 MSTORE PUSH1 0x20 DUP2 ADD DUP5 DUP5 DUP5 ADD GT ISZERO PUSH2 0x6E8 JUMPI PUSH2 0x6E7 PUSH2 0x5E8 JUMP JUMPDEST JUMPDEST PUSH2 0x6F3 DUP5 DUP3 DUP6 PUSH2 0x6AA JUMP JUMPDEST POP SWAP4 SWAP3 POP POP POP JUMP JUMPDEST PUSH1 0x0 DUP3 PUSH1 0x1F DUP4 ADD SLT PUSH2 0x710 JUMPI PUSH2 0x70F PUSH2 0x5E3 JUMP JUMPDEST JUMPDEST DUP2 CALLDATALOAD PUSH2 0x720 DUP5 DUP3 PUSH1 0x20 DUP7 ADD PUSH2 0x6B9 JUMP JUMPDEST SWAP2 POP POP SWAP3 SWAP2 POP POP JUMP JUMPDEST PUSH1 0x0 DUP1 PUSH1 0x40 DUP4 DUP6 SUB SLT ISZERO PUSH2 0x740 JUMPI PUSH2 0x73F PUSH2 0x5D9 JUMP JUMPDEST JUMPDEST PUSH1 0x0 DUP4 ADD CALLDATALOAD PUSH8 0xFFFFFFFFFFFFFFFF DUP2 GT ISZERO PUSH2 0x75E JUMPI PUSH2 0x75D PUSH2 0x5DE JUMP JUMPDEST JUMPDEST PUSH2 0x76A DUP6 DUP3 DUP7 ADD PUSH2 0x6FB JUMP JUMPDEST SWAP3 POP POP PUSH1 0x20 DUP4 ADD CALLDATALOAD PUSH8 0xFFFFFFFFFFFFFFFF DUP2 GT ISZERO PUSH2 0x78B JUMPI PUSH2 0x78A PUSH2 0x5DE JUMP JUMPDEST JUMPDEST PUSH2 0x797 DUP6 DUP3 DUP7 ADD PUSH2 0x6FB JUMP JUMPDEST SWAP2 POP POP SWAP3 POP SWAP3 SWAP1 POP JUMP JUMPDEST PUSH1 0x0 PUSH1 0x20 DUP3 DUP5 SUB SLT ISZERO PUSH2 0x7B7 JUMPI PUSH2 0x7B6 PUSH2 0x5D9 JUMP JUMPDEST JUMPDEST PUSH1 0x0 DUP3 ADD CALLDATALOAD PUSH8 0xFFFFFFFFFFFFFFFF DUP2 GT ISZERO PUSH2 0x7D5 JUMPI PUSH2 0x7D4 PUSH2 0x5DE JUMP JUMPDEST JUMPDEST PUSH2 0x7E1 DUP5 DUP3 DUP6 ADD PUSH2 0x6FB JUMP JUMPDEST SWAP2 POP POP SWAP3 SWAP2 POP POP JUMP JUMPDEST PUSH1 0x0 DUP2 ISZERO ISZERO SWAP1 POP SWAP2 SWAP1 POP JUMP JUMPDEST PUSH2 0x7FF DUP2 PUSH2 0x7EA JUMP JUMPDEST DUP3 MSTORE POP POP JUMP JUMPDEST PUSH1 0x0 PUSH1 0x20 DUP3 ADD SWAP1 POP PUSH2 0x81A PUSH1 0x0 DUP4 ADD DUP5 PUSH2 0x7F6 JUMP JUMPDEST SWAP3 SWAP2 POP POP JUMP JUMPDEST PUSH1 0x0 PUSH20 0xFFFFFFFFFFFFFFFFFFFFFFFFFFFFFFFFFFFFFFFF DUP3 AND SWAP1 POP SWAP2 SWAP1 POP JUMP JUMPDEST PUSH1 0x0 PUSH2 0x84B DUP3 PUSH2 0x820 JUMP JUMPDEST SWAP1 POP SWAP2 SWAP1 POP JUMP JUMPDEST PUSH2 0x85B DUP2 PUSH2 0x840 JUMP JUMPDEST DUP2 EQ PUSH2 0x866 JUMPI PUSH1 0x0 DUP1 REVERT JUMPDEST POP JUMP JUMPDEST PUSH1 0x0 DUP2 CALLDATALOAD SWAP1 POP PUSH2 0x878 DUP2 PUSH2 0x852 JUMP JUMPDEST SWAP3 SWAP2 POP POP JUMP JUMPDEST PUSH1 0x0 PUSH1 0x20 DUP3 DUP5 SUB SLT ISZERO PUSH2 0x894 JUMPI PUSH2 0x893 PUSH2 0x5D9 JUMP JUMPDEST JUMPDEST PUSH1 0x0 PUSH2 0x8A2 DUP5 DUP3 DUP6 ADD PUSH2 0x869 JUMP JUMPDEST SWAP2 POP POP SWAP3 SWAP2 POP POP JUMP JUMPDEST PUSH1 0x0 DUP2 MLOAD SWAP1 POP SWAP2 SWAP1 POP JUMP JUMPDEST PUSH1 0x0 DUP3 DUP3 MSTORE PUSH1 0x20 DUP3 ADD SWAP1 POP SWAP3 SWAP2 POP POP JUMP JUMPDEST PUSH1 0x0 JUMPDEST DUP4 DUP2 LT ISZERO PUSH2 0x8E5 JUMPI DUP1 DUP3 ADD MLOAD DUP2 DUP5 ADD MSTORE PUSH1 0x20 DUP2 ADD SWAP1 POP PUSH2 0x8CA JUMP JUMPDEST PUSH1 0x0 DUP5 DUP5 ADD MSTORE POP POP POP POP JUMP JUMPDEST PUSH1 0x0 PUSH2 0x8FC DUP3 PUSH2 0x8AB JUMP JUMPDEST PUSH2 0x906 DUP2 DUP6 PUSH2 0x8B6 JUMP JUMPDEST SWAP4 POP PUSH2 0x916 DUP2 DUP6 PUSH1 0x20 DUP7 ADD PUSH2 0x8C7 JUMP JUMPDEST PUSH2 0x91F DUP2 PUSH2 0x5ED JUMP JUMPDEST DUP5 ADD SWAP2 POP POP SWAP3 SWAP2 POP POP JUMP JUMPDEST PUSH1 0x0 PUSH1 0x20 DUP3 ADD SWAP1 POP DUP2 DUP2 SUB PUSH1 0x0 DUP4 ADD MSTORE PUSH2 0x944 DUP2 DUP5 PUSH2 0x8F1 JUMP JUMPDEST SWAP1 POP SWAP3 SWAP2 POP POP JUMP JUMPDEST PUSH32 0x5573657220616C72656164792072656769737465726564000000000000000000 PUSH1 0x0 DUP3 ADD MSTORE POP JUMP JUMPDEST PUSH1 0x0 PUSH2 0x982 PUSH1 0x17 DUP4 PUSH2 0x8B6 JUMP JUMPDEST SWAP2 POP PUSH2 0x98D DUP3 PUSH2 0x94C JUMP JUMPDEST PUSH1 0x20 DUP3 ADD SWAP1 POP SWAP2 SWAP1 POP JUMP JUMPDEST PUSH1 0x0 PUSH1 0x20 DUP3 ADD SWAP1 POP DUP2 DUP2 SUB PUSH1 0x0 DUP4 ADD MSTORE PUSH2 0x9B1 DUP2 PUSH2 0x975 JUMP JUMPDEST SWAP1 POP SWAP2 SWAP1 POP JUMP JUMPDEST PUSH1 0x0 DUP2 SWAP1 POP SWAP3 SWAP2 POP POP JUMP JUMPDEST PUSH1 0x0 PUSH2 0x9CE DUP3 PUSH2 0x8AB JUMP JUMPDEST PUSH2 0x9D8 DUP2 DUP6 PUSH2 0x9B8 JUMP JUMPDEST SWAP4 POP PUSH2 0x9E8 DUP2 DUP6 PUSH1 0x20 DUP7 ADD PUSH2 0x8C7 JUMP JUMPDEST DUP1 DUP5 ADD SWAP2 POP POP SWAP3 SWAP2 POP POP JUMP JUMPDEST PUSH1 0x0 PUSH2 0xA00 DUP3 DUP5 PUSH2 0x9C3 JUMP JUMPDEST SWAP2 POP DUP2 SWAP1 POP SWAP3 SWAP2 POP POP JUMP JUMPDEST PUSH1 0x0 DUP2 SWAP1 POP SWAP2 SWAP1 POP JUMP JUMPDEST PUSH2 0xA1E DUP2 PUSH2 0xA0B JUMP JUMPDEST DUP3 MSTORE POP POP JUMP JUMPDEST PUSH1 0x0 PUSH1 0x20 DUP3 ADD SWAP1 POP PUSH2 0xA39 PUSH1 0x0 DUP4 ADD DUP5 PUSH2 0xA15 JUMP JUMPDEST SWAP3 SWAP2 POP POP JUMP JUMPDEST PUSH32 0x55736572206E6F74207265676973746572656400000000000000000000000000 PUSH1 0x0 DUP3 ADD MSTORE POP JUMP JUMPDEST PUSH1 0x0 PUSH2 0xA75 PUSH1 0x13 DUP4 PUSH2 0x8B6 JUMP JUMPDEST SWAP2 POP PUSH2 0xA80 DUP3 PUSH2 0xA3F JUMP JUMPDEST PUSH1 0x20 DUP3 ADD SWAP1 POP SWAP2 SWAP1 POP JUMP JUMPDEST PUSH1 0x0 PUSH1 0x20 DUP3 ADD SWAP1 POP DUP2 DUP2 SUB PUSH1 0x0 DUP4 ADD MSTORE PUSH2 0xAA4 DUP2 PUSH2 0xA68 JUMP JUMPDEST SWAP1 POP SWAP2 SWAP1 POP JUMP JUMPDEST PUSH32 0x4E487B7100000000000000000000000000000000000000000000000000000000 PUSH1 0x0 MSTORE PUSH1 0x32 PUSH1 0x4 MSTORE PUSH1 0x24 PUSH1 0x0 REVERT JUMPDEST PUSH32 0x4E487B7100000000000000000000000000000000000000000000000000000000 PUSH1 0x0 MSTORE PUSH1 0x11 PUSH1 0x4 MSTORE PUSH1 0x24 PUSH1 0x0 REVERT JUMPDEST PUSH1 0x0 PUSH1 0xFF DUP3 AND SWAP1 POP SWAP2 SWAP1 POP JUMP JUMPDEST PUSH1 0x0 PUSH2 0xB21 DUP3 PUSH2 0xB09 JUMP JUMPDEST SWAP2 POP PUSH1 0xFF DUP3 SUB PUSH2 0xB34 JUMPI PUSH2 0xB33 PUSH2 0xADA JUMP JUMPDEST JUMPDEST PUSH1 0x1 DUP3 ADD SWAP1 POP SWAP2 SWAP1 POP JUMP INVALID LOG2 PUSH5 0x6970667358 0x22 SLT KECCAK256 BYTE MUL PUSH24 0xC49C17B65F3FEC75D99124FDB2FB87D9C895A1E7F5C064AE PUSH25 0x369265364736F6C6343000818003300000000000000000000 "},"methodIdentifiers":{"checkPassword(string)":"87e16d4d","getUsername(address)":"ce43c032","register(string,string)":"3ffbd47f"}}}}}