{"contracts/changeuserinformation.sol":{"UserPanelInfo":{"abi":[{"inputs":[{"internalType":"address","name":"_userPanelAddress","type":"address"}],"stateMutability":"nonpayable","type":"constructor"},{"inputs":[],"name":"getUserInfoForAllUsers","outputs":[{"internalType":"address[]","name":"","type":"address[]"},{"internalType":"string[]","name":"","type":"string[]"},{"internalType":"string[]","name":"","type":"string[]"}],"stateMutability":"view","type":"function"},{"inputs":[{"internalType":"address","name":"userAddress","type":"address"},{"internalType":"string","name":"newUsername","type":"string"},{"internalType":"string","name":"newPassword","type":"string"}],"name":"updateUser","outputs":[],"stateMutability":"nonpayable","type":"function"},{"inputs":[],"name":"userPanelAddress","outputs":[{"internalType":"address","name":"","type":"address"}],"stateMutability":"view","type":"function"}],"evm":{"bytecode":{"linkReferences":{},"object":"608060405234801561001057600080fd5b50604051610cde380380610cde8339818101604052810190610032919061011c565b806000806101000a81548173ffffffffffffffffffffffffffffffffffffffff021916908373ffffffffffffffffffffffffffffffffffffffff16021790555080600160006101000a81548173ffffffffffffffffffffffffffffffffffffffff021916908373ffffffffffffffffffffffffffffffffffffffff16021790555050610149565b600080fd5b600073ffffffffffffffffffffffffffffffffffffffff82169050919050565b60006100e9826100be565b9050919050565b6100f9816100de565b811461010457600080fd5b50565b600081519050610116816100f0565b92915050565b600060208284031215610132576101316100b9565b5b600061014084828501610107565b91505092915050565b610b86806101586000396000f3fe608060405234801561001057600080fd5b50600436106100415760003560e01c806310e8b22d1461004657806328b904d014610062578063296e854314610082575b600080fd5b610060600480360381019061005b9190610584565b6100a0565b005b61006a610136565b6040516100799392919061080e565b60405180910390f35b61008a6103a8565b6040516100979190610869565b60405180910390f35b600160009054906101000a900473ffffffffffffffffffffffffffffffffffffffff1673ffffffffffffffffffffffffffffffffffffffff166310e8b22d8484846040518463ffffffff1660e01b81526004016100ff939291906108ce565b600060405180830381600087803b15801561011957600080fd5b505af115801561012d573d6000803e3d6000fd5b50505050505050565b60608060606000600160009054906101000a900473ffffffffffffffffffffffffffffffffffffffff1673ffffffffffffffffffffffffffffffffffffffff1663e2842d796040518163ffffffff1660e01b8152600401600060405180830381865afa1580156101aa573d6000803e3d6000fd5b505050506040513d6000823e3d601f19601f820116820180604052508101906101d391906109f0565b90506000815167ffffffffffffffff8111156101f2576101f1610459565b5b60405190808252806020026020018201604052801561022557816020015b60608152602001906001900390816102105790505b5090506000825167ffffffffffffffff81111561024557610244610459565b5b60405190808252806020026020018201604052801561027857816020015b60608152602001906001900390816102635790505b50905060005b835181101561039657600080600160009054906101000a900473ffffffffffffffffffffffffffffffffffffffff1673ffffffffffffffffffffffffffffffffffffffff16636f77926b8785815181106102db576102da610a39565b5b60200260200101516040518263ffffffff1660e01b81526004016102ff9190610869565b600060405180830381865afa15801561031c573d6000803e3d6000fd5b505050506040513d6000823e3d601f19601f820116820180604052508101906103459190610ad8565b915091508185848151811061035d5761035c610a39565b5b60200260200101819052508084848151811061037c5761037b610a39565b5b60200260200101819052505050808060010191505061027e565b50828282955095509550505050909192565b60008054906101000a900473ffffffffffffffffffffffffffffffffffffffff1681565b6000604051905090565b600080fd5b600080fd5b600073ffffffffffffffffffffffffffffffffffffffff82169050919050565b600061040b826103e0565b9050919050565b61041b81610400565b811461042657600080fd5b50565b60008135905061043881610412565b92915050565b600080fd5b600080fd5b6000601f19601f8301169050919050565b7f4e487b7100000000000000000000000000000000000000000000000000000000600052604160045260246000fd5b61049182610448565b810181811067ffffffffffffffff821117156104b0576104af610459565b5b80604052505050565b60006104c36103cc565b90506104cf8282610488565b919050565b600067ffffffffffffffff8211156104ef576104ee610459565b5b6104f882610448565b9050602081019050919050565b82818337600083830152505050565b6000610527610522846104d4565b6104b9565b90508281526020810184848401111561054357610542610443565b5b61054e848285610505565b509392505050565b600082601f83011261056b5761056a61043e565b5b813561057b848260208601610514565b91505092915050565b60008060006060848603121561059d5761059c6103d6565b5b60006105ab86828701610429565b935050602084013567ffffffffffffffff8111156105cc576105cb6103db565b5b6105d886828701610556565b925050604084013567ffffffffffffffff8111156105f9576105f86103db565b5b61060586828701610556565b9150509250925092565b600081519050919050565b600082825260208201905092915050565b6000819050602082019050919050565b61064481610400565b82525050565b6000610656838361063b565b60208301905092915050565b6000602082019050919050565b600061067a8261060f565b610684818561061a565b935061068f8361062b565b8060005b838110156106c05781516106a7888261064a565b97506106b283610662565b925050600181019050610693565b5085935050505092915050565b600081519050919050565b600082825260208201905092915050565b6000819050602082019050919050565b600081519050919050565b600082825260208201905092915050565b60005b83811015610733578082015181840152602081019050610718565b60008484015250505050565b600061074a826106f9565b6107548185610704565b9350610764818560208601610715565b61076d81610448565b840191505092915050565b6000610784838361073f565b905092915050565b6000602082019050919050565b60006107a4826106cd565b6107ae81856106d8565b9350836020820285016107c0856106e9565b8060005b858110156107fc57848403895281516107dd8582610778565b94506107e88361078c565b925060208a019950506001810190506107c4565b50829750879550505050505092915050565b60006060820190508181036000830152610828818661066f565b9050818103602083015261083c8185610799565b905081810360408301526108508184610799565b9050949350505050565b61086381610400565b82525050565b600060208201905061087e600083018461085a565b92915050565b600082825260208201905092915050565b60006108a0826106f9565b6108aa8185610884565b93506108ba818560208601610715565b6108c381610448565b840191505092915050565b60006060820190506108e3600083018661085a565b81810360208301526108f58185610895565b905081810360408301526109098184610895565b9050949350505050565b600067ffffffffffffffff82111561092e5761092d610459565b5b602082029050602081019050919050565b600080fd5b60008151905061095381610412565b92915050565b600061096c61096784610913565b6104b9565b9050808382526020820190506020840283018581111561098f5761098e61093f565b5b835b818110156109b857806109a48882610944565b845260208401935050602081019050610991565b5050509392505050565b600082601f8301126109d7576109d661043e565b5b81516109e7848260208601610959565b91505092915050565b600060208284031215610a0657610a056103d6565b5b600082015167ffffffffffffffff811115610a2457610a236103db565b5b610a30848285016109c2565b91505092915050565b7f4e487b7100000000000000000000000000000000000000000000000000000000600052603260045260246000fd5b6000610a7b610a76846104d4565b6104b9565b905082815260208101848484011115610a9757610a96610443565b5b610aa2848285610715565b509392505050565b600082601f830112610abf57610abe61043e565b5b8151610acf848260208601610a68565b91505092915050565b60008060408385031215610aef57610aee6103d6565b5b600083015167ffffffffffffffff811115610b0d57610b0c6103db565b5b610b1985828601610aaa565b925050602083015167ffffffffffffffff811115610b3a57610b396103db565b5b610b4685828601610aaa565b915050925092905056fea2646970667358221220ed18924e839bb1ced46df2c7f8667bb7c24e21e3390354da3e533237fc201cd464736f6c63430008180033","opcodes":"PUSH1 0x80 PUSH1 0x40 MSTORE CALLVALUE DUP1 ISZERO PUSH2 0x10 JUMPI PUSH1 0x0 DUP1 REVERT JUMPDEST POP PUSH1 0x40 MLOAD PUSH2 0xCDE CODESIZE SUB DUP1 PUSH2 0xCDE DUP4 CODECOPY DUP2 DUP2 ADD PUSH1 0x40 MSTORE DUP2 ADD SWAP1 PUSH2 0x32 SWAP2 SWAP1 PUSH2 0x11C JUMP JUMPDEST DUP1 PUSH1 0x0 DUP1 PUSH2 0x100 EXP DUP2 SLOAD DUP2 PUSH20 0xFFFFFFFFFFFFFFFFFFFFFFFFFFFFFFFFFFFFFFFF MUL NOT AND SWAP1 DUP4 PUSH20 0xFFFFFFFFFFFFFFFFFFFFFFFFFFFFFFFFFFFFFFFF AND MUL OR SWAP1 SSTORE POP DUP1 PUSH1 0x1 PUSH1 0x0 PUSH2 0x100 EXP DUP2 SLOAD DUP2 PUSH20 0xFFFFFFFFFFFFFFFFFFFFFFFFFFFFFFFFFFFFFFFF MUL NOT AND SWAP1 DUP4 PUSH20 0xFFFFFFFFFFFFFFFFFFFFFFFFFFFFFFFFFFFFFFFF AND MUL OR SWAP1 SSTORE POP POP PUSH2 0x149 JUMP JUMPDEST PUSH1 0x0 DUP1 REVERT JUMPDEST PUSH1 0x0 PUSH20 0xFFFFFFFFFFFFFFFFFFFFFFFFFFFFFFFFFFFFFFFF DUP3 AND SWAP1 POP SWAP2 SWAP1 POP JUMP JUMPDEST PUSH1 0x0 PUSH2 0xE9 DUP3 PUSH2 0xBE JUMP JUMPDEST SWAP1 POP SWAP2 SWAP1 POP JUMP JUMPDEST PUSH2 0xF9 DUP2 PUSH2 0xDE JUMP JUMPDEST DUP2 EQ PUSH2 0x104 JUMPI PUSH1 0x0 DUP1 REVERT JUMPDEST POP JUMP JUMPDEST PUSH1 0x0 DUP2 MLOAD SWAP1 POP PUSH2 0x116 DUP2 PUSH2 0xF0 JUMP JUMPDEST SWAP3 SWAP2 POP POP JUMP JUMPDEST PUSH1 0x0 PUSH1 0x20 DUP3 DUP5 SUB SLT ISZERO PUSH2 0x132 JUMPI PUSH2 0x131 PUSH2 0xB9 JUMP JUMPDEST JUMPDEST PUSH1 0x0 PUSH2 0x140 DUP5 DUP3 DUP6 ADD PUSH2 0x107 JUMP JUMPDEST SWAP2 POP POP SWAP3 SWAP2 POP POP JUMP JUMPDEST PUSH2 0xB86 DUP1 PUSH2 0x158 PUSH1 0x0 CODECOPY PUSH1 0x0 RETURN INVALID PUSH1 0x80 PUSH1 0x40 MSTORE CALLVALUE DUP1 ISZERO PUSH2 0x10 JUMPI PUSH1 0x0 DUP1 REVERT JUMPDEST POP PUSH1 0x4 CALLDATASIZE LT PUSH2 0x41 JUMPI PUSH1 0x0 CALLDATALOAD PUSH1 0xE0 SHR DUP1 PUSH4 0x10E8B22D EQ PUSH2 0x46 JUMPI DUP1 PUSH4 0x28B904D0 EQ PUSH2 0x62 JUMPI DUP1 PUSH4 0x296E8543 EQ PUSH2 0x82 JUMPI JUMPDEST PUSH1 0x0 DUP1 REVERT JUMPDEST PUSH2 0x60 PUSH1 0x4 DUP1 CALLDATASIZE SUB DUP2 ADD SWAP1 PUSH2 0x5B SWAP2 SWAP1 PUSH2 0x584 JUMP JUMPDEST PUSH2 0xA0 JUMP JUMPDEST STOP JUMPDEST PUSH2 0x6A PUSH2 0x136 JUMP JUMPDEST PUSH1 0x40 MLOAD PUSH2 0x79 SWAP4 SWAP3 SWAP2 SWAP1 PUSH2 0x80E JUMP JUMPDEST PUSH1 0x40 MLOAD DUP1 SWAP2 SUB SWAP1 RETURN JUMPDEST PUSH2 0x8A PUSH2 0x3A8 JUMP JUMPDEST PUSH1 0x40 MLOAD PUSH2 0x97 SWAP2 SWAP1 PUSH2 0x869 JUMP JUMPDEST PUSH1 0x40 MLOAD DUP1 SWAP2 SUB SWAP1 RETURN JUMPDEST PUSH1 0x1 PUSH1 0x0 SWAP1 SLOAD SWAP1 PUSH2 0x100 EXP SWAP1 DIV PUSH20 0xFFFFFFFFFFFFFFFFFFFFFFFFFFFFFFFFFFFFFFFF AND PUSH20 0xFFFFFFFFFFFFFFFFFFFFFFFFFFFFFFFFFFFFFFFF AND PUSH4 0x10E8B22D DUP5 DUP5 DUP5 PUSH1 0x40 MLOAD DUP5 PUSH4 0xFFFFFFFF AND PUSH1 0xE0 SHL DUP2 MSTORE PUSH1 0x4 ADD PUSH2 0xFF SWAP4 SWAP3 SWAP2 SWAP1 PUSH2 0x8CE JUMP JUMPDEST PUSH1 0x0 PUSH1 0x40 MLOAD DUP1 DUP4 SUB DUP2 PUSH1 0x0 DUP8 DUP1 EXTCODESIZE ISZERO DUP1 ISZERO PUSH2 0x119 JUMPI PUSH1 0x0 DUP1 REVERT JUMPDEST POP GAS CALL ISZERO DUP1 ISZERO PUSH2 0x12D JUMPI RETURNDATASIZE PUSH1 0x0 DUP1 RETURNDATACOPY RETURNDATASIZE PUSH1 0x0 REVERT JUMPDEST POP POP POP POP POP POP POP JUMP JUMPDEST PUSH1 0x60 DUP1 PUSH1 0x60 PUSH1 0x0 PUSH1 0x1 PUSH1 0x0 SWAP1 SLOAD SWAP1 PUSH2 0x100 EXP SWAP1 DIV PUSH20 0xFFFFFFFFFFFFFFFFFFFFFFFFFFFFFFFFFFFFFFFF AND PUSH20 0xFFFFFFFFFFFFFFFFFFFFFFFFFFFFFFFFFFFFFFFF AND PUSH4 0xE2842D79 PUSH1 0x40 MLOAD DUP2 PUSH4 0xFFFFFFFF AND PUSH1 0xE0 SHL DUP2 MSTORE PUSH1 0x4 ADD PUSH1 0x0 PUSH1 0x40 MLOAD DUP1 DUP4 SUB DUP2 DUP7 GAS STATICCALL ISZERO DUP1 ISZERO PUSH2 0x1AA JUMPI RETURNDATASIZE PUSH1 0x0 DUP1 RETURNDATACOPY RETURNDATASIZE PUSH1 0x0 REVERT JUMPDEST POP POP POP POP PUSH1 0x40 MLOAD RETURNDATASIZE PUSH1 0x0 DUP3 RETURNDATACOPY RETURNDATASIZE PUSH1 0x1F NOT PUSH1 0x1F DUP3 ADD AND DUP3 ADD DUP1 PUSH1 0x40 MSTORE POP DUP2 ADD SWAP1 PUSH2 0x1D3 SWAP2 SWAP1 PUSH2 0x9F0 JUMP JUMPDEST SWAP1 POP PUSH1 0x0 DUP2 MLOAD PUSH8 0xFFFFFFFFFFFFFFFF DUP2 GT ISZERO PUSH2 0x1F2 JUMPI PUSH2 0x1F1 PUSH2 0x459 JUMP JUMPDEST JUMPDEST PUSH1 0x40 MLOAD SWAP1 DUP1 DUP3 MSTORE DUP1 PUSH1 0x20 MUL PUSH1 0x20 ADD DUP3 ADD PUSH1 0x40 MSTORE DUP1 ISZERO PUSH2 0x225 JUMPI DUP2 PUSH1 0x20 ADD JUMPDEST PUSH1 0x60 DUP2 MSTORE PUSH1 0x20 ADD SWAP1 PUSH1 0x1 SWAP1 SUB SWAP1 DUP2 PUSH2 0x210 JUMPI SWAP1 POP JUMPDEST POP SWAP1 POP PUSH1 0x0 DUP3 MLOAD PUSH8 0xFFFFFFFFFFFFFFFF DUP2 GT ISZERO PUSH2 0x245 JUMPI PUSH2 0x244 PUSH2 0x459 JUMP JUMPDEST JUMPDEST PUSH1 0x40 MLOAD SWAP1 DUP1 DUP3 MSTORE DUP1 PUSH1 0x20 MUL PUSH1 0x20 ADD DUP3 ADD PUSH1 0x40 MSTORE DUP1 ISZERO PUSH2 0x278 JUMPI DUP2 PUSH1 0x20 ADD JUMPDEST PUSH1 0x60 DUP2 MSTORE PUSH1 0x20 ADD SWAP1 PUSH1 0x1 SWAP1 SUB SWAP1 DUP2 PUSH2 0x263 JUMPI SWAP1 POP JUMPDEST POP SWAP1 POP PUSH1 0x0 JUMPDEST DUP4 MLOAD DUP2 LT ISZERO PUSH2 0x396 JUMPI PUSH1 0x0 DUP1 PUSH1 0x1 PUSH1 0x0 SWAP1 SLOAD SWAP1 PUSH2 0x100 EXP SWAP1 DIV PUSH20 0xFFFFFFFFFFFFFFFFFFFFFFFFFFFFFFFFFFFFFFFF AND PUSH20 0xFFFFFFFFFFFFFFFFFFFFFFFFFFFFFFFFFFFFFFFF AND PUSH4 0x6F77926B DUP8 DUP6 DUP2 MLOAD DUP2 LT PUSH2 0x2DB JUMPI PUSH2 0x2DA PUSH2 0xA39 JUMP JUMPDEST JUMPDEST PUSH1 0x20 MUL PUSH1 0x20 ADD ADD MLOAD PUSH1 0x40 MLOAD DUP3 PUSH4 0xFFFFFFFF AND PUSH1 0xE0 SHL DUP2 MSTORE PUSH1 0x4 ADD PUSH2 0x2FF SWAP2 SWAP1 PUSH2 0x869 JUMP JUMPDEST PUSH1 0x0 PUSH1 0x40 MLOAD DUP1 DUP4 SUB DUP2 DUP7 GAS STATICCALL ISZERO DUP1 ISZERO PUSH2 0x31C JUMPI RETURNDATASIZE PUSH1 0x0 DUP1 RETURNDATACOPY RETURNDATASIZE PUSH1 0x0 REVERT JUMPDEST POP POP POP POP PUSH1 0x40 MLOAD RETURNDATASIZE PUSH1 0x0 DUP3 RETURNDATACOPY RETURNDATASIZE PUSH1 0x1F NOT PUSH1 0x1F DUP3 ADD AND DUP3 ADD DUP1 PUSH1 0x40 MSTORE POP DUP2 ADD SWAP1 PUSH2 0x345 SWAP2 SWAP1 PUSH2 0xAD8 JUMP JUMPDEST SWAP2 POP SWAP2 POP DUP2 DUP6 DUP5 DUP2 MLOAD DUP2 LT PUSH2 0x35D JUMPI PUSH2 0x35C PUSH2 0xA39 JUMP JUMPDEST JUMPDEST PUSH1 0x20 MUL PUSH1 0x20 ADD ADD DUP2 SWAP1 MSTORE POP DUP1 DUP5 DUP5 DUP2 MLOAD DUP2 LT PUSH2 0x37C JUMPI PUSH2 0x37B PUSH2 0xA39 JUMP JUMPDEST JUMPDEST PUSH1 0x20 MUL PUSH1 0x20 ADD ADD DUP2 SWAP1 MSTORE POP POP POP DUP1 DUP1 PUSH1 0x1 ADD SWAP2 POP POP PUSH2 0x27E JUMP JUMPDEST POP DUP3 DUP3 DUP3 SWAP6 POP SWAP6 POP SWAP6 POP POP POP POP SWAP1 SWAP2 SWAP3 JUMP JUMPDEST PUSH1 0x0 DUP1 SLOAD SWAP1 PUSH2 0x100 EXP SWAP1 DIV PUSH20 0xFFFFFFFFFFFFFFFFFFFFFFFFFFFFFFFFFFFFFFFF AND DUP2 JUMP JUMPDEST PUSH1 0x0 PUSH1 0x40 MLOAD SWAP1 POP SWAP1 JUMP JUMPDEST PUSH1 0x0 DUP1 REVERT JUMPDEST PUSH1 0x0 DUP1 REVERT JUMPDEST PUSH1 0x0 PUSH20 0xFFFFFFFFFFFFFFFFFFFFFFFFFFFFFFFFFFFFFFFF DUP3 AND SWAP1 POP SWAP2 SWAP1 POP JUMP JUMPDEST PUSH1 0x0 PUSH2 0x40B DUP3 PUSH2 0x3E0 JUMP JUMPDEST SWAP1 POP SWAP2 SWAP1 POP JUMP JUMPDEST PUSH2 0x41B DUP2 PUSH2 0x400 JUMP JUMPDEST DUP2 EQ PUSH2 0x426 JUMPI PUSH1 0x0 DUP1 REVERT JUMPDEST POP JUMP JUMPDEST PUSH1 0x0 DUP2 CALLDATALOAD SWAP1 POP PUSH2 0x438 DUP2 PUSH2 0x412 JUMP JUMPDEST SWAP3 SWAP2 POP POP JUMP JUMPDEST PUSH1 0x0 DUP1 REVERT JUMPDEST PUSH1 0x0 DUP1 REVERT JUMPDEST PUSH1 0x0 PUSH1 0x1F NOT PUSH1 0x1F DUP4 ADD AND SWAP1 POP SWAP2 SWAP1 POP JUMP JUMPDEST PUSH32 0x4E487B7100000000000000000000000000000000000000000000000000000000 PUSH1 0x0 MSTORE PUSH1 0x41 PUSH1 0x4 MSTORE PUSH1 0x24 PUSH1 0x0 REVERT JUMPDEST PUSH2 0x491 DUP3 PUSH2 0x448 JUMP JUMPDEST DUP2 ADD DUP2 DUP2 LT PUSH8 0xFFFFFFFFFFFFFFFF DUP3 GT OR ISZERO PUSH2 0x4B0 JUMPI PUSH2 0x4AF PUSH2 0x459 JUMP JUMPDEST JUMPDEST DUP1 PUSH1 0x40 MSTORE POP POP POP JUMP JUMPDEST PUSH1 0x0 PUSH2 0x4C3 PUSH2 0x3CC JUMP JUMPDEST SWAP1 POP PUSH2 0x4CF DUP3 DUP3 PUSH2 0x488 JUMP JUMPDEST SWAP2 SWAP1 POP JUMP JUMPDEST PUSH1 0x0 PUSH8 0xFFFFFFFFFFFFFFFF DUP3 GT ISZERO PUSH2 0x4EF JUMPI PUSH2 0x4EE PUSH2 0x459 JUMP JUMPDEST JUMPDEST PUSH2 0x4F8 DUP3 PUSH2 0x448 JUMP JUMPDEST SWAP1 POP PUSH1 0x20 DUP2 ADD SWAP1 POP SWAP2 SWAP1 POP JUMP JUMPDEST DUP3 DUP2 DUP4 CALLDATACOPY PUSH1 0x0 DUP4 DUP4 ADD MSTORE POP POP POP JUMP JUMPDEST PUSH1 0x0 PUSH2 0x527 PUSH2 0x522 DUP5 PUSH2 0x4D4 JUMP JUMPDEST PUSH2 0x4B9 JUMP JUMPDEST SWAP1 POP DUP3 DUP2 MSTORE PUSH1 0x20 DUP2 ADD DUP5 DUP5 DUP5 ADD GT ISZERO PUSH2 0x543 JUMPI PUSH2 0x542 PUSH2 0x443 JUMP JUMPDEST JUMPDEST PUSH2 0x54E DUP5 DUP3 DUP6 PUSH2 0x505 JUMP JUMPDEST POP SWAP4 SWAP3 POP POP POP JUMP JUMPDEST PUSH1 0x0 DUP3 PUSH1 0x1F DUP4 ADD SLT PUSH2 0x56B JUMPI PUSH2 0x56A PUSH2 0x43E JUMP JUMPDEST JUMPDEST DUP2 CALLDATALOAD PUSH2 0x57B DUP5 DUP3 PUSH1 0x20 DUP7 ADD PUSH2 0x514 JUMP JUMPDEST SWAP2 POP POP SWAP3 SWAP2 POP POP JUMP JUMPDEST PUSH1 0x0 DUP1 PUSH1 0x0 PUSH1 0x60 DUP5 DUP7 SUB SLT ISZERO PUSH2 0x59D JUMPI PUSH2 0x59C PUSH2 0x3D6 JUMP JUMPDEST JUMPDEST PUSH1 0x0 PUSH2 0x5AB DUP7 DUP3 DUP8 ADD PUSH2 0x429 JUMP JUMPDEST SWAP4 POP POP PUSH1 0x20 DUP5 ADD CALLDATALOAD PUSH8 0xFFFFFFFFFFFFFFFF DUP2 GT ISZERO PUSH2 0x5CC JUMPI PUSH2 0x5CB PUSH2 0x3DB JUMP JUMPDEST JUMPDEST PUSH2 0x5D8 DUP7 DUP3 DUP8 ADD PUSH2 0x556 JUMP JUMPDEST SWAP3 POP POP PUSH1 0x40 DUP5 ADD CALLDATALOAD PUSH8 0xFFFFFFFFFFFFFFFF DUP2 GT ISZERO PUSH2 0x5F9 JUMPI PUSH2 0x5F8 PUSH2 0x3DB JUMP JUMPDEST JUMPDEST PUSH2 0x605 DUP7 DUP3 DUP8 ADD PUSH2 0x556 JUMP JUMPDEST SWAP2 POP POP SWAP3 POP SWAP3 POP SWAP3 JUMP JUMPDEST PUSH1 0x0 DUP2 MLOAD SWAP1 POP SWAP2 SWAP1 POP JUMP JUMPDEST PUSH1 0x0 DUP3 DUP3 MSTORE PUSH1 0x20 DUP3 ADD SWAP1 POP SWAP3 SWAP2 POP POP JUMP JUMPDEST PUSH1 0x0 DUP2 SWAP1 POP PUSH1 0x20 DUP3 ADD SWAP1 POP SWAP2 SWAP1 POP JUMP JUMPDEST PUSH2 0x644 DUP2 PUSH2 0x400 JUMP JUMPDEST DUP3 MSTORE POP POP JUMP JUMPDEST PUSH1 0x0 PUSH2 0x656 DUP4 DUP4 PUSH2 0x63B JUMP JUMPDEST PUSH1 0x20 DUP4 ADD SWAP1 POP SWAP3 SWAP2 POP POP JUMP JUMPDEST PUSH1 0x0 PUSH1 0x20 DUP3 ADD SWAP1 POP SWAP2 SWAP1 POP JUMP JUMPDEST PUSH1 0x0 PUSH2 0x67A DUP3 PUSH2 0x60F JUMP JUMPDEST PUSH2 0x684 DUP2 DUP6 PUSH2 0x61A JUMP JUMPDEST SWAP4 POP PUSH2 0x68F DUP4 PUSH2 0x62B JUMP JUMPDEST DUP1 PUSH1 0x0 JUMPDEST DUP4 DUP2 LT ISZERO PUSH2 0x6C0 JUMPI DUP2 MLOAD PUSH2 0x6A7 DUP9 DUP3 PUSH2 0x64A JUMP JUMPDEST SWAP8 POP PUSH2 0x6B2 DUP4 PUSH2 0x662 JUMP JUMPDEST SWAP3 POP POP PUSH1 0x1 DUP2 ADD SWAP1 POP PUSH2 0x693 JUMP JUMPDEST POP DUP6 SWAP4 POP POP POP POP SWAP3 SWAP2 POP POP JUMP JUMPDEST PUSH1 0x0 DUP2 MLOAD SWAP1 POP SWAP2 SWAP1 POP JUMP JUMPDEST PUSH1 0x0 DUP3 DUP3 MSTORE PUSH1 0x20 DUP3 ADD SWAP1 POP SWAP3 SWAP2 POP POP JUMP JUMPDEST PUSH1 0x0 DUP2 SWAP1 POP PUSH1 0x20 DUP3 ADD SWAP1 POP SWAP2 SWAP1 POP JUMP JUMPDEST PUSH1 0x0 DUP2 MLOAD SWAP1 POP SWAP2 SWAP1 POP JUMP JUMPDEST PUSH1 0x0 DUP3 DUP3 MSTORE PUSH1 0x20 DUP3 ADD SWAP1 POP SWAP3 SWAP2 POP POP JUMP JUMPDEST PUSH1 0x0 JUMPDEST DUP4 DUP2 LT ISZERO PUSH2 0x733 JUMPI DUP1 DUP3 ADD MLOAD DUP2 DUP5 ADD MSTORE PUSH1 0x20 DUP2 ADD SWAP1 POP PUSH2 0x718 JUMP JUMPDEST PUSH1 0x0 DUP5 DUP5 ADD MSTORE POP POP POP POP JUMP JUMPDEST PUSH1 0x0 PUSH2 0x74A DUP3 PUSH2 0x6F9 JUMP JUMPDEST PUSH2 0x754 DUP2 DUP6 PUSH2 0x704 JUMP JUMPDEST SWAP4 POP PUSH2 0x764 DUP2 DUP6 PUSH1 0x20 DUP7 ADD PUSH2 0x715 JUMP JUMPDEST PUSH2 0x76D DUP2 PUSH2 0x448 JUMP JUMPDEST DUP5 ADD SWAP2 POP POP SWAP3 SWAP2 POP POP JUMP JUMPDEST PUSH1 0x0 PUSH2 0x784 DUP4 DUP4 PUSH2 0x73F JUMP JUMPDEST SWAP1 POP SWAP3 SWAP2 POP POP JUMP JUMPDEST PUSH1 0x0 PUSH1 0x20 DUP3 ADD SWAP1 POP SWAP2 SWAP1 POP JUMP JUMPDEST PUSH1 0x0 PUSH2 0x7A4 DUP3 PUSH2 0x6CD JUMP JUMPDEST PUSH2 0x7AE DUP2 DUP6 PUSH2 0x6D8 JUMP JUMPDEST SWAP4 POP DUP4 PUSH1 0x20 DUP3 MUL DUP6 ADD PUSH2 0x7C0 DUP6 PUSH2 0x6E9 JUMP JUMPDEST DUP1 PUSH1 0x0 JUMPDEST DUP6 DUP2 LT ISZERO PUSH2 0x7FC JUMPI DUP5 DUP5 SUB DUP10 MSTORE DUP2 MLOAD PUSH2 0x7DD DUP6 DUP3 PUSH2 0x778 JUMP JUMPDEST SWAP5 POP PUSH2 0x7E8 DUP4 PUSH2 0x78C JUMP JUMPDEST SWAP3 POP PUSH1 0x20 DUP11 ADD SWAP10 POP POP PUSH1 0x1 DUP2 ADD SWAP1 POP PUSH2 0x7C4 JUMP JUMPDEST POP DUP3 SWAP8 POP DUP8 SWAP6 POP POP POP POP POP POP SWAP3 SWAP2 POP POP JUMP JUMPDEST PUSH1 0x0 PUSH1 0x60 DUP3 ADD SWAP1 POP DUP2 DUP2 SUB PUSH1 0x0 DUP4 ADD MSTORE PUSH2 0x828 DUP2 DUP7 PUSH2 0x66F JUMP JUMPDEST SWAP1 POP DUP2 DUP2 SUB PUSH1 0x20 DUP4 ADD MSTORE PUSH2 0x83C DUP2 DUP6 PUSH2 0x799 JUMP JUMPDEST SWAP1 POP DUP2 DUP2 SUB PUSH1 0x40 DUP4 ADD MSTORE PUSH2 0x850 DUP2 DUP5 PUSH2 0x799 JUMP JUMPDEST SWAP1 POP SWAP5 SWAP4 POP POP POP POP JUMP JUMPDEST PUSH2 0x863 DUP2 PUSH2 0x400 JUMP JUMPDEST DUP3 MSTORE POP POP JUMP JUMPDEST PUSH1 0x0 PUSH1 0x20 DUP3 ADD SWAP1 POP PUSH2 0x87E PUSH1 0x0 DUP4 ADD DUP5 PUSH2 0x85A JUMP JUMPDEST SWAP3 SWAP2 POP POP JUMP JUMPDEST PUSH1 0x0 DUP3 DUP3 MSTORE PUSH1 0x20 DUP3 ADD SWAP1 POP SWAP3 SWAP2 POP POP JUMP JUMPDEST PUSH1 0x0 PUSH2 0x8A0 DUP3 PUSH2 0x6F9 JUMP JUMPDEST PUSH2 0x8AA DUP2 DUP6 PUSH2 0x884 JUMP JUMPDEST SWAP4 POP PUSH2 0x8BA DUP2 DUP6 PUSH1 0x20 DUP7 ADD PUSH2 0x715 JUMP JUMPDEST PUSH2 0x8C3 DUP2 PUSH2 0x448 JUMP JUMPDEST DUP5 ADD SWAP2 POP POP SWAP3 SWAP2 POP POP JUMP JUMPDEST PUSH1 0x0 PUSH1 0x60 DUP3 ADD SWAP1 POP PUSH2 0x8E3 PUSH1 0x0 DUP4 ADD DUP7 PUSH2 0x85A JUMP JUMPDEST DUP2 DUP2 SUB PUSH1 0x20 DUP4 ADD MSTORE PUSH2 0x8F5 DUP2 DUP6 PUSH2 0x895 JUMP JUMPDEST SWAP1 POP DUP2 DUP2 SUB PUSH1 0x40 DUP4 ADD MSTORE PUSH2 0x909 DUP2 DUP5 PUSH2 0x895 JUMP JUMPDEST SWAP1 POP SWAP5 SWAP4 POP POP POP POP JUMP JUMPDEST PUSH1 0x0 PUSH8 0xFFFFFFFFFFFFFFFF DUP3 GT ISZERO PUSH2 0x92E JUMPI PUSH2 0x92D PUSH2 0x459 JUMP JUMPDEST JUMPDEST PUSH1 0x20 DUP3 MUL SWAP1 POP PUSH1 0x20 DUP2 ADD SWAP1 POP SWAP2 SWAP1 POP JUMP JUMPDEST PUSH1 0x0 DUP1 REVERT JUMPDEST PUSH1 0x0 DUP2 MLOAD SWAP1 POP PUSH2 0x953 DUP2 PUSH2 0x412 JUMP JUMPDEST SWAP3 SWAP2 POP POP JUMP JUMPDEST PUSH1 0x0 PUSH2 0x96C PUSH2 0x967 DUP5 PUSH2 0x913 JUMP JUMPDEST PUSH2 0x4B9 JUMP JUMPDEST SWAP1 POP DUP1 DUP4 DUP3 MSTORE PUSH1 0x20 DUP3 ADD SWAP1 POP PUSH1 0x20 DUP5 MUL DUP4 ADD DUP6 DUP2 GT ISZERO PUSH2 0x98F JUMPI PUSH2 0x98E PUSH2 0x93F JUMP JUMPDEST JUMPDEST DUP4 JUMPDEST DUP2 DUP2 LT ISZERO PUSH2 0x9B8 JUMPI DUP1 PUSH2 0x9A4 DUP9 DUP3 PUSH2 0x944 JUMP JUMPDEST DUP5 MSTORE PUSH1 0x20 DUP5 ADD SWAP4 POP POP PUSH1 0x20 DUP2 ADD SWAP1 POP PUSH2 0x991 JUMP JUMPDEST POP POP POP SWAP4 SWAP3 POP POP POP JUMP JUMPDEST PUSH1 0x0 DUP3 PUSH1 0x1F DUP4 ADD SLT PUSH2 0x9D7 JUMPI PUSH2 0x9D6 PUSH2 0x43E JUMP JUMPDEST JUMPDEST DUP2 MLOAD PUSH2 0x9E7 DUP5 DUP3 PUSH1 0x20 DUP7 ADD PUSH2 0x959 JUMP JUMPDEST SWAP2 POP POP SWAP3 SWAP2 POP POP JUMP JUMPDEST PUSH1 0x0 PUSH1 0x20 DUP3 DUP5 SUB SLT ISZERO PUSH2 0xA06 JUMPI PUSH2 0xA05 PUSH2 0x3D6 JUMP JUMPDEST JUMPDEST PUSH1 0x0 DUP3 ADD MLOAD PUSH8 0xFFFFFFFFFFFFFFFF DUP2 GT ISZERO PUSH2 0xA24 JUMPI PUSH2 0xA23 PUSH2 0x3DB JUMP JUMPDEST JUMPDEST PUSH2 0xA30 DUP5 DUP3 DUP6 ADD PUSH2 0x9C2 JUMP JUMPDEST SWAP2 POP POP SWAP3 SWAP2 POP POP JUMP JUMPDEST PUSH32 0x4E487B7100000000000000000000000000000000000000000000000000000000 PUSH1 0x0 MSTORE PUSH1 0x32 PUSH1 0x4 MSTORE PUSH1 0x24 PUSH1 0x0 REVERT JUMPDEST PUSH1 0x0 PUSH2 0xA7B PUSH2 0xA76 DUP5 PUSH2 0x4D4 JUMP JUMPDEST PUSH2 0x4B9 JUMP JUMPDEST SWAP1 POP DUP3 DUP2 MSTORE PUSH1 0x20 DUP2 ADD DUP5 DUP5 DUP5 ADD GT ISZERO PUSH2 0xA97 JUMPI PUSH2 0xA96 PUSH2 0x443 JUMP JUMPDEST JUMPDEST PUSH2 0xAA2 DUP5 DUP3 DUP6 PUSH2 0x715 JUMP JUMPDEST POP SWAP4 SWAP3 POP POP POP JUMP JUMPDEST PUSH1 0x0 DUP3 PUSH1 0x1F DUP4 ADD SLT PUSH2 0xABF JUMPI PUSH2 0xABE PUSH2 0x43E JUMP JUMPDEST JUMPDEST DUP2 MLOAD PUSH2 0xACF DUP5 DUP3 PUSH1 0x20 DUP7 ADD PUSH2 0xA68 JUMP JUMPDEST SWAP2 POP POP SWAP3 SWAP2 POP POP JUMP JUMPDEST PUSH1 0x0 DUP1 PUSH1 0x40 DUP4 DUP6 SUB SLT ISZERO PUSH2 0xAEF JUMPI PUSH2 0xAEE PUSH2 0x3D6 JUMP JUMPDEST JUMPDEST PUSH1 0x0 DUP4 ADD MLOAD PUSH8 0xFFFFFFFFFFFFFFFF DUP2 GT ISZERO PUSH2 0xB0D JUMPI PUSH2 0xB0C PUSH2 0x3DB JUMP JUMPDEST JUMPDEST PUSH2 0xB19 DUP6 DUP3 DUP7 ADD PUSH2 0xAAA JUMP JUMPDEST SWAP3 POP POP PUSH1 0x20 DUP4 ADD MLOAD PUSH8 0xFFFFFFFFFFFFFFFF DUP2 GT ISZERO PUSH2 0xB3A JUMPI PUSH2 0xB39 PUSH2 0x3DB JUMP JUMPDEST JUMPDEST PUSH2 0xB46 DUP6 DUP3 DUP7 ADD PUSH2 0xAAA JUMP JUMPDEST SWAP2 POP POP SWAP3 POP SWAP3 SWAP1 POP JUMP INVALID LOG2 PUSH5 0x6970667358 0x22 SLT KECCAK256 0xED XOR SWAP3 0x4E DUP4 SWAP12 0xB1 0xCE 0xD4 PUSH14 0xF2C7F8667BB7C24E21E3390354DA RETURNDATACOPY MSTORE8 ORIGIN CALLDATACOPY 0xFC KECCAK256 SHR 0xD4 PUSH5 0x736F6C6343 STOP ADDMOD XOR STOP CALLER "},"methodIdentifiers":{"getUserInfoForAllUsers()":"28b904d0","updateUser(address,string,string)":"10e8b22d","userPanelAddress()":"296e8543"}}}}}