{"contracts/UserRegistry.sol":{"SimpleRegister":{"abi":[{"inputs":[{"internalType":"address","name":"_user","type":"address"}],"name":"getName","outputs":[{"internalType":"string","name":"","type":"string"}],"stateMutability":"view","type":"function"},{"inputs":[{"internalType":"string","name":"_name","type":"string"}],"name":"register","outputs":[],"stateMutability":"nonpayable","type":"function"}],"evm":{"bytecode":{"linkReferences":{},"object":"608060405234801561001057600080fd5b50610843806100206000396000f3fe608060405234801561001057600080fd5b50600436106100365760003560e01c80635fd4b08a1461003b578063f2c298be1461006b575b600080fd5b6100556004803603810190610050919061025c565b610087565b6040516100629190610319565b60405180910390f35b61008560048036038101906100809190610470565b610157565b005b60606000808373ffffffffffffffffffffffffffffffffffffffff1673ffffffffffffffffffffffffffffffffffffffff16815260200190815260200160002080546100d2906104e8565b80601f01602080910402602001604051908101604052809291908181526020018280546100fe906104e8565b801561014b5780601f106101205761010080835404028352916020019161014b565b820191906000526020600020905b81548152906001019060200180831161012e57829003601f168201915b50505050509050919050565b600081511161019b576040517f08c379a000000000000000000000000000000000000000000000000000000000815260040161019290610565565b60405180910390fd5b806000803373ffffffffffffffffffffffffffffffffffffffff1673ffffffffffffffffffffffffffffffffffffffff16815260200190815260200160002090816101e6919061073b565b5050565b6000604051905090565b600080fd5b600080fd5b600073ffffffffffffffffffffffffffffffffffffffff82169050919050565b6000610229826101fe565b9050919050565b6102398161021e565b811461024457600080fd5b50565b60008135905061025681610230565b92915050565b600060208284031215610272576102716101f4565b5b600061028084828501610247565b91505092915050565b600081519050919050565b600082825260208201905092915050565b60005b838110156102c35780820151818401526020810190506102a8565b60008484015250505050565b6000601f19601f8301169050919050565b60006102eb82610289565b6102f58185610294565b93506103058185602086016102a5565b61030e816102cf565b840191505092915050565b6000602082019050818103600083015261033381846102e0565b905092915050565b600080fd5b600080fd5b7f4e487b7100000000000000000000000000000000000000000000000000000000600052604160045260246000fd5b61037d826102cf565b810181811067ffffffffffffffff8211171561039c5761039b610345565b5b80604052505050565b60006103af6101ea565b90506103bb8282610374565b919050565b600067ffffffffffffffff8211156103db576103da610345565b5b6103e4826102cf565b9050602081019050919050565b82818337600083830152505050565b600061041361040e846103c0565b6103a5565b90508281526020810184848401111561042f5761042e610340565b5b61043a8482856103f1565b509392505050565b600082601f8301126104575761045661033b565b5b8135610467848260208601610400565b91505092915050565b600060208284031215610486576104856101f4565b5b600082013567ffffffffffffffff8111156104a4576104a36101f9565b5b6104b084828501610442565b91505092915050565b7f4e487b7100000000000000000000000000000000000000000000000000000000600052602260045260246000fd5b6000600282049050600182168061050057607f821691505b602082108103610513576105126104b9565b5b50919050565b7f4e616d652063616e6e6f7420626520656d707479000000000000000000000000600082015250565b600061054f601483610294565b915061055a82610519565b602082019050919050565b6000602082019050818103600083015261057e81610542565b9050919050565b60008190508160005260206000209050919050565b60006020601f8301049050919050565b600082821b905092915050565b6000600883026105e77fffffffffffffffffffffffffffffffffffffffffffffffffffffffffffffffff826105aa565b6105f186836105aa565b95508019841693508086168417925050509392505050565b6000819050919050565b6000819050919050565b600061063861063361062e84610609565b610613565b610609565b9050919050565b6000819050919050565b6106528361061d565b61066661065e8261063f565b8484546105b7565b825550505050565b600090565b61067b61066e565b610686818484610649565b505050565b5b818110156106aa5761069f600082610673565b60018101905061068c565b5050565b601f8211156106ef576106c081610585565b6106c98461059a565b810160208510156106d8578190505b6106ec6106e48561059a565b83018261068b565b50505b505050565b600082821c905092915050565b6000610712600019846008026106f4565b1980831691505092915050565b600061072b8383610701565b9150826002028217905092915050565b61074482610289565b67ffffffffffffffff81111561075d5761075c610345565b5b61076782546104e8565b6107728282856106ae565b600060209050601f8311600181146107a55760008415610793578287015190505b61079d858261071f565b865550610805565b601f1984166107b386610585565b60005b828110156107db578489015182556001820191506020850194506020810190506107b6565b868310156107f857848901516107f4601f891682610701565b8355505b6001600288020188555050505b50505050505056fea264697066735822122030cc3375a80b1fbb1b9c68d7b164aa29529fdaf54be1205b79ed7d0d68e866d064736f6c63430008180033","opcodes":"PUSH1 0x80 PUSH1 0x40 MSTORE CALLVALUE DUP1 ISZERO PUSH2 0x10 JUMPI PUSH1 0x0 DUP1 REVERT JUMPDEST POP PUSH2 0x843 DUP1 PUSH2 0x20 PUSH1 0x0 CODECOPY PUSH1 0x0 RETURN INVALID PUSH1 0x80 PUSH1 0x40 MSTORE CALLVALUE DUP1 ISZERO PUSH2 0x10 JUMPI PUSH1 0x0 DUP1 REVERT JUMPDEST POP PUSH1 0x4 CALLDATASIZE LT PUSH2 0x36 JUMPI PUSH1 0x0 CALLDATALOAD PUSH1 0xE0 SHR DUP1 PUSH4 0x5FD4B08A EQ PUSH2 0x3B JUMPI DUP1 PUSH4 0xF2C298BE EQ PUSH2 0x6B JUMPI JUMPDEST PUSH1 0x0 DUP1 REVERT JUMPDEST PUSH2 0x55 PUSH1 0x4 DUP1 CALLDATASIZE SUB DUP2 ADD SWAP1 PUSH2 0x50 SWAP2 SWAP1 PUSH2 0x25C JUMP JUMPDEST PUSH2 0x87 JUMP JUMPDEST PUSH1 0x40 MLOAD PUSH2 0x62 SWAP2 SWAP1 PUSH2 0x319 JUMP JUMPDEST PUSH1 0x40 MLOAD DUP1 SWAP2 SUB SWAP1 RETURN JUMPDEST PUSH2 0x85 PUSH1 0x4 DUP1 CALLDATASIZE SUB DUP2 ADD SWAP1 PUSH2 0x80 SWAP2 SWAP1 PUSH2 0x470 JUMP JUMPDEST PUSH2 0x157 JUMP JUMPDEST STOP JUMPDEST PUSH1 0x60 PUSH1 0x0 DUP1 DUP4 PUSH20 0xFFFFFFFFFFFFFFFFFFFFFFFFFFFFFFFFFFFFFFFF AND PUSH20 0xFFFFFFFFFFFFFFFFFFFFFFFFFFFFFFFFFFFFFFFF AND DUP2 MSTORE PUSH1 0x20 ADD SWAP1 DUP2 MSTORE PUSH1 0x20 ADD PUSH1 0x0 KECCAK256 DUP1 SLOAD PUSH2 0xD2 SWAP1 PUSH2 0x4E8 JUMP JUMPDEST DUP1 PUSH1 0x1F ADD PUSH1 0x20 DUP1 SWAP2 DIV MUL PUSH1 0x20 ADD PUSH1 0x40 MLOAD SWAP1 DUP2 ADD PUSH1 0x40 MSTORE DUP1 SWAP3 SWAP2 SWAP1 DUP2 DUP2 MSTORE PUSH1 0x20 ADD DUP3 DUP1 SLOAD PUSH2 0xFE SWAP1 PUSH2 0x4E8 JUMP JUMPDEST DUP1 ISZERO PUSH2 0x14B JUMPI DUP1 PUSH1 0x1F LT PUSH2 0x120 JUMPI PUSH2 0x100 DUP1 DUP4 SLOAD DIV MUL DUP4 MSTORE SWAP2 PUSH1 0x20 ADD SWAP2 PUSH2 0x14B JUMP JUMPDEST DUP3 ADD SWAP2 SWAP1 PUSH1 0x0 MSTORE PUSH1 0x20 PUSH1 0x0 KECCAK256 SWAP1 JUMPDEST DUP2 SLOAD DUP2 MSTORE SWAP1 PUSH1 0x1 ADD SWAP1 PUSH1 0x20 ADD DUP1 DUP4 GT PUSH2 0x12E JUMPI DUP3 SWAP1 SUB PUSH1 0x1F AND DUP3 ADD SWAP2 JUMPDEST POP POP POP POP POP SWAP1 POP SWAP2 SWAP1 POP JUMP JUMPDEST PUSH1 0x0 DUP2 MLOAD GT PUSH2 0x19B JUMPI PUSH1 0x40 MLOAD PUSH32 0x8C379A000000000000000000000000000000000000000000000000000000000 DUP2 MSTORE PUSH1 0x4 ADD PUSH2 0x192 SWAP1 PUSH2 0x565 JUMP JUMPDEST PUSH1 0x40 MLOAD DUP1 SWAP2 SUB SWAP1 REVERT JUMPDEST DUP1 PUSH1 0x0 DUP1 CALLER PUSH20 0xFFFFFFFFFFFFFFFFFFFFFFFFFFFFFFFFFFFFFFFF AND PUSH20 0xFFFFFFFFFFFFFFFFFFFFFFFFFFFFFFFFFFFFFFFF AND DUP2 MSTORE PUSH1 0x20 ADD SWAP1 DUP2 MSTORE PUSH1 0x20 ADD PUSH1 0x0 KECCAK256 SWAP1 DUP2 PUSH2 0x1E6 SWAP2 SWAP1 PUSH2 0x73B JUMP JUMPDEST POP POP JUMP JUMPDEST PUSH1 0x0 PUSH1 0x40 MLOAD SWAP1 POP SWAP1 JUMP JUMPDEST PUSH1 0x0 DUP1 REVERT JUMPDEST PUSH1 0x0 DUP1 REVERT JUMPDEST PUSH1 0x0 PUSH20 0xFFFFFFFFFFFFFFFFFFFFFFFFFFFFFFFFFFFFFFFF DUP3 AND SWAP1 POP SWAP2 SWAP1 POP JUMP JUMPDEST PUSH1 0x0 PUSH2 0x229 DUP3 PUSH2 0x1FE JUMP JUMPDEST SWAP1 POP SWAP2 SWAP1 POP JUMP JUMPDEST PUSH2 0x239 DUP2 PUSH2 0x21E JUMP JUMPDEST DUP2 EQ PUSH2 0x244 JUMPI PUSH1 0x0 DUP1 REVERT JUMPDEST POP JUMP JUMPDEST PUSH1 0x0 DUP2 CALLDATALOAD SWAP1 POP PUSH2 0x256 DUP2 PUSH2 0x230 JUMP JUMPDEST SWAP3 SWAP2 POP POP JUMP JUMPDEST PUSH1 0x0 PUSH1 0x20 DUP3 DUP5 SUB SLT ISZERO PUSH2 0x272 JUMPI PUSH2 0x271 PUSH2 0x1F4 JUMP JUMPDEST JUMPDEST PUSH1 0x0 PUSH2 0x280 DUP5 DUP3 DUP6 ADD PUSH2 0x247 JUMP JUMPDEST SWAP2 POP POP SWAP3 SWAP2 POP POP JUMP JUMPDEST PUSH1 0x0 DUP2 MLOAD SWAP1 POP SWAP2 SWAP1 POP JUMP JUMPDEST PUSH1 0x0 DUP3 DUP3 MSTORE PUSH1 0x20 DUP3 ADD SWAP1 POP SWAP3 SWAP2 POP POP JUMP JUMPDEST PUSH1 0x0 JUMPDEST DUP4 DUP2 LT ISZERO PUSH2 0x2C3 JUMPI DUP1 DUP3 ADD MLOAD DUP2 DUP5 ADD MSTORE PUSH1 0x20 DUP2 ADD SWAP1 POP PUSH2 0x2A8 JUMP JUMPDEST PUSH1 0x0 DUP5 DUP5 ADD MSTORE POP POP POP POP JUMP JUMPDEST PUSH1 0x0 PUSH1 0x1F NOT PUSH1 0x1F DUP4 ADD AND SWAP1 POP SWAP2 SWAP1 POP JUMP JUMPDEST PUSH1 0x0 PUSH2 0x2EB DUP3 PUSH2 0x289 JUMP JUMPDEST PUSH2 0x2F5 DUP2 DUP6 PUSH2 0x294 JUMP JUMPDEST SWAP4 POP PUSH2 0x305 DUP2 DUP6 PUSH1 0x20 DUP7 ADD PUSH2 0x2A5 JUMP JUMPDEST PUSH2 0x30E DUP2 PUSH2 0x2CF JUMP JUMPDEST DUP5 ADD SWAP2 POP POP SWAP3 SWAP2 POP POP JUMP JUMPDEST PUSH1 0x0 PUSH1 0x20 DUP3 ADD SWAP1 POP DUP2 DUP2 SUB PUSH1 0x0 DUP4 ADD MSTORE PUSH2 0x333 DUP2 DUP5 PUSH2 0x2E0 JUMP JUMPDEST SWAP1 POP SWAP3 SWAP2 POP POP JUMP JUMPDEST PUSH1 0x0 DUP1 REVERT JUMPDEST PUSH1 0x0 DUP1 REVERT JUMPDEST PUSH32 0x4E487B7100000000000000000000000000000000000000000000000000000000 PUSH1 0x0 MSTORE PUSH1 0x41 PUSH1 0x4 MSTORE PUSH1 0x24 PUSH1 0x0 REVERT JUMPDEST PUSH2 0x37D DUP3 PUSH2 0x2CF JUMP JUMPDEST DUP2 ADD DUP2 DUP2 LT PUSH8 0xFFFFFFFFFFFFFFFF DUP3 GT OR ISZERO PUSH2 0x39C JUMPI PUSH2 0x39B PUSH2 0x345 JUMP JUMPDEST JUMPDEST DUP1 PUSH1 0x40 MSTORE POP POP POP JUMP JUMPDEST PUSH1 0x0 PUSH2 0x3AF PUSH2 0x1EA JUMP JUMPDEST SWAP1 POP PUSH2 0x3BB DUP3 DUP3 PUSH2 0x374 JUMP JUMPDEST SWAP2 SWAP1 POP JUMP JUMPDEST PUSH1 0x0 PUSH8 0xFFFFFFFFFFFFFFFF DUP3 GT ISZERO PUSH2 0x3DB JUMPI PUSH2 0x3DA PUSH2 0x345 JUMP JUMPDEST JUMPDEST PUSH2 0x3E4 DUP3 PUSH2 0x2CF JUMP JUMPDEST SWAP1 POP PUSH1 0x20 DUP2 ADD SWAP1 POP SWAP2 SWAP1 POP JUMP JUMPDEST DUP3 DUP2 DUP4 CALLDATACOPY PUSH1 0x0 DUP4 DUP4 ADD MSTORE POP POP POP JUMP JUMPDEST PUSH1 0x0 PUSH2 0x413 PUSH2 0x40E DUP5 PUSH2 0x3C0 JUMP JUMPDEST PUSH2 0x3A5 JUMP JUMPDEST SWAP1 POP DUP3 DUP2 MSTORE PUSH1 0x20 DUP2 ADD DUP5 DUP5 DUP5 ADD GT ISZERO PUSH2 0x42F JUMPI PUSH2 0x42E PUSH2 0x340 JUMP JUMPDEST JUMPDEST PUSH2 0x43A DUP5 DUP3 DUP6 PUSH2 0x3F1 JUMP JUMPDEST POP SWAP4 SWAP3 POP POP POP JUMP JUMPDEST PUSH1 0x0 DUP3 PUSH1 0x1F DUP4 ADD SLT PUSH2 0x457 JUMPI PUSH2 0x456 PUSH2 0x33B JUMP JUMPDEST JUMPDEST DUP2 CALLDATALOAD PUSH2 0x467 DUP5 DUP3 PUSH1 0x20 DUP7 ADD PUSH2 0x400 JUMP JUMPDEST SWAP2 POP POP SWAP3 SWAP2 POP POP JUMP JUMPDEST PUSH1 0x0 PUSH1 0x20 DUP3 DUP5 SUB SLT ISZERO PUSH2 0x486 JUMPI PUSH2 0x485 PUSH2 0x1F4 JUMP JUMPDEST JUMPDEST PUSH1 0x0 DUP3 ADD CALLDATALOAD PUSH8 0xFFFFFFFFFFFFFFFF DUP2 GT ISZERO PUSH2 0x4A4 JUMPI PUSH2 0x4A3 PUSH2 0x1F9 JUMP JUMPDEST JUMPDEST PUSH2 0x4B0 DUP5 DUP3 DUP6 ADD PUSH2 0x442 JUMP JUMPDEST SWAP2 POP POP SWAP3 SWAP2 POP POP JUMP JUMPDEST PUSH32 0x4E487B7100000000000000000000000000000000000000000000000000000000 PUSH1 0x0 MSTORE PUSH1 0x22 PUSH1 0x4 MSTORE PUSH1 0x24 PUSH1 0x0 REVERT JUMPDEST PUSH1 0x0 PUSH1 0x2 DUP3 DIV SWAP1 POP PUSH1 0x1 DUP3 AND DUP1 PUSH2 0x500 JUMPI PUSH1 0x7F DUP3 AND SWAP2 POP JUMPDEST PUSH1 0x20 DUP3 LT DUP2 SUB PUSH2 0x513 JUMPI PUSH2 0x512 PUSH2 0x4B9 JUMP JUMPDEST JUMPDEST POP SWAP2 SWAP1 POP JUMP JUMPDEST PUSH32 0x4E616D652063616E6E6F7420626520656D707479000000000000000000000000 PUSH1 0x0 DUP3 ADD MSTORE POP JUMP JUMPDEST PUSH1 0x0 PUSH2 0x54F PUSH1 0x14 DUP4 PUSH2 0x294 JUMP JUMPDEST SWAP2 POP PUSH2 0x55A DUP3 PUSH2 0x519 JUMP JUMPDEST PUSH1 0x20 DUP3 ADD SWAP1 POP SWAP2 SWAP1 POP JUMP JUMPDEST PUSH1 0x0 PUSH1 0x20 DUP3 ADD SWAP1 POP DUP2 DUP2 SUB PUSH1 0x0 DUP4 ADD MSTORE PUSH2 0x57E DUP2 PUSH2 0x542 JUMP JUMPDEST SWAP1 POP SWAP2 SWAP1 POP JUMP JUMPDEST PUSH1 0x0 DUP2 SWAP1 POP DUP2 PUSH1 0x0 MSTORE PUSH1 0x20 PUSH1 0x0 KECCAK256 SWAP1 POP SWAP2 SWAP1 POP JUMP JUMPDEST PUSH1 0x0 PUSH1 0x20 PUSH1 0x1F DUP4 ADD DIV SWAP1 POP SWAP2 SWAP1 POP JUMP JUMPDEST PUSH1 0x0 DUP3 DUP3 SHL SWAP1 POP SWAP3 SWAP2 POP POP JUMP JUMPDEST PUSH1 0x0 PUSH1 0x8 DUP4 MUL PUSH2 0x5E7 PUSH32 0xFFFFFFFFFFFFFFFFFFFFFFFFFFFFFFFFFFFFFFFFFFFFFFFFFFFFFFFFFFFFFFFF DUP3 PUSH2 0x5AA JUMP JUMPDEST PUSH2 0x5F1 DUP7 DUP4 PUSH2 0x5AA JUMP JUMPDEST SWAP6 POP DUP1 NOT DUP5 AND SWAP4 POP DUP1 DUP7 AND DUP5 OR SWAP3 POP POP POP SWAP4 SWAP3 POP POP POP JUMP JUMPDEST PUSH1 0x0 DUP2 SWAP1 POP SWAP2 SWAP1 POP JUMP JUMPDEST PUSH1 0x0 DUP2 SWAP1 POP SWAP2 SWAP1 POP JUMP JUMPDEST PUSH1 0x0 PUSH2 0x638 PUSH2 0x633 PUSH2 0x62E DUP5 PUSH2 0x609 JUMP JUMPDEST PUSH2 0x613 JUMP JUMPDEST PUSH2 0x609 JUMP JUMPDEST SWAP1 POP SWAP2 SWAP1 POP JUMP JUMPDEST PUSH1 0x0 DUP2 SWAP1 POP SWAP2 SWAP1 POP JUMP JUMPDEST PUSH2 0x652 DUP4 PUSH2 0x61D JUMP JUMPDEST PUSH2 0x666 PUSH2 0x65E DUP3 PUSH2 0x63F JUMP JUMPDEST DUP5 DUP5 SLOAD PUSH2 0x5B7 JUMP JUMPDEST DUP3 SSTORE POP POP POP POP JUMP JUMPDEST PUSH1 0x0 SWAP1 JUMP JUMPDEST PUSH2 0x67B PUSH2 0x66E JUMP JUMPDEST PUSH2 0x686 DUP2 DUP5 DUP5 PUSH2 0x649 JUMP JUMPDEST POP POP POP JUMP JUMPDEST JUMPDEST DUP2 DUP2 LT ISZERO PUSH2 0x6AA JUMPI PUSH2 0x69F PUSH1 0x0 DUP3 PUSH2 0x673 JUMP JUMPDEST PUSH1 0x1 DUP2 ADD SWAP1 POP PUSH2 0x68C JUMP JUMPDEST POP POP JUMP JUMPDEST PUSH1 0x1F DUP3 GT ISZERO PUSH2 0x6EF JUMPI PUSH2 0x6C0 DUP2 PUSH2 0x585 JUMP JUMPDEST PUSH2 0x6C9 DUP5 PUSH2 0x59A JUMP JUMPDEST DUP2 ADD PUSH1 0x20 DUP6 LT ISZERO PUSH2 0x6D8 JUMPI DUP2 SWAP1 POP JUMPDEST PUSH2 0x6EC PUSH2 0x6E4 DUP6 PUSH2 0x59A JUMP JUMPDEST DUP4 ADD DUP3 PUSH2 0x68B JUMP JUMPDEST POP POP JUMPDEST POP POP POP JUMP JUMPDEST PUSH1 0x0 DUP3 DUP3 SHR SWAP1 POP SWAP3 SWAP2 POP POP JUMP JUMPDEST PUSH1 0x0 PUSH2 0x712 PUSH1 0x0 NOT DUP5 PUSH1 0x8 MUL PUSH2 0x6F4 JUMP JUMPDEST NOT DUP1 DUP4 AND SWAP2 POP POP SWAP3 SWAP2 POP POP JUMP JUMPDEST PUSH1 0x0 PUSH2 0x72B DUP4 DUP4 PUSH2 0x701 JUMP JUMPDEST SWAP2 POP DUP3 PUSH1 0x2 MUL DUP3 OR SWAP1 POP SWAP3 SWAP2 POP POP JUMP JUMPDEST PUSH2 0x744 DUP3 PUSH2 0x289 JUMP JUMPDEST PUSH8 0xFFFFFFFFFFFFFFFF DUP2 GT ISZERO PUSH2 0x75D JUMPI PUSH2 0x75C PUSH2 0x345 JUMP JUMPDEST JUMPDEST PUSH2 0x767 DUP3 SLOAD PUSH2 0x4E8 JUMP JUMPDEST PUSH2 0x772 DUP3 DUP3 DUP6 PUSH2 0x6AE JUMP JUMPDEST PUSH1 0x0 PUSH1 0x20 SWAP1 POP PUSH1 0x1F DUP4 GT PUSH1 0x1 DUP2 EQ PUSH2 0x7A5 JUMPI PUSH1 0x0 DUP5 ISZERO PUSH2 0x793 JUMPI DUP3 DUP8 ADD MLOAD SWAP1 POP JUMPDEST PUSH2 0x79D DUP6 DUP3 PUSH2 0x71F JUMP JUMPDEST DUP7 SSTORE POP PUSH2 0x805 JUMP JUMPDEST PUSH1 0x1F NOT DUP5 AND PUSH2 0x7B3 DUP7 PUSH2 0x585 JUMP JUMPDEST PUSH1 0x0 JUMPDEST DUP3 DUP2 LT ISZERO PUSH2 0x7DB JUMPI DUP5 DUP10 ADD MLOAD DUP3 SSTORE PUSH1 0x1 DUP3 ADD SWAP2 POP PUSH1 0x20 DUP6 ADD SWAP5 POP PUSH1 0x20 DUP2 ADD SWAP1 POP PUSH2 0x7B6 JUMP JUMPDEST DUP7 DUP4 LT ISZERO PUSH2 0x7F8 JUMPI DUP5 DUP10 ADD MLOAD PUSH2 0x7F4 PUSH1 0x1F DUP10 AND DUP3 PUSH2 0x701 JUMP JUMPDEST DUP4 SSTORE POP JUMPDEST PUSH1 0x1 PUSH1 0x2 DUP9 MUL ADD DUP9 SSTORE POP POP POP JUMPDEST POP POP POP POP POP POP JUMP INVALID LOG2 PUSH5 0x6970667358 0x22 SLT KECCAK256 ADDRESS 0xCC CALLER PUSH22 0xA80B1FBB1B9C68D7B164AA29529FDAF54BE1205B79ED PUSH30 0xD68E866D064736F6C634300081800330000000000000000000000000000 "},"methodIdentifiers":{"getName(address)":"5fd4b08a","register(string)":"f2c298be"}}}}}