{
	"data": {
		"bytecode": {
			"linkReferences": {},
			"object": "608060405234801561001057600080fd5b5033600160006101000a81548173ffffffffffffffffffffffffffffffffffffffff021916908373ffffffffffffffffffffffffffffffffffffffff1602179055506116cb806100616000396000f3fe608060405234801561001057600080fd5b50600436106100625760003560e01c8063577dc0a0146100675780636d9a65d8146100835780638da5cb5b146100b3578063a85c38ef146100d1578063afe13a6214610103578063d09ef2411461011f575b600080fd5b610081600480360381019061007c9190610c37565b61014f565b005b61009d60048036038101906100989190610d5b565b610264565b6040516100aa9190610de2565b60405180910390f35b6100bb610413565b6040516100c89190610e3e565b60405180910390f35b6100eb60048036038101906100e69190610e59565b610439565b6040516100fa93929190610f7c565b60405180910390f35b61011d60048036038101906101189190610e59565b610528565b005b61013960048036038101906101349190610e59565b6107ea565b604051610146919061114a565b60405180910390f35b6000805490508210610196576040517f08c379a000000000000000000000000000000000000000000000000000000000815260040161018d906111b8565b60405180910390fd5b60008083815481106101ab576101aa6111d8565b5b906000526020600020906004020190503373ffffffffffffffffffffffffffffffffffffffff168160000160009054906101000a900473ffffffffffffffffffffffffffffffffffffffff1673ffffffffffffffffffffffffffffffffffffffff161461024d576040517f08c379a000000000000000000000000000000000000000000000000000000000815260040161024490611253565b60405180910390fd5b8181600101908161025e919061147f565b50505050565b6000808251116102a9576040517f08c379a00000000000000000000000000000000000000000000000000000000081526004016102a09061159d565b60405180910390fd5b6102b16109ed565b33816000019073ffffffffffffffffffffffffffffffffffffffff16908173ffffffffffffffffffffffffffffffffffffffff168152505083816020018190525082816040018190525060008160600190600381111561031457610313610f05565b5b9081600381111561032857610327610f05565b5b81525050600081908060018154018082558091505060019003906000526020600020906004020160009091909190915060008201518160000160006101000a81548173ffffffffffffffffffffffffffffffffffffffff021916908373ffffffffffffffffffffffffffffffffffffffff16021790555060208201518160010190816103b4919061147f565b5060408201518160020190805190602001906103d1929190610a3d565b5060608201518160030160006101000a81548160ff021916908360038111156103fd576103fc610f05565b5b0217905550505060008054905091505092915050565b600160009054906101000a900473ffffffffffffffffffffffffffffffffffffffff1681565b6000818154811061044957600080fd5b90600052602060002090600402016000915090508060000160009054906101000a900473ffffffffffffffffffffffffffffffffffffffff1690806001018054610492906112a2565b80601f01602080910402602001604051908101604052809291908181526020018280546104be906112a2565b801561050b5780601f106104e05761010080835404028352916020019161050b565b820191906000526020600020905b8154815290600101906020018083116104ee57829003601f168201915b5050505050908060030160009054906101000a900460ff16905083565b3373ffffffffffffffffffffffffffffffffffffffff16600160009054906101000a900473ffffffffffffffffffffffffffffffffffffffff1673ffffffffffffffffffffffffffffffffffffffff16146105b8576040517f08c379a00000000000000000000000000000000000000000000000000000000081526004016105af90611609565b60405180910390fd5b60008054905081106105ff576040517f08c379a00000000000000000000000000000000000000000000000000000000081526004016105f6906111b8565b60405180910390fd5b6000808281548110610614576106136111d8565b5b9060005260206000209060040201905060038081111561063757610636610f05565b5b8160030160009054906101000a900460ff16600381111561065b5761065a610f05565b5b0361069b576040517f08c379a000000000000000000000000000000000000000000000000000000000815260040161069290611675565b60405180910390fd5b600060038111156106af576106ae610f05565b5b8160030160009054906101000a900460ff1660038111156106d3576106d2610f05565b5b0361070a5760018160030160006101000a81548160ff02191690836003811115610700576106ff610f05565b5b02179055506107e6565b6001600381111561071e5761071d610f05565b5b8160030160009054906101000a900460ff16600381111561074257610741610f05565b5b036107795760028160030160006101000a81548160ff0219169083600381111561076f5761076e610f05565b5b02179055506107e5565b6002600381111561078d5761078c610f05565b5b8160030160009054906101000a900460ff1660038111156107b1576107b0610f05565b5b036107e45760038160030160006101000a81548160ff021916908360038111156107de576107dd610f05565b5b02179055505b5b5b5050565b6107f26109ed565b6000805490508210610839576040517f08c379a0000000000000000000000000000000000000000000000000000000008152600401610830906111b8565b60405180910390fd5b600080838154811061084e5761084d6111d8565b5b90600052602060002090600402016040518060800160405290816000820160009054906101000a900473ffffffffffffffffffffffffffffffffffffffff1673ffffffffffffffffffffffffffffffffffffffff1673ffffffffffffffffffffffffffffffffffffffff1681526020016001820180546108cd906112a2565b80601f01602080910402602001604051908101604052809291908181526020018280546108f9906112a2565b80156109465780601f1061091b57610100808354040283529160200191610946565b820191906000526020600020905b81548152906001019060200180831161092957829003601f168201915b505050505081526020016002820180548060200260200160405190810160405280929190818152602001828054801561099e57602002820191906000526020600020905b81548152602001906001019080831161098a575b505050505081526020016003820160009054906101000a900460ff1660038111156109cc576109cb610f05565b5b60038111156109de576109dd610f05565b5b81525050905080915050919050565b6040518060800160405280600073ffffffffffffffffffffffffffffffffffffffff168152602001606081526020016060815260200160006003811115610a3757610a36610f05565b5b81525090565b828054828255906000526020600020908101928215610a79579160200282015b82811115610a78578251825591602001919060010190610a5d565b5b509050610a869190610a8a565b5090565b5b80821115610aa3576000816000905550600101610a8b565b5090565b6000604051905090565b600080fd5b600080fd5b6000819050919050565b610ace81610abb565b8114610ad957600080fd5b50565b600081359050610aeb81610ac5565b92915050565b600080fd5b600080fd5b6000601f19601f8301169050919050565b7f4e487b7100000000000000000000000000000000000000000000000000000000600052604160045260246000fd5b610b4482610afb565b810181811067ffffffffffffffff82111715610b6357610b62610b0c565b5b80604052505050565b6000610b76610aa7565b9050610b828282610b3b565b919050565b600067ffffffffffffffff821115610ba257610ba1610b0c565b5b610bab82610afb565b9050602081019050919050565b82818337600083830152505050565b6000610bda610bd584610b87565b610b6c565b905082815260208101848484011115610bf657610bf5610af6565b5b610c01848285610bb8565b509392505050565b600082601f830112610c1e57610c1d610af1565b5b8135610c2e848260208601610bc7565b91505092915050565b60008060408385031215610c4e57610c4d610ab1565b5b6000610c5c85828601610adc565b925050602083013567ffffffffffffffff811115610c7d57610c7c610ab6565b5b610c8985828601610c09565b9150509250929050565b600067ffffffffffffffff821115610cae57610cad610b0c565b5b602082029050602081019050919050565b600080fd5b6000610cd7610cd284610c93565b610b6c565b90508083825260208201905060208402830185811115610cfa57610cf9610cbf565b5b835b81811015610d235780610d0f8882610adc565b845260208401935050602081019050610cfc565b5050509392505050565b600082601f830112610d4257610d41610af1565b5b8135610d52848260208601610cc4565b91505092915050565b60008060408385031215610d7257610d71610ab1565b5b600083013567ffffffffffffffff811115610d9057610d8f610ab6565b5b610d9c85828601610c09565b925050602083013567ffffffffffffffff811115610dbd57610dbc610ab6565b5b610dc985828601610d2d565b9150509250929050565b610ddc81610abb565b82525050565b6000602082019050610df76000830184610dd3565b92915050565b600073ffffffffffffffffffffffffffffffffffffffff82169050919050565b6000610e2882610dfd565b9050919050565b610e3881610e1d565b82525050565b6000602082019050610e536000830184610e2f565b92915050565b600060208284031215610e6f57610e6e610ab1565b5b6000610e7d84828501610adc565b91505092915050565b600081519050919050565b600082825260208201905092915050565b60005b83811015610ec0578082015181840152602081019050610ea5565b60008484015250505050565b6000610ed782610e86565b610ee18185610e91565b9350610ef1818560208601610ea2565b610efa81610afb565b840191505092915050565b7f4e487b7100000000000000000000000000000000000000000000000000000000600052602160045260246000fd5b60048110610f4557610f44610f05565b5b50565b6000819050610f5682610f34565b919050565b6000610f6682610f48565b9050919050565b610f7681610f5b565b82525050565b6000606082019050610f916000830186610e2f565b8181036020830152610fa38185610ecc565b9050610fb26040830184610f6d565b949350505050565b610fc381610e1d565b82525050565b600082825260208201905092915050565b6000610fe582610e86565b610fef8185610fc9565b9350610fff818560208601610ea2565b61100881610afb565b840191505092915050565b600081519050919050565b600082825260208201905092915050565b6000819050602082019050919050565b61104881610abb565b82525050565b600061105a838361103f565b60208301905092915050565b6000602082019050919050565b600061107e82611013565b611088818561101e565b93506110938361102f565b8060005b838110156110c45781516110ab888261104e565b97506110b683611066565b925050600181019050611097565b5085935050505092915050565b6110da81610f5b565b82525050565b60006080830160008301516110f86000860182610fba565b50602083015184820360208601526111108282610fda565b9150506040830151848203604086015261112a8282611073565b915050606083015161113f60608601826110d1565b508091505092915050565b6000602082019050818103600083015261116481846110e0565b905092915050565b7f4e6f7420612076616c6964206f726465722069642e0000000000000000000000600082015250565b60006111a2601583610e91565b91506111ad8261116c565b602082019050919050565b600060208201905081810360008301526111d181611195565b9050919050565b7f4e487b7100000000000000000000000000000000000000000000000000000000600052603260045260246000fd5b7f596f7520617265206e6f7420746865206f776e6572206f66206f726465722e00600082015250565b600061123d601f83610e91565b915061124882611207565b602082019050919050565b6000602082019050818103600083015261126c81611230565b9050919050565b7f4e487b7100000000000000000000000000000000000000000000000000000000600052602260045260246000fd5b600060028204905060018216806112ba57607f821691505b6020821081036112cd576112cc611273565b5b50919050565b60008190508160005260206000209050919050565b60006020601f8301049050919050565b600082821b905092915050565b6000600883026113357fffffffffffffffffffffffffffffffffffffffffffffffffffffffffffffffff826112f8565b61133f86836112f8565b95508019841693508086168417925050509392505050565b6000819050919050565b600061137c61137761137284610abb565b611357565b610abb565b9050919050565b6000819050919050565b61139683611361565b6113aa6113a282611383565b848454611305565b825550505050565b600090565b6113bf6113b2565b6113ca81848461138d565b505050565b5b818110156113ee576113e36000826113b7565b6001810190506113d0565b5050565b601f82111561143357611404816112d3565b61140d846112e8565b8101602085101561141c578190505b611430611428856112e8565b8301826113cf565b50505b505050565b600082821c905092915050565b600061145660001984600802611438565b1980831691505092915050565b600061146f8383611445565b9150826002028217905092915050565b61148882610e86565b67ffffffffffffffff8111156114a1576114a0610b0c565b5b6114ab82546112a2565b6114b68282856113f2565b600060209050601f8311600181146114e957600084156114d7578287015190505b6114e18582611463565b865550611549565b601f1984166114f7866112d3565b60005b8281101561151f578489015182556001820191506020850194506020810190506114fa565b8683101561153c5784890151611538601f891682611445565b8355505b6001600288020188555050505b505050505050565b7f4e6f2070726f64756374732e0000000000000000000000000000000000000000600082015250565b6000611587600c83610e91565b915061159282611551565b602082019050919050565b600060208201905081810360008301526115b68161157a565b9050919050565b7f596f7520617265206e6f7420617574686f72697a65642e000000000000000000600082015250565b60006115f3601783610e91565b91506115fe826115bd565b602082019050919050565b60006020820190508181036000830152611622816115e6565b9050919050565b7f4f7264657220697320616c726561647920736869707065642e00000000000000600082015250565b600061165f601983610e91565b915061166a82611629565b602082019050919050565b6000602082019050818103600083015261168e81611652565b905091905056fea2646970667358221220ba11c21b777abc7ac9a10d8b1d765a893c40f20df8d616b577883f36a1f07cfd64736f6c63430008120033",
			"opcodes": "PUSH1 0x80 PUSH1 0x40 MSTORE CALLVALUE DUP1 ISZERO PUSH2 0x10 JUMPI PUSH1 0x0 DUP1 REVERT JUMPDEST POP CALLER PUSH1 0x1 PUSH1 0x0 PUSH2 0x100 EXP DUP2 SLOAD DUP2 PUSH20 0xFFFFFFFFFFFFFFFFFFFFFFFFFFFFFFFFFFFFFFFF MUL NOT AND SWAP1 DUP4 PUSH20 0xFFFFFFFFFFFFFFFFFFFFFFFFFFFFFFFFFFFFFFFF AND MUL OR SWAP1 SSTORE POP PUSH2 0x16CB DUP1 PUSH2 0x61 PUSH1 0x0 CODECOPY PUSH1 0x0 RETURN INVALID PUSH1 0x80 PUSH1 0x40 MSTORE CALLVALUE DUP1 ISZERO PUSH2 0x10 JUMPI PUSH1 0x0 DUP1 REVERT JUMPDEST POP PUSH1 0x4 CALLDATASIZE LT PUSH2 0x62 JUMPI PUSH1 0x0 CALLDATALOAD PUSH1 0xE0 SHR DUP1 PUSH4 0x577DC0A0 EQ PUSH2 0x67 JUMPI DUP1 PUSH4 0x6D9A65D8 EQ PUSH2 0x83 JUMPI DUP1 PUSH4 0x8DA5CB5B EQ PUSH2 0xB3 JUMPI DUP1 PUSH4 0xA85C38EF EQ PUSH2 0xD1 JUMPI DUP1 PUSH4 0xAFE13A62 EQ PUSH2 0x103 JUMPI DUP1 PUSH4 0xD09EF241 EQ PUSH2 0x11F JUMPI JUMPDEST PUSH1 0x0 DUP1 REVERT JUMPDEST PUSH2 0x81 PUSH1 0x4 DUP1 CALLDATASIZE SUB DUP2 ADD SWAP1 PUSH2 0x7C SWAP2 SWAP1 PUSH2 0xC37 JUMP JUMPDEST PUSH2 0x14F JUMP JUMPDEST STOP JUMPDEST PUSH2 0x9D PUSH1 0x4 DUP1 CALLDATASIZE SUB DUP2 ADD SWAP1 PUSH2 0x98 SWAP2 SWAP1 PUSH2 0xD5B JUMP JUMPDEST PUSH2 0x264 JUMP JUMPDEST PUSH1 0x40 MLOAD PUSH2 0xAA SWAP2 SWAP1 PUSH2 0xDE2 JUMP JUMPDEST PUSH1 0x40 MLOAD DUP1 SWAP2 SUB SWAP1 RETURN JUMPDEST PUSH2 0xBB PUSH2 0x413 JUMP JUMPDEST PUSH1 0x40 MLOAD PUSH2 0xC8 SWAP2 SWAP1 PUSH2 0xE3E JUMP JUMPDEST PUSH1 0x40 MLOAD DUP1 SWAP2 SUB SWAP1 RETURN JUMPDEST PUSH2 0xEB PUSH1 0x4 DUP1 CALLDATASIZE SUB DUP2 ADD SWAP1 PUSH2 0xE6 SWAP2 SWAP1 PUSH2 0xE59 JUMP JUMPDEST PUSH2 0x439 JUMP JUMPDEST PUSH1 0x40 MLOAD PUSH2 0xFA SWAP4 SWAP3 SWAP2 SWAP1 PUSH2 0xF7C JUMP JUMPDEST PUSH1 0x40 MLOAD DUP1 SWAP2 SUB SWAP1 RETURN JUMPDEST PUSH2 0x11D PUSH1 0x4 DUP1 CALLDATASIZE SUB DUP2 ADD SWAP1 PUSH2 0x118 SWAP2 SWAP1 PUSH2 0xE59 JUMP JUMPDEST PUSH2 0x528 JUMP JUMPDEST STOP JUMPDEST PUSH2 0x139 PUSH1 0x4 DUP1 CALLDATASIZE SUB DUP2 ADD SWAP1 PUSH2 0x134 SWAP2 SWAP1 PUSH2 0xE59 JUMP JUMPDEST PUSH2 0x7EA JUMP JUMPDEST PUSH1 0x40 MLOAD PUSH2 0x146 SWAP2 SWAP1 PUSH2 0x114A JUMP JUMPDEST PUSH1 0x40 MLOAD DUP1 SWAP2 SUB SWAP1 RETURN JUMPDEST PUSH1 0x0 DUP1 SLOAD SWAP1 POP DUP3 LT PUSH2 0x196 JUMPI PUSH1 0x40 MLOAD PUSH32 0x8C379A000000000000000000000000000000000000000000000000000000000 DUP2 MSTORE PUSH1 0x4 ADD PUSH2 0x18D SWAP1 PUSH2 0x11B8 JUMP JUMPDEST PUSH1 0x40 MLOAD DUP1 SWAP2 SUB SWAP1 REVERT JUMPDEST PUSH1 0x0 DUP1 DUP4 DUP2 SLOAD DUP2 LT PUSH2 0x1AB JUMPI PUSH2 0x1AA PUSH2 0x11D8 JUMP JUMPDEST JUMPDEST SWAP1 PUSH1 0x0 MSTORE PUSH1 0x20 PUSH1 0x0 KECCAK256 SWAP1 PUSH1 0x4 MUL ADD SWAP1 POP CALLER PUSH20 0xFFFFFFFFFFFFFFFFFFFFFFFFFFFFFFFFFFFFFFFF AND DUP2 PUSH1 0x0 ADD PUSH1 0x0 SWAP1 SLOAD SWAP1 PUSH2 0x100 EXP SWAP1 DIV PUSH20 0xFFFFFFFFFFFFFFFFFFFFFFFFFFFFFFFFFFFFFFFF AND PUSH20 0xFFFFFFFFFFFFFFFFFFFFFFFFFFFFFFFFFFFFFFFF AND EQ PUSH2 0x24D JUMPI PUSH1 0x40 MLOAD PUSH32 0x8C379A000000000000000000000000000000000000000000000000000000000 DUP2 MSTORE PUSH1 0x4 ADD PUSH2 0x244 SWAP1 PUSH2 0x1253 JUMP JUMPDEST PUSH1 0x40 MLOAD DUP1 SWAP2 SUB SWAP1 REVERT JUMPDEST DUP2 DUP2 PUSH1 0x1 ADD SWAP1 DUP2 PUSH2 0x25E SWAP2 SWAP1 PUSH2 0x147F JUMP JUMPDEST POP POP POP POP JUMP JUMPDEST PUSH1 0x0 DUP1 DUP3 MLOAD GT PUSH2 0x2A9 JUMPI PUSH1 0x40 MLOAD PUSH32 0x8C379A000000000000000000000000000000000000000000000000000000000 DUP2 MSTORE PUSH1 0x4 ADD PUSH2 0x2A0 SWAP1 PUSH2 0x159D JUMP JUMPDEST PUSH1 0x40 MLOAD DUP1 SWAP2 SUB SWAP1 REVERT JUMPDEST PUSH2 0x2B1 PUSH2 0x9ED JUMP JUMPDEST CALLER DUP2 PUSH1 0x0 ADD SWAP1 PUSH20 0xFFFFFFFFFFFFFFFFFFFFFFFFFFFFFFFFFFFFFFFF AND SWAP1 DUP2 PUSH20 0xFFFFFFFFFFFFFFFFFFFFFFFFFFFFFFFFFFFFFFFF AND DUP2 MSTORE POP POP DUP4 DUP2 PUSH1 0x20 ADD DUP2 SWAP1 MSTORE POP DUP3 DUP2 PUSH1 0x40 ADD DUP2 SWAP1 MSTORE POP PUSH1 0x0 DUP2 PUSH1 0x60 ADD SWAP1 PUSH1 0x3 DUP2 GT ISZERO PUSH2 0x314 JUMPI PUSH2 0x313 PUSH2 0xF05 JUMP JUMPDEST JUMPDEST SWAP1 DUP2 PUSH1 0x3 DUP2 GT ISZERO PUSH2 0x328 JUMPI PUSH2 0x327 PUSH2 0xF05 JUMP JUMPDEST JUMPDEST DUP2 MSTORE POP POP PUSH1 0x0 DUP2 SWAP1 DUP1 PUSH1 0x1 DUP2 SLOAD ADD DUP1 DUP3 SSTORE DUP1 SWAP2 POP POP PUSH1 0x1 SWAP1 SUB SWAP1 PUSH1 0x0 MSTORE PUSH1 0x20 PUSH1 0x0 KECCAK256 SWAP1 PUSH1 0x4 MUL ADD PUSH1 0x0 SWAP1 SWAP2 SWAP1 SWAP2 SWAP1 SWAP2 POP PUSH1 0x0 DUP3 ADD MLOAD DUP2 PUSH1 0x0 ADD PUSH1 0x0 PUSH2 0x100 EXP DUP2 SLOAD DUP2 PUSH20 0xFFFFFFFFFFFFFFFFFFFFFFFFFFFFFFFFFFFFFFFF MUL NOT AND SWAP1 DUP4 PUSH20 0xFFFFFFFFFFFFFFFFFFFFFFFFFFFFFFFFFFFFFFFF AND MUL OR SWAP1 SSTORE POP PUSH1 0x20 DUP3 ADD MLOAD DUP2 PUSH1 0x1 ADD SWAP1 DUP2 PUSH2 0x3B4 SWAP2 SWAP1 PUSH2 0x147F JUMP JUMPDEST POP PUSH1 0x40 DUP3 ADD MLOAD DUP2 PUSH1 0x2 ADD SWAP1 DUP1 MLOAD SWAP1 PUSH1 0x20 ADD SWAP1 PUSH2 0x3D1 SWAP3 SWAP2 SWAP1 PUSH2 0xA3D JUMP JUMPDEST POP PUSH1 0x60 DUP3 ADD MLOAD DUP2 PUSH1 0x3 ADD PUSH1 0x0 PUSH2 0x100 EXP DUP2 SLOAD DUP2 PUSH1 0xFF MUL NOT AND SWAP1 DUP4 PUSH1 0x3 DUP2 GT ISZERO PUSH2 0x3FD JUMPI PUSH2 0x3FC PUSH2 0xF05 JUMP JUMPDEST JUMPDEST MUL OR SWAP1 SSTORE POP POP POP PUSH1 0x0 DUP1 SLOAD SWAP1 POP SWAP2 POP POP SWAP3 SWAP2 POP POP JUMP JUMPDEST PUSH1 0x1 PUSH1 0x0 SWAP1 SLOAD SWAP1 PUSH2 0x100 EXP SWAP1 DIV PUSH20 0xFFFFFFFFFFFFFFFFFFFFFFFFFFFFFFFFFFFFFFFF AND DUP2 JUMP JUMPDEST PUSH1 0x0 DUP2 DUP2 SLOAD DUP2 LT PUSH2 0x449 JUMPI PUSH1 0x0 DUP1 REVERT JUMPDEST SWAP1 PUSH1 0x0 MSTORE PUSH1 0x20 PUSH1 0x0 KECCAK256 SWAP1 PUSH1 0x4 MUL ADD PUSH1 0x0 SWAP2 POP SWAP1 POP DUP1 PUSH1 0x0 ADD PUSH1 0x0 SWAP1 SLOAD SWAP1 PUSH2 0x100 EXP SWAP1 DIV PUSH20 0xFFFFFFFFFFFFFFFFFFFFFFFFFFFFFFFFFFFFFFFF AND SWAP1 DUP1 PUSH1 0x1 ADD DUP1 SLOAD PUSH2 0x492 SWAP1 PUSH2 0x12A2 JUMP JUMPDEST DUP1 PUSH1 0x1F ADD PUSH1 0x20 DUP1 SWAP2 DIV MUL PUSH1 0x20 ADD PUSH1 0x40 MLOAD SWAP1 DUP2 ADD PUSH1 0x40 MSTORE DUP1 SWAP3 SWAP2 SWAP1 DUP2 DUP2 MSTORE PUSH1 0x20 ADD DUP3 DUP1 SLOAD PUSH2 0x4BE SWAP1 PUSH2 0x12A2 JUMP JUMPDEST DUP1 ISZERO PUSH2 0x50B JUMPI DUP1 PUSH1 0x1F LT PUSH2 0x4E0 JUMPI PUSH2 0x100 DUP1 DUP4 SLOAD DIV MUL DUP4 MSTORE SWAP2 PUSH1 0x20 ADD SWAP2 PUSH2 0x50B JUMP JUMPDEST DUP3 ADD SWAP2 SWAP1 PUSH1 0x0 MSTORE PUSH1 0x20 PUSH1 0x0 KECCAK256 SWAP1 JUMPDEST DUP2 SLOAD DUP2 MSTORE SWAP1 PUSH1 0x1 ADD SWAP1 PUSH1 0x20 ADD DUP1 DUP4 GT PUSH2 0x4EE JUMPI DUP3 SWAP1 SUB PUSH1 0x1F AND DUP3 ADD SWAP2 JUMPDEST POP POP POP POP POP SWAP1 DUP1 PUSH1 0x3 ADD PUSH1 0x0 SWAP1 SLOAD SWAP1 PUSH2 0x100 EXP SWAP1 DIV PUSH1 0xFF AND SWAP1 POP DUP4 JUMP JUMPDEST CALLER PUSH20 0xFFFFFFFFFFFFFFFFFFFFFFFFFFFFFFFFFFFFFFFF AND PUSH1 0x1 PUSH1 0x0 SWAP1 SLOAD SWAP1 PUSH2 0x100 EXP SWAP1 DIV PUSH20 0xFFFFFFFFFFFFFFFFFFFFFFFFFFFFFFFFFFFFFFFF AND PUSH20 0xFFFFFFFFFFFFFFFFFFFFFFFFFFFFFFFFFFFFFFFF AND EQ PUSH2 0x5B8 JUMPI PUSH1 0x40 MLOAD PUSH32 0x8C379A000000000000000000000000000000000000000000000000000000000 DUP2 MSTORE PUSH1 0x4 ADD PUSH2 0x5AF SWAP1 PUSH2 0x1609 JUMP JUMPDEST PUSH1 0x40 MLOAD DUP1 SWAP2 SUB SWAP1 REVERT JUMPDEST PUSH1 0x0 DUP1 SLOAD SWAP1 POP DUP2 LT PUSH2 0x5FF JUMPI PUSH1 0x40 MLOAD PUSH32 0x8C379A000000000000000000000000000000000000000000000000000000000 DUP2 MSTORE PUSH1 0x4 ADD PUSH2 0x5F6 SWAP1 PUSH2 0x11B8 JUMP JUMPDEST PUSH1 0x40 MLOAD DUP1 SWAP2 SUB SWAP1 REVERT JUMPDEST PUSH1 0x0 DUP1 DUP3 DUP2 SLOAD DUP2 LT PUSH2 0x614 JUMPI PUSH2 0x613 PUSH2 0x11D8 JUMP JUMPDEST JUMPDEST SWAP1 PUSH1 0x0 MSTORE PUSH1 0x20 PUSH1 0x0 KECCAK256 SWAP1 PUSH1 0x4 MUL ADD SWAP1 POP PUSH1 0x3 DUP1 DUP2 GT ISZERO PUSH2 0x637 JUMPI PUSH2 0x636 PUSH2 0xF05 JUMP JUMPDEST JUMPDEST DUP2 PUSH1 0x3 ADD PUSH1 0x0 SWAP1 SLOAD SWAP1 PUSH2 0x100 EXP SWAP1 DIV PUSH1 0xFF AND PUSH1 0x3 DUP2 GT ISZERO PUSH2 0x65B JUMPI PUSH2 0x65A PUSH2 0xF05 JUMP JUMPDEST JUMPDEST SUB PUSH2 0x69B JUMPI PUSH1 0x40 MLOAD PUSH32 0x8C379A000000000000000000000000000000000000000000000000000000000 DUP2 MSTORE PUSH1 0x4 ADD PUSH2 0x692 SWAP1 PUSH2 0x1675 JUMP JUMPDEST PUSH1 0x40 MLOAD DUP1 SWAP2 SUB SWAP1 REVERT JUMPDEST PUSH1 0x0 PUSH1 0x3 DUP2 GT ISZERO PUSH2 0x6AF JUMPI PUSH2 0x6AE PUSH2 0xF05 JUMP JUMPDEST JUMPDEST DUP2 PUSH1 0x3 ADD PUSH1 0x0 SWAP1 SLOAD SWAP1 PUSH2 0x100 EXP SWAP1 DIV PUSH1 0xFF AND PUSH1 0x3 DUP2 GT ISZERO PUSH2 0x6D3 JUMPI PUSH2 0x6D2 PUSH2 0xF05 JUMP JUMPDEST JUMPDEST SUB PUSH2 0x70A JUMPI PUSH1 0x1 DUP2 PUSH1 0x3 ADD PUSH1 0x0 PUSH2 0x100 EXP DUP2 SLOAD DUP2 PUSH1 0xFF MUL NOT AND SWAP1 DUP4 PUSH1 0x3 DUP2 GT ISZERO PUSH2 0x700 JUMPI PUSH2 0x6FF PUSH2 0xF05 JUMP JUMPDEST JUMPDEST MUL OR SWAP1 SSTORE POP PUSH2 0x7E6 JUMP JUMPDEST PUSH1 0x1 PUSH1 0x3 DUP2 GT ISZERO PUSH2 0x71E JUMPI PUSH2 0x71D PUSH2 0xF05 JUMP JUMPDEST JUMPDEST DUP2 PUSH1 0x3 ADD PUSH1 0x0 SWAP1 SLOAD SWAP1 PUSH2 0x100 EXP SWAP1 DIV PUSH1 0xFF AND PUSH1 0x3 DUP2 GT ISZERO PUSH2 0x742 JUMPI PUSH2 0x741 PUSH2 0xF05 JUMP JUMPDEST JUMPDEST SUB PUSH2 0x779 JUMPI PUSH1 0x2 DUP2 PUSH1 0x3 ADD PUSH1 0x0 PUSH2 0x100 EXP DUP2 SLOAD DUP2 PUSH1 0xFF MUL NOT AND SWAP1 DUP4 PUSH1 0x3 DUP2 GT ISZERO PUSH2 0x76F JUMPI PUSH2 0x76E PUSH2 0xF05 JUMP JUMPDEST JUMPDEST MUL OR SWAP1 SSTORE POP PUSH2 0x7E5 JUMP JUMPDEST PUSH1 0x2 PUSH1 0x3 DUP2 GT ISZERO PUSH2 0x78D JUMPI PUSH2 0x78C PUSH2 0xF05 JUMP JUMPDEST JUMPDEST DUP2 PUSH1 0x3 ADD PUSH1 0x0 SWAP1 SLOAD SWAP1 PUSH2 0x100 EXP SWAP1 DIV PUSH1 0xFF AND PUSH1 0x3 DUP2 GT ISZERO PUSH2 0x7B1 JUMPI PUSH2 0x7B0 PUSH2 0xF05 JUMP JUMPDEST JUMPDEST SUB PUSH2 0x7E4 JUMPI PUSH1 0x3 DUP2 PUSH1 0x3 ADD PUSH1 0x0 PUSH2 0x100 EXP DUP2 SLOAD DUP2 PUSH1 0xFF MUL NOT AND SWAP1 DUP4 PUSH1 0x3 DUP2 GT ISZERO PUSH2 0x7DE JUMPI PUSH2 0x7DD PUSH2 0xF05 JUMP JUMPDEST JUMPDEST MUL OR SWAP1 SSTORE POP JUMPDEST JUMPDEST JUMPDEST POP POP JUMP JUMPDEST PUSH2 0x7F2 PUSH2 0x9ED JUMP JUMPDEST PUSH1 0x0 DUP1 SLOAD SWAP1 POP DUP3 LT PUSH2 0x839 JUMPI PUSH1 0x40 MLOAD PUSH32 0x8C379A000000000000000000000000000000000000000000000000000000000 DUP2 MSTORE PUSH1 0x4 ADD PUSH2 0x830 SWAP1 PUSH2 0x11B8 JUMP JUMPDEST PUSH1 0x40 MLOAD DUP1 SWAP2 SUB SWAP1 REVERT JUMPDEST PUSH1 0x0 DUP1 DUP4 DUP2 SLOAD DUP2 LT PUSH2 0x84E JUMPI PUSH2 0x84D PUSH2 0x11D8 JUMP JUMPDEST JUMPDEST SWAP1 PUSH1 0x0 MSTORE PUSH1 0x20 PUSH1 0x0 KECCAK256 SWAP1 PUSH1 0x4 MUL ADD PUSH1 0x40 MLOAD DUP1 PUSH1 0x80 ADD PUSH1 0x40 MSTORE SWAP1 DUP2 PUSH1 0x0 DUP3 ADD PUSH1 0x0 SWAP1 SLOAD SWAP1 PUSH2 0x100 EXP SWAP1 DIV PUSH20 0xFFFFFFFFFFFFFFFFFFFFFFFFFFFFFFFFFFFFFFFF AND PUSH20 0xFFFFFFFFFFFFFFFFFFFFFFFFFFFFFFFFFFFFFFFF AND PUSH20 0xFFFFFFFFFFFFFFFFFFFFFFFFFFFFFFFFFFFFFFFF AND DUP2 MSTORE PUSH1 0x20 ADD PUSH1 0x1 DUP3 ADD DUP1 SLOAD PUSH2 0x8CD SWAP1 PUSH2 0x12A2 JUMP JUMPDEST DUP1 PUSH1 0x1F ADD PUSH1 0x20 DUP1 SWAP2 DIV MUL PUSH1 0x20 ADD PUSH1 0x40 MLOAD SWAP1 DUP2 ADD PUSH1 0x40 MSTORE DUP1 SWAP3 SWAP2 SWAP1 DUP2 DUP2 MSTORE PUSH1 0x20 ADD DUP3 DUP1 SLOAD PUSH2 0x8F9 SWAP1 PUSH2 0x12A2 JUMP JUMPDEST DUP1 ISZERO PUSH2 0x946 JUMPI DUP1 PUSH1 0x1F LT PUSH2 0x91B JUMPI PUSH2 0x100 DUP1 DUP4 SLOAD DIV MUL DUP4 MSTORE SWAP2 PUSH1 0x20 ADD SWAP2 PUSH2 0x946 JUMP JUMPDEST DUP3 ADD SWAP2 SWAP1 PUSH1 0x0 MSTORE PUSH1 0x20 PUSH1 0x0 KECCAK256 SWAP1 JUMPDEST DUP2 SLOAD DUP2 MSTORE SWAP1 PUSH1 0x1 ADD SWAP1 PUSH1 0x20 ADD DUP1 DUP4 GT PUSH2 0x929 JUMPI DUP3 SWAP1 SUB PUSH1 0x1F AND DUP3 ADD SWAP2 JUMPDEST POP POP POP POP POP DUP2 MSTORE PUSH1 0x20 ADD PUSH1 0x2 DUP3 ADD DUP1 SLOAD DUP1 PUSH1 0x20 MUL PUSH1 0x20 ADD PUSH1 0x40 MLOAD SWAP1 DUP2 ADD PUSH1 0x40 MSTORE DUP1 SWAP3 SWAP2 SWAP1 DUP2 DUP2 MSTORE PUSH1 0x20 ADD DUP3 DUP1 SLOAD DUP1 ISZERO PUSH2 0x99E JUMPI PUSH1 0x20 MUL DUP3 ADD SWAP2 SWAP1 PUSH1 0x0 MSTORE PUSH1 0x20 PUSH1 0x0 KECCAK256 SWAP1 JUMPDEST DUP2 SLOAD DUP2 MSTORE PUSH1 0x20 ADD SWAP1 PUSH1 0x1 ADD SWAP1 DUP1 DUP4 GT PUSH2 0x98A JUMPI JUMPDEST POP POP POP POP POP DUP2 MSTORE PUSH1 0x20 ADD PUSH1 0x3 DUP3 ADD PUSH1 0x0 SWAP1 SLOAD SWAP1 PUSH2 0x100 EXP SWAP1 DIV PUSH1 0xFF AND PUSH1 0x3 DUP2 GT ISZERO PUSH2 0x9CC JUMPI PUSH2 0x9CB PUSH2 0xF05 JUMP JUMPDEST JUMPDEST PUSH1 0x3 DUP2 GT ISZERO PUSH2 0x9DE JUMPI PUSH2 0x9DD PUSH2 0xF05 JUMP JUMPDEST JUMPDEST DUP2 MSTORE POP POP SWAP1 POP DUP1 SWAP2 POP POP SWAP2 SWAP1 POP JUMP JUMPDEST PUSH1 0x40 MLOAD DUP1 PUSH1 0x80 ADD PUSH1 0x40 MSTORE DUP1 PUSH1 0x0 PUSH20 0xFFFFFFFFFFFFFFFFFFFFFFFFFFFFFFFFFFFFFFFF AND DUP2 MSTORE PUSH1 0x20 ADD PUSH1 0x60 DUP2 MSTORE PUSH1 0x20 ADD PUSH1 0x60 DUP2 MSTORE PUSH1 0x20 ADD PUSH1 0x0 PUSH1 0x3 DUP2 GT ISZERO PUSH2 0xA37 JUMPI PUSH2 0xA36 PUSH2 0xF05 JUMP JUMPDEST JUMPDEST DUP2 MSTORE POP SWAP1 JUMP JUMPDEST DUP3 DUP1 SLOAD DUP3 DUP3 SSTORE SWAP1 PUSH1 0x0 MSTORE PUSH1 0x20 PUSH1 0x0 KECCAK256 SWAP1 DUP2 ADD SWAP3 DUP3 ISZERO PUSH2 0xA79 JUMPI SWAP2 PUSH1 0x20 MUL DUP3 ADD JUMPDEST DUP3 DUP2 GT ISZERO PUSH2 0xA78 JUMPI DUP3 MLOAD DUP3 SSTORE SWAP2 PUSH1 0x20 ADD SWAP2 SWAP1 PUSH1 0x1 ADD SWAP1 PUSH2 0xA5D JUMP JUMPDEST JUMPDEST POP SWAP1 POP PUSH2 0xA86 SWAP2 SWAP1 PUSH2 0xA8A JUMP JUMPDEST POP SWAP1 JUMP JUMPDEST JUMPDEST DUP1 DUP3 GT ISZERO PUSH2 0xAA3 JUMPI PUSH1 0x0 DUP2 PUSH1 0x0 SWAP1 SSTORE POP PUSH1 0x1 ADD PUSH2 0xA8B JUMP JUMPDEST POP SWAP1 JUMP JUMPDEST PUSH1 0x0 PUSH1 0x40 MLOAD SWAP1 POP SWAP1 JUMP JUMPDEST PUSH1 0x0 DUP1 REVERT JUMPDEST PUSH1 0x0 DUP1 REVERT JUMPDEST PUSH1 0x0 DUP2 SWAP1 POP SWAP2 SWAP1 POP JUMP JUMPDEST PUSH2 0xACE DUP2 PUSH2 0xABB JUMP JUMPDEST DUP2 EQ PUSH2 0xAD9 JUMPI PUSH1 0x0 DUP1 REVERT JUMPDEST POP JUMP JUMPDEST PUSH1 0x0 DUP2 CALLDATALOAD SWAP1 POP PUSH2 0xAEB DUP2 PUSH2 0xAC5 JUMP JUMPDEST SWAP3 SWAP2 POP POP JUMP JUMPDEST PUSH1 0x0 DUP1 REVERT JUMPDEST PUSH1 0x0 DUP1 REVERT JUMPDEST PUSH1 0x0 PUSH1 0x1F NOT PUSH1 0x1F DUP4 ADD AND SWAP1 POP SWAP2 SWAP1 POP JUMP JUMPDEST PUSH32 0x4E487B7100000000000000000000000000000000000000000000000000000000 PUSH1 0x0 MSTORE PUSH1 0x41 PUSH1 0x4 MSTORE PUSH1 0x24 PUSH1 0x0 REVERT JUMPDEST PUSH2 0xB44 DUP3 PUSH2 0xAFB JUMP JUMPDEST DUP2 ADD DUP2 DUP2 LT PUSH8 0xFFFFFFFFFFFFFFFF DUP3 GT OR ISZERO PUSH2 0xB63 JUMPI PUSH2 0xB62 PUSH2 0xB0C JUMP JUMPDEST JUMPDEST DUP1 PUSH1 0x40 MSTORE POP POP POP JUMP JUMPDEST PUSH1 0x0 PUSH2 0xB76 PUSH2 0xAA7 JUMP JUMPDEST SWAP1 POP PUSH2 0xB82 DUP3 DUP3 PUSH2 0xB3B JUMP JUMPDEST SWAP2 SWAP1 POP JUMP JUMPDEST PUSH1 0x0 PUSH8 0xFFFFFFFFFFFFFFFF DUP3 GT ISZERO PUSH2 0xBA2 JUMPI PUSH2 0xBA1 PUSH2 0xB0C JUMP JUMPDEST JUMPDEST PUSH2 0xBAB DUP3 PUSH2 0xAFB JUMP JUMPDEST SWAP1 POP PUSH1 0x20 DUP2 ADD SWAP1 POP SWAP2 SWAP1 POP JUMP JUMPDEST DUP3 DUP2 DUP4 CALLDATACOPY PUSH1 0x0 DUP4 DUP4 ADD MSTORE POP POP POP JUMP JUMPDEST PUSH1 0x0 PUSH2 0xBDA PUSH2 0xBD5 DUP5 PUSH2 0xB87 JUMP JUMPDEST PUSH2 0xB6C JUMP JUMPDEST SWAP1 POP DUP3 DUP2 MSTORE PUSH1 0x20 DUP2 ADD DUP5 DUP5 DUP5 ADD GT ISZERO PUSH2 0xBF6 JUMPI PUSH2 0xBF5 PUSH2 0xAF6 JUMP JUMPDEST JUMPDEST PUSH2 0xC01 DUP5 DUP3 DUP6 PUSH2 0xBB8 JUMP JUMPDEST POP SWAP4 SWAP3 POP POP POP JUMP JUMPDEST PUSH1 0x0 DUP3 PUSH1 0x1F DUP4 ADD SLT PUSH2 0xC1E JUMPI PUSH2 0xC1D PUSH2 0xAF1 JUMP JUMPDEST JUMPDEST DUP2 CALLDATALOAD PUSH2 0xC2E DUP5 DUP3 PUSH1 0x20 DUP7 ADD PUSH2 0xBC7 JUMP JUMPDEST SWAP2 POP POP SWAP3 SWAP2 POP POP JUMP JUMPDEST PUSH1 0x0 DUP1 PUSH1 0x40 DUP4 DUP6 SUB SLT ISZERO PUSH2 0xC4E JUMPI PUSH2 0xC4D PUSH2 0xAB1 JUMP JUMPDEST JUMPDEST PUSH1 0x0 PUSH2 0xC5C DUP6 DUP3 DUP7 ADD PUSH2 0xADC JUMP JUMPDEST SWAP3 POP POP PUSH1 0x20 DUP4 ADD CALLDATALOAD PUSH8 0xFFFFFFFFFFFFFFFF DUP2 GT ISZERO PUSH2 0xC7D JUMPI PUSH2 0xC7C PUSH2 0xAB6 JUMP JUMPDEST JUMPDEST PUSH2 0xC89 DUP6 DUP3 DUP7 ADD PUSH2 0xC09 JUMP JUMPDEST SWAP2 POP POP SWAP3 POP SWAP3 SWAP1 POP JUMP JUMPDEST PUSH1 0x0 PUSH8 0xFFFFFFFFFFFFFFFF DUP3 GT ISZERO PUSH2 0xCAE JUMPI PUSH2 0xCAD PUSH2 0xB0C JUMP JUMPDEST JUMPDEST PUSH1 0x20 DUP3 MUL SWAP1 POP PUSH1 0x20 DUP2 ADD SWAP1 POP SWAP2 SWAP1 POP JUMP JUMPDEST PUSH1 0x0 DUP1 REVERT JUMPDEST PUSH1 0x0 PUSH2 0xCD7 PUSH2 0xCD2 DUP5 PUSH2 0xC93 JUMP JUMPDEST PUSH2 0xB6C JUMP JUMPDEST SWAP1 POP DUP1 DUP4 DUP3 MSTORE PUSH1 0x20 DUP3 ADD SWAP1 POP PUSH1 0x20 DUP5 MUL DUP4 ADD DUP6 DUP2 GT ISZERO PUSH2 0xCFA JUMPI PUSH2 0xCF9 PUSH2 0xCBF JUMP JUMPDEST JUMPDEST DUP4 JUMPDEST DUP2 DUP2 LT ISZERO PUSH2 0xD23 JUMPI DUP1 PUSH2 0xD0F DUP9 DUP3 PUSH2 0xADC JUMP JUMPDEST DUP5 MSTORE PUSH1 0x20 DUP5 ADD SWAP4 POP POP PUSH1 0x20 DUP2 ADD SWAP1 POP PUSH2 0xCFC JUMP JUMPDEST POP POP POP SWAP4 SWAP3 POP POP POP JUMP JUMPDEST PUSH1 0x0 DUP3 PUSH1 0x1F DUP4 ADD SLT PUSH2 0xD42 JUMPI PUSH2 0xD41 PUSH2 0xAF1 JUMP JUMPDEST JUMPDEST DUP2 CALLDATALOAD PUSH2 0xD52 DUP5 DUP3 PUSH1 0x20 DUP7 ADD PUSH2 0xCC4 JUMP JUMPDEST SWAP2 POP POP SWAP3 SWAP2 POP POP JUMP JUMPDEST PUSH1 0x0 DUP1 PUSH1 0x40 DUP4 DUP6 SUB SLT ISZERO PUSH2 0xD72 JUMPI PUSH2 0xD71 PUSH2 0xAB1 JUMP JUMPDEST JUMPDEST PUSH1 0x0 DUP4 ADD CALLDATALOAD PUSH8 0xFFFFFFFFFFFFFFFF DUP2 GT ISZERO PUSH2 0xD90 JUMPI PUSH2 0xD8F PUSH2 0xAB6 JUMP JUMPDEST JUMPDEST PUSH2 0xD9C DUP6 DUP3 DUP7 ADD PUSH2 0xC09 JUMP JUMPDEST SWAP3 POP POP PUSH1 0x20 DUP4 ADD CALLDATALOAD PUSH8 0xFFFFFFFFFFFFFFFF DUP2 GT ISZERO PUSH2 0xDBD JUMPI PUSH2 0xDBC PUSH2 0xAB6 JUMP JUMPDEST JUMPDEST PUSH2 0xDC9 DUP6 DUP3 DUP7 ADD PUSH2 0xD2D JUMP JUMPDEST SWAP2 POP POP SWAP3 POP SWAP3 SWAP1 POP JUMP JUMPDEST PUSH2 0xDDC DUP2 PUSH2 0xABB JUMP JUMPDEST DUP3 MSTORE POP POP JUMP JUMPDEST PUSH1 0x0 PUSH1 0x20 DUP3 ADD SWAP1 POP PUSH2 0xDF7 PUSH1 0x0 DUP4 ADD DUP5 PUSH2 0xDD3 JUMP JUMPDEST SWAP3 SWAP2 POP POP JUMP JUMPDEST PUSH1 0x0 PUSH20 0xFFFFFFFFFFFFFFFFFFFFFFFFFFFFFFFFFFFFFFFF DUP3 AND SWAP1 POP SWAP2 SWAP1 POP JUMP JUMPDEST PUSH1 0x0 PUSH2 0xE28 DUP3 PUSH2 0xDFD JUMP JUMPDEST SWAP1 POP SWAP2 SWAP1 POP JUMP JUMPDEST PUSH2 0xE38 DUP2 PUSH2 0xE1D JUMP JUMPDEST DUP3 MSTORE POP POP JUMP JUMPDEST PUSH1 0x0 PUSH1 0x20 DUP3 ADD SWAP1 POP PUSH2 0xE53 PUSH1 0x0 DUP4 ADD DUP5 PUSH2 0xE2F JUMP JUMPDEST SWAP3 SWAP2 POP POP JUMP JUMPDEST PUSH1 0x0 PUSH1 0x20 DUP3 DUP5 SUB SLT ISZERO PUSH2 0xE6F JUMPI PUSH2 0xE6E PUSH2 0xAB1 JUMP JUMPDEST JUMPDEST PUSH1 0x0 PUSH2 0xE7D DUP5 DUP3 DUP6 ADD PUSH2 0xADC JUMP JUMPDEST SWAP2 POP POP SWAP3 SWAP2 POP POP JUMP JUMPDEST PUSH1 0x0 DUP2 MLOAD SWAP1 POP SWAP2 SWAP1 POP JUMP JUMPDEST PUSH1 0x0 DUP3 DUP3 MSTORE PUSH1 0x20 DUP3 ADD SWAP1 POP SWAP3 SWAP2 POP POP JUMP JUMPDEST PUSH1 0x0 JUMPDEST DUP4 DUP2 LT ISZERO PUSH2 0xEC0 JUMPI DUP1 DUP3 ADD MLOAD DUP2 DUP5 ADD MSTORE PUSH1 0x20 DUP2 ADD SWAP1 POP PUSH2 0xEA5 JUMP JUMPDEST PUSH1 0x0 DUP5 DUP5 ADD MSTORE POP POP POP POP JUMP JUMPDEST PUSH1 0x0 PUSH2 0xED7 DUP3 PUSH2 0xE86 JUMP JUMPDEST PUSH2 0xEE1 DUP2 DUP6 PUSH2 0xE91 JUMP JUMPDEST SWAP4 POP PUSH2 0xEF1 DUP2 DUP6 PUSH1 0x20 DUP7 ADD PUSH2 0xEA2 JUMP JUMPDEST PUSH2 0xEFA DUP2 PUSH2 0xAFB JUMP JUMPDEST DUP5 ADD SWAP2 POP POP SWAP3 SWAP2 POP POP JUMP JUMPDEST PUSH32 0x4E487B7100000000000000000000000000000000000000000000000000000000 PUSH1 0x0 MSTORE PUSH1 0x21 PUSH1 0x4 MSTORE PUSH1 0x24 PUSH1 0x0 REVERT JUMPDEST PUSH1 0x4 DUP2 LT PUSH2 0xF45 JUMPI PUSH2 0xF44 PUSH2 0xF05 JUMP JUMPDEST JUMPDEST POP JUMP JUMPDEST PUSH1 0x0 DUP2 SWAP1 POP PUSH2 0xF56 DUP3 PUSH2 0xF34 JUMP JUMPDEST SWAP2 SWAP1 POP JUMP JUMPDEST PUSH1 0x0 PUSH2 0xF66 DUP3 PUSH2 0xF48 JUMP JUMPDEST SWAP1 POP SWAP2 SWAP1 POP JUMP JUMPDEST PUSH2 0xF76 DUP2 PUSH2 0xF5B JUMP JUMPDEST DUP3 MSTORE POP POP JUMP JUMPDEST PUSH1 0x0 PUSH1 0x60 DUP3 ADD SWAP1 POP PUSH2 0xF91 PUSH1 0x0 DUP4 ADD DUP7 PUSH2 0xE2F JUMP JUMPDEST DUP2 DUP2 SUB PUSH1 0x20 DUP4 ADD MSTORE PUSH2 0xFA3 DUP2 DUP6 PUSH2 0xECC JUMP JUMPDEST SWAP1 POP PUSH2 0xFB2 PUSH1 0x40 DUP4 ADD DUP5 PUSH2 0xF6D JUMP JUMPDEST SWAP5 SWAP4 POP POP POP POP JUMP JUMPDEST PUSH2 0xFC3 DUP2 PUSH2 0xE1D JUMP JUMPDEST DUP3 MSTORE POP POP JUMP JUMPDEST PUSH1 0x0 DUP3 DUP3 MSTORE PUSH1 0x20 DUP3 ADD SWAP1 POP SWAP3 SWAP2 POP POP JUMP JUMPDEST PUSH1 0x0 PUSH2 0xFE5 DUP3 PUSH2 0xE86 JUMP JUMPDEST PUSH2 0xFEF DUP2 DUP6 PUSH2 0xFC9 JUMP JUMPDEST SWAP4 POP PUSH2 0xFFF DUP2 DUP6 PUSH1 0x20 DUP7 ADD PUSH2 0xEA2 JUMP JUMPDEST PUSH2 0x1008 DUP2 PUSH2 0xAFB JUMP JUMPDEST DUP5 ADD SWAP2 POP POP SWAP3 SWAP2 POP POP JUMP JUMPDEST PUSH1 0x0 DUP2 MLOAD SWAP1 POP SWAP2 SWAP1 POP JUMP JUMPDEST PUSH1 0x0 DUP3 DUP3 MSTORE PUSH1 0x20 DUP3 ADD SWAP1 POP SWAP3 SWAP2 POP POP JUMP JUMPDEST PUSH1 0x0 DUP2 SWAP1 POP PUSH1 0x20 DUP3 ADD SWAP1 POP SWAP2 SWAP1 POP JUMP JUMPDEST PUSH2 0x1048 DUP2 PUSH2 0xABB JUMP JUMPDEST DUP3 MSTORE POP POP JUMP JUMPDEST PUSH1 0x0 PUSH2 0x105A DUP4 DUP4 PUSH2 0x103F JUMP JUMPDEST PUSH1 0x20 DUP4 ADD SWAP1 POP SWAP3 SWAP2 POP POP JUMP JUMPDEST PUSH1 0x0 PUSH1 0x20 DUP3 ADD SWAP1 POP SWAP2 SWAP1 POP JUMP JUMPDEST PUSH1 0x0 PUSH2 0x107E DUP3 PUSH2 0x1013 JUMP JUMPDEST PUSH2 0x1088 DUP2 DUP6 PUSH2 0x101E JUMP JUMPDEST SWAP4 POP PUSH2 0x1093 DUP4 PUSH2 0x102F JUMP JUMPDEST DUP1 PUSH1 0x0 JUMPDEST DUP4 DUP2 LT ISZERO PUSH2 0x10C4 JUMPI DUP2 MLOAD PUSH2 0x10AB DUP9 DUP3 PUSH2 0x104E JUMP JUMPDEST SWAP8 POP PUSH2 0x10B6 DUP4 PUSH2 0x1066 JUMP JUMPDEST SWAP3 POP POP PUSH1 0x1 DUP2 ADD SWAP1 POP PUSH2 0x1097 JUMP JUMPDEST POP DUP6 SWAP4 POP POP POP POP SWAP3 SWAP2 POP POP JUMP JUMPDEST PUSH2 0x10DA DUP2 PUSH2 0xF5B JUMP JUMPDEST DUP3 MSTORE POP POP JUMP JUMPDEST PUSH1 0x0 PUSH1 0x80 DUP4 ADD PUSH1 0x0 DUP4 ADD MLOAD PUSH2 0x10F8 PUSH1 0x0 DUP7 ADD DUP3 PUSH2 0xFBA JUMP JUMPDEST POP PUSH1 0x20 DUP4 ADD MLOAD DUP5 DUP3 SUB PUSH1 0x20 DUP7 ADD MSTORE PUSH2 0x1110 DUP3 DUP3 PUSH2 0xFDA JUMP JUMPDEST SWAP2 POP POP PUSH1 0x40 DUP4 ADD MLOAD DUP5 DUP3 SUB PUSH1 0x40 DUP7 ADD MSTORE PUSH2 0x112A DUP3 DUP3 PUSH2 0x1073 JUMP JUMPDEST SWAP2 POP POP PUSH1 0x60 DUP4 ADD MLOAD PUSH2 0x113F PUSH1 0x60 DUP7 ADD DUP3 PUSH2 0x10D1 JUMP JUMPDEST POP DUP1 SWAP2 POP POP SWAP3 SWAP2 POP POP JUMP JUMPDEST PUSH1 0x0 PUSH1 0x20 DUP3 ADD SWAP1 POP DUP2 DUP2 SUB PUSH1 0x0 DUP4 ADD MSTORE PUSH2 0x1164 DUP2 DUP5 PUSH2 0x10E0 JUMP JUMPDEST SWAP1 POP SWAP3 SWAP2 POP POP JUMP JUMPDEST PUSH32 0x4E6F7420612076616C6964206F726465722069642E0000000000000000000000 PUSH1 0x0 DUP3 ADD MSTORE POP JUMP JUMPDEST PUSH1 0x0 PUSH2 0x11A2 PUSH1 0x15 DUP4 PUSH2 0xE91 JUMP JUMPDEST SWAP2 POP PUSH2 0x11AD DUP3 PUSH2 0x116C JUMP JUMPDEST PUSH1 0x20 DUP3 ADD SWAP1 POP SWAP2 SWAP1 POP JUMP JUMPDEST PUSH1 0x0 PUSH1 0x20 DUP3 ADD SWAP1 POP DUP2 DUP2 SUB PUSH1 0x0 DUP4 ADD MSTORE PUSH2 0x11D1 DUP2 PUSH2 0x1195 JUMP JUMPDEST SWAP1 POP SWAP2 SWAP1 POP JUMP JUMPDEST PUSH32 0x4E487B7100000000000000000000000000000000000000000000000000000000 PUSH1 0x0 MSTORE PUSH1 0x32 PUSH1 0x4 MSTORE PUSH1 0x24 PUSH1 0x0 REVERT JUMPDEST PUSH32 0x596F7520617265206E6F7420746865206F776E6572206F66206F726465722E00 PUSH1 0x0 DUP3 ADD MSTORE POP JUMP JUMPDEST PUSH1 0x0 PUSH2 0x123D PUSH1 0x1F DUP4 PUSH2 0xE91 JUMP JUMPDEST SWAP2 POP PUSH2 0x1248 DUP3 PUSH2 0x1207 JUMP JUMPDEST PUSH1 0x20 DUP3 ADD SWAP1 POP SWAP2 SWAP1 POP JUMP JUMPDEST PUSH1 0x0 PUSH1 0x20 DUP3 ADD SWAP1 POP DUP2 DUP2 SUB PUSH1 0x0 DUP4 ADD MSTORE PUSH2 0x126C DUP2 PUSH2 0x1230 JUMP JUMPDEST SWAP1 POP SWAP2 SWAP1 POP JUMP JUMPDEST PUSH32 0x4E487B7100000000000000000000000000000000000000000000000000000000 PUSH1 0x0 MSTORE PUSH1 0x22 PUSH1 0x4 MSTORE PUSH1 0x24 PUSH1 0x0 REVERT JUMPDEST PUSH1 0x0 PUSH1 0x2 DUP3 DIV SWAP1 POP PUSH1 0x1 DUP3 AND DUP1 PUSH2 0x12BA JUMPI PUSH1 0x7F DUP3 AND SWAP2 POP JUMPDEST PUSH1 0x20 DUP3 LT DUP2 SUB PUSH2 0x12CD JUMPI PUSH2 0x12CC PUSH2 0x1273 JUMP JUMPDEST JUMPDEST POP SWAP2 SWAP1 POP JUMP JUMPDEST PUSH1 0x0 DUP2 SWAP1 POP DUP2 PUSH1 0x0 MSTORE PUSH1 0x20 PUSH1 0x0 KECCAK256 SWAP1 POP SWAP2 SWAP1 POP JUMP JUMPDEST PUSH1 0x0 PUSH1 0x20 PUSH1 0x1F DUP4 ADD DIV SWAP1 POP SWAP2 SWAP1 POP JUMP JUMPDEST PUSH1 0x0 DUP3 DUP3 SHL SWAP1 POP SWAP3 SWAP2 POP POP JUMP JUMPDEST PUSH1 0x0 PUSH1 0x8 DUP4 MUL PUSH2 0x1335 PUSH32 0xFFFFFFFFFFFFFFFFFFFFFFFFFFFFFFFFFFFFFFFFFFFFFFFFFFFFFFFFFFFFFFFF DUP3 PUSH2 0x12F8 JUMP JUMPDEST PUSH2 0x133F DUP7 DUP4 PUSH2 0x12F8 JUMP JUMPDEST SWAP6 POP DUP1 NOT DUP5 AND SWAP4 POP DUP1 DUP7 AND DUP5 OR SWAP3 POP POP POP SWAP4 SWAP3 POP POP POP JUMP JUMPDEST PUSH1 0x0 DUP2 SWAP1 POP SWAP2 SWAP1 POP JUMP JUMPDEST PUSH1 0x0 PUSH2 0x137C PUSH2 0x1377 PUSH2 0x1372 DUP5 PUSH2 0xABB JUMP JUMPDEST PUSH2 0x1357 JUMP JUMPDEST PUSH2 0xABB JUMP JUMPDEST SWAP1 POP SWAP2 SWAP1 POP JUMP JUMPDEST PUSH1 0x0 DUP2 SWAP1 POP SWAP2 SWAP1 POP JUMP JUMPDEST PUSH2 0x1396 DUP4 PUSH2 0x1361 JUMP JUMPDEST PUSH2 0x13AA PUSH2 0x13A2 DUP3 PUSH2 0x1383 JUMP JUMPDEST DUP5 DUP5 SLOAD PUSH2 0x1305 JUMP JUMPDEST DUP3 SSTORE POP POP POP POP JUMP JUMPDEST PUSH1 0x0 SWAP1 JUMP JUMPDEST PUSH2 0x13BF PUSH2 0x13B2 JUMP JUMPDEST PUSH2 0x13CA DUP2 DUP5 DUP5 PUSH2 0x138D JUMP JUMPDEST POP POP POP JUMP JUMPDEST JUMPDEST DUP2 DUP2 LT ISZERO PUSH2 0x13EE JUMPI PUSH2 0x13E3 PUSH1 0x0 DUP3 PUSH2 0x13B7 JUMP JUMPDEST PUSH1 0x1 DUP2 ADD SWAP1 POP PUSH2 0x13D0 JUMP JUMPDEST POP POP JUMP JUMPDEST PUSH1 0x1F DUP3 GT ISZERO PUSH2 0x1433 JUMPI PUSH2 0x1404 DUP2 PUSH2 0x12D3 JUMP JUMPDEST PUSH2 0x140D DUP5 PUSH2 0x12E8 JUMP JUMPDEST DUP2 ADD PUSH1 0x20 DUP6 LT ISZERO PUSH2 0x141C JUMPI DUP2 SWAP1 POP JUMPDEST PUSH2 0x1430 PUSH2 0x1428 DUP6 PUSH2 0x12E8 JUMP JUMPDEST DUP4 ADD DUP3 PUSH2 0x13CF JUMP JUMPDEST POP POP JUMPDEST POP POP POP JUMP JUMPDEST PUSH1 0x0 DUP3 DUP3 SHR SWAP1 POP SWAP3 SWAP2 POP POP JUMP JUMPDEST PUSH1 0x0 PUSH2 0x1456 PUSH1 0x0 NOT DUP5 PUSH1 0x8 MUL PUSH2 0x1438 JUMP JUMPDEST NOT DUP1 DUP4 AND SWAP2 POP POP SWAP3 SWAP2 POP POP JUMP JUMPDEST PUSH1 0x0 PUSH2 0x146F DUP4 DUP4 PUSH2 0x1445 JUMP JUMPDEST SWAP2 POP DUP3 PUSH1 0x2 MUL DUP3 OR SWAP1 POP SWAP3 SWAP2 POP POP JUMP JUMPDEST PUSH2 0x1488 DUP3 PUSH2 0xE86 JUMP JUMPDEST PUSH8 0xFFFFFFFFFFFFFFFF DUP2 GT ISZERO PUSH2 0x14A1 JUMPI PUSH2 0x14A0 PUSH2 0xB0C JUMP JUMPDEST JUMPDEST PUSH2 0x14AB DUP3 SLOAD PUSH2 0x12A2 JUMP JUMPDEST PUSH2 0x14B6 DUP3 DUP3 DUP6 PUSH2 0x13F2 JUMP JUMPDEST PUSH1 0x0 PUSH1 0x20 SWAP1 POP PUSH1 0x1F DUP4 GT PUSH1 0x1 DUP2 EQ PUSH2 0x14E9 JUMPI PUSH1 0x0 DUP5 ISZERO PUSH2 0x14D7 JUMPI DUP3 DUP8 ADD MLOAD SWAP1 POP JUMPDEST PUSH2 0x14E1 DUP6 DUP3 PUSH2 0x1463 JUMP JUMPDEST DUP7 SSTORE POP PUSH2 0x1549 JUMP JUMPDEST PUSH1 0x1F NOT DUP5 AND PUSH2 0x14F7 DUP7 PUSH2 0x12D3 JUMP JUMPDEST PUSH1 0x0 JUMPDEST DUP3 DUP2 LT ISZERO PUSH2 0x151F JUMPI DUP5 DUP10 ADD MLOAD DUP3 SSTORE PUSH1 0x1 DUP3 ADD SWAP2 POP PUSH1 0x20 DUP6 ADD SWAP5 POP PUSH1 0x20 DUP2 ADD SWAP1 POP PUSH2 0x14FA JUMP JUMPDEST DUP7 DUP4 LT ISZERO PUSH2 0x153C JUMPI DUP5 DUP10 ADD MLOAD PUSH2 0x1538 PUSH1 0x1F DUP10 AND DUP3 PUSH2 0x1445 JUMP JUMPDEST DUP4 SSTORE POP JUMPDEST PUSH1 0x1 PUSH1 0x2 DUP9 MUL ADD DUP9 SSTORE POP POP POP JUMPDEST POP POP POP POP POP POP JUMP JUMPDEST PUSH32 0x4E6F2070726F64756374732E0000000000000000000000000000000000000000 PUSH1 0x0 DUP3 ADD MSTORE POP JUMP JUMPDEST PUSH1 0x0 PUSH2 0x1587 PUSH1 0xC DUP4 PUSH2 0xE91 JUMP JUMPDEST SWAP2 POP PUSH2 0x1592 DUP3 PUSH2 0x1551 JUMP JUMPDEST PUSH1 0x20 DUP3 ADD SWAP1 POP SWAP2 SWAP1 POP JUMP JUMPDEST PUSH1 0x0 PUSH1 0x20 DUP3 ADD SWAP1 POP DUP2 DUP2 SUB PUSH1 0x0 DUP4 ADD MSTORE PUSH2 0x15B6 DUP2 PUSH2 0x157A JUMP JUMPDEST SWAP1 POP SWAP2 SWAP1 POP JUMP JUMPDEST PUSH32 0x596F7520617265206E6F7420617574686F72697A65642E000000000000000000 PUSH1 0x0 DUP3 ADD MSTORE POP JUMP JUMPDEST PUSH1 0x0 PUSH2 0x15F3 PUSH1 0x17 DUP4 PUSH2 0xE91 JUMP JUMPDEST SWAP2 POP PUSH2 0x15FE DUP3 PUSH2 0x15BD JUMP JUMPDEST PUSH1 0x20 DUP3 ADD SWAP1 POP SWAP2 SWAP1 POP JUMP JUMPDEST PUSH1 0x0 PUSH1 0x20 DUP3 ADD SWAP1 POP DUP2 DUP2 SUB PUSH1 0x0 DUP4 ADD MSTORE PUSH2 0x1622 DUP2 PUSH2 0x15E6 JUMP JUMPDEST SWAP1 POP SWAP2 SWAP1 POP JUMP JUMPDEST PUSH32 0x4F7264657220697320616C726561647920736869707065642E00000000000000 PUSH1 0x0 DUP3 ADD MSTORE POP JUMP JUMPDEST PUSH1 0x0 PUSH2 0x165F PUSH1 0x19 DUP4 PUSH2 0xE91 JUMP JUMPDEST SWAP2 POP PUSH2 0x166A DUP3 PUSH2 0x1629 JUMP JUMPDEST PUSH1 0x20 DUP3 ADD SWAP1 POP SWAP2 SWAP1 POP JUMP JUMPDEST PUSH1 0x0 PUSH1 0x20 DUP3 ADD SWAP1 POP DUP2 DUP2 SUB PUSH1 0x0 DUP4 ADD MSTORE PUSH2 0x168E DUP2 PUSH2 0x1652 JUMP JUMPDEST SWAP1 POP SWAP2 SWAP1 POP JUMP INVALID LOG2 PUSH5 0x6970667358 0x22 SLT KECCAK256 0xBA GT 0xC2 SHL PUSH24 0x7ABC7AC9A10D8B1D765A893C40F20DF8D616B577883F36A1 CREATE PUSH29 0xFD64736F6C634300081200330000000000000000000000000000000000 "
		},
		"gasEstimates": {
			"creation": {
				"codeDepositCost": "1167000",
				"executionCost": "25480",
				"totalCost": "1192480"
			},
			"external": {
				"advanceOrder(uint256)": "40140",
				"createOrder(string,uint256[])": "infinite",
				"getOrder(uint256)": "infinite",
				"orders(uint256)": "infinite",
				"owner()": "2536",
				"updateZip(uint256,string)": "infinite"
			}
		},
		"methodIdentifiers": {
			"advanceOrder(uint256)": "afe13a62",
			"createOrder(string,uint256[])": "6d9a65d8",
			"getOrder(uint256)": "d09ef241",
			"orders(uint256)": "a85c38ef",
			"owner()": "8da5cb5b",
			"updateZip(uint256,string)": "577dc0a0"
		}
	},
	"abi": [
		{
			"inputs": [],
			"stateMutability": "nonpayable",
			"type": "constructor"
		},
		{
			"inputs": [
				{
					"internalType": "uint256",
					"name": "_orderId",
					"type": "uint256"
				}
			],
			"name": "advanceOrder",
			"outputs": [],
			"stateMutability": "nonpayable",
			"type": "function"
		},
		{
			"inputs": [
				{
					"internalType": "string",
					"name": "_zipCode",
					"type": "string"
				},
				{
					"internalType": "uint256[]",
					"name": "_products",
					"type": "uint256[]"
				}
			],
			"name": "createOrder",
			"outputs": [
				{
					"internalType": "uint256",
					"name": "",
					"type": "uint256"
				}
			],
			"stateMutability": "nonpayable",
			"type": "function"
		},
		{
			"inputs": [
				{
					"internalType": "uint256",
					"name": "_orderId",
					"type": "uint256"
				}
			],
			"name": "getOrder",
			"outputs": [
				{
					"components": [
						{
							"internalType": "address",
							"name": "customer",
							"type": "address"
						},
						{
							"internalType": "string",
							"name": "zipCode",
							"type": "string"
						},
						{
							"internalType": "uint256[]",
							"name": "products",
							"type": "uint256[]"
						},
						{
							"internalType": "enum StructEnum.Status",
							"name": "status",
							"type": "uint8"
						}
					],
					"internalType": "struct StructEnum.Order",
					"name": "",
					"type": "tuple"
				}
			],
			"stateMutability": "view",
			"type": "function"
		},
		{
			"inputs": [
				{
					"internalType": "uint256",
					"name": "",
					"type": "uint256"
				}
			],
			"name": "orders",
			"outputs": [
				{
					"internalType": "address",
					"name": "customer",
					"type": "address"
				},
				{
					"internalType": "string",
					"name": "zipCode",
					"type": "string"
				},
				{
					"internalType": "enum StructEnum.Status",
					"name": "status",
					"type": "uint8"
				}
			],
			"stateMutability": "view",
			"type": "function"
		},
		{
			"inputs": [],
			"name": "owner",
			"outputs": [
				{
					"internalType": "address",
					"name": "",
					"type": "address"
				}
			],
			"stateMutability": "view",
			"type": "function"
		},
		{
			"inputs": [
				{
					"internalType": "uint256",
					"name": "_orderId",
					"type": "uint256"
				},
				{
					"internalType": "string",
					"name": "_zip",
					"type": "string"
				}
			],
			"name": "updateZip",
			"outputs": [],
			"stateMutability": "nonpayable",
			"type": "function"
		}
	]
}