{
	"data": {
		"bytecode": {
			"linkReferences": {},
			"object": "6080604052348015600e575f80fd5b506115eb8061001c5f395ff3fe608060405234801561000f575f80fd5b5060043610610091575f3560e01c80639e7a13ad116100645780639e7a13ad14610107578063b05784b814610138578063b2ac62ef14610156578063c5f19c2014610186578063caec2a5a146101b657610091565b80631dda6541146100955780636057361d1461009f57806364591bf1146100bb5780636f760f41146100eb575b5f80fd5b61009d6101d2565b005b6100b960048036038101906100b491906105b6565b61025e565b005b6100d560048036038101906100d091906105b6565b610267565b6040516100e2919061065b565b60405180910390f35b610105600480360381019061010091906107b0565b6102a2565b005b610121600480360381019061011c91906105b6565b610326565b60405161012f929190610879565b60405180910390f35b6101406103db565b60405161014d91906108a7565b60405180910390f35b610170600480360381019061016b91906108c0565b6103e3565b60405161017d91906108a7565b60405180910390f35b6101a0600480360381019061019b91906105b6565b610410565b6040516101ad91906108a7565b60405180910390f35b6101d060048036038101906101cb9190610907565b6104c0565b005b5f6040516101df90610565565b604051809103905ff0801580156101f8573d5f803e3d5ffd5b509050600481908060018154018082558091505060019003905f5260205f20015f9091909190916101000a81548173ffffffffffffffffffffffffffffffffffffffff021916908373ffffffffffffffffffffffffffffffffffffffff16021790555050565b805f8190555050565b60048181548110610276575f80fd5b905f5260205f20015f915054906101000a900473ffffffffffffffffffffffffffffffffffffffff1681565b6002604051806040016040528083815260200184815250908060018154018082558091505060019003905f5260205f2090600202015f909190919091505f820151815f015560208201518160010190816102fc9190610b36565b505050806003836040516103109190610c3f565b9081526020016040518091039020819055505050565b60028181548110610335575f80fd5b905f5260205f2090600202015f91509050805f01549080600101805461035a90610972565b80601f016020809104026020016040519081016040528092919081815260200182805461038690610972565b80156103d15780601f106103a8576101008083540402835291602001916103d1565b820191905f5260205f20905b8154815290600101906020018083116103b457829003601f168201915b5050505050905082565b5f8054905090565b6003818051602081018201805184825260208301602085012081835280955050505050505f915090505481565b5f6004828154811061042557610424610c55565b5b905f5260205f20015f9054906101000a900473ffffffffffffffffffffffffffffffffffffffff1673ffffffffffffffffffffffffffffffffffffffff1663b05784b86040518163ffffffff1660e01b8152600401602060405180830381865afa158015610495573d5f803e3d5ffd5b505050506040513d601f19601f820116820180604052508101906104b99190610c96565b9050919050565b600482815481106104d4576104d3610c55565b5b905f5260205f20015f9054906101000a900473ffffffffffffffffffffffffffffffffffffffff1673ffffffffffffffffffffffffffffffffffffffff16636057361d826040518263ffffffff1660e01b815260040161053491906108a7565b5f604051808303815f87803b15801561054b575f80fd5b505af115801561055d573d5f803e3d5ffd5b505050505050565b6108f480610cc283390190565b5f604051905090565b5f80fd5b5f80fd5b5f819050919050565b61059581610583565b811461059f575f80fd5b50565b5f813590506105b08161058c565b92915050565b5f602082840312156105cb576105ca61057b565b5b5f6105d8848285016105a2565b91505092915050565b5f73ffffffffffffffffffffffffffffffffffffffff82169050919050565b5f819050919050565b5f61062361061e610619846105e1565b610600565b6105e1565b9050919050565b5f61063482610609565b9050919050565b5f6106458261062a565b9050919050565b6106558161063b565b82525050565b5f60208201905061066e5f83018461064c565b92915050565b5f80fd5b5f80fd5b5f601f19601f8301169050919050565b7f4e487b71000000000000000000000000000000000000000000000000000000005f52604160045260245ffd5b6106c28261067c565b810181811067ffffffffffffffff821117156106e1576106e061068c565b5b80604052505050565b5f6106f3610572565b90506106ff82826106b9565b919050565b5f67ffffffffffffffff82111561071e5761071d61068c565b5b6107278261067c565b9050602081019050919050565b828183375f83830152505050565b5f61075461074f84610704565b6106ea565b9050828152602081018484840111156107705761076f610678565b5b61077b848285610734565b509392505050565b5f82601f83011261079757610796610674565b5b81356107a7848260208601610742565b91505092915050565b5f80604083850312156107c6576107c561057b565b5b5f83013567ffffffffffffffff8111156107e3576107e261057f565b5b6107ef85828601610783565b9250506020610800858286016105a2565b9150509250929050565b61081381610583565b82525050565b5f81519050919050565b5f82825260208201905092915050565b8281835e5f83830152505050565b5f61084b82610819565b6108558185610823565b9350610865818560208601610833565b61086e8161067c565b840191505092915050565b5f60408201905061088c5f83018561080a565b818103602083015261089e8184610841565b90509392505050565b5f6020820190506108ba5f83018461080a565b92915050565b5f602082840312156108d5576108d461057b565b5b5f82013567ffffffffffffffff8111156108f2576108f161057f565b5b6108fe84828501610783565b91505092915050565b5f806040838503121561091d5761091c61057b565b5b5f61092a858286016105a2565b925050602061093b858286016105a2565b9150509250929050565b7f4e487b71000000000000000000000000000000000000000000000000000000005f52602260045260245ffd5b5f600282049050600182168061098957607f821691505b60208210810361099c5761099b610945565b5b50919050565b5f819050815f5260205f209050919050565b5f6020601f8301049050919050565b5f82821b905092915050565b5f600883026109fe7fffffffffffffffffffffffffffffffffffffffffffffffffffffffffffffffff826109c3565b610a0886836109c3565b95508019841693508086168417925050509392505050565b5f610a3a610a35610a3084610583565b610600565b610583565b9050919050565b5f819050919050565b610a5383610a20565b610a67610a5f82610a41565b8484546109cf565b825550505050565b5f90565b610a7b610a6f565b610a86818484610a4a565b505050565b5b81811015610aa957610a9e5f82610a73565b600181019050610a8c565b5050565b601f821115610aee57610abf816109a2565b610ac8846109b4565b81016020851015610ad7578190505b610aeb610ae3856109b4565b830182610a8b565b50505b505050565b5f82821c905092915050565b5f610b0e5f1984600802610af3565b1980831691505092915050565b5f610b268383610aff565b9150826002028217905092915050565b610b3f82610819565b67ffffffffffffffff811115610b5857610b5761068c565b5b610b628254610972565b610b6d828285610aad565b5f60209050601f831160018114610b9e575f8415610b8c578287015190505b610b968582610b1b565b865550610bfd565b601f198416610bac866109a2565b5f5b82811015610bd357848901518255600182019150602085019450602081019050610bae565b86831015610bf05784890151610bec601f891682610aff565b8355505b6001600288020188555050505b505050505050565b5f81905092915050565b5f610c1982610819565b610c238185610c05565b9350610c33818560208601610833565b80840191505092915050565b5f610c4a8284610c0f565b915081905092915050565b7f4e487b71000000000000000000000000000000000000000000000000000000005f52603260045260245ffd5b5f81519050610c908161058c565b92915050565b5f60208284031215610cab57610caa61057b565b5b5f610cb884828501610c82565b9150509291505056fe6080604052348015600e575f80fd5b506108d88061001c5f395ff3fe608060405234801561000f575f80fd5b5060043610610055575f3560e01c80636057361d146100595780636f760f41146100755780639e7a13ad14610091578063b05784b8146100c2578063b2ac62ef146100e0575b5f80fd5b610073600480360381019061006e91906102cb565b610110565b005b61008f600480360381019061008a9190610432565b610119565b005b6100ab60048036038101906100a691906102cb565b61019d565b6040516100b99291906104fb565b60405180910390f35b6100ca610252565b6040516100d79190610529565b60405180910390f35b6100fa60048036038101906100f59190610542565b61025a565b6040516101079190610529565b60405180910390f35b805f8190555050565b6002604051806040016040528083815260200184815250908060018154018082558091505060019003905f5260205f2090600202015f909190919091505f820151815f015560208201518160010190816101739190610783565b50505080600383604051610187919061088c565b9081526020016040518091039020819055505050565b600281815481106101ac575f80fd5b905f5260205f2090600202015f91509050805f0154908060010180546101d1906105b6565b80601f01602080910402602001604051908101604052809291908181526020018280546101fd906105b6565b80156102485780601f1061021f57610100808354040283529160200191610248565b820191905f5260205f20905b81548152906001019060200180831161022b57829003601f168201915b5050505050905082565b5f8054905090565b6003818051602081018201805184825260208301602085012081835280955050505050505f915090505481565b5f604051905090565b5f80fd5b5f80fd5b5f819050919050565b6102aa81610298565b81146102b4575f80fd5b50565b5f813590506102c5816102a1565b92915050565b5f602082840312156102e0576102df610290565b5b5f6102ed848285016102b7565b91505092915050565b5f80fd5b5f80fd5b5f601f19601f8301169050919050565b7f4e487b71000000000000000000000000000000000000000000000000000000005f52604160045260245ffd5b610344826102fe565b810181811067ffffffffffffffff821117156103635761036261030e565b5b80604052505050565b5f610375610287565b9050610381828261033b565b919050565b5f67ffffffffffffffff8211156103a05761039f61030e565b5b6103a9826102fe565b9050602081019050919050565b828183375f83830152505050565b5f6103d66103d184610386565b61036c565b9050828152602081018484840111156103f2576103f16102fa565b5b6103fd8482856103b6565b509392505050565b5f82601f830112610419576104186102f6565b5b81356104298482602086016103c4565b91505092915050565b5f806040838503121561044857610447610290565b5b5f83013567ffffffffffffffff81111561046557610464610294565b5b61047185828601610405565b9250506020610482858286016102b7565b9150509250929050565b61049581610298565b82525050565b5f81519050919050565b5f82825260208201905092915050565b8281835e5f83830152505050565b5f6104cd8261049b565b6104d781856104a5565b93506104e78185602086016104b5565b6104f0816102fe565b840191505092915050565b5f60408201905061050e5f83018561048c565b818103602083015261052081846104c3565b90509392505050565b5f60208201905061053c5f83018461048c565b92915050565b5f6020828403121561055757610556610290565b5b5f82013567ffffffffffffffff81111561057457610573610294565b5b61058084828501610405565b91505092915050565b7f4e487b71000000000000000000000000000000000000000000000000000000005f52602260045260245ffd5b5f60028204905060018216806105cd57607f821691505b6020821081036105e0576105df610589565b5b50919050565b5f819050815f5260205f209050919050565b5f6020601f8301049050919050565b5f82821b905092915050565b5f600883026106427fffffffffffffffffffffffffffffffffffffffffffffffffffffffffffffffff82610607565b61064c8683610607565b95508019841693508086168417925050509392505050565b5f819050919050565b5f61068761068261067d84610298565b610664565b610298565b9050919050565b5f819050919050565b6106a08361066d565b6106b46106ac8261068e565b848454610613565b825550505050565b5f90565b6106c86106bc565b6106d3818484610697565b505050565b5b818110156106f6576106eb5f826106c0565b6001810190506106d9565b5050565b601f82111561073b5761070c816105e6565b610715846105f8565b81016020851015610724578190505b610738610730856105f8565b8301826106d8565b50505b505050565b5f82821c905092915050565b5f61075b5f1984600802610740565b1980831691505092915050565b5f610773838361074c565b9150826002028217905092915050565b61078c8261049b565b67ffffffffffffffff8111156107a5576107a461030e565b5b6107af82546105b6565b6107ba8282856106fa565b5f60209050601f8311600181146107eb575f84156107d9578287015190505b6107e38582610768565b86555061084a565b601f1984166107f9866105e6565b5f5b82811015610820578489015182556001820191506020850194506020810190506107fb565b8683101561083d5784890151610839601f89168261074c565b8355505b6001600288020188555050505b505050505050565b5f81905092915050565b5f6108668261049b565b6108708185610852565b93506108808185602086016104b5565b80840191505092915050565b5f610897828461085c565b91508190509291505056fea2646970667358221220deb60bf499c431733e12278fe3f46fb524576e587c278d81e17470867d19ff3764736f6c634300081a0033a264697066735822122062195688ffa1daefb15e10c3fe5e7e47813354160a9fc7a976401bdefcbdecfc64736f6c634300081a0033",
			"opcodes": "PUSH1 0x80 PUSH1 0x40 MSTORE CALLVALUE DUP1 ISZERO PUSH1 0xE JUMPI PUSH0 DUP1 REVERT JUMPDEST POP PUSH2 0x15EB DUP1 PUSH2 0x1C PUSH0 CODECOPY PUSH0 RETURN INVALID PUSH1 0x80 PUSH1 0x40 MSTORE CALLVALUE DUP1 ISZERO PUSH2 0xF JUMPI PUSH0 DUP1 REVERT JUMPDEST POP PUSH1 0x4 CALLDATASIZE LT PUSH2 0x91 JUMPI PUSH0 CALLDATALOAD PUSH1 0xE0 SHR DUP1 PUSH4 0x9E7A13AD GT PUSH2 0x64 JUMPI DUP1 PUSH4 0x9E7A13AD EQ PUSH2 0x107 JUMPI DUP1 PUSH4 0xB05784B8 EQ PUSH2 0x138 JUMPI DUP1 PUSH4 0xB2AC62EF EQ PUSH2 0x156 JUMPI DUP1 PUSH4 0xC5F19C20 EQ PUSH2 0x186 JUMPI DUP1 PUSH4 0xCAEC2A5A EQ PUSH2 0x1B6 JUMPI PUSH2 0x91 JUMP JUMPDEST DUP1 PUSH4 0x1DDA6541 EQ PUSH2 0x95 JUMPI DUP1 PUSH4 0x6057361D EQ PUSH2 0x9F JUMPI DUP1 PUSH4 0x64591BF1 EQ PUSH2 0xBB JUMPI DUP1 PUSH4 0x6F760F41 EQ PUSH2 0xEB JUMPI JUMPDEST PUSH0 DUP1 REVERT JUMPDEST PUSH2 0x9D PUSH2 0x1D2 JUMP JUMPDEST STOP JUMPDEST PUSH2 0xB9 PUSH1 0x4 DUP1 CALLDATASIZE SUB DUP2 ADD SWAP1 PUSH2 0xB4 SWAP2 SWAP1 PUSH2 0x5B6 JUMP JUMPDEST PUSH2 0x25E JUMP JUMPDEST STOP JUMPDEST PUSH2 0xD5 PUSH1 0x4 DUP1 CALLDATASIZE SUB DUP2 ADD SWAP1 PUSH2 0xD0 SWAP2 SWAP1 PUSH2 0x5B6 JUMP JUMPDEST PUSH2 0x267 JUMP JUMPDEST PUSH1 0x40 MLOAD PUSH2 0xE2 SWAP2 SWAP1 PUSH2 0x65B JUMP JUMPDEST PUSH1 0x40 MLOAD DUP1 SWAP2 SUB SWAP1 RETURN JUMPDEST PUSH2 0x105 PUSH1 0x4 DUP1 CALLDATASIZE SUB DUP2 ADD SWAP1 PUSH2 0x100 SWAP2 SWAP1 PUSH2 0x7B0 JUMP JUMPDEST PUSH2 0x2A2 JUMP JUMPDEST STOP JUMPDEST PUSH2 0x121 PUSH1 0x4 DUP1 CALLDATASIZE SUB DUP2 ADD SWAP1 PUSH2 0x11C SWAP2 SWAP1 PUSH2 0x5B6 JUMP JUMPDEST PUSH2 0x326 JUMP JUMPDEST PUSH1 0x40 MLOAD PUSH2 0x12F SWAP3 SWAP2 SWAP1 PUSH2 0x879 JUMP JUMPDEST PUSH1 0x40 MLOAD DUP1 SWAP2 SUB SWAP1 RETURN JUMPDEST PUSH2 0x140 PUSH2 0x3DB JUMP JUMPDEST PUSH1 0x40 MLOAD PUSH2 0x14D SWAP2 SWAP1 PUSH2 0x8A7 JUMP JUMPDEST PUSH1 0x40 MLOAD DUP1 SWAP2 SUB SWAP1 RETURN JUMPDEST PUSH2 0x170 PUSH1 0x4 DUP1 CALLDATASIZE SUB DUP2 ADD SWAP1 PUSH2 0x16B SWAP2 SWAP1 PUSH2 0x8C0 JUMP JUMPDEST PUSH2 0x3E3 JUMP JUMPDEST PUSH1 0x40 MLOAD PUSH2 0x17D SWAP2 SWAP1 PUSH2 0x8A7 JUMP JUMPDEST PUSH1 0x40 MLOAD DUP1 SWAP2 SUB SWAP1 RETURN JUMPDEST PUSH2 0x1A0 PUSH1 0x4 DUP1 CALLDATASIZE SUB DUP2 ADD SWAP1 PUSH2 0x19B SWAP2 SWAP1 PUSH2 0x5B6 JUMP JUMPDEST PUSH2 0x410 JUMP JUMPDEST PUSH1 0x40 MLOAD PUSH2 0x1AD SWAP2 SWAP1 PUSH2 0x8A7 JUMP JUMPDEST PUSH1 0x40 MLOAD DUP1 SWAP2 SUB SWAP1 RETURN JUMPDEST PUSH2 0x1D0 PUSH1 0x4 DUP1 CALLDATASIZE SUB DUP2 ADD SWAP1 PUSH2 0x1CB SWAP2 SWAP1 PUSH2 0x907 JUMP JUMPDEST PUSH2 0x4C0 JUMP JUMPDEST STOP JUMPDEST PUSH0 PUSH1 0x40 MLOAD PUSH2 0x1DF SWAP1 PUSH2 0x565 JUMP JUMPDEST PUSH1 0x40 MLOAD DUP1 SWAP2 SUB SWAP1 PUSH0 CREATE DUP1 ISZERO DUP1 ISZERO PUSH2 0x1F8 JUMPI RETURNDATASIZE PUSH0 DUP1 RETURNDATACOPY RETURNDATASIZE PUSH0 REVERT JUMPDEST POP SWAP1 POP PUSH1 0x4 DUP2 SWAP1 DUP1 PUSH1 0x1 DUP2 SLOAD ADD DUP1 DUP3 SSTORE DUP1 SWAP2 POP POP PUSH1 0x1 SWAP1 SUB SWAP1 PUSH0 MSTORE PUSH1 0x20 PUSH0 KECCAK256 ADD PUSH0 SWAP1 SWAP2 SWAP1 SWAP2 SWAP1 SWAP2 PUSH2 0x100 EXP DUP2 SLOAD DUP2 PUSH20 0xFFFFFFFFFFFFFFFFFFFFFFFFFFFFFFFFFFFFFFFF MUL NOT AND SWAP1 DUP4 PUSH20 0xFFFFFFFFFFFFFFFFFFFFFFFFFFFFFFFFFFFFFFFF AND MUL OR SWAP1 SSTORE POP POP JUMP JUMPDEST DUP1 PUSH0 DUP2 SWAP1 SSTORE POP POP JUMP JUMPDEST PUSH1 0x4 DUP2 DUP2 SLOAD DUP2 LT PUSH2 0x276 JUMPI PUSH0 DUP1 REVERT JUMPDEST SWAP1 PUSH0 MSTORE PUSH1 0x20 PUSH0 KECCAK256 ADD PUSH0 SWAP2 POP SLOAD SWAP1 PUSH2 0x100 EXP SWAP1 DIV PUSH20 0xFFFFFFFFFFFFFFFFFFFFFFFFFFFFFFFFFFFFFFFF AND DUP2 JUMP JUMPDEST PUSH1 0x2 PUSH1 0x40 MLOAD DUP1 PUSH1 0x40 ADD PUSH1 0x40 MSTORE DUP1 DUP4 DUP2 MSTORE PUSH1 0x20 ADD DUP5 DUP2 MSTORE POP SWAP1 DUP1 PUSH1 0x1 DUP2 SLOAD ADD DUP1 DUP3 SSTORE DUP1 SWAP2 POP POP PUSH1 0x1 SWAP1 SUB SWAP1 PUSH0 MSTORE PUSH1 0x20 PUSH0 KECCAK256 SWAP1 PUSH1 0x2 MUL ADD PUSH0 SWAP1 SWAP2 SWAP1 SWAP2 SWAP1 SWAP2 POP PUSH0 DUP3 ADD MLOAD DUP2 PUSH0 ADD SSTORE PUSH1 0x20 DUP3 ADD MLOAD DUP2 PUSH1 0x1 ADD SWAP1 DUP2 PUSH2 0x2FC SWAP2 SWAP1 PUSH2 0xB36 JUMP JUMPDEST POP POP POP DUP1 PUSH1 0x3 DUP4 PUSH1 0x40 MLOAD PUSH2 0x310 SWAP2 SWAP1 PUSH2 0xC3F JUMP JUMPDEST SWAP1 DUP2 MSTORE PUSH1 0x20 ADD PUSH1 0x40 MLOAD DUP1 SWAP2 SUB SWAP1 KECCAK256 DUP2 SWAP1 SSTORE POP POP POP JUMP JUMPDEST PUSH1 0x2 DUP2 DUP2 SLOAD DUP2 LT PUSH2 0x335 JUMPI PUSH0 DUP1 REVERT JUMPDEST SWAP1 PUSH0 MSTORE PUSH1 0x20 PUSH0 KECCAK256 SWAP1 PUSH1 0x2 MUL ADD PUSH0 SWAP2 POP SWAP1 POP DUP1 PUSH0 ADD SLOAD SWAP1 DUP1 PUSH1 0x1 ADD DUP1 SLOAD PUSH2 0x35A SWAP1 PUSH2 0x972 JUMP JUMPDEST DUP1 PUSH1 0x1F ADD PUSH1 0x20 DUP1 SWAP2 DIV MUL PUSH1 0x20 ADD PUSH1 0x40 MLOAD SWAP1 DUP2 ADD PUSH1 0x40 MSTORE DUP1 SWAP3 SWAP2 SWAP1 DUP2 DUP2 MSTORE PUSH1 0x20 ADD DUP3 DUP1 SLOAD PUSH2 0x386 SWAP1 PUSH2 0x972 JUMP JUMPDEST DUP1 ISZERO PUSH2 0x3D1 JUMPI DUP1 PUSH1 0x1F LT PUSH2 0x3A8 JUMPI PUSH2 0x100 DUP1 DUP4 SLOAD DIV MUL DUP4 MSTORE SWAP2 PUSH1 0x20 ADD SWAP2 PUSH2 0x3D1 JUMP JUMPDEST DUP3 ADD SWAP2 SWAP1 PUSH0 MSTORE PUSH1 0x20 PUSH0 KECCAK256 SWAP1 JUMPDEST DUP2 SLOAD DUP2 MSTORE SWAP1 PUSH1 0x1 ADD SWAP1 PUSH1 0x20 ADD DUP1 DUP4 GT PUSH2 0x3B4 JUMPI DUP3 SWAP1 SUB PUSH1 0x1F AND DUP3 ADD SWAP2 JUMPDEST POP POP POP POP POP SWAP1 POP DUP3 JUMP JUMPDEST PUSH0 DUP1 SLOAD SWAP1 POP SWAP1 JUMP JUMPDEST PUSH1 0x3 DUP2 DUP1 MLOAD PUSH1 0x20 DUP2 ADD DUP3 ADD DUP1 MLOAD DUP5 DUP3 MSTORE PUSH1 0x20 DUP4 ADD PUSH1 0x20 DUP6 ADD KECCAK256 DUP2 DUP4 MSTORE DUP1 SWAP6 POP POP POP POP POP POP PUSH0 SWAP2 POP SWAP1 POP SLOAD DUP2 JUMP JUMPDEST PUSH0 PUSH1 0x4 DUP3 DUP2 SLOAD DUP2 LT PUSH2 0x425 JUMPI PUSH2 0x424 PUSH2 0xC55 JUMP JUMPDEST JUMPDEST SWAP1 PUSH0 MSTORE PUSH1 0x20 PUSH0 KECCAK256 ADD PUSH0 SWAP1 SLOAD SWAP1 PUSH2 0x100 EXP SWAP1 DIV PUSH20 0xFFFFFFFFFFFFFFFFFFFFFFFFFFFFFFFFFFFFFFFF AND PUSH20 0xFFFFFFFFFFFFFFFFFFFFFFFFFFFFFFFFFFFFFFFF AND PUSH4 0xB05784B8 PUSH1 0x40 MLOAD DUP2 PUSH4 0xFFFFFFFF AND PUSH1 0xE0 SHL DUP2 MSTORE PUSH1 0x4 ADD PUSH1 0x20 PUSH1 0x40 MLOAD DUP1 DUP4 SUB DUP2 DUP7 GAS STATICCALL ISZERO DUP1 ISZERO PUSH2 0x495 JUMPI RETURNDATASIZE PUSH0 DUP1 RETURNDATACOPY RETURNDATASIZE PUSH0 REVERT JUMPDEST POP POP POP POP PUSH1 0x40 MLOAD RETURNDATASIZE PUSH1 0x1F NOT PUSH1 0x1F DUP3 ADD AND DUP3 ADD DUP1 PUSH1 0x40 MSTORE POP DUP2 ADD SWAP1 PUSH2 0x4B9 SWAP2 SWAP1 PUSH2 0xC96 JUMP JUMPDEST SWAP1 POP SWAP2 SWAP1 POP JUMP JUMPDEST PUSH1 0x4 DUP3 DUP2 SLOAD DUP2 LT PUSH2 0x4D4 JUMPI PUSH2 0x4D3 PUSH2 0xC55 JUMP JUMPDEST JUMPDEST SWAP1 PUSH0 MSTORE PUSH1 0x20 PUSH0 KECCAK256 ADD PUSH0 SWAP1 SLOAD SWAP1 PUSH2 0x100 EXP SWAP1 DIV PUSH20 0xFFFFFFFFFFFFFFFFFFFFFFFFFFFFFFFFFFFFFFFF AND PUSH20 0xFFFFFFFFFFFFFFFFFFFFFFFFFFFFFFFFFFFFFFFF AND PUSH4 0x6057361D DUP3 PUSH1 0x40 MLOAD DUP3 PUSH4 0xFFFFFFFF AND PUSH1 0xE0 SHL DUP2 MSTORE PUSH1 0x4 ADD PUSH2 0x534 SWAP2 SWAP1 PUSH2 0x8A7 JUMP JUMPDEST PUSH0 PUSH1 0x40 MLOAD DUP1 DUP4 SUB DUP2 PUSH0 DUP8 DUP1 EXTCODESIZE ISZERO DUP1 ISZERO PUSH2 0x54B JUMPI PUSH0 DUP1 REVERT JUMPDEST POP GAS CALL ISZERO DUP1 ISZERO PUSH2 0x55D JUMPI RETURNDATASIZE PUSH0 DUP1 RETURNDATACOPY RETURNDATASIZE PUSH0 REVERT JUMPDEST POP POP POP POP POP POP JUMP JUMPDEST PUSH2 0x8F4 DUP1 PUSH2 0xCC2 DUP4 CODECOPY ADD SWAP1 JUMP JUMPDEST PUSH0 PUSH1 0x40 MLOAD SWAP1 POP SWAP1 JUMP JUMPDEST PUSH0 DUP1 REVERT JUMPDEST PUSH0 DUP1 REVERT JUMPDEST PUSH0 DUP2 SWAP1 POP SWAP2 SWAP1 POP JUMP JUMPDEST PUSH2 0x595 DUP2 PUSH2 0x583 JUMP JUMPDEST DUP2 EQ PUSH2 0x59F JUMPI PUSH0 DUP1 REVERT JUMPDEST POP JUMP JUMPDEST PUSH0 DUP2 CALLDATALOAD SWAP1 POP PUSH2 0x5B0 DUP2 PUSH2 0x58C JUMP JUMPDEST SWAP3 SWAP2 POP POP JUMP JUMPDEST PUSH0 PUSH1 0x20 DUP3 DUP5 SUB SLT ISZERO PUSH2 0x5CB JUMPI PUSH2 0x5CA PUSH2 0x57B JUMP JUMPDEST JUMPDEST PUSH0 PUSH2 0x5D8 DUP5 DUP3 DUP6 ADD PUSH2 0x5A2 JUMP JUMPDEST SWAP2 POP POP SWAP3 SWAP2 POP POP JUMP JUMPDEST PUSH0 PUSH20 0xFFFFFFFFFFFFFFFFFFFFFFFFFFFFFFFFFFFFFFFF DUP3 AND SWAP1 POP SWAP2 SWAP1 POP JUMP JUMPDEST PUSH0 DUP2 SWAP1 POP SWAP2 SWAP1 POP JUMP JUMPDEST PUSH0 PUSH2 0x623 PUSH2 0x61E PUSH2 0x619 DUP5 PUSH2 0x5E1 JUMP JUMPDEST PUSH2 0x600 JUMP JUMPDEST PUSH2 0x5E1 JUMP JUMPDEST SWAP1 POP SWAP2 SWAP1 POP JUMP JUMPDEST PUSH0 PUSH2 0x634 DUP3 PUSH2 0x609 JUMP JUMPDEST SWAP1 POP SWAP2 SWAP1 POP JUMP JUMPDEST PUSH0 PUSH2 0x645 DUP3 PUSH2 0x62A JUMP JUMPDEST SWAP1 POP SWAP2 SWAP1 POP JUMP JUMPDEST PUSH2 0x655 DUP2 PUSH2 0x63B JUMP JUMPDEST DUP3 MSTORE POP POP JUMP JUMPDEST PUSH0 PUSH1 0x20 DUP3 ADD SWAP1 POP PUSH2 0x66E PUSH0 DUP4 ADD DUP5 PUSH2 0x64C JUMP JUMPDEST SWAP3 SWAP2 POP POP JUMP JUMPDEST PUSH0 DUP1 REVERT JUMPDEST PUSH0 DUP1 REVERT JUMPDEST PUSH0 PUSH1 0x1F NOT PUSH1 0x1F DUP4 ADD AND SWAP1 POP SWAP2 SWAP1 POP JUMP JUMPDEST PUSH32 0x4E487B7100000000000000000000000000000000000000000000000000000000 PUSH0 MSTORE PUSH1 0x41 PUSH1 0x4 MSTORE PUSH1 0x24 PUSH0 REVERT JUMPDEST PUSH2 0x6C2 DUP3 PUSH2 0x67C JUMP JUMPDEST DUP2 ADD DUP2 DUP2 LT PUSH8 0xFFFFFFFFFFFFFFFF DUP3 GT OR ISZERO PUSH2 0x6E1 JUMPI PUSH2 0x6E0 PUSH2 0x68C JUMP JUMPDEST JUMPDEST DUP1 PUSH1 0x40 MSTORE POP POP POP JUMP JUMPDEST PUSH0 PUSH2 0x6F3 PUSH2 0x572 JUMP JUMPDEST SWAP1 POP PUSH2 0x6FF DUP3 DUP3 PUSH2 0x6B9 JUMP JUMPDEST SWAP2 SWAP1 POP JUMP JUMPDEST PUSH0 PUSH8 0xFFFFFFFFFFFFFFFF DUP3 GT ISZERO PUSH2 0x71E JUMPI PUSH2 0x71D PUSH2 0x68C JUMP JUMPDEST JUMPDEST PUSH2 0x727 DUP3 PUSH2 0x67C JUMP JUMPDEST SWAP1 POP PUSH1 0x20 DUP2 ADD SWAP1 POP SWAP2 SWAP1 POP JUMP JUMPDEST DUP3 DUP2 DUP4 CALLDATACOPY PUSH0 DUP4 DUP4 ADD MSTORE POP POP POP JUMP JUMPDEST PUSH0 PUSH2 0x754 PUSH2 0x74F DUP5 PUSH2 0x704 JUMP JUMPDEST PUSH2 0x6EA JUMP JUMPDEST SWAP1 POP DUP3 DUP2 MSTORE PUSH1 0x20 DUP2 ADD DUP5 DUP5 DUP5 ADD GT ISZERO PUSH2 0x770 JUMPI PUSH2 0x76F PUSH2 0x678 JUMP JUMPDEST JUMPDEST PUSH2 0x77B DUP5 DUP3 DUP6 PUSH2 0x734 JUMP JUMPDEST POP SWAP4 SWAP3 POP POP POP JUMP JUMPDEST PUSH0 DUP3 PUSH1 0x1F DUP4 ADD SLT PUSH2 0x797 JUMPI PUSH2 0x796 PUSH2 0x674 JUMP JUMPDEST JUMPDEST DUP2 CALLDATALOAD PUSH2 0x7A7 DUP5 DUP3 PUSH1 0x20 DUP7 ADD PUSH2 0x742 JUMP JUMPDEST SWAP2 POP POP SWAP3 SWAP2 POP POP JUMP JUMPDEST PUSH0 DUP1 PUSH1 0x40 DUP4 DUP6 SUB SLT ISZERO PUSH2 0x7C6 JUMPI PUSH2 0x7C5 PUSH2 0x57B JUMP JUMPDEST JUMPDEST PUSH0 DUP4 ADD CALLDATALOAD PUSH8 0xFFFFFFFFFFFFFFFF DUP2 GT ISZERO PUSH2 0x7E3 JUMPI PUSH2 0x7E2 PUSH2 0x57F JUMP JUMPDEST JUMPDEST PUSH2 0x7EF DUP6 DUP3 DUP7 ADD PUSH2 0x783 JUMP JUMPDEST SWAP3 POP POP PUSH1 0x20 PUSH2 0x800 DUP6 DUP3 DUP7 ADD PUSH2 0x5A2 JUMP JUMPDEST SWAP2 POP POP SWAP3 POP SWAP3 SWAP1 POP JUMP JUMPDEST PUSH2 0x813 DUP2 PUSH2 0x583 JUMP JUMPDEST DUP3 MSTORE POP POP JUMP JUMPDEST PUSH0 DUP2 MLOAD SWAP1 POP SWAP2 SWAP1 POP JUMP JUMPDEST PUSH0 DUP3 DUP3 MSTORE PUSH1 0x20 DUP3 ADD SWAP1 POP SWAP3 SWAP2 POP POP JUMP JUMPDEST DUP3 DUP2 DUP4 MCOPY PUSH0 DUP4 DUP4 ADD MSTORE POP POP POP JUMP JUMPDEST PUSH0 PUSH2 0x84B DUP3 PUSH2 0x819 JUMP JUMPDEST PUSH2 0x855 DUP2 DUP6 PUSH2 0x823 JUMP JUMPDEST SWAP4 POP PUSH2 0x865 DUP2 DUP6 PUSH1 0x20 DUP7 ADD PUSH2 0x833 JUMP JUMPDEST PUSH2 0x86E DUP2 PUSH2 0x67C JUMP JUMPDEST DUP5 ADD SWAP2 POP POP SWAP3 SWAP2 POP POP JUMP JUMPDEST PUSH0 PUSH1 0x40 DUP3 ADD SWAP1 POP PUSH2 0x88C PUSH0 DUP4 ADD DUP6 PUSH2 0x80A JUMP JUMPDEST DUP2 DUP2 SUB PUSH1 0x20 DUP4 ADD MSTORE PUSH2 0x89E DUP2 DUP5 PUSH2 0x841 JUMP JUMPDEST SWAP1 POP SWAP4 SWAP3 POP POP POP JUMP JUMPDEST PUSH0 PUSH1 0x20 DUP3 ADD SWAP1 POP PUSH2 0x8BA PUSH0 DUP4 ADD DUP5 PUSH2 0x80A JUMP JUMPDEST SWAP3 SWAP2 POP POP JUMP JUMPDEST PUSH0 PUSH1 0x20 DUP3 DUP5 SUB SLT ISZERO PUSH2 0x8D5 JUMPI PUSH2 0x8D4 PUSH2 0x57B JUMP JUMPDEST JUMPDEST PUSH0 DUP3 ADD CALLDATALOAD PUSH8 0xFFFFFFFFFFFFFFFF DUP2 GT ISZERO PUSH2 0x8F2 JUMPI PUSH2 0x8F1 PUSH2 0x57F JUMP JUMPDEST JUMPDEST PUSH2 0x8FE DUP5 DUP3 DUP6 ADD PUSH2 0x783 JUMP JUMPDEST SWAP2 POP POP SWAP3 SWAP2 POP POP JUMP JUMPDEST PUSH0 DUP1 PUSH1 0x40 DUP4 DUP6 SUB SLT ISZERO PUSH2 0x91D JUMPI PUSH2 0x91C PUSH2 0x57B JUMP JUMPDEST JUMPDEST PUSH0 PUSH2 0x92A DUP6 DUP3 DUP7 ADD PUSH2 0x5A2 JUMP JUMPDEST SWAP3 POP POP PUSH1 0x20 PUSH2 0x93B DUP6 DUP3 DUP7 ADD PUSH2 0x5A2 JUMP JUMPDEST SWAP2 POP POP SWAP3 POP SWAP3 SWAP1 POP JUMP JUMPDEST PUSH32 0x4E487B7100000000000000000000000000000000000000000000000000000000 PUSH0 MSTORE PUSH1 0x22 PUSH1 0x4 MSTORE PUSH1 0x24 PUSH0 REVERT JUMPDEST PUSH0 PUSH1 0x2 DUP3 DIV SWAP1 POP PUSH1 0x1 DUP3 AND DUP1 PUSH2 0x989 JUMPI PUSH1 0x7F DUP3 AND SWAP2 POP JUMPDEST PUSH1 0x20 DUP3 LT DUP2 SUB PUSH2 0x99C JUMPI PUSH2 0x99B PUSH2 0x945 JUMP JUMPDEST JUMPDEST POP SWAP2 SWAP1 POP JUMP JUMPDEST PUSH0 DUP2 SWAP1 POP DUP2 PUSH0 MSTORE PUSH1 0x20 PUSH0 KECCAK256 SWAP1 POP SWAP2 SWAP1 POP JUMP JUMPDEST PUSH0 PUSH1 0x20 PUSH1 0x1F DUP4 ADD DIV SWAP1 POP SWAP2 SWAP1 POP JUMP JUMPDEST PUSH0 DUP3 DUP3 SHL SWAP1 POP SWAP3 SWAP2 POP POP JUMP JUMPDEST PUSH0 PUSH1 0x8 DUP4 MUL PUSH2 0x9FE PUSH32 0xFFFFFFFFFFFFFFFFFFFFFFFFFFFFFFFFFFFFFFFFFFFFFFFFFFFFFFFFFFFFFFFF DUP3 PUSH2 0x9C3 JUMP JUMPDEST PUSH2 0xA08 DUP7 DUP4 PUSH2 0x9C3 JUMP JUMPDEST SWAP6 POP DUP1 NOT DUP5 AND SWAP4 POP DUP1 DUP7 AND DUP5 OR SWAP3 POP POP POP SWAP4 SWAP3 POP POP POP JUMP JUMPDEST PUSH0 PUSH2 0xA3A PUSH2 0xA35 PUSH2 0xA30 DUP5 PUSH2 0x583 JUMP JUMPDEST PUSH2 0x600 JUMP JUMPDEST PUSH2 0x583 JUMP JUMPDEST SWAP1 POP SWAP2 SWAP1 POP JUMP JUMPDEST PUSH0 DUP2 SWAP1 POP SWAP2 SWAP1 POP JUMP JUMPDEST PUSH2 0xA53 DUP4 PUSH2 0xA20 JUMP JUMPDEST PUSH2 0xA67 PUSH2 0xA5F DUP3 PUSH2 0xA41 JUMP JUMPDEST DUP5 DUP5 SLOAD PUSH2 0x9CF JUMP JUMPDEST DUP3 SSTORE POP POP POP POP JUMP JUMPDEST PUSH0 SWAP1 JUMP JUMPDEST PUSH2 0xA7B PUSH2 0xA6F JUMP JUMPDEST PUSH2 0xA86 DUP2 DUP5 DUP5 PUSH2 0xA4A JUMP JUMPDEST POP POP POP JUMP JUMPDEST JUMPDEST DUP2 DUP2 LT ISZERO PUSH2 0xAA9 JUMPI PUSH2 0xA9E PUSH0 DUP3 PUSH2 0xA73 JUMP JUMPDEST PUSH1 0x1 DUP2 ADD SWAP1 POP PUSH2 0xA8C JUMP JUMPDEST POP POP JUMP JUMPDEST PUSH1 0x1F DUP3 GT ISZERO PUSH2 0xAEE JUMPI PUSH2 0xABF DUP2 PUSH2 0x9A2 JUMP JUMPDEST PUSH2 0xAC8 DUP5 PUSH2 0x9B4 JUMP JUMPDEST DUP2 ADD PUSH1 0x20 DUP6 LT ISZERO PUSH2 0xAD7 JUMPI DUP2 SWAP1 POP JUMPDEST PUSH2 0xAEB PUSH2 0xAE3 DUP6 PUSH2 0x9B4 JUMP JUMPDEST DUP4 ADD DUP3 PUSH2 0xA8B JUMP JUMPDEST POP POP JUMPDEST POP POP POP JUMP JUMPDEST PUSH0 DUP3 DUP3 SHR SWAP1 POP SWAP3 SWAP2 POP POP JUMP JUMPDEST PUSH0 PUSH2 0xB0E PUSH0 NOT DUP5 PUSH1 0x8 MUL PUSH2 0xAF3 JUMP JUMPDEST NOT DUP1 DUP4 AND SWAP2 POP POP SWAP3 SWAP2 POP POP JUMP JUMPDEST PUSH0 PUSH2 0xB26 DUP4 DUP4 PUSH2 0xAFF JUMP JUMPDEST SWAP2 POP DUP3 PUSH1 0x2 MUL DUP3 OR SWAP1 POP SWAP3 SWAP2 POP POP JUMP JUMPDEST PUSH2 0xB3F DUP3 PUSH2 0x819 JUMP JUMPDEST PUSH8 0xFFFFFFFFFFFFFFFF DUP2 GT ISZERO PUSH2 0xB58 JUMPI PUSH2 0xB57 PUSH2 0x68C JUMP JUMPDEST JUMPDEST PUSH2 0xB62 DUP3 SLOAD PUSH2 0x972 JUMP JUMPDEST PUSH2 0xB6D DUP3 DUP3 DUP6 PUSH2 0xAAD JUMP JUMPDEST PUSH0 PUSH1 0x20 SWAP1 POP PUSH1 0x1F DUP4 GT PUSH1 0x1 DUP2 EQ PUSH2 0xB9E JUMPI PUSH0 DUP5 ISZERO PUSH2 0xB8C JUMPI DUP3 DUP8 ADD MLOAD SWAP1 POP JUMPDEST PUSH2 0xB96 DUP6 DUP3 PUSH2 0xB1B JUMP JUMPDEST DUP7 SSTORE POP PUSH2 0xBFD JUMP JUMPDEST PUSH1 0x1F NOT DUP5 AND PUSH2 0xBAC DUP7 PUSH2 0x9A2 JUMP JUMPDEST PUSH0 JUMPDEST DUP3 DUP2 LT ISZERO PUSH2 0xBD3 JUMPI DUP5 DUP10 ADD MLOAD DUP3 SSTORE PUSH1 0x1 DUP3 ADD SWAP2 POP PUSH1 0x20 DUP6 ADD SWAP5 POP PUSH1 0x20 DUP2 ADD SWAP1 POP PUSH2 0xBAE JUMP JUMPDEST DUP7 DUP4 LT ISZERO PUSH2 0xBF0 JUMPI DUP5 DUP10 ADD MLOAD PUSH2 0xBEC PUSH1 0x1F DUP10 AND DUP3 PUSH2 0xAFF JUMP JUMPDEST DUP4 SSTORE POP JUMPDEST PUSH1 0x1 PUSH1 0x2 DUP9 MUL ADD DUP9 SSTORE POP POP POP JUMPDEST POP POP POP POP POP POP JUMP JUMPDEST PUSH0 DUP2 SWAP1 POP SWAP3 SWAP2 POP POP JUMP JUMPDEST PUSH0 PUSH2 0xC19 DUP3 PUSH2 0x819 JUMP JUMPDEST PUSH2 0xC23 DUP2 DUP6 PUSH2 0xC05 JUMP JUMPDEST SWAP4 POP PUSH2 0xC33 DUP2 DUP6 PUSH1 0x20 DUP7 ADD PUSH2 0x833 JUMP JUMPDEST DUP1 DUP5 ADD SWAP2 POP POP SWAP3 SWAP2 POP POP JUMP JUMPDEST PUSH0 PUSH2 0xC4A DUP3 DUP5 PUSH2 0xC0F JUMP JUMPDEST SWAP2 POP DUP2 SWAP1 POP SWAP3 SWAP2 POP POP JUMP JUMPDEST PUSH32 0x4E487B7100000000000000000000000000000000000000000000000000000000 PUSH0 MSTORE PUSH1 0x32 PUSH1 0x4 MSTORE PUSH1 0x24 PUSH0 REVERT JUMPDEST PUSH0 DUP2 MLOAD SWAP1 POP PUSH2 0xC90 DUP2 PUSH2 0x58C JUMP JUMPDEST SWAP3 SWAP2 POP POP JUMP JUMPDEST PUSH0 PUSH1 0x20 DUP3 DUP5 SUB SLT ISZERO PUSH2 0xCAB JUMPI PUSH2 0xCAA PUSH2 0x57B JUMP JUMPDEST JUMPDEST PUSH0 PUSH2 0xCB8 DUP5 DUP3 DUP6 ADD PUSH2 0xC82 JUMP JUMPDEST SWAP2 POP POP SWAP3 SWAP2 POP POP JUMP INVALID PUSH1 0x80 PUSH1 0x40 MSTORE CALLVALUE DUP1 ISZERO PUSH1 0xE JUMPI PUSH0 DUP1 REVERT JUMPDEST POP PUSH2 0x8D8 DUP1 PUSH2 0x1C PUSH0 CODECOPY PUSH0 RETURN INVALID PUSH1 0x80 PUSH1 0x40 MSTORE CALLVALUE DUP1 ISZERO PUSH2 0xF JUMPI PUSH0 DUP1 REVERT JUMPDEST POP PUSH1 0x4 CALLDATASIZE LT PUSH2 0x55 JUMPI PUSH0 CALLDATALOAD PUSH1 0xE0 SHR DUP1 PUSH4 0x6057361D EQ PUSH2 0x59 JUMPI DUP1 PUSH4 0x6F760F41 EQ PUSH2 0x75 JUMPI DUP1 PUSH4 0x9E7A13AD EQ PUSH2 0x91 JUMPI DUP1 PUSH4 0xB05784B8 EQ PUSH2 0xC2 JUMPI DUP1 PUSH4 0xB2AC62EF EQ PUSH2 0xE0 JUMPI JUMPDEST PUSH0 DUP1 REVERT JUMPDEST PUSH2 0x73 PUSH1 0x4 DUP1 CALLDATASIZE SUB DUP2 ADD SWAP1 PUSH2 0x6E SWAP2 SWAP1 PUSH2 0x2CB JUMP JUMPDEST PUSH2 0x110 JUMP JUMPDEST STOP JUMPDEST PUSH2 0x8F PUSH1 0x4 DUP1 CALLDATASIZE SUB DUP2 ADD SWAP1 PUSH2 0x8A SWAP2 SWAP1 PUSH2 0x432 JUMP JUMPDEST PUSH2 0x119 JUMP JUMPDEST STOP JUMPDEST PUSH2 0xAB PUSH1 0x4 DUP1 CALLDATASIZE SUB DUP2 ADD SWAP1 PUSH2 0xA6 SWAP2 SWAP1 PUSH2 0x2CB JUMP JUMPDEST PUSH2 0x19D JUMP JUMPDEST PUSH1 0x40 MLOAD PUSH2 0xB9 SWAP3 SWAP2 SWAP1 PUSH2 0x4FB JUMP JUMPDEST PUSH1 0x40 MLOAD DUP1 SWAP2 SUB SWAP1 RETURN JUMPDEST PUSH2 0xCA PUSH2 0x252 JUMP JUMPDEST PUSH1 0x40 MLOAD PUSH2 0xD7 SWAP2 SWAP1 PUSH2 0x529 JUMP JUMPDEST PUSH1 0x40 MLOAD DUP1 SWAP2 SUB SWAP1 RETURN JUMPDEST PUSH2 0xFA PUSH1 0x4 DUP1 CALLDATASIZE SUB DUP2 ADD SWAP1 PUSH2 0xF5 SWAP2 SWAP1 PUSH2 0x542 JUMP JUMPDEST PUSH2 0x25A JUMP JUMPDEST PUSH1 0x40 MLOAD PUSH2 0x107 SWAP2 SWAP1 PUSH2 0x529 JUMP JUMPDEST PUSH1 0x40 MLOAD DUP1 SWAP2 SUB SWAP1 RETURN JUMPDEST DUP1 PUSH0 DUP2 SWAP1 SSTORE POP POP JUMP JUMPDEST PUSH1 0x2 PUSH1 0x40 MLOAD DUP1 PUSH1 0x40 ADD PUSH1 0x40 MSTORE DUP1 DUP4 DUP2 MSTORE PUSH1 0x20 ADD DUP5 DUP2 MSTORE POP SWAP1 DUP1 PUSH1 0x1 DUP2 SLOAD ADD DUP1 DUP3 SSTORE DUP1 SWAP2 POP POP PUSH1 0x1 SWAP1 SUB SWAP1 PUSH0 MSTORE PUSH1 0x20 PUSH0 KECCAK256 SWAP1 PUSH1 0x2 MUL ADD PUSH0 SWAP1 SWAP2 SWAP1 SWAP2 SWAP1 SWAP2 POP PUSH0 DUP3 ADD MLOAD DUP2 PUSH0 ADD SSTORE PUSH1 0x20 DUP3 ADD MLOAD DUP2 PUSH1 0x1 ADD SWAP1 DUP2 PUSH2 0x173 SWAP2 SWAP1 PUSH2 0x783 JUMP JUMPDEST POP POP POP DUP1 PUSH1 0x3 DUP4 PUSH1 0x40 MLOAD PUSH2 0x187 SWAP2 SWAP1 PUSH2 0x88C JUMP JUMPDEST SWAP1 DUP2 MSTORE PUSH1 0x20 ADD PUSH1 0x40 MLOAD DUP1 SWAP2 SUB SWAP1 KECCAK256 DUP2 SWAP1 SSTORE POP POP POP JUMP JUMPDEST PUSH1 0x2 DUP2 DUP2 SLOAD DUP2 LT PUSH2 0x1AC JUMPI PUSH0 DUP1 REVERT JUMPDEST SWAP1 PUSH0 MSTORE PUSH1 0x20 PUSH0 KECCAK256 SWAP1 PUSH1 0x2 MUL ADD PUSH0 SWAP2 POP SWAP1 POP DUP1 PUSH0 ADD SLOAD SWAP1 DUP1 PUSH1 0x1 ADD DUP1 SLOAD PUSH2 0x1D1 SWAP1 PUSH2 0x5B6 JUMP JUMPDEST DUP1 PUSH1 0x1F ADD PUSH1 0x20 DUP1 SWAP2 DIV MUL PUSH1 0x20 ADD PUSH1 0x40 MLOAD SWAP1 DUP2 ADD PUSH1 0x40 MSTORE DUP1 SWAP3 SWAP2 SWAP1 DUP2 DUP2 MSTORE PUSH1 0x20 ADD DUP3 DUP1 SLOAD PUSH2 0x1FD SWAP1 PUSH2 0x5B6 JUMP JUMPDEST DUP1 ISZERO PUSH2 0x248 JUMPI DUP1 PUSH1 0x1F LT PUSH2 0x21F JUMPI PUSH2 0x100 DUP1 DUP4 SLOAD DIV MUL DUP4 MSTORE SWAP2 PUSH1 0x20 ADD SWAP2 PUSH2 0x248 JUMP JUMPDEST DUP3 ADD SWAP2 SWAP1 PUSH0 MSTORE PUSH1 0x20 PUSH0 KECCAK256 SWAP1 JUMPDEST DUP2 SLOAD DUP2 MSTORE SWAP1 PUSH1 0x1 ADD SWAP1 PUSH1 0x20 ADD DUP1 DUP4 GT PUSH2 0x22B JUMPI DUP3 SWAP1 SUB PUSH1 0x1F AND DUP3 ADD SWAP2 JUMPDEST POP POP POP POP POP SWAP1 POP DUP3 JUMP JUMPDEST PUSH0 DUP1 SLOAD SWAP1 POP SWAP1 JUMP JUMPDEST PUSH1 0x3 DUP2 DUP1 MLOAD PUSH1 0x20 DUP2 ADD DUP3 ADD DUP1 MLOAD DUP5 DUP3 MSTORE PUSH1 0x20 DUP4 ADD PUSH1 0x20 DUP6 ADD KECCAK256 DUP2 DUP4 MSTORE DUP1 SWAP6 POP POP POP POP POP POP PUSH0 SWAP2 POP SWAP1 POP SLOAD DUP2 JUMP JUMPDEST PUSH0 PUSH1 0x40 MLOAD SWAP1 POP SWAP1 JUMP JUMPDEST PUSH0 DUP1 REVERT JUMPDEST PUSH0 DUP1 REVERT JUMPDEST PUSH0 DUP2 SWAP1 POP SWAP2 SWAP1 POP JUMP JUMPDEST PUSH2 0x2AA DUP2 PUSH2 0x298 JUMP JUMPDEST DUP2 EQ PUSH2 0x2B4 JUMPI PUSH0 DUP1 REVERT JUMPDEST POP JUMP JUMPDEST PUSH0 DUP2 CALLDATALOAD SWAP1 POP PUSH2 0x2C5 DUP2 PUSH2 0x2A1 JUMP JUMPDEST SWAP3 SWAP2 POP POP JUMP JUMPDEST PUSH0 PUSH1 0x20 DUP3 DUP5 SUB SLT ISZERO PUSH2 0x2E0 JUMPI PUSH2 0x2DF PUSH2 0x290 JUMP JUMPDEST JUMPDEST PUSH0 PUSH2 0x2ED DUP5 DUP3 DUP6 ADD PUSH2 0x2B7 JUMP JUMPDEST SWAP2 POP POP SWAP3 SWAP2 POP POP JUMP JUMPDEST PUSH0 DUP1 REVERT JUMPDEST PUSH0 DUP1 REVERT JUMPDEST PUSH0 PUSH1 0x1F NOT PUSH1 0x1F DUP4 ADD AND SWAP1 POP SWAP2 SWAP1 POP JUMP JUMPDEST PUSH32 0x4E487B7100000000000000000000000000000000000000000000000000000000 PUSH0 MSTORE PUSH1 0x41 PUSH1 0x4 MSTORE PUSH1 0x24 PUSH0 REVERT JUMPDEST PUSH2 0x344 DUP3 PUSH2 0x2FE JUMP JUMPDEST DUP2 ADD DUP2 DUP2 LT PUSH8 0xFFFFFFFFFFFFFFFF DUP3 GT OR ISZERO PUSH2 0x363 JUMPI PUSH2 0x362 PUSH2 0x30E JUMP JUMPDEST JUMPDEST DUP1 PUSH1 0x40 MSTORE POP POP POP JUMP JUMPDEST PUSH0 PUSH2 0x375 PUSH2 0x287 JUMP JUMPDEST SWAP1 POP PUSH2 0x381 DUP3 DUP3 PUSH2 0x33B JUMP JUMPDEST SWAP2 SWAP1 POP JUMP JUMPDEST PUSH0 PUSH8 0xFFFFFFFFFFFFFFFF DUP3 GT ISZERO PUSH2 0x3A0 JUMPI PUSH2 0x39F PUSH2 0x30E JUMP JUMPDEST JUMPDEST PUSH2 0x3A9 DUP3 PUSH2 0x2FE JUMP JUMPDEST SWAP1 POP PUSH1 0x20 DUP2 ADD SWAP1 POP SWAP2 SWAP1 POP JUMP JUMPDEST DUP3 DUP2 DUP4 CALLDATACOPY PUSH0 DUP4 DUP4 ADD MSTORE POP POP POP JUMP JUMPDEST PUSH0 PUSH2 0x3D6 PUSH2 0x3D1 DUP5 PUSH2 0x386 JUMP JUMPDEST PUSH2 0x36C JUMP JUMPDEST SWAP1 POP DUP3 DUP2 MSTORE PUSH1 0x20 DUP2 ADD DUP5 DUP5 DUP5 ADD GT ISZERO PUSH2 0x3F2 JUMPI PUSH2 0x3F1 PUSH2 0x2FA JUMP JUMPDEST JUMPDEST PUSH2 0x3FD DUP5 DUP3 DUP6 PUSH2 0x3B6 JUMP JUMPDEST POP SWAP4 SWAP3 POP POP POP JUMP JUMPDEST PUSH0 DUP3 PUSH1 0x1F DUP4 ADD SLT PUSH2 0x419 JUMPI PUSH2 0x418 PUSH2 0x2F6 JUMP JUMPDEST JUMPDEST DUP2 CALLDATALOAD PUSH2 0x429 DUP5 DUP3 PUSH1 0x20 DUP7 ADD PUSH2 0x3C4 JUMP JUMPDEST SWAP2 POP POP SWAP3 SWAP2 POP POP JUMP JUMPDEST PUSH0 DUP1 PUSH1 0x40 DUP4 DUP6 SUB SLT ISZERO PUSH2 0x448 JUMPI PUSH2 0x447 PUSH2 0x290 JUMP JUMPDEST JUMPDEST PUSH0 DUP4 ADD CALLDATALOAD PUSH8 0xFFFFFFFFFFFFFFFF DUP2 GT ISZERO PUSH2 0x465 JUMPI PUSH2 0x464 PUSH2 0x294 JUMP JUMPDEST JUMPDEST PUSH2 0x471 DUP6 DUP3 DUP7 ADD PUSH2 0x405 JUMP JUMPDEST SWAP3 POP POP PUSH1 0x20 PUSH2 0x482 DUP6 DUP3 DUP7 ADD PUSH2 0x2B7 JUMP JUMPDEST SWAP2 POP POP SWAP3 POP SWAP3 SWAP1 POP JUMP JUMPDEST PUSH2 0x495 DUP2 PUSH2 0x298 JUMP JUMPDEST DUP3 MSTORE POP POP JUMP JUMPDEST PUSH0 DUP2 MLOAD SWAP1 POP SWAP2 SWAP1 POP JUMP JUMPDEST PUSH0 DUP3 DUP3 MSTORE PUSH1 0x20 DUP3 ADD SWAP1 POP SWAP3 SWAP2 POP POP JUMP JUMPDEST DUP3 DUP2 DUP4 MCOPY PUSH0 DUP4 DUP4 ADD MSTORE POP POP POP JUMP JUMPDEST PUSH0 PUSH2 0x4CD DUP3 PUSH2 0x49B JUMP JUMPDEST PUSH2 0x4D7 DUP2 DUP6 PUSH2 0x4A5 JUMP JUMPDEST SWAP4 POP PUSH2 0x4E7 DUP2 DUP6 PUSH1 0x20 DUP7 ADD PUSH2 0x4B5 JUMP JUMPDEST PUSH2 0x4F0 DUP2 PUSH2 0x2FE JUMP JUMPDEST DUP5 ADD SWAP2 POP POP SWAP3 SWAP2 POP POP JUMP JUMPDEST PUSH0 PUSH1 0x40 DUP3 ADD SWAP1 POP PUSH2 0x50E PUSH0 DUP4 ADD DUP6 PUSH2 0x48C JUMP JUMPDEST DUP2 DUP2 SUB PUSH1 0x20 DUP4 ADD MSTORE PUSH2 0x520 DUP2 DUP5 PUSH2 0x4C3 JUMP JUMPDEST SWAP1 POP SWAP4 SWAP3 POP POP POP JUMP JUMPDEST PUSH0 PUSH1 0x20 DUP3 ADD SWAP1 POP PUSH2 0x53C PUSH0 DUP4 ADD DUP5 PUSH2 0x48C JUMP JUMPDEST SWAP3 SWAP2 POP POP JUMP JUMPDEST PUSH0 PUSH1 0x20 DUP3 DUP5 SUB SLT ISZERO PUSH2 0x557 JUMPI PUSH2 0x556 PUSH2 0x290 JUMP JUMPDEST JUMPDEST PUSH0 DUP3 ADD CALLDATALOAD PUSH8 0xFFFFFFFFFFFFFFFF DUP2 GT ISZERO PUSH2 0x574 JUMPI PUSH2 0x573 PUSH2 0x294 JUMP JUMPDEST JUMPDEST PUSH2 0x580 DUP5 DUP3 DUP6 ADD PUSH2 0x405 JUMP JUMPDEST SWAP2 POP POP SWAP3 SWAP2 POP POP JUMP JUMPDEST PUSH32 0x4E487B7100000000000000000000000000000000000000000000000000000000 PUSH0 MSTORE PUSH1 0x22 PUSH1 0x4 MSTORE PUSH1 0x24 PUSH0 REVERT JUMPDEST PUSH0 PUSH1 0x2 DUP3 DIV SWAP1 POP PUSH1 0x1 DUP3 AND DUP1 PUSH2 0x5CD JUMPI PUSH1 0x7F DUP3 AND SWAP2 POP JUMPDEST PUSH1 0x20 DUP3 LT DUP2 SUB PUSH2 0x5E0 JUMPI PUSH2 0x5DF PUSH2 0x589 JUMP JUMPDEST JUMPDEST POP SWAP2 SWAP1 POP JUMP JUMPDEST PUSH0 DUP2 SWAP1 POP DUP2 PUSH0 MSTORE PUSH1 0x20 PUSH0 KECCAK256 SWAP1 POP SWAP2 SWAP1 POP JUMP JUMPDEST PUSH0 PUSH1 0x20 PUSH1 0x1F DUP4 ADD DIV SWAP1 POP SWAP2 SWAP1 POP JUMP JUMPDEST PUSH0 DUP3 DUP3 SHL SWAP1 POP SWAP3 SWAP2 POP POP JUMP JUMPDEST PUSH0 PUSH1 0x8 DUP4 MUL PUSH2 0x642 PUSH32 0xFFFFFFFFFFFFFFFFFFFFFFFFFFFFFFFFFFFFFFFFFFFFFFFFFFFFFFFFFFFFFFFF DUP3 PUSH2 0x607 JUMP JUMPDEST PUSH2 0x64C DUP7 DUP4 PUSH2 0x607 JUMP JUMPDEST SWAP6 POP DUP1 NOT DUP5 AND SWAP4 POP DUP1 DUP7 AND DUP5 OR SWAP3 POP POP POP SWAP4 SWAP3 POP POP POP JUMP JUMPDEST PUSH0 DUP2 SWAP1 POP SWAP2 SWAP1 POP JUMP JUMPDEST PUSH0 PUSH2 0x687 PUSH2 0x682 PUSH2 0x67D DUP5 PUSH2 0x298 JUMP JUMPDEST PUSH2 0x664 JUMP JUMPDEST PUSH2 0x298 JUMP JUMPDEST SWAP1 POP SWAP2 SWAP1 POP JUMP JUMPDEST PUSH0 DUP2 SWAP1 POP SWAP2 SWAP1 POP JUMP JUMPDEST PUSH2 0x6A0 DUP4 PUSH2 0x66D JUMP JUMPDEST PUSH2 0x6B4 PUSH2 0x6AC DUP3 PUSH2 0x68E JUMP JUMPDEST DUP5 DUP5 SLOAD PUSH2 0x613 JUMP JUMPDEST DUP3 SSTORE POP POP POP POP JUMP JUMPDEST PUSH0 SWAP1 JUMP JUMPDEST PUSH2 0x6C8 PUSH2 0x6BC JUMP JUMPDEST PUSH2 0x6D3 DUP2 DUP5 DUP5 PUSH2 0x697 JUMP JUMPDEST POP POP POP JUMP JUMPDEST JUMPDEST DUP2 DUP2 LT ISZERO PUSH2 0x6F6 JUMPI PUSH2 0x6EB PUSH0 DUP3 PUSH2 0x6C0 JUMP JUMPDEST PUSH1 0x1 DUP2 ADD SWAP1 POP PUSH2 0x6D9 JUMP JUMPDEST POP POP JUMP JUMPDEST PUSH1 0x1F DUP3 GT ISZERO PUSH2 0x73B JUMPI PUSH2 0x70C DUP2 PUSH2 0x5E6 JUMP JUMPDEST PUSH2 0x715 DUP5 PUSH2 0x5F8 JUMP JUMPDEST DUP2 ADD PUSH1 0x20 DUP6 LT ISZERO PUSH2 0x724 JUMPI DUP2 SWAP1 POP JUMPDEST PUSH2 0x738 PUSH2 0x730 DUP6 PUSH2 0x5F8 JUMP JUMPDEST DUP4 ADD DUP3 PUSH2 0x6D8 JUMP JUMPDEST POP POP JUMPDEST POP POP POP JUMP JUMPDEST PUSH0 DUP3 DUP3 SHR SWAP1 POP SWAP3 SWAP2 POP POP JUMP JUMPDEST PUSH0 PUSH2 0x75B PUSH0 NOT DUP5 PUSH1 0x8 MUL PUSH2 0x740 JUMP JUMPDEST NOT DUP1 DUP4 AND SWAP2 POP POP SWAP3 SWAP2 POP POP JUMP JUMPDEST PUSH0 PUSH2 0x773 DUP4 DUP4 PUSH2 0x74C JUMP JUMPDEST SWAP2 POP DUP3 PUSH1 0x2 MUL DUP3 OR SWAP1 POP SWAP3 SWAP2 POP POP JUMP JUMPDEST PUSH2 0x78C DUP3 PUSH2 0x49B JUMP JUMPDEST PUSH8 0xFFFFFFFFFFFFFFFF DUP2 GT ISZERO PUSH2 0x7A5 JUMPI PUSH2 0x7A4 PUSH2 0x30E JUMP JUMPDEST JUMPDEST PUSH2 0x7AF DUP3 SLOAD PUSH2 0x5B6 JUMP JUMPDEST PUSH2 0x7BA DUP3 DUP3 DUP6 PUSH2 0x6FA JUMP JUMPDEST PUSH0 PUSH1 0x20 SWAP1 POP PUSH1 0x1F DUP4 GT PUSH1 0x1 DUP2 EQ PUSH2 0x7EB JUMPI PUSH0 DUP5 ISZERO PUSH2 0x7D9 JUMPI DUP3 DUP8 ADD MLOAD SWAP1 POP JUMPDEST PUSH2 0x7E3 DUP6 DUP3 PUSH2 0x768 JUMP JUMPDEST DUP7 SSTORE POP PUSH2 0x84A JUMP JUMPDEST PUSH1 0x1F NOT DUP5 AND PUSH2 0x7F9 DUP7 PUSH2 0x5E6 JUMP JUMPDEST PUSH0 JUMPDEST DUP3 DUP2 LT ISZERO PUSH2 0x820 JUMPI DUP5 DUP10 ADD MLOAD DUP3 SSTORE PUSH1 0x1 DUP3 ADD SWAP2 POP PUSH1 0x20 DUP6 ADD SWAP5 POP PUSH1 0x20 DUP2 ADD SWAP1 POP PUSH2 0x7FB JUMP JUMPDEST DUP7 DUP4 LT ISZERO PUSH2 0x83D JUMPI DUP5 DUP10 ADD MLOAD PUSH2 0x839 PUSH1 0x1F DUP10 AND DUP3 PUSH2 0x74C JUMP JUMPDEST DUP4 SSTORE POP JUMPDEST PUSH1 0x1 PUSH1 0x2 DUP9 MUL ADD DUP9 SSTORE POP POP POP JUMPDEST POP POP POP POP POP POP JUMP JUMPDEST PUSH0 DUP2 SWAP1 POP SWAP3 SWAP2 POP POP JUMP JUMPDEST PUSH0 PUSH2 0x866 DUP3 PUSH2 0x49B JUMP JUMPDEST PUSH2 0x870 DUP2 DUP6 PUSH2 0x852 JUMP JUMPDEST SWAP4 POP PUSH2 0x880 DUP2 DUP6 PUSH1 0x20 DUP7 ADD PUSH2 0x4B5 JUMP JUMPDEST DUP1 DUP5 ADD SWAP2 POP POP SWAP3 SWAP2 POP POP JUMP JUMPDEST PUSH0 PUSH2 0x897 DUP3 DUP5 PUSH2 0x85C JUMP JUMPDEST SWAP2 POP DUP2 SWAP1 POP SWAP3 SWAP2 POP POP JUMP INVALID LOG2 PUSH5 0x6970667358 0x22 SLT KECCAK256 0xDE 0xB6 SIGNEXTEND DELEGATECALL SWAP10 0xC4 BALANCE PUSH20 0x3E12278FE3F46FB524576E587C278D81E1747086 PUSH30 0x19FF3764736F6C634300081A0033A264697066735822122062195688FFA1 0xDA 0xEF 0xB1 MCOPY LT 0xC3 INVALID MCOPY PUSH31 0x47813354160A9FC7A976401BDEFCBDECFC64736F6C634300081A0033000000 "
		},
		"gasEstimates": {
			"creation": {
				"codeDepositCost": "1122200",
				"executionCost": "1165",
				"totalCost": "1123365"
			},
			"external": {
				"addPerson(string,uint256)": "infinite",
				"createSimpleStorageContract()": "infinite",
				"nameToFavouriteNumber(string)": "infinite",
				"people(uint256)": "infinite",
				"retreive()": "2454",
				"sfGet(uint256)": "infinite",
				"sfstore(uint256,uint256)": "infinite",
				"simpleStorageArray(uint256)": "infinite",
				"store(uint256)": "22537"
			}
		},
		"methodIdentifiers": {
			"addPerson(string,uint256)": "6f760f41",
			"createSimpleStorageContract()": "1dda6541",
			"nameToFavouriteNumber(string)": "b2ac62ef",
			"people(uint256)": "9e7a13ad",
			"retreive()": "b05784b8",
			"sfGet(uint256)": "c5f19c20",
			"sfstore(uint256,uint256)": "caec2a5a",
			"simpleStorageArray(uint256)": "64591bf1",
			"store(uint256)": "6057361d"
		}
	},
	"abi": [
		{
			"inputs": [
				{
					"internalType": "string",
					"name": "_name",
					"type": "string"
				},
				{
					"internalType": "uint256",
					"name": "_favouriteNumber",
					"type": "uint256"
				}
			],
			"name": "addPerson",
			"outputs": [],
			"stateMutability": "nonpayable",
			"type": "function"
		},
		{
			"inputs": [],
			"name": "createSimpleStorageContract",
			"outputs": [],
			"stateMutability": "nonpayable",
			"type": "function"
		},
		{
			"inputs": [
				{
					"internalType": "string",
					"name": "",
					"type": "string"
				}
			],
			"name": "nameToFavouriteNumber",
			"outputs": [
				{
					"internalType": "uint256",
					"name": "",
					"type": "uint256"
				}
			],
			"stateMutability": "view",
			"type": "function"
		},
		{
			"inputs": [
				{
					"internalType": "uint256",
					"name": "",
					"type": "uint256"
				}
			],
			"name": "people",
			"outputs": [
				{
					"internalType": "uint256",
					"name": "favouriteNumber",
					"type": "uint256"
				},
				{
					"internalType": "string",
					"name": "name",
					"type": "string"
				}
			],
			"stateMutability": "view",
			"type": "function"
		},
		{
			"inputs": [],
			"name": "retreive",
			"outputs": [
				{
					"internalType": "uint256",
					"name": "",
					"type": "uint256"
				}
			],
			"stateMutability": "view",
			"type": "function"
		},
		{
			"inputs": [
				{
					"internalType": "uint256",
					"name": "_simpleStorageIndex",
					"type": "uint256"
				}
			],
			"name": "sfGet",
			"outputs": [
				{
					"internalType": "uint256",
					"name": "",
					"type": "uint256"
				}
			],
			"stateMutability": "view",
			"type": "function"
		},
		{
			"inputs": [
				{
					"internalType": "uint256",
					"name": "_simpleStorageIndex",
					"type": "uint256"
				},
				{
					"internalType": "uint256",
					"name": "_simpleStorageNumber",
					"type": "uint256"
				}
			],
			"name": "sfstore",
			"outputs": [],
			"stateMutability": "nonpayable",
			"type": "function"
		},
		{
			"inputs": [
				{
					"internalType": "uint256",
					"name": "",
					"type": "uint256"
				}
			],
			"name": "simpleStorageArray",
			"outputs": [
				{
					"internalType": "contract SimpleStorage",
					"name": "",
					"type": "address"
				}
			],
			"stateMutability": "view",
			"type": "function"
		},
		{
			"inputs": [
				{
					"internalType": "uint256",
					"name": "_favouriteNumber",
					"type": "uint256"
				}
			],
			"name": "store",
			"outputs": [],
			"stateMutability": "nonpayable",
			"type": "function"
		}
	]
}