{
	"Desktop/solidity/Lottery/Test.sol": {
		"Test": {
			"abi": [
				{
					"constant": true,
					"inputs": [],
					"name": "getMyArray",
					"outputs": [
						{
							"name": "",
							"type": "uint256[]"
						}
					],
					"payable": false,
					"stateMutability": "view",
					"type": "function"
				},
				{
					"constant": true,
					"inputs": [
						{
							"name": "",
							"type": "uint256"
						}
					],
					"name": "myArray2",
					"outputs": [
						{
							"name": "",
							"type": "string"
						}
					],
					"payable": false,
					"stateMutability": "view",
					"type": "function"
				},
				{
					"constant": true,
					"inputs": [],
					"name": "getFirstElement",
					"outputs": [
						{
							"name": "",
							"type": "uint256"
						}
					],
					"payable": false,
					"stateMutability": "view",
					"type": "function"
				},
				{
					"constant": true,
					"inputs": [
						{
							"name": "",
							"type": "uint256"
						}
					],
					"name": "myArray",
					"outputs": [
						{
							"name": "",
							"type": "uint256"
						}
					],
					"payable": false,
					"stateMutability": "view",
					"type": "function"
				},
				{
					"constant": true,
					"inputs": [],
					"name": "getArraylength",
					"outputs": [
						{
							"name": "",
							"type": "uint256"
						}
					],
					"payable": false,
					"stateMutability": "view",
					"type": "function"
				},
				{
					"inputs": [],
					"payable": false,
					"stateMutability": "nonpayable",
					"type": "constructor"
				}
			],
			"devdoc": {
				"methods": {}
			},
			"evm": {
				"assembly": "    /* \"Desktop/solidity/Lottery/Test.sol\":28:542  contract Test{\r... */\n  mstore(0x40, 0x80)\n    /* \"Desktop/solidity/Lottery/Test.sol\":111:248  function Test() public{\r... */\n  callvalue\n    /* \"--CODEGEN--\":8:17   */\n  dup1\n    /* \"--CODEGEN--\":5:7   */\n  iszero\n  tag_1\n  jumpi\n    /* \"--CODEGEN--\":30:31   */\n  0x0\n    /* \"--CODEGEN--\":27:28   */\n  dup1\n    /* \"--CODEGEN--\":20:32   */\n  revert\n    /* \"--CODEGEN--\":5:7   */\ntag_1:\n    /* \"Desktop/solidity/Lottery/Test.sol\":111:248  function Test() public{\r... */\n  pop\n    /* \"Desktop/solidity/Lottery/Test.sol\":154:161  myArray */\n  0x0\n    /* \"Desktop/solidity/Lottery/Test.sol\":167:168  1 */\n  0x1\n    /* \"Desktop/solidity/Lottery/Test.sol\":154:169  myArray.push(1) */\n  swap1\n  dup1\n    /* \"--CODEGEN--\":39:40   */\n  0x1\n    /* \"--CODEGEN--\":33:36   */\n  dup2\n    /* \"--CODEGEN--\":27:37   */\n  sload\n    /* \"--CODEGEN--\":23:41   */\n  add\n    /* \"--CODEGEN--\":57:67   */\n  dup1\n    /* \"--CODEGEN--\":52:55   */\n  dup3\n    /* \"--CODEGEN--\":45:68   */\n  sstore\n    /* \"--CODEGEN--\":79:89   */\n  dup1\n    /* \"--CODEGEN--\":72:89   */\n  swap2\n  pop\n    /* \"--CODEGEN--\":0:93   */\n  pop\n    /* \"Desktop/solidity/Lottery/Test.sol\":154:169  myArray.push(1) */\n  swap1\n  0x1\n  dup3\n  sub\n  swap1\n  0x0\n  mstore\n  keccak256(0x0, 0x20)\n  add\n  0x0\n  swap1\n  swap2\n  swap3\n  swap1\n  swap2\n  swap1\n  swap2\n  pop\n  sstore\n  pop\n    /* \"Desktop/solidity/Lottery/Test.sol\":182:189  myArray */\n  0x0\n    /* \"Desktop/solidity/Lottery/Test.sol\":195:197  10 */\n  0xa\n    /* \"Desktop/solidity/Lottery/Test.sol\":182:198  myArray.push(10) */\n  swap1\n  dup1\n    /* \"--CODEGEN--\":39:40   */\n  0x1\n    /* \"--CODEGEN--\":33:36   */\n  dup2\n    /* \"--CODEGEN--\":27:37   */\n  sload\n    /* \"--CODEGEN--\":23:41   */\n  add\n    /* \"--CODEGEN--\":57:67   */\n  dup1\n    /* \"--CODEGEN--\":52:55   */\n  dup3\n    /* \"--CODEGEN--\":45:68   */\n  sstore\n    /* \"--CODEGEN--\":79:89   */\n  dup1\n    /* \"--CODEGEN--\":72:89   */\n  swap2\n  pop\n    /* \"--CODEGEN--\":0:93   */\n  pop\n    /* \"Desktop/solidity/Lottery/Test.sol\":182:198  myArray.push(10) */\n  swap1\n  0x1\n  dup3\n  sub\n  swap1\n  0x0\n  mstore\n  keccak256(0x0, 0x20)\n  add\n  0x0\n  swap1\n  swap2\n  swap3\n  swap1\n  swap2\n  swap1\n  swap2\n  pop\n  sstore\n  pop\n    /* \"Desktop/solidity/Lottery/Test.sol\":219:226  myArray */\n  0x0\n    /* \"Desktop/solidity/Lottery/Test.sol\":232:234  30 */\n  0x1e\n    /* \"Desktop/solidity/Lottery/Test.sol\":219:235  myArray.push(30) */\n  swap1\n  dup1\n    /* \"--CODEGEN--\":39:40   */\n  0x1\n    /* \"--CODEGEN--\":33:36   */\n  dup2\n    /* \"--CODEGEN--\":27:37   */\n  sload\n    /* \"--CODEGEN--\":23:41   */\n  add\n    /* \"--CODEGEN--\":57:67   */\n  dup1\n    /* \"--CODEGEN--\":52:55   */\n  dup3\n    /* \"--CODEGEN--\":45:68   */\n  sstore\n    /* \"--CODEGEN--\":79:89   */\n  dup1\n    /* \"--CODEGEN--\":72:89   */\n  swap2\n  pop\n    /* \"--CODEGEN--\":0:93   */\n  pop\n    /* \"Desktop/solidity/Lottery/Test.sol\":219:235  myArray.push(30) */\n  swap1\n  0x1\n  dup3\n  sub\n  swap1\n  0x0\n  mstore\n  keccak256(0x0, 0x20)\n  add\n  0x0\n  swap1\n  swap2\n  swap3\n  swap1\n  swap2\n  swap1\n  swap2\n  pop\n  sstore\n  pop\n    /* \"Desktop/solidity/Lottery/Test.sol\":28:542  contract Test{\r... */\n  dataSize(sub_0)\n  dup1\n  dataOffset(sub_0)\n  0x0\n  codecopy\n  0x0\n  return\nstop\n\nsub_0: assembly {\n        /* \"Desktop/solidity/Lottery/Test.sol\":28:542  contract Test{\r... */\n      mstore(0x40, 0x80)\n      jumpi(tag_1, lt(calldatasize, 0x4))\n      calldataload(0x0)\n      0x100000000000000000000000000000000000000000000000000000000\n      swap1\n      div\n      0xffffffff\n      and\n      dup1\n      0x4e43600e\n      eq\n      tag_2\n      jumpi\n      dup1\n      0x8c11818a\n      eq\n      tag_3\n      jumpi\n      dup1\n      0xae5c24bd\n      eq\n      tag_4\n      jumpi\n      dup1\n      0xcc3e57d9\n      eq\n      tag_5\n      jumpi\n      dup1\n      0xf01b02c4\n      eq\n      tag_6\n      jumpi\n    tag_1:\n      0x0\n      dup1\n      revert\n        /* \"Desktop/solidity/Lottery/Test.sol\":256:338  function getMyArray() public view returns(uint[]){\r... */\n    tag_2:\n      callvalue\n        /* \"--CODEGEN--\":8:17   */\n      dup1\n        /* \"--CODEGEN--\":5:7   */\n      iszero\n      tag_7\n      jumpi\n        /* \"--CODEGEN--\":30:31   */\n      0x0\n        /* \"--CODEGEN--\":27:28   */\n      dup1\n        /* \"--CODEGEN--\":20:32   */\n      revert\n        /* \"--CODEGEN--\":5:7   */\n    tag_7:\n        /* \"Desktop/solidity/Lottery/Test.sol\":256:338  function getMyArray() public view returns(uint[]){\r... */\n      pop\n      tag_8\n      jump(tag_9)\n    tag_8:\n      mload(0x40)\n      dup1\n      dup1\n      0x20\n      add\n      dup3\n      dup2\n      sub\n      dup3\n      mstore\n      dup4\n      dup2\n      dup2\n      mload\n      dup2\n      mstore\n      0x20\n      add\n      swap2\n      pop\n      dup1\n      mload\n      swap1\n      0x20\n      add\n      swap1\n      0x20\n      mul\n      dup1\n      dup4\n      dup4\n        /* \"--CODEGEN--\":23:24   */\n      0x0\n        /* \"--CODEGEN--\":8:108   */\n    tag_10:\n        /* \"--CODEGEN--\":33:36   */\n      dup4\n        /* \"--CODEGEN--\":30:31   */\n      dup2\n        /* \"--CODEGEN--\":27:37   */\n      lt\n        /* \"--CODEGEN--\":8:108   */\n      iszero\n      tag_11\n      jumpi\n        /* \"--CODEGEN--\":99:100   */\n      dup1\n        /* \"--CODEGEN--\":94:97   */\n      dup3\n        /* \"--CODEGEN--\":90:101   */\n      add\n        /* \"--CODEGEN--\":84:102   */\n      mload\n        /* \"--CODEGEN--\":80:81   */\n      dup2\n        /* \"--CODEGEN--\":75:78   */\n      dup5\n        /* \"--CODEGEN--\":71:82   */\n      add\n        /* \"--CODEGEN--\":64:103   */\n      mstore\n        /* \"--CODEGEN--\":52:54   */\n      0x20\n        /* \"--CODEGEN--\":49:50   */\n      dup2\n        /* \"--CODEGEN--\":45:55   */\n      add\n        /* \"--CODEGEN--\":40:55   */\n      swap1\n      pop\n        /* \"--CODEGEN--\":8:108   */\n      jump(tag_10)\n    tag_11:\n        /* \"--CODEGEN--\":12:26   */\n      pop\n        /* \"Desktop/solidity/Lottery/Test.sol\":256:338  function getMyArray() public view returns(uint[]){\r... */\n      pop\n      pop\n      pop\n      swap1\n      pop\n      add\n      swap3\n      pop\n      pop\n      pop\n      mload(0x40)\n      dup1\n      swap2\n      sub\n      swap1\n      return\n        /* \"Desktop/solidity/Lottery/Test.sol\":78:102  string[] public myArray2 */\n    tag_3:\n      callvalue\n        /* \"--CODEGEN--\":8:17   */\n      dup1\n        /* \"--CODEGEN--\":5:7   */\n      iszero\n      tag_13\n      jumpi\n        /* \"--CODEGEN--\":30:31   */\n      0x0\n        /* \"--CODEGEN--\":27:28   */\n      dup1\n        /* \"--CODEGEN--\":20:32   */\n      revert\n        /* \"--CODEGEN--\":5:7   */\n    tag_13:\n        /* \"Desktop/solidity/Lottery/Test.sol\":78:102  string[] public myArray2 */\n      pop\n      tag_14\n      0x4\n      dup1\n      calldatasize\n      sub\n      dup2\n      add\n      swap1\n      dup1\n      dup1\n      calldataload\n      swap1\n      0x20\n      add\n      swap1\n      swap3\n      swap2\n      swap1\n      pop\n      pop\n      pop\n      jump(tag_15)\n    tag_14:\n      mload(0x40)\n      dup1\n      dup1\n      0x20\n      add\n      dup3\n      dup2\n      sub\n      dup3\n      mstore\n      dup4\n      dup2\n      dup2\n      mload\n      dup2\n      mstore\n      0x20\n      add\n      swap2\n      pop\n      dup1\n      mload\n      swap1\n      0x20\n      add\n      swap1\n      dup1\n      dup4\n      dup4\n        /* \"--CODEGEN--\":23:24   */\n      0x0\n        /* \"--CODEGEN--\":8:108   */\n    tag_16:\n        /* \"--CODEGEN--\":33:36   */\n      dup4\n        /* \"--CODEGEN--\":30:31   */\n      dup2\n        /* \"--CODEGEN--\":27:37   */\n      lt\n        /* \"--CODEGEN--\":8:108   */\n      iszero\n      tag_17\n      jumpi\n        /* \"--CODEGEN--\":99:100   */\n      dup1\n        /* \"--CODEGEN--\":94:97   */\n      dup3\n        /* \"--CODEGEN--\":90:101   */\n      add\n        /* \"--CODEGEN--\":84:102   */\n      mload\n        /* \"--CODEGEN--\":80:81   */\n      dup2\n        /* \"--CODEGEN--\":75:78   */\n      dup5\n        /* \"--CODEGEN--\":71:82   */\n      add\n        /* \"--CODEGEN--\":64:103   */\n      mstore\n        /* \"--CODEGEN--\":52:54   */\n      0x20\n        /* \"--CODEGEN--\":49:50   */\n      dup2\n        /* \"--CODEGEN--\":45:55   */\n      add\n        /* \"--CODEGEN--\":40:55   */\n      swap1\n      pop\n        /* \"--CODEGEN--\":8:108   */\n      jump(tag_16)\n    tag_17:\n        /* \"--CODEGEN--\":12:26   */\n      pop\n        /* \"Desktop/solidity/Lottery/Test.sol\":78:102  string[] public myArray2 */\n      pop\n      pop\n      pop\n      swap1\n      pop\n      swap1\n      dup2\n      add\n      swap1\n      0x1f\n      and\n      dup1\n      iszero\n      tag_19\n      jumpi\n      dup1\n      dup3\n      sub\n      dup1\n      mload\n      0x1\n      dup4\n      0x20\n      sub\n      0x100\n      exp\n      sub\n      not\n      and\n      dup2\n      mstore\n      0x20\n      add\n      swap2\n      pop\n    tag_19:\n      pop\n      swap3\n      pop\n      pop\n      pop\n      mload(0x40)\n      dup1\n      swap2\n      sub\n      swap1\n      return\n        /* \"Desktop/solidity/Lottery/Test.sol\":449:537  function getFirstElement() public view returns(uint){\r... */\n    tag_4:\n      callvalue\n        /* \"--CODEGEN--\":8:17   */\n      dup1\n        /* \"--CODEGEN--\":5:7   */\n      iszero\n      tag_20\n      jumpi\n        /* \"--CODEGEN--\":30:31   */\n      0x0\n        /* \"--CODEGEN--\":27:28   */\n      dup1\n        /* \"--CODEGEN--\":20:32   */\n      revert\n        /* \"--CODEGEN--\":5:7   */\n    tag_20:\n        /* \"Desktop/solidity/Lottery/Test.sol\":449:537  function getFirstElement() public view returns(uint){\r... */\n      pop\n      tag_21\n      jump(tag_22)\n    tag_21:\n      mload(0x40)\n      dup1\n      dup3\n      dup2\n      mstore\n      0x20\n      add\n      swap2\n      pop\n      pop\n      mload(0x40)\n      dup1\n      swap2\n      sub\n      swap1\n      return\n        /* \"Desktop/solidity/Lottery/Test.sol\":48:69  uint[] public myArray */\n    tag_5:\n      callvalue\n        /* \"--CODEGEN--\":8:17   */\n      dup1\n        /* \"--CODEGEN--\":5:7   */\n      iszero\n      tag_23\n      jumpi\n        /* \"--CODEGEN--\":30:31   */\n      0x0\n        /* \"--CODEGEN--\":27:28   */\n      dup1\n        /* \"--CODEGEN--\":20:32   */\n      revert\n        /* \"--CODEGEN--\":5:7   */\n    tag_23:\n        /* \"Desktop/solidity/Lottery/Test.sol\":48:69  uint[] public myArray */\n      pop\n      tag_24\n      0x4\n      dup1\n      calldatasize\n      sub\n      dup2\n      add\n      swap1\n      dup1\n      dup1\n      calldataload\n      swap1\n      0x20\n      add\n      swap1\n      swap3\n      swap2\n      swap1\n      pop\n      pop\n      pop\n      jump(tag_25)\n    tag_24:\n      mload(0x40)\n      dup1\n      dup3\n      dup2\n      mstore\n      0x20\n      add\n      swap2\n      pop\n      pop\n      mload(0x40)\n      dup1\n      swap2\n      sub\n      swap1\n      return\n        /* \"Desktop/solidity/Lottery/Test.sol\":350:441  function getArraylength() public view returns(uint){\r... */\n    tag_6:\n      callvalue\n        /* \"--CODEGEN--\":8:17   */\n      dup1\n        /* \"--CODEGEN--\":5:7   */\n      iszero\n      tag_26\n      jumpi\n        /* \"--CODEGEN--\":30:31   */\n      0x0\n        /* \"--CODEGEN--\":27:28   */\n      dup1\n        /* \"--CODEGEN--\":20:32   */\n      revert\n        /* \"--CODEGEN--\":5:7   */\n    tag_26:\n        /* \"Desktop/solidity/Lottery/Test.sol\":350:441  function getArraylength() public view returns(uint){\r... */\n      pop\n      tag_27\n      jump(tag_28)\n    tag_27:\n      mload(0x40)\n      dup1\n      dup3\n      dup2\n      mstore\n      0x20\n      add\n      swap2\n      pop\n      pop\n      mload(0x40)\n      dup1\n      swap2\n      sub\n      swap1\n      return\n        /* \"Desktop/solidity/Lottery/Test.sol\":256:338  function getMyArray() public view returns(uint[]){\r... */\n    tag_9:\n        /* \"Desktop/solidity/Lottery/Test.sol\":298:304  uint[] */\n      0x60\n        /* \"Desktop/solidity/Lottery/Test.sol\":323:330  myArray */\n      0x0\n        /* \"Desktop/solidity/Lottery/Test.sol\":316:330  return myArray */\n      dup1\n      sload\n      dup1\n      0x20\n      mul\n      0x20\n      add\n      mload(0x40)\n      swap1\n      dup2\n      add\n      0x40\n      mstore\n      dup1\n      swap3\n      swap2\n      swap1\n      dup2\n      dup2\n      mstore\n      0x20\n      add\n      dup3\n      dup1\n      sload\n      dup1\n      iszero\n      tag_30\n      jumpi\n      0x20\n      mul\n      dup3\n      add\n      swap2\n      swap1\n      0x0\n      mstore\n      keccak256(0x0, 0x20)\n      swap1\n    tag_31:\n      dup2\n      sload\n      dup2\n      mstore\n      0x20\n      add\n      swap1\n      0x1\n      add\n      swap1\n      dup1\n      dup4\n      gt\n      tag_31\n      jumpi\n    tag_30:\n      pop\n      pop\n      pop\n      pop\n      pop\n      swap1\n      pop\n        /* \"Desktop/solidity/Lottery/Test.sol\":256:338  function getMyArray() public view returns(uint[]){\r... */\n      swap1\n      jump\t// out\n        /* \"Desktop/solidity/Lottery/Test.sol\":78:102  string[] public myArray2 */\n    tag_15:\n      0x1\n      dup2\n      dup2\n      sload\n      dup2\n      lt\n      iszero\n      iszero\n      tag_32\n      jumpi\n      invalid\n    tag_32:\n      swap1\n      0x0\n      mstore\n      keccak256(0x0, 0x20)\n      add\n      0x0\n      swap2\n      pop\n      swap1\n      pop\n      dup1\n      sload\n      0x1\n      dup2\n      0x1\n      and\n      iszero\n      0x100\n      mul\n      sub\n      and\n      0x2\n      swap1\n      div\n      dup1\n      0x1f\n      add\n      0x20\n      dup1\n      swap2\n      div\n      mul\n      0x20\n      add\n      mload(0x40)\n      swap1\n      dup2\n      add\n      0x40\n      mstore\n      dup1\n      swap3\n      swap2\n      swap1\n      dup2\n      dup2\n      mstore\n      0x20\n      add\n      dup3\n      dup1\n      sload\n      0x1\n      dup2\n      0x1\n      and\n      iszero\n      0x100\n      mul\n      sub\n      and\n      0x2\n      swap1\n      div\n      dup1\n      iszero\n      tag_34\n      jumpi\n      dup1\n      0x1f\n      lt\n      tag_35\n      jumpi\n      0x100\n      dup1\n      dup4\n      sload\n      div\n      mul\n      dup4\n      mstore\n      swap2\n      0x20\n      add\n      swap2\n      jump(tag_34)\n    tag_35:\n      dup3\n      add\n      swap2\n      swap1\n      0x0\n      mstore\n      keccak256(0x0, 0x20)\n      swap1\n    tag_36:\n      dup2\n      sload\n      dup2\n      mstore\n      swap1\n      0x1\n      add\n      swap1\n      0x20\n      add\n      dup1\n      dup4\n      gt\n      tag_36\n      jumpi\n      dup3\n      swap1\n      sub\n      0x1f\n      and\n      dup3\n      add\n      swap2\n    tag_34:\n      pop\n      pop\n      pop\n      pop\n      pop\n      dup2\n      jump\t// out\n        /* \"Desktop/solidity/Lottery/Test.sol\":449:537  function getFirstElement() public view returns(uint){\r... */\n    tag_22:\n        /* \"Desktop/solidity/Lottery/Test.sol\":496:500  uint */\n      0x0\n        /* \"Desktop/solidity/Lottery/Test.sol\":519:526  myArray */\n      dup1\n        /* \"Desktop/solidity/Lottery/Test.sol\":527:528  0 */\n      0x0\n        /* \"Desktop/solidity/Lottery/Test.sol\":519:529  myArray[0] */\n      dup2\n      sload\n      dup2\n      lt\n      iszero\n      iszero\n      tag_38\n      jumpi\n      invalid\n    tag_38:\n      swap1\n      0x0\n      mstore\n      keccak256(0x0, 0x20)\n      add\n      sload\n        /* \"Desktop/solidity/Lottery/Test.sol\":512:529  return myArray[0] */\n      swap1\n      pop\n        /* \"Desktop/solidity/Lottery/Test.sol\":449:537  function getFirstElement() public view returns(uint){\r... */\n      swap1\n      jump\t// out\n        /* \"Desktop/solidity/Lottery/Test.sol\":48:69  uint[] public myArray */\n    tag_25:\n      0x0\n      dup2\n      dup2\n      sload\n      dup2\n      lt\n      iszero\n      iszero\n      tag_40\n      jumpi\n      invalid\n    tag_40:\n      swap1\n      0x0\n      mstore\n      keccak256(0x0, 0x20)\n      add\n      0x0\n      swap2\n      pop\n      swap1\n      pop\n      sload\n      dup2\n      jump\t// out\n        /* \"Desktop/solidity/Lottery/Test.sol\":350:441  function getArraylength() public view returns(uint){\r... */\n    tag_28:\n        /* \"Desktop/solidity/Lottery/Test.sol\":396:400  uint */\n      0x0\n        /* \"Desktop/solidity/Lottery/Test.sol\":419:426  myArray */\n      dup1\n        /* \"Desktop/solidity/Lottery/Test.sol\":419:433  myArray.length */\n      dup1\n      sload\n      swap1\n      pop\n        /* \"Desktop/solidity/Lottery/Test.sol\":412:433  return myArray.length */\n      swap1\n      pop\n        /* \"Desktop/solidity/Lottery/Test.sol\":350:441  function getArraylength() public view returns(uint){\r... */\n      swap1\n      jump\t// out\n\n    auxdata: 0xa165627a7a723058201ada8437756170498990a020881e80f1987c6fc4a154f7838989a379191778ad0029\n}\n",
				"bytecode": {
					"linkReferences": {},
					"object": "608060405234801561001057600080fd5b506000600190806001815401808255809150509060018203906000526020600020016000909192909190915055506000600a90806001815401808255809150509060018203906000526020600020016000909192909190915055506000601e90806001815401808255809150509060018203906000526020600020016000909192909190915055506103aa806100a76000396000f30060806040526004361061006d576000357c0100000000000000000000000000000000000000000000000000000000900463ffffffff1680634e43600e146100725780638c11818a146100de578063ae5c24bd14610184578063cc3e57d9146101af578063f01b02c4146101f0575b600080fd5b34801561007e57600080fd5b5061008761021b565b6040518080602001828103825283818151815260200191508051906020019060200280838360005b838110156100ca5780820151818401526020810190506100af565b505050509050019250505060405180910390f35b3480156100ea57600080fd5b5061010960048036038101908080359060200190929190505050610273565b6040518080602001828103825283818151815260200191508051906020019080838360005b8381101561014957808201518184015260208101905061012e565b50505050905090810190601f1680156101765780820380516001836020036101000a031916815260200191505b509250505060405180910390f35b34801561019057600080fd5b5061019961032e565b6040518082815260200191505060405180910390f35b3480156101bb57600080fd5b506101da6004803603810190808035906020019092919050505061034f565b6040518082815260200191505060405180910390f35b3480156101fc57600080fd5b50610205610372565b6040518082815260200191505060405180910390f35b6060600080548060200260200160405190810160405280929190818152602001828054801561026957602002820191906000526020600020905b815481526020019060010190808311610255575b5050505050905090565b60018181548110151561028257fe5b906000526020600020016000915090508054600181600116156101000203166002900480601f0160208091040260200160405190810160405280929190818152602001828054600181600116156101000203166002900480156103265780601f106102fb57610100808354040283529160200191610326565b820191906000526020600020905b81548152906001019060200180831161030957829003601f168201915b505050505081565b600080600081548110151561033f57fe5b9060005260206000200154905090565b60008181548110151561035e57fe5b906000526020600020016000915090505481565b600080805490509050905600a165627a7a723058201ada8437756170498990a020881e80f1987c6fc4a154f7838989a379191778ad0029",
					"opcodes": "PUSH1 0x80 PUSH1 0x40 MSTORE CALLVALUE DUP1 ISZERO PUSH2 0x10 JUMPI PUSH1 0x0 DUP1 REVERT JUMPDEST POP PUSH1 0x0 PUSH1 0x1 SWAP1 DUP1 PUSH1 0x1 DUP2 SLOAD ADD DUP1 DUP3 SSTORE DUP1 SWAP2 POP POP SWAP1 PUSH1 0x1 DUP3 SUB SWAP1 PUSH1 0x0 MSTORE PUSH1 0x20 PUSH1 0x0 KECCAK256 ADD PUSH1 0x0 SWAP1 SWAP2 SWAP3 SWAP1 SWAP2 SWAP1 SWAP2 POP SSTORE POP PUSH1 0x0 PUSH1 0xA SWAP1 DUP1 PUSH1 0x1 DUP2 SLOAD ADD DUP1 DUP3 SSTORE DUP1 SWAP2 POP POP SWAP1 PUSH1 0x1 DUP3 SUB SWAP1 PUSH1 0x0 MSTORE PUSH1 0x20 PUSH1 0x0 KECCAK256 ADD PUSH1 0x0 SWAP1 SWAP2 SWAP3 SWAP1 SWAP2 SWAP1 SWAP2 POP SSTORE POP PUSH1 0x0 PUSH1 0x1E SWAP1 DUP1 PUSH1 0x1 DUP2 SLOAD ADD DUP1 DUP3 SSTORE DUP1 SWAP2 POP POP SWAP1 PUSH1 0x1 DUP3 SUB SWAP1 PUSH1 0x0 MSTORE PUSH1 0x20 PUSH1 0x0 KECCAK256 ADD PUSH1 0x0 SWAP1 SWAP2 SWAP3 SWAP1 SWAP2 SWAP1 SWAP2 POP SSTORE POP PUSH2 0x3AA DUP1 PUSH2 0xA7 PUSH1 0x0 CODECOPY PUSH1 0x0 RETURN STOP PUSH1 0x80 PUSH1 0x40 MSTORE PUSH1 0x4 CALLDATASIZE LT PUSH2 0x6D JUMPI PUSH1 0x0 CALLDATALOAD PUSH29 0x100000000000000000000000000000000000000000000000000000000 SWAP1 DIV PUSH4 0xFFFFFFFF AND DUP1 PUSH4 0x4E43600E EQ PUSH2 0x72 JUMPI DUP1 PUSH4 0x8C11818A EQ PUSH2 0xDE JUMPI DUP1 PUSH4 0xAE5C24BD EQ PUSH2 0x184 JUMPI DUP1 PUSH4 0xCC3E57D9 EQ PUSH2 0x1AF JUMPI DUP1 PUSH4 0xF01B02C4 EQ PUSH2 0x1F0 JUMPI JUMPDEST PUSH1 0x0 DUP1 REVERT JUMPDEST CALLVALUE DUP1 ISZERO PUSH2 0x7E JUMPI PUSH1 0x0 DUP1 REVERT JUMPDEST POP PUSH2 0x87 PUSH2 0x21B JUMP JUMPDEST PUSH1 0x40 MLOAD DUP1 DUP1 PUSH1 0x20 ADD DUP3 DUP2 SUB DUP3 MSTORE DUP4 DUP2 DUP2 MLOAD DUP2 MSTORE PUSH1 0x20 ADD SWAP2 POP DUP1 MLOAD SWAP1 PUSH1 0x20 ADD SWAP1 PUSH1 0x20 MUL DUP1 DUP4 DUP4 PUSH1 0x0 JUMPDEST DUP4 DUP2 LT ISZERO PUSH2 0xCA JUMPI DUP1 DUP3 ADD MLOAD DUP2 DUP5 ADD MSTORE PUSH1 0x20 DUP2 ADD SWAP1 POP PUSH2 0xAF JUMP JUMPDEST POP POP POP POP SWAP1 POP ADD SWAP3 POP POP POP PUSH1 0x40 MLOAD DUP1 SWAP2 SUB SWAP1 RETURN JUMPDEST CALLVALUE DUP1 ISZERO PUSH2 0xEA JUMPI PUSH1 0x0 DUP1 REVERT JUMPDEST POP PUSH2 0x109 PUSH1 0x4 DUP1 CALLDATASIZE SUB DUP2 ADD SWAP1 DUP1 DUP1 CALLDATALOAD SWAP1 PUSH1 0x20 ADD SWAP1 SWAP3 SWAP2 SWAP1 POP POP POP PUSH2 0x273 JUMP JUMPDEST PUSH1 0x40 MLOAD DUP1 DUP1 PUSH1 0x20 ADD DUP3 DUP2 SUB DUP3 MSTORE DUP4 DUP2 DUP2 MLOAD DUP2 MSTORE PUSH1 0x20 ADD SWAP2 POP DUP1 MLOAD SWAP1 PUSH1 0x20 ADD SWAP1 DUP1 DUP4 DUP4 PUSH1 0x0 JUMPDEST DUP4 DUP2 LT ISZERO PUSH2 0x149 JUMPI DUP1 DUP3 ADD MLOAD DUP2 DUP5 ADD MSTORE PUSH1 0x20 DUP2 ADD SWAP1 POP PUSH2 0x12E JUMP JUMPDEST POP POP POP POP SWAP1 POP SWAP1 DUP2 ADD SWAP1 PUSH1 0x1F AND DUP1 ISZERO PUSH2 0x176 JUMPI DUP1 DUP3 SUB DUP1 MLOAD PUSH1 0x1 DUP4 PUSH1 0x20 SUB PUSH2 0x100 EXP SUB NOT AND DUP2 MSTORE PUSH1 0x20 ADD SWAP2 POP JUMPDEST POP SWAP3 POP POP POP PUSH1 0x40 MLOAD DUP1 SWAP2 SUB SWAP1 RETURN JUMPDEST CALLVALUE DUP1 ISZERO PUSH2 0x190 JUMPI PUSH1 0x0 DUP1 REVERT JUMPDEST POP PUSH2 0x199 PUSH2 0x32E JUMP JUMPDEST PUSH1 0x40 MLOAD DUP1 DUP3 DUP2 MSTORE PUSH1 0x20 ADD SWAP2 POP POP PUSH1 0x40 MLOAD DUP1 SWAP2 SUB SWAP1 RETURN JUMPDEST CALLVALUE DUP1 ISZERO PUSH2 0x1BB JUMPI PUSH1 0x0 DUP1 REVERT JUMPDEST POP PUSH2 0x1DA PUSH1 0x4 DUP1 CALLDATASIZE SUB DUP2 ADD SWAP1 DUP1 DUP1 CALLDATALOAD SWAP1 PUSH1 0x20 ADD SWAP1 SWAP3 SWAP2 SWAP1 POP POP POP PUSH2 0x34F JUMP JUMPDEST PUSH1 0x40 MLOAD DUP1 DUP3 DUP2 MSTORE PUSH1 0x20 ADD SWAP2 POP POP PUSH1 0x40 MLOAD DUP1 SWAP2 SUB SWAP1 RETURN JUMPDEST CALLVALUE DUP1 ISZERO PUSH2 0x1FC JUMPI PUSH1 0x0 DUP1 REVERT JUMPDEST POP PUSH2 0x205 PUSH2 0x372 JUMP JUMPDEST PUSH1 0x40 MLOAD DUP1 DUP3 DUP2 MSTORE PUSH1 0x20 ADD SWAP2 POP POP PUSH1 0x40 MLOAD DUP1 SWAP2 SUB SWAP1 RETURN JUMPDEST PUSH1 0x60 PUSH1 0x0 DUP1 SLOAD DUP1 PUSH1 0x20 MUL PUSH1 0x20 ADD PUSH1 0x40 MLOAD SWAP1 DUP2 ADD PUSH1 0x40 MSTORE DUP1 SWAP3 SWAP2 SWAP1 DUP2 DUP2 MSTORE PUSH1 0x20 ADD DUP3 DUP1 SLOAD DUP1 ISZERO PUSH2 0x269 JUMPI PUSH1 0x20 MUL DUP3 ADD SWAP2 SWAP1 PUSH1 0x0 MSTORE PUSH1 0x20 PUSH1 0x0 KECCAK256 SWAP1 JUMPDEST DUP2 SLOAD DUP2 MSTORE PUSH1 0x20 ADD SWAP1 PUSH1 0x1 ADD SWAP1 DUP1 DUP4 GT PUSH2 0x255 JUMPI JUMPDEST POP POP POP POP POP SWAP1 POP SWAP1 JUMP JUMPDEST PUSH1 0x1 DUP2 DUP2 SLOAD DUP2 LT ISZERO ISZERO PUSH2 0x282 JUMPI INVALID JUMPDEST SWAP1 PUSH1 0x0 MSTORE PUSH1 0x20 PUSH1 0x0 KECCAK256 ADD PUSH1 0x0 SWAP2 POP SWAP1 POP DUP1 SLOAD PUSH1 0x1 DUP2 PUSH1 0x1 AND ISZERO PUSH2 0x100 MUL SUB AND PUSH1 0x2 SWAP1 DIV DUP1 PUSH1 0x1F ADD PUSH1 0x20 DUP1 SWAP2 DIV MUL PUSH1 0x20 ADD PUSH1 0x40 MLOAD SWAP1 DUP2 ADD PUSH1 0x40 MSTORE DUP1 SWAP3 SWAP2 SWAP1 DUP2 DUP2 MSTORE PUSH1 0x20 ADD DUP3 DUP1 SLOAD PUSH1 0x1 DUP2 PUSH1 0x1 AND ISZERO PUSH2 0x100 MUL SUB AND PUSH1 0x2 SWAP1 DIV DUP1 ISZERO PUSH2 0x326 JUMPI DUP1 PUSH1 0x1F LT PUSH2 0x2FB JUMPI PUSH2 0x100 DUP1 DUP4 SLOAD DIV MUL DUP4 MSTORE SWAP2 PUSH1 0x20 ADD SWAP2 PUSH2 0x326 JUMP JUMPDEST DUP3 ADD SWAP2 SWAP1 PUSH1 0x0 MSTORE PUSH1 0x20 PUSH1 0x0 KECCAK256 SWAP1 JUMPDEST DUP2 SLOAD DUP2 MSTORE SWAP1 PUSH1 0x1 ADD SWAP1 PUSH1 0x20 ADD DUP1 DUP4 GT PUSH2 0x309 JUMPI DUP3 SWAP1 SUB PUSH1 0x1F AND DUP3 ADD SWAP2 JUMPDEST POP POP POP POP POP DUP2 JUMP JUMPDEST PUSH1 0x0 DUP1 PUSH1 0x0 DUP2 SLOAD DUP2 LT ISZERO ISZERO PUSH2 0x33F JUMPI INVALID JUMPDEST SWAP1 PUSH1 0x0 MSTORE PUSH1 0x20 PUSH1 0x0 KECCAK256 ADD SLOAD SWAP1 POP SWAP1 JUMP JUMPDEST PUSH1 0x0 DUP2 DUP2 SLOAD DUP2 LT ISZERO ISZERO PUSH2 0x35E JUMPI INVALID JUMPDEST SWAP1 PUSH1 0x0 MSTORE PUSH1 0x20 PUSH1 0x0 KECCAK256 ADD PUSH1 0x0 SWAP2 POP SWAP1 POP SLOAD DUP2 JUMP JUMPDEST PUSH1 0x0 DUP1 DUP1 SLOAD SWAP1 POP SWAP1 POP SWAP1 JUMP STOP LOG1 PUSH6 0x627A7A723058 KECCAK256 BYTE 0xda DUP5 CALLDATACOPY PUSH22 0x6170498990A020881E80F1987C6FC4A154F7838989A3 PUSH26 0x191778AD00290000000000000000000000000000000000000000 "
				},
				"gasEstimates": {
					"creation": {
						"codeDepositCost": "187600",
						"executionCost": "121225",
						"totalCost": "308825"
					},
					"external": {
						"getArraylength()": "498",
						"getFirstElement()": "732",
						"getMyArray()": "infinite",
						"myArray(uint256)": "815",
						"myArray2(uint256)": "infinite"
					}
				},
				"methodIdentifiers": {
					"getArraylength()": "f01b02c4",
					"getFirstElement()": "ae5c24bd",
					"getMyArray()": "4e43600e",
					"myArray(uint256)": "cc3e57d9",
					"myArray2(uint256)": "8c11818a"
				}
			},
			"userdoc": {
				"methods": {}
			}
		}
	}
}